{
	"smart-contract/LinkPay.sol": {
		"LinkPay": {
			"abi": [
				{
					"inputs": [],
					"stateMutability": "nonpayable",
					"type": "constructor"
				},
				{
					"anonymous": false,
					"inputs": [
						{
							"indexed": true,
							"internalType": "string",
							"name": "linkId",
							"type": "string"
						},
						{
							"indexed": true,
							"internalType": "address",
							"name": "user",
							"type": "address"
						},
						{
							"indexed": false,
							"internalType": "uint256",
							"name": "amount",
							"type": "uint256"
						}
					],
					"name": "LinkAccessPaid",
					"type": "event"
				},
				{
					"anonymous": false,
					"inputs": [
						{
							"indexed": true,
							"internalType": "string",
							"name": "linkId",
							"type": "string"
						},
						{
							"indexed": true,
							"internalType": "address",
							"name": "owner",
							"type": "address"
						},
						{
							"indexed": false,
							"internalType": "uint256",
							"name": "fee",
							"type": "uint256"
						}
					],
					"name": "LinkAdded",
					"type": "event"
				},
				{
					"inputs": [
						{
							"internalType": "string",
							"name": "url",
							"type": "string"
						},
						{
							"internalType": "string",
							"name": "linkId",
							"type": "string"
						},
						{
							"internalType": "uint256",
							"name": "fee",
							"type": "uint256"
						}
					],
					"name": "addLink",
					"outputs": [],
					"stateMutability": "nonpayable",
					"type": "function"
				},
				{
					"inputs": [],
					"name": "commission",
					"outputs": [
						{
							"internalType": "uint256",
							"name": "",
							"type": "uint256"
						}
					],
					"stateMutability": "view",
					"type": "function"
				},
				{
					"inputs": [
						{
							"internalType": "string",
							"name": "linkId",
							"type": "string"
						}
					],
					"name": "getLink",
					"outputs": [
						{
							"internalType": "string",
							"name": "url",
							"type": "string"
						},
						{
							"internalType": "address",
							"name": "owner",
							"type": "address"
						},
						{
							"internalType": "uint256",
							"name": "fee",
							"type": "uint256"
						}
					],
					"stateMutability": "view",
					"type": "function"
				},
				{
					"inputs": [
						{
							"internalType": "string",
							"name": "",
							"type": "string"
						},
						{
							"internalType": "address",
							"name": "",
							"type": "address"
						}
					],
					"name": "hasAccess",
					"outputs": [
						{
							"internalType": "bool",
							"name": "",
							"type": "bool"
						}
					],
					"stateMutability": "view",
					"type": "function"
				},
				{
					"inputs": [
						{
							"internalType": "string",
							"name": "linkId",
							"type": "string"
						}
					],
					"name": "payLink",
					"outputs": [],
					"stateMutability": "payable",
					"type": "function"
				},
				{
					"inputs": [],
					"name": "platformOwner",
					"outputs": [
						{
							"internalType": "address",
							"name": "",
							"type": "address"
						}
					],
					"stateMutability": "view",
					"type": "function"
				},
				{
					"inputs": [
						{
							"internalType": "uint256",
							"name": "newCommission",
							"type": "uint256"
						}
					],
					"name": "setCommission",
					"outputs": [],
					"stateMutability": "nonpayable",
					"type": "function"
				}
			],
			"devdoc": {
				"kind": "dev",
				"methods": {},
				"version": 1
			},
			"evm": {
				"assembly": "    /* \"smart-contract/LinkPay.sol\":58:2673  contract LinkPay {... */\n  mstore(0x40, 0xa0)\n    /* \"smart-contract/LinkPay.sol\":198:203  1 wei */\n  0x01\n    /* \"smart-contract/LinkPay.sol\":170:203  uint256 public commission = 1 wei */\n  0x00\n  sstore\n    /* \"smart-contract/LinkPay.sol\":673:730  constructor() {... */\n  callvalue\n  dup1\n  iszero\n  tag_1\n  jumpi\n  revert(0x00, 0x00)\ntag_1:\n  pop\n    /* \"smart-contract/LinkPay.sol\":713:723  msg.sender */\n  caller\n    /* \"smart-contract/LinkPay.sol\":697:723  platformOwner = msg.sender */\n  0xffffffffffffffffffffffffffffffffffffffff\n  and\n  0x80\n  dup2\n  0xffffffffffffffffffffffffffffffffffffffff\n  and\n  dup2\n  mstore\n  pop\n  pop\n    /* \"smart-contract/LinkPay.sol\":58:2673  contract LinkPay {... */\n  mload(0x80)\n  codecopy(0x00, dataOffset(sub_0), dataSize(sub_0))\n  0x00\n  assignImmutable(\"0x789bcdf275fa270780a52ae3b79bb1ce0fda7e0aaad87b57b74bb99ac290714a\")\n  return(0x00, dataSize(sub_0))\nstop\n\nsub_0: assembly {\n        /* \"smart-contract/LinkPay.sol\":58:2673  contract LinkPay {... */\n      mstore(0x40, 0x80)\n      jumpi(tag_1, lt(calldatasize, 0x04))\n      shr(0xe0, calldataload(0x00))\n      dup1\n      0x4df8ccb1\n      gt\n      tag_9\n      jumpi\n      dup1\n      0x4df8ccb1\n      eq\n      tag_5\n      jumpi\n      dup1\n      0x7476452a\n      eq\n      tag_6\n      jumpi\n      dup1\n      0xe1489191\n      eq\n      tag_7\n      jumpi\n      dup1\n      0xfc5f2b78\n      eq\n      tag_8\n      jumpi\n      jump(tag_1)\n    tag_9:\n      dup1\n      0x13bd20e2\n      eq\n      tag_2\n      jumpi\n      dup1\n      0x355e6b43\n      eq\n      tag_3\n      jumpi\n      dup1\n      0x429cad86\n      eq\n      tag_4\n      jumpi\n    tag_1:\n      revert(0x00, 0x00)\n        /* \"smart-contract/LinkPay.sol\":297:357  mapping(string => mapping(address => bool)) public hasAccess */\n    tag_2:\n      callvalue\n      dup1\n      iszero\n      tag_10\n      jumpi\n      revert(0x00, 0x00)\n    tag_10:\n      pop\n      tag_11\n      0x04\n      dup1\n      calldatasize\n      sub\n      dup2\n      add\n      swap1\n      tag_12\n      swap2\n      swap1\n      tag_13\n      jump\t// in\n    tag_12:\n      tag_14\n      jump\t// in\n    tag_11:\n      mload(0x40)\n      tag_15\n      swap2\n      swap1\n      tag_16\n      jump\t// in\n    tag_15:\n      mload(0x40)\n      dup1\n      swap2\n      sub\n      swap1\n      return\n        /* \"smart-contract/LinkPay.sol\":2504:2671  function setCommission(uint256 newCommission) external {... */\n    tag_3:\n      callvalue\n      dup1\n      iszero\n      tag_17\n      jumpi\n      revert(0x00, 0x00)\n    tag_17:\n      pop\n      tag_18\n      0x04\n      dup1\n      calldatasize\n      sub\n      dup2\n      add\n      swap1\n      tag_19\n      swap2\n      swap1\n      tag_20\n      jump\t// in\n    tag_19:\n      tag_21\n      jump\t// in\n    tag_18:\n      stop\n        /* \"smart-contract/LinkPay.sol\":1436:2016  function payLink(string calldata linkId) external payable {... */\n    tag_4:\n      tag_22\n      0x04\n      dup1\n      calldatasize\n      sub\n      dup2\n      add\n      swap1\n      tag_23\n      swap2\n      swap1\n      tag_24\n      jump\t// in\n    tag_23:\n      tag_25\n      jump\t// in\n    tag_22:\n      stop\n        /* \"smart-contract/LinkPay.sol\":209:247  address public immutable platformOwner */\n    tag_5:\n      callvalue\n      dup1\n      iszero\n      tag_26\n      jumpi\n      revert(0x00, 0x00)\n    tag_26:\n      pop\n      tag_27\n      tag_28\n      jump\t// in\n    tag_27:\n      mload(0x40)\n      tag_29\n      swap2\n      swap1\n      tag_30\n      jump\t// in\n    tag_29:\n      mload(0x40)\n      dup1\n      swap2\n      sub\n      swap1\n      return\n        /* \"smart-contract/LinkPay.sol\":2022:2439  function getLink(string calldata linkId) external view returns (string memory url, address owner, uint256 fee) {... */\n    tag_6:\n      callvalue\n      dup1\n      iszero\n      tag_31\n      jumpi\n      revert(0x00, 0x00)\n    tag_31:\n      pop\n      tag_32\n      0x04\n      dup1\n      calldatasize\n      sub\n      dup2\n      add\n      swap1\n      tag_33\n      swap2\n      swap1\n      tag_24\n      jump\t// in\n    tag_33:\n      tag_34\n      jump\t// in\n    tag_32:\n      mload(0x40)\n      tag_35\n      swap4\n      swap3\n      swap2\n      swap1\n      tag_36\n      jump\t// in\n    tag_35:\n      mload(0x40)\n      dup1\n      swap2\n      sub\n      swap1\n      return\n        /* \"smart-contract/LinkPay.sol\":170:203  uint256 public commission = 1 wei */\n    tag_7:\n      callvalue\n      dup1\n      iszero\n      tag_37\n      jumpi\n      revert(0x00, 0x00)\n    tag_37:\n      pop\n      tag_38\n      tag_39\n      jump\t// in\n    tag_38:\n      mload(0x40)\n      tag_40\n      swap2\n      swap1\n      tag_41\n      jump\t// in\n    tag_40:\n      mload(0x40)\n      dup1\n      swap2\n      sub\n      swap1\n      return\n        /* \"smart-contract/LinkPay.sol\":736:1430  function addLink(string calldata url, string calldata linkId, uint256 fee) external {... */\n    tag_8:\n      callvalue\n      dup1\n      iszero\n      tag_42\n      jumpi\n      revert(0x00, 0x00)\n    tag_42:\n      pop\n      tag_43\n      0x04\n      dup1\n      calldatasize\n      sub\n      dup2\n      add\n      swap1\n      tag_44\n      swap2\n      swap1\n      tag_45\n      jump\t// in\n    tag_44:\n      tag_46\n      jump\t// in\n    tag_43:\n      stop\n        /* \"smart-contract/LinkPay.sol\":297:357  mapping(string => mapping(address => bool)) public hasAccess */\n    tag_14:\n      0x02\n      dup3\n      dup1\n      mload\n      0x20\n      dup2\n      add\n      dup3\n      add\n      dup1\n      mload\n      dup5\n      dup3\n      mstore\n      0x20\n      dup4\n      add\n      0x20\n      dup6\n      add\n      keccak256\n      dup2\n      dup4\n      mstore\n      dup1\n      swap6\n      pop\n      pop\n      pop\n      pop\n      pop\n      pop\n      0x20\n      mstore\n      dup1\n      0x00\n      mstore\n      keccak256(0x00, 0x40)\n      0x00\n      swap2\n      pop\n      swap2\n      pop\n      swap1\n      sload\n      swap1\n      0x0100\n      exp\n      swap1\n      div\n      0xff\n      and\n      dup2\n      jump\t// out\n        /* \"smart-contract/LinkPay.sol\":2504:2671  function setCommission(uint256 newCommission) external {... */\n    tag_21:\n        /* \"smart-contract/LinkPay.sol\":2591:2604  platformOwner */\n      immutable(\"0x789bcdf275fa270780a52ae3b79bb1ce0fda7e0aaad87b57b74bb99ac290714a\")\n        /* \"smart-contract/LinkPay.sol\":2577:2604  msg.sender == platformOwner */\n      0xffffffffffffffffffffffffffffffffffffffff\n      and\n        /* \"smart-contract/LinkPay.sol\":2577:2587  msg.sender */\n      caller\n        /* \"smart-contract/LinkPay.sol\":2577:2604  msg.sender == platformOwner */\n      0xffffffffffffffffffffffffffffffffffffffff\n      and\n      eq\n        /* \"smart-contract/LinkPay.sol\":2569:2628  require(msg.sender == platformOwner, \"Only platform owner\") */\n      tag_48\n      jumpi\n      mload(0x40)\n      0x08c379a000000000000000000000000000000000000000000000000000000000\n      dup2\n      mstore\n      0x04\n      add\n      tag_49\n      swap1\n      tag_50\n      jump\t// in\n    tag_49:\n      mload(0x40)\n      dup1\n      swap2\n      sub\n      swap1\n      revert\n    tag_48:\n        /* \"smart-contract/LinkPay.sol\":2651:2664  newCommission */\n      dup1\n        /* \"smart-contract/LinkPay.sol\":2638:2648  commission */\n      0x00\n        /* \"smart-contract/LinkPay.sol\":2638:2664  commission = newCommission */\n      dup2\n      swap1\n      sstore\n      pop\n        /* \"smart-contract/LinkPay.sol\":2504:2671  function setCommission(uint256 newCommission) external {... */\n      pop\n      jump\t// out\n        /* \"smart-contract/LinkPay.sol\":1436:2016  function payLink(string calldata linkId) external payable {... */\n    tag_25:\n        /* \"smart-contract/LinkPay.sol\":1504:1521  Link storage link */\n      0x00\n        /* \"smart-contract/LinkPay.sol\":1524:1529  links */\n      0x01\n        /* \"smart-contract/LinkPay.sol\":1530:1536  linkId */\n      dup4\n      dup4\n        /* \"smart-contract/LinkPay.sol\":1524:1537  links[linkId] */\n      mload(0x40)\n      tag_52\n      swap3\n      swap2\n      swap1\n      tag_53\n      jump\t// in\n    tag_52:\n      swap1\n      dup2\n      mstore\n      0x20\n      add\n      mload(0x40)\n      dup1\n      swap2\n      sub\n      swap1\n      keccak256\n        /* \"smart-contract/LinkPay.sol\":1504:1537  Link storage link = links[linkId] */\n      swap1\n      pop\n        /* \"smart-contract/LinkPay.sol\":1577:1578  0 */\n      0x00\n        /* \"smart-contract/LinkPay.sol\":1555:1579  link.owner != address(0) */\n      0xffffffffffffffffffffffffffffffffffffffff\n      and\n        /* \"smart-contract/LinkPay.sol\":1555:1559  link */\n      dup2\n        /* \"smart-contract/LinkPay.sol\":1555:1565  link.owner */\n      0x01\n      add\n      0x00\n      swap1\n      sload\n      swap1\n      0x0100\n      exp\n      swap1\n      div\n      0xffffffffffffffffffffffffffffffffffffffff\n      and\n        /* \"smart-contract/LinkPay.sol\":1555:1579  link.owner != address(0) */\n      0xffffffffffffffffffffffffffffffffffffffff\n      and\n      sub\n        /* \"smart-contract/LinkPay.sol\":1547:1598  require(link.owner != address(0), \"Link not found\") */\n      tag_54\n      jumpi\n      mload(0x40)\n      0x08c379a000000000000000000000000000000000000000000000000000000000\n      dup2\n      mstore\n      0x04\n      add\n      tag_55\n      swap1\n      tag_56\n      jump\t// in\n    tag_55:\n      mload(0x40)\n      dup1\n      swap2\n      sub\n      swap1\n      revert\n    tag_54:\n        /* \"smart-contract/LinkPay.sol\":1617:1626  hasAccess */\n      0x02\n        /* \"smart-contract/LinkPay.sol\":1627:1633  linkId */\n      dup4\n      dup4\n        /* \"smart-contract/LinkPay.sol\":1617:1634  hasAccess[linkId] */\n      mload(0x40)\n      tag_57\n      swap3\n      swap2\n      swap1\n      tag_53\n      jump\t// in\n    tag_57:\n      swap1\n      dup2\n      mstore\n      0x20\n      add\n      mload(0x40)\n      dup1\n      swap2\n      sub\n      swap1\n      keccak256\n        /* \"smart-contract/LinkPay.sol\":1617:1646  hasAccess[linkId][msg.sender] */\n      0x00\n        /* \"smart-contract/LinkPay.sol\":1635:1645  msg.sender */\n      caller\n        /* \"smart-contract/LinkPay.sol\":1617:1646  hasAccess[linkId][msg.sender] */\n      0xffffffffffffffffffffffffffffffffffffffff\n      and\n      0xffffffffffffffffffffffffffffffffffffffff\n      and\n      dup2\n      mstore\n      0x20\n      add\n      swap1\n      dup2\n      mstore\n      0x20\n      add\n      0x00\n      keccak256\n      0x00\n      swap1\n      sload\n      swap1\n      0x0100\n      exp\n      swap1\n      div\n      0xff\n      and\n        /* \"smart-contract/LinkPay.sol\":1616:1646  !hasAccess[linkId][msg.sender] */\n      iszero\n        /* \"smart-contract/LinkPay.sol\":1608:1673  require(!hasAccess[linkId][msg.sender], \"Access already granted\") */\n      tag_58\n      jumpi\n      mload(0x40)\n      0x08c379a000000000000000000000000000000000000000000000000000000000\n      dup2\n      mstore\n      0x04\n      add\n      tag_59\n      swap1\n      tag_60\n      jump\t// in\n    tag_59:\n      mload(0x40)\n      dup1\n      swap2\n      sub\n      swap1\n      revert\n    tag_58:\n        /* \"smart-contract/LinkPay.sol\":1704:1708  link */\n      dup1\n        /* \"smart-contract/LinkPay.sol\":1704:1712  link.fee */\n      0x02\n      add\n      sload\n        /* \"smart-contract/LinkPay.sol\":1691:1700  msg.value */\n      callvalue\n        /* \"smart-contract/LinkPay.sol\":1691:1712  msg.value >= link.fee */\n      lt\n      iszero\n        /* \"smart-contract/LinkPay.sol\":1683:1737  require(msg.value >= link.fee, \"Insufficient payment\") */\n      tag_61\n      jumpi\n      mload(0x40)\n      0x08c379a000000000000000000000000000000000000000000000000000000000\n      dup2\n      mstore\n      0x04\n      add\n      tag_62\n      swap1\n      tag_63\n      jump\t// in\n    tag_62:\n      mload(0x40)\n      dup1\n      swap2\n      sub\n      swap1\n      revert\n    tag_61:\n        /* \"smart-contract/LinkPay.sol\":1780:1784  true */\n      0x01\n        /* \"smart-contract/LinkPay.sol\":1748:1757  hasAccess */\n      0x02\n        /* \"smart-contract/LinkPay.sol\":1758:1764  linkId */\n      dup5\n      dup5\n        /* \"smart-contract/LinkPay.sol\":1748:1765  hasAccess[linkId] */\n      mload(0x40)\n      tag_64\n      swap3\n      swap2\n      swap1\n      tag_53\n      jump\t// in\n    tag_64:\n      swap1\n      dup2\n      mstore\n      0x20\n      add\n      mload(0x40)\n      dup1\n      swap2\n      sub\n      swap1\n      keccak256\n        /* \"smart-contract/LinkPay.sol\":1748:1777  hasAccess[linkId][msg.sender] */\n      0x00\n        /* \"smart-contract/LinkPay.sol\":1766:1776  msg.sender */\n      caller\n        /* \"smart-contract/LinkPay.sol\":1748:1777  hasAccess[linkId][msg.sender] */\n      0xffffffffffffffffffffffffffffffffffffffff\n      and\n      0xffffffffffffffffffffffffffffffffffffffff\n      and\n      dup2\n      mstore\n      0x20\n      add\n      swap1\n      dup2\n      mstore\n      0x20\n      add\n      0x00\n      keccak256\n      0x00\n        /* \"smart-contract/LinkPay.sol\":1748:1784  hasAccess[linkId][msg.sender] = true */\n      0x0100\n      exp\n      dup2\n      sload\n      dup2\n      0xff\n      mul\n      not\n      and\n      swap1\n      dup4\n      iszero\n      iszero\n      mul\n      or\n      swap1\n      sstore\n      pop\n        /* \"smart-contract/LinkPay.sol\":1795:1816  uint256 amountToOwner */\n      0x00\n        /* \"smart-contract/LinkPay.sol\":1831:1841  commission */\n      sload(0x00)\n        /* \"smart-contract/LinkPay.sol\":1819:1828  msg.value */\n      callvalue\n        /* \"smart-contract/LinkPay.sol\":1819:1841  msg.value - commission */\n      tag_65\n      swap2\n      swap1\n      tag_66\n      jump\t// in\n    tag_65:\n        /* \"smart-contract/LinkPay.sol\":1795:1841  uint256 amountToOwner = msg.value - commission */\n      swap1\n      pop\n        /* \"smart-contract/LinkPay.sol\":1859:1863  link */\n      dup2\n        /* \"smart-contract/LinkPay.sol\":1859:1869  link.owner */\n      0x01\n      add\n      0x00\n      swap1\n      sload\n      swap1\n      0x0100\n      exp\n      swap1\n      div\n      0xffffffffffffffffffffffffffffffffffffffff\n      and\n        /* \"smart-contract/LinkPay.sol\":1851:1879  payable(link.owner).transfer */\n      0xffffffffffffffffffffffffffffffffffffffff\n      and\n        /* \"smart-contract/LinkPay.sol\":1851:1894  payable(link.owner).transfer(amountToOwner) */\n      0x08fc\n        /* \"smart-contract/LinkPay.sol\":1880:1893  amountToOwner */\n      dup3\n        /* \"smart-contract/LinkPay.sol\":1851:1894  payable(link.owner).transfer(amountToOwner) */\n      swap1\n      dup2\n      iszero\n      mul\n      swap1\n      mload(0x40)\n      0x00\n      mload(0x40)\n      dup1\n      dup4\n      sub\n      dup2\n      dup6\n      dup9\n      dup9\n      call\n      swap4\n      pop\n      pop\n      pop\n      pop\n      iszero\n      dup1\n      iszero\n      tag_68\n      jumpi\n      returndatacopy(0x00, 0x00, returndatasize)\n      revert(0x00, returndatasize)\n    tag_68:\n      pop\n        /* \"smart-contract/LinkPay.sol\":1913:1926  platformOwner */\n      immutable(\"0x789bcdf275fa270780a52ae3b79bb1ce0fda7e0aaad87b57b74bb99ac290714a\")\n        /* \"smart-contract/LinkPay.sol\":1905:1936  payable(platformOwner).transfer */\n      0xffffffffffffffffffffffffffffffffffffffff\n      and\n        /* \"smart-contract/LinkPay.sol\":1905:1948  payable(platformOwner).transfer(commission) */\n      0x08fc\n        /* \"smart-contract/LinkPay.sol\":1937:1947  commission */\n      sload(0x00)\n        /* \"smart-contract/LinkPay.sol\":1905:1948  payable(platformOwner).transfer(commission) */\n      swap1\n      dup2\n      iszero\n      mul\n      swap1\n      mload(0x40)\n      0x00\n      mload(0x40)\n      dup1\n      dup4\n      sub\n      dup2\n      dup6\n      dup9\n      dup9\n      call\n      swap4\n      pop\n      pop\n      pop\n      pop\n      iszero\n      dup1\n      iszero\n      tag_70\n      jumpi\n      returndatacopy(0x00, 0x00, returndatasize)\n      revert(0x00, returndatasize)\n    tag_70:\n      pop\n        /* \"smart-contract/LinkPay.sol\":1987:1997  msg.sender */\n      caller\n        /* \"smart-contract/LinkPay.sol\":1964:2009  LinkAccessPaid(linkId, msg.sender, msg.value) */\n      0xffffffffffffffffffffffffffffffffffffffff\n      and\n        /* \"smart-contract/LinkPay.sol\":1979:1985  linkId */\n      dup5\n      dup5\n        /* \"smart-contract/LinkPay.sol\":1964:2009  LinkAccessPaid(linkId, msg.sender, msg.value) */\n      mload(0x40)\n      tag_71\n      swap3\n      swap2\n      swap1\n      tag_53\n      jump\t// in\n    tag_71:\n      mload(0x40)\n      dup1\n      swap2\n      sub\n      swap1\n      keccak256\n      0x82ec752277142007941587a00adda02c84e2a7e5b3ebaf3fe51fe33b8689268d\n        /* \"smart-contract/LinkPay.sol\":1999:2008  msg.value */\n      callvalue\n        /* \"smart-contract/LinkPay.sol\":1964:2009  LinkAccessPaid(linkId, msg.sender, msg.value) */\n      mload(0x40)\n      tag_72\n      swap2\n      swap1\n      tag_41\n      jump\t// in\n    tag_72:\n      mload(0x40)\n      dup1\n      swap2\n      sub\n      swap1\n      log3\n        /* \"smart-contract/LinkPay.sol\":1494:2016  {... */\n      pop\n      pop\n        /* \"smart-contract/LinkPay.sol\":1436:2016  function payLink(string calldata linkId) external payable {... */\n      pop\n      pop\n      jump\t// out\n        /* \"smart-contract/LinkPay.sol\":209:247  address public immutable platformOwner */\n    tag_28:\n      immutable(\"0x789bcdf275fa270780a52ae3b79bb1ce0fda7e0aaad87b57b74bb99ac290714a\")\n      dup2\n      jump\t// out\n        /* \"smart-contract/LinkPay.sol\":2022:2439  function getLink(string calldata linkId) external view returns (string memory url, address owner, uint256 fee) {... */\n    tag_34:\n        /* \"smart-contract/LinkPay.sol\":2086:2103  string memory url */\n      0x60\n        /* \"smart-contract/LinkPay.sol\":2105:2118  address owner */\n      0x00\n        /* \"smart-contract/LinkPay.sol\":2120:2131  uint256 fee */\n      0x00\n        /* \"smart-contract/LinkPay.sol\":2143:2160  Link storage link */\n      0x00\n        /* \"smart-contract/LinkPay.sol\":2163:2168  links */\n      0x01\n        /* \"smart-contract/LinkPay.sol\":2169:2175  linkId */\n      dup7\n      dup7\n        /* \"smart-contract/LinkPay.sol\":2163:2176  links[linkId] */\n      mload(0x40)\n      tag_74\n      swap3\n      swap2\n      swap1\n      tag_53\n      jump\t// in\n    tag_74:\n      swap1\n      dup2\n      mstore\n      0x20\n      add\n      mload(0x40)\n      dup1\n      swap2\n      sub\n      swap1\n      keccak256\n        /* \"smart-contract/LinkPay.sol\":2143:2176  Link storage link = links[linkId] */\n      swap1\n      pop\n        /* \"smart-contract/LinkPay.sol\":2212:2213  0 */\n      0x00\n        /* \"smart-contract/LinkPay.sol\":2190:2214  link.owner == address(0) */\n      0xffffffffffffffffffffffffffffffffffffffff\n      and\n        /* \"smart-contract/LinkPay.sol\":2190:2194  link */\n      dup2\n        /* \"smart-contract/LinkPay.sol\":2190:2200  link.owner */\n      0x01\n      add\n      0x00\n      swap1\n      sload\n      swap1\n      0x0100\n      exp\n      swap1\n      div\n      0xffffffffffffffffffffffffffffffffffffffff\n      and\n        /* \"smart-contract/LinkPay.sol\":2190:2214  link.owner == address(0) */\n      0xffffffffffffffffffffffffffffffffffffffff\n      and\n      sub\n        /* \"smart-contract/LinkPay.sol\":2186:2242  if (link.owner == address(0)) return (\"\", address(0), 0) */\n      tag_75\n      jumpi\n        /* \"smart-contract/LinkPay.sol\":2236:2237  0 */\n      0x00\n        /* \"smart-contract/LinkPay.sol\":2240:2241  0 */\n      0x00\n        /* \"smart-contract/LinkPay.sol\":2216:2242  return (\"\", address(0), 0) */\n      mload(0x40)\n      dup1\n      0x20\n      add\n      0x40\n      mstore\n      dup1\n      0x00\n      dup2\n      mstore\n      pop\n      swap2\n      swap1\n      swap4\n      pop\n      swap4\n      pop\n      swap4\n      pop\n      pop\n      jump(tag_73)\n        /* \"smart-contract/LinkPay.sol\":2186:2242  if (link.owner == address(0)) return (\"\", address(0), 0) */\n    tag_75:\n        /* \"smart-contract/LinkPay.sol\":2269:2270  0 */\n      0x00\n        /* \"smart-contract/LinkPay.sol\":2257:2261  link */\n      dup2\n        /* \"smart-contract/LinkPay.sol\":2257:2265  link.fee */\n      0x02\n      add\n      sload\n        /* \"smart-contract/LinkPay.sol\":2257:2270  link.fee == 0 */\n      eq\n        /* \"smart-contract/LinkPay.sol\":2257:2303  link.fee == 0 || hasAccess[linkId][msg.sender] */\n      dup1\n      tag_76\n      jumpi\n      pop\n        /* \"smart-contract/LinkPay.sol\":2274:2283  hasAccess */\n      0x02\n        /* \"smart-contract/LinkPay.sol\":2284:2290  linkId */\n      dup7\n      dup7\n        /* \"smart-contract/LinkPay.sol\":2274:2291  hasAccess[linkId] */\n      mload(0x40)\n      tag_77\n      swap3\n      swap2\n      swap1\n      tag_53\n      jump\t// in\n    tag_77:\n      swap1\n      dup2\n      mstore\n      0x20\n      add\n      mload(0x40)\n      dup1\n      swap2\n      sub\n      swap1\n      keccak256\n        /* \"smart-contract/LinkPay.sol\":2274:2303  hasAccess[linkId][msg.sender] */\n      0x00\n        /* \"smart-contract/LinkPay.sol\":2292:2302  msg.sender */\n      caller\n        /* \"smart-contract/LinkPay.sol\":2274:2303  hasAccess[linkId][msg.sender] */\n      0xffffffffffffffffffffffffffffffffffffffff\n      and\n      0xffffffffffffffffffffffffffffffffffffffff\n      and\n      dup2\n      mstore\n      0x20\n      add\n      swap1\n      dup2\n      mstore\n      0x20\n      add\n      0x00\n      keccak256\n      0x00\n      swap1\n      sload\n      swap1\n      0x0100\n      exp\n      swap1\n      div\n      0xff\n      and\n        /* \"smart-contract/LinkPay.sol\":2257:2303  link.fee == 0 || hasAccess[linkId][msg.sender] */\n    tag_76:\n        /* \"smart-contract/LinkPay.sol\":2253:2433  if (link.fee == 0 || hasAccess[linkId][msg.sender]) {... */\n      iszero\n      tag_78\n      jumpi\n        /* \"smart-contract/LinkPay.sol\":2327:2331  link */\n      dup1\n        /* \"smart-contract/LinkPay.sol\":2327:2335  link.url */\n      0x00\n      add\n        /* \"smart-contract/LinkPay.sol\":2337:2341  link */\n      dup2\n        /* \"smart-contract/LinkPay.sol\":2337:2347  link.owner */\n      0x01\n      add\n      0x00\n      swap1\n      sload\n      swap1\n      0x0100\n      exp\n      swap1\n      div\n      0xffffffffffffffffffffffffffffffffffffffff\n      and\n        /* \"smart-contract/LinkPay.sol\":2349:2353  link */\n      dup3\n        /* \"smart-contract/LinkPay.sol\":2349:2357  link.fee */\n      0x02\n      add\n      sload\n        /* \"smart-contract/LinkPay.sol\":2319:2358  return (link.url, link.owner, link.fee) */\n      dup3\n      dup1\n      sload\n      tag_79\n      swap1\n      tag_80\n      jump\t// in\n    tag_79:\n      dup1\n      0x1f\n      add\n      0x20\n      dup1\n      swap2\n      div\n      mul\n      0x20\n      add\n      mload(0x40)\n      swap1\n      dup2\n      add\n      0x40\n      mstore\n      dup1\n      swap3\n      swap2\n      swap1\n      dup2\n      dup2\n      mstore\n      0x20\n      add\n      dup3\n      dup1\n      sload\n      tag_81\n      swap1\n      tag_80\n      jump\t// in\n    tag_81:\n      dup1\n      iszero\n      tag_82\n      jumpi\n      dup1\n      0x1f\n      lt\n      tag_83\n      jumpi\n      0x0100\n      dup1\n      dup4\n      sload\n      div\n      mul\n      dup4\n      mstore\n      swap2\n      0x20\n      add\n      swap2\n      jump(tag_82)\n    tag_83:\n      dup3\n      add\n      swap2\n      swap1\n      0x00\n      mstore\n      keccak256(0x00, 0x20)\n      swap1\n    tag_84:\n      dup2\n      sload\n      dup2\n      mstore\n      swap1\n      0x01\n      add\n      swap1\n      0x20\n      add\n      dup1\n      dup4\n      gt\n      tag_84\n      jumpi\n      dup3\n      swap1\n      sub\n      0x1f\n      and\n      dup3\n      add\n      swap2\n    tag_82:\n      pop\n      pop\n      pop\n      pop\n      pop\n      swap3\n      pop\n      swap4\n      pop\n      swap4\n      pop\n      swap4\n      pop\n      pop\n      jump(tag_73)\n        /* \"smart-contract/LinkPay.sol\":2253:2433  if (link.fee == 0 || hasAccess[linkId][msg.sender]) {... */\n    tag_78:\n        /* \"smart-contract/LinkPay.sol\":2401:2405  link */\n      dup1\n        /* \"smart-contract/LinkPay.sol\":2401:2411  link.owner */\n      0x01\n      add\n      0x00\n      swap1\n      sload\n      swap1\n      0x0100\n      exp\n      swap1\n      div\n      0xffffffffffffffffffffffffffffffffffffffff\n      and\n        /* \"smart-contract/LinkPay.sol\":2413:2417  link */\n      dup2\n        /* \"smart-contract/LinkPay.sol\":2413:2421  link.fee */\n      0x02\n      add\n      sload\n        /* \"smart-contract/LinkPay.sol\":2389:2422  return (\"\", link.owner, link.fee) */\n      mload(0x40)\n      dup1\n      0x20\n      add\n      0x40\n      mstore\n      dup1\n      0x00\n      dup2\n      mstore\n      pop\n      swap2\n      swap1\n      swap4\n      pop\n      swap4\n      pop\n      swap4\n      pop\n      pop\n        /* \"smart-contract/LinkPay.sol\":2022:2439  function getLink(string calldata linkId) external view returns (string memory url, address owner, uint256 fee) {... */\n    tag_73:\n      swap3\n      pop\n      swap3\n      pop\n      swap3\n      jump\t// out\n        /* \"smart-contract/LinkPay.sol\":170:203  uint256 public commission = 1 wei */\n    tag_39:\n      sload(0x00)\n      dup2\n      jump\t// out\n        /* \"smart-contract/LinkPay.sol\":736:1430  function addLink(string calldata url, string calldata linkId, uint256 fee) external {... */\n    tag_46:\n        /* \"smart-contract/LinkPay.sol\":858:859  0 */\n      0x00\n        /* \"smart-contract/LinkPay.sol\":844:847  url */\n      dup6\n      dup6\n        /* \"smart-contract/LinkPay.sol\":838:855  bytes(url).length */\n      swap1\n      pop\n        /* \"smart-contract/LinkPay.sol\":838:859  bytes(url).length > 0 */\n      gt\n        /* \"smart-contract/LinkPay.sol\":830:876  require(bytes(url).length > 0, \"URL required\") */\n      tag_87\n      jumpi\n      mload(0x40)\n      0x08c379a000000000000000000000000000000000000000000000000000000000\n      dup2\n      mstore\n      0x04\n      add\n      tag_88\n      swap1\n      tag_89\n      jump\t// in\n    tag_88:\n      mload(0x40)\n      dup1\n      swap2\n      sub\n      swap1\n      revert\n    tag_87:\n        /* \"smart-contract/LinkPay.sol\":917:918  0 */\n      0x00\n        /* \"smart-contract/LinkPay.sol\":900:906  linkId */\n      dup4\n      dup4\n        /* \"smart-contract/LinkPay.sol\":894:914  bytes(linkId).length */\n      swap1\n      pop\n        /* \"smart-contract/LinkPay.sol\":894:918  bytes(linkId).length > 0 */\n      gt\n        /* \"smart-contract/LinkPay.sol\":886:939  require(bytes(linkId).length > 0, \"Link ID required\") */\n      tag_90\n      jumpi\n      mload(0x40)\n      0x08c379a000000000000000000000000000000000000000000000000000000000\n      dup2\n      mstore\n      0x04\n      add\n      tag_91\n      swap1\n      tag_92\n      jump\t// in\n    tag_91:\n      mload(0x40)\n      dup1\n      swap2\n      sub\n      swap1\n      revert\n    tag_90:\n        /* \"smart-contract/LinkPay.sol\":964:965  0 */\n      0x00\n        /* \"smart-contract/LinkPay.sol\":957:960  fee */\n      dup2\n        /* \"smart-contract/LinkPay.sol\":957:965  fee == 0 */\n      eq\n        /* \"smart-contract/LinkPay.sol\":957:985  fee == 0 || fee > commission */\n      dup1\n      tag_93\n      jumpi\n      pop\n        /* \"smart-contract/LinkPay.sol\":975:985  commission */\n      sload(0x00)\n        /* \"smart-contract/LinkPay.sol\":969:972  fee */\n      dup2\n        /* \"smart-contract/LinkPay.sol\":969:985  fee > commission */\n      gt\n        /* \"smart-contract/LinkPay.sol\":957:985  fee == 0 || fee > commission */\n    tag_93:\n        /* \"smart-contract/LinkPay.sol\":949:1001  require(fee == 0 || fee > commission, \"Fee too low\") */\n      tag_94\n      jumpi\n      mload(0x40)\n      0x08c379a000000000000000000000000000000000000000000000000000000000\n      dup2\n      mstore\n      0x04\n      add\n      tag_95\n      swap1\n      tag_96\n      jump\t// in\n    tag_95:\n      mload(0x40)\n      dup1\n      swap2\n      sub\n      swap1\n      revert\n    tag_94:\n        /* \"smart-contract/LinkPay.sol\":1012:1037  Link storage existingLink */\n      0x00\n        /* \"smart-contract/LinkPay.sol\":1040:1045  links */\n      0x01\n        /* \"smart-contract/LinkPay.sol\":1046:1052  linkId */\n      dup5\n      dup5\n        /* \"smart-contract/LinkPay.sol\":1040:1053  links[linkId] */\n      mload(0x40)\n      tag_97\n      swap3\n      swap2\n      swap1\n      tag_53\n      jump\t// in\n    tag_97:\n      swap1\n      dup2\n      mstore\n      0x20\n      add\n      mload(0x40)\n      dup1\n      swap2\n      sub\n      swap1\n      keccak256\n        /* \"smart-contract/LinkPay.sol\":1012:1053  Link storage existingLink = links[linkId] */\n      swap1\n      pop\n        /* \"smart-contract/LinkPay.sol\":1098:1099  0 */\n      0x00\n        /* \"smart-contract/LinkPay.sol\":1068:1100  existingLink.owner != address(0) */\n      0xffffffffffffffffffffffffffffffffffffffff\n      and\n        /* \"smart-contract/LinkPay.sol\":1068:1080  existingLink */\n      dup2\n        /* \"smart-contract/LinkPay.sol\":1068:1086  existingLink.owner */\n      0x01\n      add\n      0x00\n      swap1\n      sload\n      swap1\n      0x0100\n      exp\n      swap1\n      div\n      0xffffffffffffffffffffffffffffffffffffffff\n      and\n        /* \"smart-contract/LinkPay.sol\":1068:1100  existingLink.owner != address(0) */\n      0xffffffffffffffffffffffffffffffffffffffff\n      and\n      eq\n        /* \"smart-contract/LinkPay.sol\":1064:1209  if (existingLink.owner != address(0)) {... */\n      tag_98\n      jumpi\n        /* \"smart-contract/LinkPay.sol\":1146:1156  msg.sender */\n      caller\n        /* \"smart-contract/LinkPay.sol\":1124:1156  existingLink.owner == msg.sender */\n      0xffffffffffffffffffffffffffffffffffffffff\n      and\n        /* \"smart-contract/LinkPay.sol\":1124:1136  existingLink */\n      dup2\n        /* \"smart-contract/LinkPay.sol\":1124:1142  existingLink.owner */\n      0x01\n      add\n      0x00\n      swap1\n      sload\n      swap1\n      0x0100\n      exp\n      swap1\n      div\n      0xffffffffffffffffffffffffffffffffffffffff\n      and\n        /* \"smart-contract/LinkPay.sol\":1124:1156  existingLink.owner == msg.sender */\n      0xffffffffffffffffffffffffffffffffffffffff\n      and\n      eq\n        /* \"smart-contract/LinkPay.sol\":1116:1198  require(existingLink.owner == msg.sender, \"Link ID already owned by another user\") */\n      tag_99\n      jumpi\n      mload(0x40)\n      0x08c379a000000000000000000000000000000000000000000000000000000000\n      dup2\n      mstore\n      0x04\n      add\n      tag_100\n      swap1\n      tag_101\n      jump\t// in\n    tag_100:\n      mload(0x40)\n      dup1\n      swap2\n      sub\n      swap1\n      revert\n    tag_99:\n        /* \"smart-contract/LinkPay.sol\":1064:1209  if (existingLink.owner != address(0)) {... */\n    tag_98:\n        /* \"smart-contract/LinkPay.sol\":1235:1326  Link({... */\n      mload(0x40)\n      dup1\n      0x60\n      add\n      0x40\n      mstore\n      dup1\n        /* \"smart-contract/LinkPay.sol\":1259:1262  url */\n      dup8\n      dup8\n        /* \"smart-contract/LinkPay.sol\":1235:1326  Link({... */\n      dup1\n      dup1\n      0x1f\n      add\n      0x20\n      dup1\n      swap2\n      div\n      mul\n      0x20\n      add\n      mload(0x40)\n      swap1\n      dup2\n      add\n      0x40\n      mstore\n      dup1\n      swap4\n      swap3\n      swap2\n      swap1\n      dup2\n      dup2\n      mstore\n      0x20\n      add\n      dup4\n      dup4\n      dup1\n      dup3\n      dup5\n      calldatacopy\n      0x00\n      dup2\n      dup5\n      add\n      mstore\n      not(0x1f)\n      0x1f\n      dup3\n      add\n      and\n      swap1\n      pop\n      dup1\n      dup4\n      add\n      swap3\n      pop\n      pop\n      pop\n      pop\n      pop\n      pop\n      pop\n      dup2\n      mstore\n      0x20\n      add\n        /* \"smart-contract/LinkPay.sol\":1283:1293  msg.sender */\n      caller\n        /* \"smart-contract/LinkPay.sol\":1235:1326  Link({... */\n      0xffffffffffffffffffffffffffffffffffffffff\n      and\n      dup2\n      mstore\n      0x20\n      add\n        /* \"smart-contract/LinkPay.sol\":1312:1315  fee */\n      dup4\n        /* \"smart-contract/LinkPay.sol\":1235:1326  Link({... */\n      dup2\n      mstore\n      pop\n        /* \"smart-contract/LinkPay.sol\":1219:1224  links */\n      0x01\n        /* \"smart-contract/LinkPay.sol\":1225:1231  linkId */\n      dup6\n      dup6\n        /* \"smart-contract/LinkPay.sol\":1219:1232  links[linkId] */\n      mload(0x40)\n      tag_102\n      swap3\n      swap2\n      swap1\n      tag_53\n      jump\t// in\n    tag_102:\n      swap1\n      dup2\n      mstore\n      0x20\n      add\n      mload(0x40)\n      dup1\n      swap2\n      sub\n      swap1\n      keccak256\n        /* \"smart-contract/LinkPay.sol\":1219:1326  links[linkId] = Link({... */\n      0x00\n      dup3\n      add\n      mload\n      dup2\n      0x00\n      add\n      swap1\n      dup2\n      tag_103\n      swap2\n      swap1\n      tag_104\n      jump\t// in\n    tag_103:\n      pop\n      0x20\n      dup3\n      add\n      mload\n      dup2\n      0x01\n      add\n      exp(0x0100, 0x00)\n      dup2\n      sload\n      dup2\n      0xffffffffffffffffffffffffffffffffffffffff\n      mul\n      not\n      and\n      swap1\n      dup4\n      0xffffffffffffffffffffffffffffffffffffffff\n      and\n      mul\n      or\n      swap1\n      sstore\n      pop\n      0x40\n      dup3\n      add\n      mload\n      dup2\n      0x02\n      add\n      sstore\n      swap1\n      pop\n      pop\n        /* \"smart-contract/LinkPay.sol\":1369:1373  true */\n      0x01\n        /* \"smart-contract/LinkPay.sol\":1337:1346  hasAccess */\n      0x02\n        /* \"smart-contract/LinkPay.sol\":1347:1353  linkId */\n      dup6\n      dup6\n        /* \"smart-contract/LinkPay.sol\":1337:1354  hasAccess[linkId] */\n      mload(0x40)\n      tag_105\n      swap3\n      swap2\n      swap1\n      tag_53\n      jump\t// in\n    tag_105:\n      swap1\n      dup2\n      mstore\n      0x20\n      add\n      mload(0x40)\n      dup1\n      swap2\n      sub\n      swap1\n      keccak256\n        /* \"smart-contract/LinkPay.sol\":1337:1366  hasAccess[linkId][msg.sender] */\n      0x00\n        /* \"smart-contract/LinkPay.sol\":1355:1365  msg.sender */\n      caller\n        /* \"smart-contract/LinkPay.sol\":1337:1366  hasAccess[linkId][msg.sender] */\n      0xffffffffffffffffffffffffffffffffffffffff\n      and\n      0xffffffffffffffffffffffffffffffffffffffff\n      and\n      dup2\n      mstore\n      0x20\n      add\n      swap1\n      dup2\n      mstore\n      0x20\n      add\n      0x00\n      keccak256\n      0x00\n        /* \"smart-contract/LinkPay.sol\":1337:1373  hasAccess[linkId][msg.sender] = true */\n      0x0100\n      exp\n      dup2\n      sload\n      dup2\n      0xff\n      mul\n      not\n      and\n      swap1\n      dup4\n      iszero\n      iszero\n      mul\n      or\n      swap1\n      sstore\n      pop\n        /* \"smart-contract/LinkPay.sol\":1407:1417  msg.sender */\n      caller\n        /* \"smart-contract/LinkPay.sol\":1389:1423  LinkAdded(linkId, msg.sender, fee) */\n      0xffffffffffffffffffffffffffffffffffffffff\n      and\n        /* \"smart-contract/LinkPay.sol\":1399:1405  linkId */\n      dup5\n      dup5\n        /* \"smart-contract/LinkPay.sol\":1389:1423  LinkAdded(linkId, msg.sender, fee) */\n      mload(0x40)\n      tag_106\n      swap3\n      swap2\n      swap1\n      tag_53\n      jump\t// in\n    tag_106:\n      mload(0x40)\n      dup1\n      swap2\n      sub\n      swap1\n      keccak256\n      0x9f74df5eec72a4c2fb2f83db8974cfc70535caba06231e115ab92cf821ee4c12\n        /* \"smart-contract/LinkPay.sol\":1419:1422  fee */\n      dup5\n        /* \"smart-contract/LinkPay.sol\":1389:1423  LinkAdded(linkId, msg.sender, fee) */\n      mload(0x40)\n      tag_107\n      swap2\n      swap1\n      tag_41\n      jump\t// in\n    tag_107:\n      mload(0x40)\n      dup1\n      swap2\n      sub\n      swap1\n      log3\n        /* \"smart-contract/LinkPay.sol\":820:1430  {... */\n      pop\n        /* \"smart-contract/LinkPay.sol\":736:1430  function addLink(string calldata url, string calldata linkId, uint256 fee) external {... */\n      pop\n      pop\n      pop\n      pop\n      pop\n      jump\t// out\n        /* \"#utility.yul\":7:82   */\n    tag_108:\n        /* \"#utility.yul\":40:46   */\n      0x00\n        /* \"#utility.yul\":73:75   */\n      0x40\n        /* \"#utility.yul\":67:76   */\n      mload\n        /* \"#utility.yul\":57:76   */\n      swap1\n      pop\n        /* \"#utility.yul\":7:82   */\n      swap1\n      jump\t// out\n        /* \"#utility.yul\":88:205   */\n    tag_109:\n        /* \"#utility.yul\":197:198   */\n      0x00\n        /* \"#utility.yul\":194:195   */\n      0x00\n        /* \"#utility.yul\":187:199   */\n      revert\n        /* \"#utility.yul\":211:328   */\n    tag_110:\n        /* \"#utility.yul\":320:321   */\n      0x00\n        /* \"#utility.yul\":317:318   */\n      0x00\n        /* \"#utility.yul\":310:322   */\n      revert\n        /* \"#utility.yul\":334:451   */\n    tag_111:\n        /* \"#utility.yul\":443:444   */\n      0x00\n        /* \"#utility.yul\":440:441   */\n      0x00\n        /* \"#utility.yul\":433:445   */\n      revert\n        /* \"#utility.yul\":457:574   */\n    tag_112:\n        /* \"#utility.yul\":566:567   */\n      0x00\n        /* \"#utility.yul\":563:564   */\n      0x00\n        /* \"#utility.yul\":556:568   */\n      revert\n        /* \"#utility.yul\":580:682   */\n    tag_113:\n        /* \"#utility.yul\":621:627   */\n      0x00\n        /* \"#utility.yul\":672:674   */\n      0x1f\n        /* \"#utility.yul\":668:675   */\n      not\n        /* \"#utility.yul\":663:665   */\n      0x1f\n        /* \"#utility.yul\":656:661   */\n      dup4\n        /* \"#utility.yul\":652:666   */\n      add\n        /* \"#utility.yul\":648:676   */\n      and\n        /* \"#utility.yul\":638:676   */\n      swap1\n      pop\n        /* \"#utility.yul\":580:682   */\n      swap2\n      swap1\n      pop\n      jump\t// out\n        /* \"#utility.yul\":688:868   */\n    tag_114:\n        /* \"#utility.yul\":736:813   */\n      0x4e487b7100000000000000000000000000000000000000000000000000000000\n        /* \"#utility.yul\":733:734   */\n      0x00\n        /* \"#utility.yul\":726:814   */\n      mstore\n        /* \"#utility.yul\":833:837   */\n      0x41\n        /* \"#utility.yul\":830:831   */\n      0x04\n        /* \"#utility.yul\":823:838   */\n      mstore\n        /* \"#utility.yul\":857:861   */\n      0x24\n        /* \"#utility.yul\":854:855   */\n      0x00\n        /* \"#utility.yul\":847:862   */\n      revert\n        /* \"#utility.yul\":874:1155   */\n    tag_115:\n        /* \"#utility.yul\":957:984   */\n      tag_183\n        /* \"#utility.yul\":979:983   */\n      dup3\n        /* \"#utility.yul\":957:984   */\n      tag_113\n      jump\t// in\n    tag_183:\n        /* \"#utility.yul\":949:955   */\n      dup2\n        /* \"#utility.yul\":945:985   */\n      add\n        /* \"#utility.yul\":1087:1093   */\n      dup2\n        /* \"#utility.yul\":1075:1085   */\n      dup2\n        /* \"#utility.yul\":1072:1094   */\n      lt\n        /* \"#utility.yul\":1051:1069   */\n      0xffffffffffffffff\n        /* \"#utility.yul\":1039:1049   */\n      dup3\n        /* \"#utility.yul\":1036:1070   */\n      gt\n        /* \"#utility.yul\":1033:1095   */\n      or\n        /* \"#utility.yul\":1030:1118   */\n      iszero\n      tag_184\n      jumpi\n        /* \"#utility.yul\":1098:1116   */\n      tag_185\n      tag_114\n      jump\t// in\n    tag_185:\n        /* \"#utility.yul\":1030:1118   */\n    tag_184:\n        /* \"#utility.yul\":1138:1148   */\n      dup1\n        /* \"#utility.yul\":1134:1136   */\n      0x40\n        /* \"#utility.yul\":1127:1149   */\n      mstore\n        /* \"#utility.yul\":917:1155   */\n      pop\n        /* \"#utility.yul\":874:1155   */\n      pop\n      pop\n      jump\t// out\n        /* \"#utility.yul\":1161:1290   */\n    tag_116:\n        /* \"#utility.yul\":1195:1201   */\n      0x00\n        /* \"#utility.yul\":1222:1242   */\n      tag_187\n      tag_108\n      jump\t// in\n    tag_187:\n        /* \"#utility.yul\":1212:1242   */\n      swap1\n      pop\n        /* \"#utility.yul\":1251:1284   */\n      tag_188\n        /* \"#utility.yul\":1279:1283   */\n      dup3\n        /* \"#utility.yul\":1271:1277   */\n      dup3\n        /* \"#utility.yul\":1251:1284   */\n      tag_115\n      jump\t// in\n    tag_188:\n        /* \"#utility.yul\":1161:1290   */\n      swap2\n      swap1\n      pop\n      jump\t// out\n        /* \"#utility.yul\":1296:1604   */\n    tag_117:\n        /* \"#utility.yul\":1358:1362   */\n      0x00\n        /* \"#utility.yul\":1448:1466   */\n      0xffffffffffffffff\n        /* \"#utility.yul\":1440:1446   */\n      dup3\n        /* \"#utility.yul\":1437:1467   */\n      gt\n        /* \"#utility.yul\":1434:1490   */\n      iszero\n      tag_190\n      jumpi\n        /* \"#utility.yul\":1470:1488   */\n      tag_191\n      tag_114\n      jump\t// in\n    tag_191:\n        /* \"#utility.yul\":1434:1490   */\n    tag_190:\n        /* \"#utility.yul\":1508:1537   */\n      tag_192\n        /* \"#utility.yul\":1530:1536   */\n      dup3\n        /* \"#utility.yul\":1508:1537   */\n      tag_113\n      jump\t// in\n    tag_192:\n        /* \"#utility.yul\":1500:1537   */\n      swap1\n      pop\n        /* \"#utility.yul\":1592:1596   */\n      0x20\n        /* \"#utility.yul\":1586:1590   */\n      dup2\n        /* \"#utility.yul\":1582:1597   */\n      add\n        /* \"#utility.yul\":1574:1597   */\n      swap1\n      pop\n        /* \"#utility.yul\":1296:1604   */\n      swap2\n      swap1\n      pop\n      jump\t// out\n        /* \"#utility.yul\":1610:1758   */\n    tag_118:\n        /* \"#utility.yul\":1708:1714   */\n      dup3\n        /* \"#utility.yul\":1703:1706   */\n      dup2\n        /* \"#utility.yul\":1698:1701   */\n      dup4\n        /* \"#utility.yul\":1685:1715   */\n      calldatacopy\n        /* \"#utility.yul\":1749:1750   */\n      0x00\n        /* \"#utility.yul\":1740:1746   */\n      dup4\n        /* \"#utility.yul\":1735:1738   */\n      dup4\n        /* \"#utility.yul\":1731:1747   */\n      add\n        /* \"#utility.yul\":1724:1751   */\n      mstore\n        /* \"#utility.yul\":1610:1758   */\n      pop\n      pop\n      pop\n      jump\t// out\n        /* \"#utility.yul\":1764:2189   */\n    tag_119:\n        /* \"#utility.yul\":1842:1847   */\n      0x00\n        /* \"#utility.yul\":1867:1933   */\n      tag_195\n        /* \"#utility.yul\":1883:1932   */\n      tag_196\n        /* \"#utility.yul\":1925:1931   */\n      dup5\n        /* \"#utility.yul\":1883:1932   */\n      tag_117\n      jump\t// in\n    tag_196:\n        /* \"#utility.yul\":1867:1933   */\n      tag_116\n      jump\t// in\n    tag_195:\n        /* \"#utility.yul\":1858:1933   */\n      swap1\n      pop\n        /* \"#utility.yul\":1956:1962   */\n      dup3\n        /* \"#utility.yul\":1949:1954   */\n      dup2\n        /* \"#utility.yul\":1942:1963   */\n      mstore\n        /* \"#utility.yul\":1994:1998   */\n      0x20\n        /* \"#utility.yul\":1987:1992   */\n      dup2\n        /* \"#utility.yul\":1983:1999   */\n      add\n        /* \"#utility.yul\":2032:2035   */\n      dup5\n        /* \"#utility.yul\":2023:2029   */\n      dup5\n        /* \"#utility.yul\":2018:2021   */\n      dup5\n        /* \"#utility.yul\":2014:2030   */\n      add\n        /* \"#utility.yul\":2011:2036   */\n      gt\n        /* \"#utility.yul\":2008:2120   */\n      iszero\n      tag_197\n      jumpi\n        /* \"#utility.yul\":2039:2118   */\n      tag_198\n      tag_112\n      jump\t// in\n    tag_198:\n        /* \"#utility.yul\":2008:2120   */\n    tag_197:\n        /* \"#utility.yul\":2129:2183   */\n      tag_199\n        /* \"#utility.yul\":2176:2182   */\n      dup5\n        /* \"#utility.yul\":2171:2174   */\n      dup3\n        /* \"#utility.yul\":2166:2169   */\n      dup6\n        /* \"#utility.yul\":2129:2183   */\n      tag_118\n      jump\t// in\n    tag_199:\n        /* \"#utility.yul\":1848:2189   */\n      pop\n        /* \"#utility.yul\":1764:2189   */\n      swap4\n      swap3\n      pop\n      pop\n      pop\n      jump\t// out\n        /* \"#utility.yul\":2209:2549   */\n    tag_120:\n        /* \"#utility.yul\":2265:2270   */\n      0x00\n        /* \"#utility.yul\":2314:2317   */\n      dup3\n        /* \"#utility.yul\":2307:2311   */\n      0x1f\n        /* \"#utility.yul\":2299:2305   */\n      dup4\n        /* \"#utility.yul\":2295:2312   */\n      add\n        /* \"#utility.yul\":2291:2318   */\n      slt\n        /* \"#utility.yul\":2281:2403   */\n      tag_201\n      jumpi\n        /* \"#utility.yul\":2322:2401   */\n      tag_202\n      tag_111\n      jump\t// in\n    tag_202:\n        /* \"#utility.yul\":2281:2403   */\n    tag_201:\n        /* \"#utility.yul\":2439:2445   */\n      dup2\n        /* \"#utility.yul\":2426:2446   */\n      calldataload\n        /* \"#utility.yul\":2464:2543   */\n      tag_203\n        /* \"#utility.yul\":2539:2542   */\n      dup5\n        /* \"#utility.yul\":2531:2537   */\n      dup3\n        /* \"#utility.yul\":2524:2528   */\n      0x20\n        /* \"#utility.yul\":2516:2522   */\n      dup7\n        /* \"#utility.yul\":2512:2529   */\n      add\n        /* \"#utility.yul\":2464:2543   */\n      tag_119\n      jump\t// in\n    tag_203:\n        /* \"#utility.yul\":2455:2543   */\n      swap2\n      pop\n        /* \"#utility.yul\":2271:2549   */\n      pop\n        /* \"#utility.yul\":2209:2549   */\n      swap3\n      swap2\n      pop\n      pop\n      jump\t// out\n        /* \"#utility.yul\":2555:2681   */\n    tag_121:\n        /* \"#utility.yul\":2592:2599   */\n      0x00\n        /* \"#utility.yul\":2632:2674   */\n      0xffffffffffffffffffffffffffffffffffffffff\n        /* \"#utility.yul\":2625:2630   */\n      dup3\n        /* \"#utility.yul\":2621:2675   */\n      and\n        /* \"#utility.yul\":2610:2675   */\n      swap1\n      pop\n        /* \"#utility.yul\":2555:2681   */\n      swap2\n      swap1\n      pop\n      jump\t// out\n        /* \"#utility.yul\":2687:2783   */\n    tag_122:\n        /* \"#utility.yul\":2724:2731   */\n      0x00\n        /* \"#utility.yul\":2753:2777   */\n      tag_206\n        /* \"#utility.yul\":2771:2776   */\n      dup3\n        /* \"#utility.yul\":2753:2777   */\n      tag_121\n      jump\t// in\n    tag_206:\n        /* \"#utility.yul\":2742:2777   */\n      swap1\n      pop\n        /* \"#utility.yul\":2687:2783   */\n      swap2\n      swap1\n      pop\n      jump\t// out\n        /* \"#utility.yul\":2789:2911   */\n    tag_123:\n        /* \"#utility.yul\":2862:2886   */\n      tag_208\n        /* \"#utility.yul\":2880:2885   */\n      dup2\n        /* \"#utility.yul\":2862:2886   */\n      tag_122\n      jump\t// in\n    tag_208:\n        /* \"#utility.yul\":2855:2860   */\n      dup2\n        /* \"#utility.yul\":2852:2887   */\n      eq\n        /* \"#utility.yul\":2842:2905   */\n      tag_209\n      jumpi\n        /* \"#utility.yul\":2901:2902   */\n      0x00\n        /* \"#utility.yul\":2898:2899   */\n      0x00\n        /* \"#utility.yul\":2891:2903   */\n      revert\n        /* \"#utility.yul\":2842:2905   */\n    tag_209:\n        /* \"#utility.yul\":2789:2911   */\n      pop\n      jump\t// out\n        /* \"#utility.yul\":2917:3056   */\n    tag_124:\n        /* \"#utility.yul\":2963:2968   */\n      0x00\n        /* \"#utility.yul\":3001:3007   */\n      dup2\n        /* \"#utility.yul\":2988:3008   */\n      calldataload\n        /* \"#utility.yul\":2979:3008   */\n      swap1\n      pop\n        /* \"#utility.yul\":3017:3050   */\n      tag_211\n        /* \"#utility.yul\":3044:3049   */\n      dup2\n        /* \"#utility.yul\":3017:3050   */\n      tag_123\n      jump\t// in\n    tag_211:\n        /* \"#utility.yul\":2917:3056   */\n      swap3\n      swap2\n      pop\n      pop\n      jump\t// out\n        /* \"#utility.yul\":3062:3716   */\n    tag_13:\n        /* \"#utility.yul\":3140:3146   */\n      0x00\n        /* \"#utility.yul\":3148:3154   */\n      0x00\n        /* \"#utility.yul\":3197:3199   */\n      0x40\n        /* \"#utility.yul\":3185:3194   */\n      dup4\n        /* \"#utility.yul\":3176:3183   */\n      dup6\n        /* \"#utility.yul\":3172:3195   */\n      sub\n        /* \"#utility.yul\":3168:3200   */\n      slt\n        /* \"#utility.yul\":3165:3284   */\n      iszero\n      tag_213\n      jumpi\n        /* \"#utility.yul\":3203:3282   */\n      tag_214\n      tag_109\n      jump\t// in\n    tag_214:\n        /* \"#utility.yul\":3165:3284   */\n    tag_213:\n        /* \"#utility.yul\":3351:3352   */\n      0x00\n        /* \"#utility.yul\":3340:3349   */\n      dup4\n        /* \"#utility.yul\":3336:3353   */\n      add\n        /* \"#utility.yul\":3323:3354   */\n      calldataload\n        /* \"#utility.yul\":3381:3399   */\n      0xffffffffffffffff\n        /* \"#utility.yul\":3373:3379   */\n      dup2\n        /* \"#utility.yul\":3370:3400   */\n      gt\n        /* \"#utility.yul\":3367:3484   */\n      iszero\n      tag_215\n      jumpi\n        /* \"#utility.yul\":3403:3482   */\n      tag_216\n      tag_110\n      jump\t// in\n    tag_216:\n        /* \"#utility.yul\":3367:3484   */\n    tag_215:\n        /* \"#utility.yul\":3508:3571   */\n      tag_217\n        /* \"#utility.yul\":3563:3570   */\n      dup6\n        /* \"#utility.yul\":3554:3560   */\n      dup3\n        /* \"#utility.yul\":3543:3552   */\n      dup7\n        /* \"#utility.yul\":3539:3561   */\n      add\n        /* \"#utility.yul\":3508:3571   */\n      tag_120\n      jump\t// in\n    tag_217:\n        /* \"#utility.yul\":3498:3571   */\n      swap3\n      pop\n        /* \"#utility.yul\":3294:3581   */\n      pop\n        /* \"#utility.yul\":3620:3622   */\n      0x20\n        /* \"#utility.yul\":3646:3699   */\n      tag_218\n        /* \"#utility.yul\":3691:3698   */\n      dup6\n        /* \"#utility.yul\":3682:3688   */\n      dup3\n        /* \"#utility.yul\":3671:3680   */\n      dup7\n        /* \"#utility.yul\":3667:3689   */\n      add\n        /* \"#utility.yul\":3646:3699   */\n      tag_124\n      jump\t// in\n    tag_218:\n        /* \"#utility.yul\":3636:3699   */\n      swap2\n      pop\n        /* \"#utility.yul\":3591:3709   */\n      pop\n        /* \"#utility.yul\":3062:3716   */\n      swap3\n      pop\n      swap3\n      swap1\n      pop\n      jump\t// out\n        /* \"#utility.yul\":3722:3812   */\n    tag_125:\n        /* \"#utility.yul\":3756:3763   */\n      0x00\n        /* \"#utility.yul\":3799:3804   */\n      dup2\n        /* \"#utility.yul\":3792:3805   */\n      iszero\n        /* \"#utility.yul\":3785:3806   */\n      iszero\n        /* \"#utility.yul\":3774:3806   */\n      swap1\n      pop\n        /* \"#utility.yul\":3722:3812   */\n      swap2\n      swap1\n      pop\n      jump\t// out\n        /* \"#utility.yul\":3818:3927   */\n    tag_126:\n        /* \"#utility.yul\":3899:3920   */\n      tag_221\n        /* \"#utility.yul\":3914:3919   */\n      dup2\n        /* \"#utility.yul\":3899:3920   */\n      tag_125\n      jump\t// in\n    tag_221:\n        /* \"#utility.yul\":3894:3897   */\n      dup3\n        /* \"#utility.yul\":3887:3921   */\n      mstore\n        /* \"#utility.yul\":3818:3927   */\n      pop\n      pop\n      jump\t// out\n        /* \"#utility.yul\":3933:4143   */\n    tag_16:\n        /* \"#utility.yul\":4020:4024   */\n      0x00\n        /* \"#utility.yul\":4058:4060   */\n      0x20\n        /* \"#utility.yul\":4047:4056   */\n      dup3\n        /* \"#utility.yul\":4043:4061   */\n      add\n        /* \"#utility.yul\":4035:4061   */\n      swap1\n      pop\n        /* \"#utility.yul\":4071:4136   */\n      tag_223\n        /* \"#utility.yul\":4133:4134   */\n      0x00\n        /* \"#utility.yul\":4122:4131   */\n      dup4\n        /* \"#utility.yul\":4118:4135   */\n      add\n        /* \"#utility.yul\":4109:4115   */\n      dup5\n        /* \"#utility.yul\":4071:4136   */\n      tag_126\n      jump\t// in\n    tag_223:\n        /* \"#utility.yul\":3933:4143   */\n      swap3\n      swap2\n      pop\n      pop\n      jump\t// out\n        /* \"#utility.yul\":4149:4226   */\n    tag_127:\n        /* \"#utility.yul\":4186:4193   */\n      0x00\n        /* \"#utility.yul\":4215:4220   */\n      dup2\n        /* \"#utility.yul\":4204:4220   */\n      swap1\n      pop\n        /* \"#utility.yul\":4149:4226   */\n      swap2\n      swap1\n      pop\n      jump\t// out\n        /* \"#utility.yul\":4232:4354   */\n    tag_128:\n        /* \"#utility.yul\":4305:4329   */\n      tag_226\n        /* \"#utility.yul\":4323:4328   */\n      dup2\n        /* \"#utility.yul\":4305:4329   */\n      tag_127\n      jump\t// in\n    tag_226:\n        /* \"#utility.yul\":4298:4303   */\n      dup2\n        /* \"#utility.yul\":4295:4330   */\n      eq\n        /* \"#utility.yul\":4285:4348   */\n      tag_227\n      jumpi\n        /* \"#utility.yul\":4344:4345   */\n      0x00\n        /* \"#utility.yul\":4341:4342   */\n      0x00\n        /* \"#utility.yul\":4334:4346   */\n      revert\n        /* \"#utility.yul\":4285:4348   */\n    tag_227:\n        /* \"#utility.yul\":4232:4354   */\n      pop\n      jump\t// out\n        /* \"#utility.yul\":4360:4499   */\n    tag_129:\n        /* \"#utility.yul\":4406:4411   */\n      0x00\n        /* \"#utility.yul\":4444:4450   */\n      dup2\n        /* \"#utility.yul\":4431:4451   */\n      calldataload\n        /* \"#utility.yul\":4422:4451   */\n      swap1\n      pop\n        /* \"#utility.yul\":4460:4493   */\n      tag_229\n        /* \"#utility.yul\":4487:4492   */\n      dup2\n        /* \"#utility.yul\":4460:4493   */\n      tag_128\n      jump\t// in\n    tag_229:\n        /* \"#utility.yul\":4360:4499   */\n      swap3\n      swap2\n      pop\n      pop\n      jump\t// out\n        /* \"#utility.yul\":4505:4834   */\n    tag_20:\n        /* \"#utility.yul\":4564:4570   */\n      0x00\n        /* \"#utility.yul\":4613:4615   */\n      0x20\n        /* \"#utility.yul\":4601:4610   */\n      dup3\n        /* \"#utility.yul\":4592:4599   */\n      dup5\n        /* \"#utility.yul\":4588:4611   */\n      sub\n        /* \"#utility.yul\":4584:4616   */\n      slt\n        /* \"#utility.yul\":4581:4700   */\n      iszero\n      tag_231\n      jumpi\n        /* \"#utility.yul\":4619:4698   */\n      tag_232\n      tag_109\n      jump\t// in\n    tag_232:\n        /* \"#utility.yul\":4581:4700   */\n    tag_231:\n        /* \"#utility.yul\":4739:4740   */\n      0x00\n        /* \"#utility.yul\":4764:4817   */\n      tag_233\n        /* \"#utility.yul\":4809:4816   */\n      dup5\n        /* \"#utility.yul\":4800:4806   */\n      dup3\n        /* \"#utility.yul\":4789:4798   */\n      dup6\n        /* \"#utility.yul\":4785:4807   */\n      add\n        /* \"#utility.yul\":4764:4817   */\n      tag_129\n      jump\t// in\n    tag_233:\n        /* \"#utility.yul\":4754:4817   */\n      swap2\n      pop\n        /* \"#utility.yul\":4710:4827   */\n      pop\n        /* \"#utility.yul\":4505:4834   */\n      swap3\n      swap2\n      pop\n      pop\n      jump\t// out\n        /* \"#utility.yul\":4840:4957   */\n    tag_130:\n        /* \"#utility.yul\":4949:4950   */\n      0x00\n        /* \"#utility.yul\":4946:4947   */\n      0x00\n        /* \"#utility.yul\":4939:4951   */\n      revert\n        /* \"#utility.yul\":4963:5080   */\n    tag_131:\n        /* \"#utility.yul\":5072:5073   */\n      0x00\n        /* \"#utility.yul\":5069:5070   */\n      0x00\n        /* \"#utility.yul\":5062:5074   */\n      revert\n        /* \"#utility.yul\":5100:5653   */\n    tag_132:\n        /* \"#utility.yul\":5158:5166   */\n      0x00\n        /* \"#utility.yul\":5168:5174   */\n      0x00\n        /* \"#utility.yul\":5218:5221   */\n      dup4\n        /* \"#utility.yul\":5211:5215   */\n      0x1f\n        /* \"#utility.yul\":5203:5209   */\n      dup5\n        /* \"#utility.yul\":5199:5216   */\n      add\n        /* \"#utility.yul\":5195:5222   */\n      slt\n        /* \"#utility.yul\":5185:5307   */\n      tag_237\n      jumpi\n        /* \"#utility.yul\":5226:5305   */\n      tag_238\n      tag_111\n      jump\t// in\n    tag_238:\n        /* \"#utility.yul\":5185:5307   */\n    tag_237:\n        /* \"#utility.yul\":5339:5345   */\n      dup3\n        /* \"#utility.yul\":5326:5346   */\n      calldataload\n        /* \"#utility.yul\":5316:5346   */\n      swap1\n      pop\n        /* \"#utility.yul\":5369:5387   */\n      0xffffffffffffffff\n        /* \"#utility.yul\":5361:5367   */\n      dup2\n        /* \"#utility.yul\":5358:5388   */\n      gt\n        /* \"#utility.yul\":5355:5472   */\n      iszero\n      tag_239\n      jumpi\n        /* \"#utility.yul\":5391:5470   */\n      tag_240\n      tag_130\n      jump\t// in\n    tag_240:\n        /* \"#utility.yul\":5355:5472   */\n    tag_239:\n        /* \"#utility.yul\":5505:5509   */\n      0x20\n        /* \"#utility.yul\":5497:5503   */\n      dup4\n        /* \"#utility.yul\":5493:5510   */\n      add\n        /* \"#utility.yul\":5481:5510   */\n      swap2\n      pop\n        /* \"#utility.yul\":5559:5562   */\n      dup4\n        /* \"#utility.yul\":5551:5555   */\n      0x01\n        /* \"#utility.yul\":5543:5549   */\n      dup3\n        /* \"#utility.yul\":5539:5556   */\n      mul\n        /* \"#utility.yul\":5529:5537   */\n      dup4\n        /* \"#utility.yul\":5525:5557   */\n      add\n        /* \"#utility.yul\":5522:5563   */\n      gt\n        /* \"#utility.yul\":5519:5647   */\n      iszero\n      tag_241\n      jumpi\n        /* \"#utility.yul\":5566:5645   */\n      tag_242\n      tag_131\n      jump\t// in\n    tag_242:\n        /* \"#utility.yul\":5519:5647   */\n    tag_241:\n        /* \"#utility.yul\":5100:5653   */\n      swap3\n      pop\n      swap3\n      swap1\n      pop\n      jump\t// out\n        /* \"#utility.yul\":5659:6188   */\n    tag_24:\n        /* \"#utility.yul\":5730:5736   */\n      0x00\n        /* \"#utility.yul\":5738:5744   */\n      0x00\n        /* \"#utility.yul\":5787:5789   */\n      0x20\n        /* \"#utility.yul\":5775:5784   */\n      dup4\n        /* \"#utility.yul\":5766:5773   */\n      dup6\n        /* \"#utility.yul\":5762:5785   */\n      sub\n        /* \"#utility.yul\":5758:5790   */\n      slt\n        /* \"#utility.yul\":5755:5874   */\n      iszero\n      tag_244\n      jumpi\n        /* \"#utility.yul\":5793:5872   */\n      tag_245\n      tag_109\n      jump\t// in\n    tag_245:\n        /* \"#utility.yul\":5755:5874   */\n    tag_244:\n        /* \"#utility.yul\":5941:5942   */\n      0x00\n        /* \"#utility.yul\":5930:5939   */\n      dup4\n        /* \"#utility.yul\":5926:5943   */\n      add\n        /* \"#utility.yul\":5913:5944   */\n      calldataload\n        /* \"#utility.yul\":5971:5989   */\n      0xffffffffffffffff\n        /* \"#utility.yul\":5963:5969   */\n      dup2\n        /* \"#utility.yul\":5960:5990   */\n      gt\n        /* \"#utility.yul\":5957:6074   */\n      iszero\n      tag_246\n      jumpi\n        /* \"#utility.yul\":5993:6072   */\n      tag_247\n      tag_110\n      jump\t// in\n    tag_247:\n        /* \"#utility.yul\":5957:6074   */\n    tag_246:\n        /* \"#utility.yul\":6106:6171   */\n      tag_248\n        /* \"#utility.yul\":6163:6170   */\n      dup6\n        /* \"#utility.yul\":6154:6160   */\n      dup3\n        /* \"#utility.yul\":6143:6152   */\n      dup7\n        /* \"#utility.yul\":6139:6161   */\n      add\n        /* \"#utility.yul\":6106:6171   */\n      tag_132\n      jump\t// in\n    tag_248:\n        /* \"#utility.yul\":6088:6171   */\n      swap3\n      pop\n      swap3\n      pop\n        /* \"#utility.yul\":5884:6181   */\n      pop\n        /* \"#utility.yul\":5659:6188   */\n      swap3\n      pop\n      swap3\n      swap1\n      pop\n      jump\t// out\n        /* \"#utility.yul\":6194:6312   */\n    tag_133:\n        /* \"#utility.yul\":6281:6305   */\n      tag_250\n        /* \"#utility.yul\":6299:6304   */\n      dup2\n        /* \"#utility.yul\":6281:6305   */\n      tag_122\n      jump\t// in\n    tag_250:\n        /* \"#utility.yul\":6276:6279   */\n      dup3\n        /* \"#utility.yul\":6269:6306   */\n      mstore\n        /* \"#utility.yul\":6194:6312   */\n      pop\n      pop\n      jump\t// out\n        /* \"#utility.yul\":6318:6540   */\n    tag_30:\n        /* \"#utility.yul\":6411:6415   */\n      0x00\n        /* \"#utility.yul\":6449:6451   */\n      0x20\n        /* \"#utility.yul\":6438:6447   */\n      dup3\n        /* \"#utility.yul\":6434:6452   */\n      add\n        /* \"#utility.yul\":6426:6452   */\n      swap1\n      pop\n        /* \"#utility.yul\":6462:6533   */\n      tag_252\n        /* \"#utility.yul\":6530:6531   */\n      0x00\n        /* \"#utility.yul\":6519:6528   */\n      dup4\n        /* \"#utility.yul\":6515:6532   */\n      add\n        /* \"#utility.yul\":6506:6512   */\n      dup5\n        /* \"#utility.yul\":6462:6533   */\n      tag_133\n      jump\t// in\n    tag_252:\n        /* \"#utility.yul\":6318:6540   */\n      swap3\n      swap2\n      pop\n      pop\n      jump\t// out\n        /* \"#utility.yul\":6546:6645   */\n    tag_134:\n        /* \"#utility.yul\":6598:6604   */\n      0x00\n        /* \"#utility.yul\":6632:6637   */\n      dup2\n        /* \"#utility.yul\":6626:6638   */\n      mload\n        /* \"#utility.yul\":6616:6638   */\n      swap1\n      pop\n        /* \"#utility.yul\":6546:6645   */\n      swap2\n      swap1\n      pop\n      jump\t// out\n        /* \"#utility.yul\":6651:6820   */\n    tag_135:\n        /* \"#utility.yul\":6735:6746   */\n      0x00\n        /* \"#utility.yul\":6769:6775   */\n      dup3\n        /* \"#utility.yul\":6764:6767   */\n      dup3\n        /* \"#utility.yul\":6757:6776   */\n      mstore\n        /* \"#utility.yul\":6809:6813   */\n      0x20\n        /* \"#utility.yul\":6804:6807   */\n      dup3\n        /* \"#utility.yul\":6800:6814   */\n      add\n        /* \"#utility.yul\":6785:6814   */\n      swap1\n      pop\n        /* \"#utility.yul\":6651:6820   */\n      swap3\n      swap2\n      pop\n      pop\n      jump\t// out\n        /* \"#utility.yul\":6826:6965   */\n    tag_136:\n        /* \"#utility.yul\":6915:6921   */\n      dup3\n        /* \"#utility.yul\":6910:6913   */\n      dup2\n        /* \"#utility.yul\":6905:6908   */\n      dup4\n        /* \"#utility.yul\":6899:6922   */\n      mcopy\n        /* \"#utility.yul\":6956:6957   */\n      0x00\n        /* \"#utility.yul\":6947:6953   */\n      dup4\n        /* \"#utility.yul\":6942:6945   */\n      dup4\n        /* \"#utility.yul\":6938:6954   */\n      add\n        /* \"#utility.yul\":6931:6958   */\n      mstore\n        /* \"#utility.yul\":6826:6965   */\n      pop\n      pop\n      pop\n      jump\t// out\n        /* \"#utility.yul\":6971:7348   */\n    tag_137:\n        /* \"#utility.yul\":7059:7062   */\n      0x00\n        /* \"#utility.yul\":7087:7126   */\n      tag_257\n        /* \"#utility.yul\":7120:7125   */\n      dup3\n        /* \"#utility.yul\":7087:7126   */\n      tag_134\n      jump\t// in\n    tag_257:\n        /* \"#utility.yul\":7142:7213   */\n      tag_258\n        /* \"#utility.yul\":7206:7212   */\n      dup2\n        /* \"#utility.yul\":7201:7204   */\n      dup6\n        /* \"#utility.yul\":7142:7213   */\n      tag_135\n      jump\t// in\n    tag_258:\n        /* \"#utility.yul\":7135:7213   */\n      swap4\n      pop\n        /* \"#utility.yul\":7222:7287   */\n      tag_259\n        /* \"#utility.yul\":7280:7286   */\n      dup2\n        /* \"#utility.yul\":7275:7278   */\n      dup6\n        /* \"#utility.yul\":7268:7272   */\n      0x20\n        /* \"#utility.yul\":7261:7266   */\n      dup7\n        /* \"#utility.yul\":7257:7273   */\n      add\n        /* \"#utility.yul\":7222:7287   */\n      tag_136\n      jump\t// in\n    tag_259:\n        /* \"#utility.yul\":7312:7341   */\n      tag_260\n        /* \"#utility.yul\":7334:7340   */\n      dup2\n        /* \"#utility.yul\":7312:7341   */\n      tag_113\n      jump\t// in\n    tag_260:\n        /* \"#utility.yul\":7307:7310   */\n      dup5\n        /* \"#utility.yul\":7303:7342   */\n      add\n        /* \"#utility.yul\":7296:7342   */\n      swap2\n      pop\n        /* \"#utility.yul\":7063:7348   */\n      pop\n        /* \"#utility.yul\":6971:7348   */\n      swap3\n      swap2\n      pop\n      pop\n      jump\t// out\n        /* \"#utility.yul\":7354:7472   */\n    tag_138:\n        /* \"#utility.yul\":7441:7465   */\n      tag_262\n        /* \"#utility.yul\":7459:7464   */\n      dup2\n        /* \"#utility.yul\":7441:7465   */\n      tag_127\n      jump\t// in\n    tag_262:\n        /* \"#utility.yul\":7436:7439   */\n      dup3\n        /* \"#utility.yul\":7429:7466   */\n      mstore\n        /* \"#utility.yul\":7354:7472   */\n      pop\n      pop\n      jump\t// out\n        /* \"#utility.yul\":7478:8011   */\n    tag_36:\n        /* \"#utility.yul\":7647:7651   */\n      0x00\n        /* \"#utility.yul\":7685:7687   */\n      0x60\n        /* \"#utility.yul\":7674:7683   */\n      dup3\n        /* \"#utility.yul\":7670:7688   */\n      add\n        /* \"#utility.yul\":7662:7688   */\n      swap1\n      pop\n        /* \"#utility.yul\":7734:7743   */\n      dup2\n        /* \"#utility.yul\":7728:7732   */\n      dup2\n        /* \"#utility.yul\":7724:7744   */\n      sub\n        /* \"#utility.yul\":7720:7721   */\n      0x00\n        /* \"#utility.yul\":7709:7718   */\n      dup4\n        /* \"#utility.yul\":7705:7722   */\n      add\n        /* \"#utility.yul\":7698:7745   */\n      mstore\n        /* \"#utility.yul\":7762:7840   */\n      tag_264\n        /* \"#utility.yul\":7835:7839   */\n      dup2\n        /* \"#utility.yul\":7826:7832   */\n      dup7\n        /* \"#utility.yul\":7762:7840   */\n      tag_137\n      jump\t// in\n    tag_264:\n        /* \"#utility.yul\":7754:7840   */\n      swap1\n      pop\n        /* \"#utility.yul\":7850:7922   */\n      tag_265\n        /* \"#utility.yul\":7918:7920   */\n      0x20\n        /* \"#utility.yul\":7907:7916   */\n      dup4\n        /* \"#utility.yul\":7903:7921   */\n      add\n        /* \"#utility.yul\":7894:7900   */\n      dup6\n        /* \"#utility.yul\":7850:7922   */\n      tag_133\n      jump\t// in\n    tag_265:\n        /* \"#utility.yul\":7932:8004   */\n      tag_266\n        /* \"#utility.yul\":8000:8002   */\n      0x40\n        /* \"#utility.yul\":7989:7998   */\n      dup4\n        /* \"#utility.yul\":7985:8003   */\n      add\n        /* \"#utility.yul\":7976:7982   */\n      dup5\n        /* \"#utility.yul\":7932:8004   */\n      tag_138\n      jump\t// in\n    tag_266:\n        /* \"#utility.yul\":7478:8011   */\n      swap5\n      swap4\n      pop\n      pop\n      pop\n      pop\n      jump\t// out\n        /* \"#utility.yul\":8017:8239   */\n    tag_41:\n        /* \"#utility.yul\":8110:8114   */\n      0x00\n        /* \"#utility.yul\":8148:8150   */\n      0x20\n        /* \"#utility.yul\":8137:8146   */\n      dup3\n        /* \"#utility.yul\":8133:8151   */\n      add\n        /* \"#utility.yul\":8125:8151   */\n      swap1\n      pop\n        /* \"#utility.yul\":8161:8232   */\n      tag_268\n        /* \"#utility.yul\":8229:8230   */\n      0x00\n        /* \"#utility.yul\":8218:8227   */\n      dup4\n        /* \"#utility.yul\":8214:8231   */\n      add\n        /* \"#utility.yul\":8205:8211   */\n      dup5\n        /* \"#utility.yul\":8161:8232   */\n      tag_138\n      jump\t// in\n    tag_268:\n        /* \"#utility.yul\":8017:8239   */\n      swap3\n      swap2\n      pop\n      pop\n      jump\t// out\n        /* \"#utility.yul\":8245:9264   */\n    tag_45:\n        /* \"#utility.yul\":8346:8352   */\n      0x00\n        /* \"#utility.yul\":8354:8360   */\n      0x00\n        /* \"#utility.yul\":8362:8368   */\n      0x00\n        /* \"#utility.yul\":8370:8376   */\n      0x00\n        /* \"#utility.yul\":8378:8384   */\n      0x00\n        /* \"#utility.yul\":8427:8429   */\n      0x60\n        /* \"#utility.yul\":8415:8424   */\n      dup7\n        /* \"#utility.yul\":8406:8413   */\n      dup9\n        /* \"#utility.yul\":8402:8425   */\n      sub\n        /* \"#utility.yul\":8398:8430   */\n      slt\n        /* \"#utility.yul\":8395:8514   */\n      iszero\n      tag_270\n      jumpi\n        /* \"#utility.yul\":8433:8512   */\n      tag_271\n      tag_109\n      jump\t// in\n    tag_271:\n        /* \"#utility.yul\":8395:8514   */\n    tag_270:\n        /* \"#utility.yul\":8581:8582   */\n      0x00\n        /* \"#utility.yul\":8570:8579   */\n      dup7\n        /* \"#utility.yul\":8566:8583   */\n      add\n        /* \"#utility.yul\":8553:8584   */\n      calldataload\n        /* \"#utility.yul\":8611:8629   */\n      0xffffffffffffffff\n        /* \"#utility.yul\":8603:8609   */\n      dup2\n        /* \"#utility.yul\":8600:8630   */\n      gt\n        /* \"#utility.yul\":8597:8714   */\n      iszero\n      tag_272\n      jumpi\n        /* \"#utility.yul\":8633:8712   */\n      tag_273\n      tag_110\n      jump\t// in\n    tag_273:\n        /* \"#utility.yul\":8597:8714   */\n    tag_272:\n        /* \"#utility.yul\":8746:8811   */\n      tag_274\n        /* \"#utility.yul\":8803:8810   */\n      dup9\n        /* \"#utility.yul\":8794:8800   */\n      dup3\n        /* \"#utility.yul\":8783:8792   */\n      dup10\n        /* \"#utility.yul\":8779:8801   */\n      add\n        /* \"#utility.yul\":8746:8811   */\n      tag_132\n      jump\t// in\n    tag_274:\n        /* \"#utility.yul\":8728:8811   */\n      swap6\n      pop\n      swap6\n      pop\n        /* \"#utility.yul\":8524:8821   */\n      pop\n        /* \"#utility.yul\":8888:8890   */\n      0x20\n        /* \"#utility.yul\":8877:8886   */\n      dup7\n        /* \"#utility.yul\":8873:8891   */\n      add\n        /* \"#utility.yul\":8860:8892   */\n      calldataload\n        /* \"#utility.yul\":8919:8937   */\n      0xffffffffffffffff\n        /* \"#utility.yul\":8911:8917   */\n      dup2\n        /* \"#utility.yul\":8908:8938   */\n      gt\n        /* \"#utility.yul\":8905:9022   */\n      iszero\n      tag_275\n      jumpi\n        /* \"#utility.yul\":8941:9020   */\n      tag_276\n      tag_110\n      jump\t// in\n    tag_276:\n        /* \"#utility.yul\":8905:9022   */\n    tag_275:\n        /* \"#utility.yul\":9054:9119   */\n      tag_277\n        /* \"#utility.yul\":9111:9118   */\n      dup9\n        /* \"#utility.yul\":9102:9108   */\n      dup3\n        /* \"#utility.yul\":9091:9100   */\n      dup10\n        /* \"#utility.yul\":9087:9109   */\n      add\n        /* \"#utility.yul\":9054:9119   */\n      tag_132\n      jump\t// in\n    tag_277:\n        /* \"#utility.yul\":9036:9119   */\n      swap4\n      pop\n      swap4\n      pop\n        /* \"#utility.yul\":8831:9129   */\n      pop\n        /* \"#utility.yul\":9168:9170   */\n      0x40\n        /* \"#utility.yul\":9194:9247   */\n      tag_278\n        /* \"#utility.yul\":9239:9246   */\n      dup9\n        /* \"#utility.yul\":9230:9236   */\n      dup3\n        /* \"#utility.yul\":9219:9228   */\n      dup10\n        /* \"#utility.yul\":9215:9237   */\n      add\n        /* \"#utility.yul\":9194:9247   */\n      tag_129\n      jump\t// in\n    tag_278:\n        /* \"#utility.yul\":9184:9247   */\n      swap2\n      pop\n        /* \"#utility.yul\":9139:9257   */\n      pop\n        /* \"#utility.yul\":8245:9264   */\n      swap3\n      swap6\n      pop\n      swap3\n      swap6\n      swap1\n      swap4\n      pop\n      jump\t// out\n        /* \"#utility.yul\":9270:9439   */\n    tag_139:\n        /* \"#utility.yul\":9410:9431   */\n      0x4f6e6c7920706c6174666f726d206f776e657200000000000000000000000000\n        /* \"#utility.yul\":9406:9407   */\n      0x00\n        /* \"#utility.yul\":9398:9404   */\n      dup3\n        /* \"#utility.yul\":9394:9408   */\n      add\n        /* \"#utility.yul\":9387:9432   */\n      mstore\n        /* \"#utility.yul\":9270:9439   */\n      pop\n      jump\t// out\n        /* \"#utility.yul\":9445:9811   */\n    tag_140:\n        /* \"#utility.yul\":9587:9590   */\n      0x00\n        /* \"#utility.yul\":9608:9675   */\n      tag_281\n        /* \"#utility.yul\":9672:9674   */\n      0x13\n        /* \"#utility.yul\":9667:9670   */\n      dup4\n        /* \"#utility.yul\":9608:9675   */\n      tag_135\n      jump\t// in\n    tag_281:\n        /* \"#utility.yul\":9601:9675   */\n      swap2\n      pop\n        /* \"#utility.yul\":9684:9777   */\n      tag_282\n        /* \"#utility.yul\":9773:9776   */\n      dup3\n        /* \"#utility.yul\":9684:9777   */\n      tag_139\n      jump\t// in\n    tag_282:\n        /* \"#utility.yul\":9802:9804   */\n      0x20\n        /* \"#utility.yul\":9797:9800   */\n      dup3\n        /* \"#utility.yul\":9793:9805   */\n      add\n        /* \"#utility.yul\":9786:9805   */\n      swap1\n      pop\n        /* \"#utility.yul\":9445:9811   */\n      swap2\n      swap1\n      pop\n      jump\t// out\n        /* \"#utility.yul\":9817:10236   */\n    tag_50:\n        /* \"#utility.yul\":9983:9987   */\n      0x00\n        /* \"#utility.yul\":10021:10023   */\n      0x20\n        /* \"#utility.yul\":10010:10019   */\n      dup3\n        /* \"#utility.yul\":10006:10024   */\n      add\n        /* \"#utility.yul\":9998:10024   */\n      swap1\n      pop\n        /* \"#utility.yul\":10070:10079   */\n      dup2\n        /* \"#utility.yul\":10064:10068   */\n      dup2\n        /* \"#utility.yul\":10060:10080   */\n      sub\n        /* \"#utility.yul\":10056:10057   */\n      0x00\n        /* \"#utility.yul\":10045:10054   */\n      dup4\n        /* \"#utility.yul\":10041:10058   */\n      add\n        /* \"#utility.yul\":10034:10081   */\n      mstore\n        /* \"#utility.yul\":10098:10229   */\n      tag_284\n        /* \"#utility.yul\":10224:10228   */\n      dup2\n        /* \"#utility.yul\":10098:10229   */\n      tag_140\n      jump\t// in\n    tag_284:\n        /* \"#utility.yul\":10090:10229   */\n      swap1\n      pop\n        /* \"#utility.yul\":9817:10236   */\n      swap2\n      swap1\n      pop\n      jump\t// out\n        /* \"#utility.yul\":10242:10390   */\n    tag_141:\n        /* \"#utility.yul\":10344:10355   */\n      0x00\n        /* \"#utility.yul\":10381:10384   */\n      dup2\n        /* \"#utility.yul\":10366:10384   */\n      swap1\n      pop\n        /* \"#utility.yul\":10242:10390   */\n      swap3\n      swap2\n      pop\n      pop\n      jump\t// out\n        /* \"#utility.yul\":10420:10750   */\n    tag_142:\n        /* \"#utility.yul\":10536:10539   */\n      0x00\n        /* \"#utility.yul\":10557:10646   */\n      tag_287\n        /* \"#utility.yul\":10639:10645   */\n      dup4\n        /* \"#utility.yul\":10634:10637   */\n      dup6\n        /* \"#utility.yul\":10557:10646   */\n      tag_141\n      jump\t// in\n    tag_287:\n        /* \"#utility.yul\":10550:10646   */\n      swap4\n      pop\n        /* \"#utility.yul\":10656:10712   */\n      tag_288\n        /* \"#utility.yul\":10705:10711   */\n      dup4\n        /* \"#utility.yul\":10700:10703   */\n      dup6\n        /* \"#utility.yul\":10693:10698   */\n      dup5\n        /* \"#utility.yul\":10656:10712   */\n      tag_118\n      jump\t// in\n    tag_288:\n        /* \"#utility.yul\":10737:10743   */\n      dup3\n        /* \"#utility.yul\":10732:10735   */\n      dup5\n        /* \"#utility.yul\":10728:10744   */\n      add\n        /* \"#utility.yul\":10721:10744   */\n      swap1\n      pop\n        /* \"#utility.yul\":10420:10750   */\n      swap4\n      swap3\n      pop\n      pop\n      pop\n      jump\t// out\n        /* \"#utility.yul\":10756:11051   */\n    tag_53:\n        /* \"#utility.yul\":10898:10901   */\n      0x00\n        /* \"#utility.yul\":10920:11025   */\n      tag_290\n        /* \"#utility.yul\":11021:11024   */\n      dup3\n        /* \"#utility.yul\":11012:11018   */\n      dup5\n        /* \"#utility.yul\":11004:11010   */\n      dup7\n        /* \"#utility.yul\":10920:11025   */\n      tag_142\n      jump\t// in\n    tag_290:\n        /* \"#utility.yul\":10913:11025   */\n      swap2\n      pop\n        /* \"#utility.yul\":11042:11045   */\n      dup2\n        /* \"#utility.yul\":11035:11045   */\n      swap1\n      pop\n        /* \"#utility.yul\":10756:11051   */\n      swap4\n      swap3\n      pop\n      pop\n      pop\n      jump\t// out\n        /* \"#utility.yul\":11057:11221   */\n    tag_143:\n        /* \"#utility.yul\":11197:11213   */\n      0x4c696e6b206e6f7420666f756e64000000000000000000000000000000000000\n        /* \"#utility.yul\":11193:11194   */\n      0x00\n        /* \"#utility.yul\":11185:11191   */\n      dup3\n        /* \"#utility.yul\":11181:11195   */\n      add\n        /* \"#utility.yul\":11174:11214   */\n      mstore\n        /* \"#utility.yul\":11057:11221   */\n      pop\n      jump\t// out\n        /* \"#utility.yul\":11227:11593   */\n    tag_144:\n        /* \"#utility.yul\":11369:11372   */\n      0x00\n        /* \"#utility.yul\":11390:11457   */\n      tag_293\n        /* \"#utility.yul\":11454:11456   */\n      0x0e\n        /* \"#utility.yul\":11449:11452   */\n      dup4\n        /* \"#utility.yul\":11390:11457   */\n      tag_135\n      jump\t// in\n    tag_293:\n        /* \"#utility.yul\":11383:11457   */\n      swap2\n      pop\n        /* \"#utility.yul\":11466:11559   */\n      tag_294\n        /* \"#utility.yul\":11555:11558   */\n      dup3\n        /* \"#utility.yul\":11466:11559   */\n      tag_143\n      jump\t// in\n    tag_294:\n        /* \"#utility.yul\":11584:11586   */\n      0x20\n        /* \"#utility.yul\":11579:11582   */\n      dup3\n        /* \"#utility.yul\":11575:11587   */\n      add\n        /* \"#utility.yul\":11568:11587   */\n      swap1\n      pop\n        /* \"#utility.yul\":11227:11593   */\n      swap2\n      swap1\n      pop\n      jump\t// out\n        /* \"#utility.yul\":11599:12018   */\n    tag_56:\n        /* \"#utility.yul\":11765:11769   */\n      0x00\n        /* \"#utility.yul\":11803:11805   */\n      0x20\n        /* \"#utility.yul\":11792:11801   */\n      dup3\n        /* \"#utility.yul\":11788:11806   */\n      add\n        /* \"#utility.yul\":11780:11806   */\n      swap1\n      pop\n        /* \"#utility.yul\":11852:11861   */\n      dup2\n        /* \"#utility.yul\":11846:11850   */\n      dup2\n        /* \"#utility.yul\":11842:11862   */\n      sub\n        /* \"#utility.yul\":11838:11839   */\n      0x00\n        /* \"#utility.yul\":11827:11836   */\n      dup4\n        /* \"#utility.yul\":11823:11840   */\n      add\n        /* \"#utility.yul\":11816:11863   */\n      mstore\n        /* \"#utility.yul\":11880:12011   */\n      tag_296\n        /* \"#utility.yul\":12006:12010   */\n      dup2\n        /* \"#utility.yul\":11880:12011   */\n      tag_144\n      jump\t// in\n    tag_296:\n        /* \"#utility.yul\":11872:12011   */\n      swap1\n      pop\n        /* \"#utility.yul\":11599:12018   */\n      swap2\n      swap1\n      pop\n      jump\t// out\n        /* \"#utility.yul\":12024:12196   */\n    tag_145:\n        /* \"#utility.yul\":12164:12188   */\n      0x41636365737320616c7265616479206772616e74656400000000000000000000\n        /* \"#utility.yul\":12160:12161   */\n      0x00\n        /* \"#utility.yul\":12152:12158   */\n      dup3\n        /* \"#utility.yul\":12148:12162   */\n      add\n        /* \"#utility.yul\":12141:12189   */\n      mstore\n        /* \"#utility.yul\":12024:12196   */\n      pop\n      jump\t// out\n        /* \"#utility.yul\":12202:12568   */\n    tag_146:\n        /* \"#utility.yul\":12344:12347   */\n      0x00\n        /* \"#utility.yul\":12365:12432   */\n      tag_299\n        /* \"#utility.yul\":12429:12431   */\n      0x16\n        /* \"#utility.yul\":12424:12427   */\n      dup4\n        /* \"#utility.yul\":12365:12432   */\n      tag_135\n      jump\t// in\n    tag_299:\n        /* \"#utility.yul\":12358:12432   */\n      swap2\n      pop\n        /* \"#utility.yul\":12441:12534   */\n      tag_300\n        /* \"#utility.yul\":12530:12533   */\n      dup3\n        /* \"#utility.yul\":12441:12534   */\n      tag_145\n      jump\t// in\n    tag_300:\n        /* \"#utility.yul\":12559:12561   */\n      0x20\n        /* \"#utility.yul\":12554:12557   */\n      dup3\n        /* \"#utility.yul\":12550:12562   */\n      add\n        /* \"#utility.yul\":12543:12562   */\n      swap1\n      pop\n        /* \"#utility.yul\":12202:12568   */\n      swap2\n      swap1\n      pop\n      jump\t// out\n        /* \"#utility.yul\":12574:12993   */\n    tag_60:\n        /* \"#utility.yul\":12740:12744   */\n      0x00\n        /* \"#utility.yul\":12778:12780   */\n      0x20\n        /* \"#utility.yul\":12767:12776   */\n      dup3\n        /* \"#utility.yul\":12763:12781   */\n      add\n        /* \"#utility.yul\":12755:12781   */\n      swap1\n      pop\n        /* \"#utility.yul\":12827:12836   */\n      dup2\n        /* \"#utility.yul\":12821:12825   */\n      dup2\n        /* \"#utility.yul\":12817:12837   */\n      sub\n        /* \"#utility.yul\":12813:12814   */\n      0x00\n        /* \"#utility.yul\":12802:12811   */\n      dup4\n        /* \"#utility.yul\":12798:12815   */\n      add\n        /* \"#utility.yul\":12791:12838   */\n      mstore\n        /* \"#utility.yul\":12855:12986   */\n      tag_302\n        /* \"#utility.yul\":12981:12985   */\n      dup2\n        /* \"#utility.yul\":12855:12986   */\n      tag_146\n      jump\t// in\n    tag_302:\n        /* \"#utility.yul\":12847:12986   */\n      swap1\n      pop\n        /* \"#utility.yul\":12574:12993   */\n      swap2\n      swap1\n      pop\n      jump\t// out\n        /* \"#utility.yul\":12999:13169   */\n    tag_147:\n        /* \"#utility.yul\":13139:13161   */\n      0x496e73756666696369656e74207061796d656e74000000000000000000000000\n        /* \"#utility.yul\":13135:13136   */\n      0x00\n        /* \"#utility.yul\":13127:13133   */\n      dup3\n        /* \"#utility.yul\":13123:13137   */\n      add\n        /* \"#utility.yul\":13116:13162   */\n      mstore\n        /* \"#utility.yul\":12999:13169   */\n      pop\n      jump\t// out\n        /* \"#utility.yul\":13175:13541   */\n    tag_148:\n        /* \"#utility.yul\":13317:13320   */\n      0x00\n        /* \"#utility.yul\":13338:13405   */\n      tag_305\n        /* \"#utility.yul\":13402:13404   */\n      0x14\n        /* \"#utility.yul\":13397:13400   */\n      dup4\n        /* \"#utility.yul\":13338:13405   */\n      tag_135\n      jump\t// in\n    tag_305:\n        /* \"#utility.yul\":13331:13405   */\n      swap2\n      pop\n        /* \"#utility.yul\":13414:13507   */\n      tag_306\n        /* \"#utility.yul\":13503:13506   */\n      dup3\n        /* \"#utility.yul\":13414:13507   */\n      tag_147\n      jump\t// in\n    tag_306:\n        /* \"#utility.yul\":13532:13534   */\n      0x20\n        /* \"#utility.yul\":13527:13530   */\n      dup3\n        /* \"#utility.yul\":13523:13535   */\n      add\n        /* \"#utility.yul\":13516:13535   */\n      swap1\n      pop\n        /* \"#utility.yul\":13175:13541   */\n      swap2\n      swap1\n      pop\n      jump\t// out\n        /* \"#utility.yul\":13547:13966   */\n    tag_63:\n        /* \"#utility.yul\":13713:13717   */\n      0x00\n        /* \"#utility.yul\":13751:13753   */\n      0x20\n        /* \"#utility.yul\":13740:13749   */\n      dup3\n        /* \"#utility.yul\":13736:13754   */\n      add\n        /* \"#utility.yul\":13728:13754   */\n      swap1\n      pop\n        /* \"#utility.yul\":13800:13809   */\n      dup2\n        /* \"#utility.yul\":13794:13798   */\n      dup2\n        /* \"#utility.yul\":13790:13810   */\n      sub\n        /* \"#utility.yul\":13786:13787   */\n      0x00\n        /* \"#utility.yul\":13775:13784   */\n      dup4\n        /* \"#utility.yul\":13771:13788   */\n      add\n        /* \"#utility.yul\":13764:13811   */\n      mstore\n        /* \"#utility.yul\":13828:13959   */\n      tag_308\n        /* \"#utility.yul\":13954:13958   */\n      dup2\n        /* \"#utility.yul\":13828:13959   */\n      tag_148\n      jump\t// in\n    tag_308:\n        /* \"#utility.yul\":13820:13959   */\n      swap1\n      pop\n        /* \"#utility.yul\":13547:13966   */\n      swap2\n      swap1\n      pop\n      jump\t// out\n        /* \"#utility.yul\":13972:14152   */\n    tag_149:\n        /* \"#utility.yul\":14020:14097   */\n      0x4e487b7100000000000000000000000000000000000000000000000000000000\n        /* \"#utility.yul\":14017:14018   */\n      0x00\n        /* \"#utility.yul\":14010:14098   */\n      mstore\n        /* \"#utility.yul\":14117:14121   */\n      0x11\n        /* \"#utility.yul\":14114:14115   */\n      0x04\n        /* \"#utility.yul\":14107:14122   */\n      mstore\n        /* \"#utility.yul\":14141:14145   */\n      0x24\n        /* \"#utility.yul\":14138:14139   */\n      0x00\n        /* \"#utility.yul\":14131:14146   */\n      revert\n        /* \"#utility.yul\":14158:14352   */\n    tag_66:\n        /* \"#utility.yul\":14198:14202   */\n      0x00\n        /* \"#utility.yul\":14218:14238   */\n      tag_311\n        /* \"#utility.yul\":14236:14237   */\n      dup3\n        /* \"#utility.yul\":14218:14238   */\n      tag_127\n      jump\t// in\n    tag_311:\n        /* \"#utility.yul\":14213:14238   */\n      swap2\n      pop\n        /* \"#utility.yul\":14252:14272   */\n      tag_312\n        /* \"#utility.yul\":14270:14271   */\n      dup4\n        /* \"#utility.yul\":14252:14272   */\n      tag_127\n      jump\t// in\n    tag_312:\n        /* \"#utility.yul\":14247:14272   */\n      swap3\n      pop\n        /* \"#utility.yul\":14296:14297   */\n      dup3\n        /* \"#utility.yul\":14293:14294   */\n      dup3\n        /* \"#utility.yul\":14289:14298   */\n      sub\n        /* \"#utility.yul\":14281:14298   */\n      swap1\n      pop\n        /* \"#utility.yul\":14320:14321   */\n      dup2\n        /* \"#utility.yul\":14314:14318   */\n      dup2\n        /* \"#utility.yul\":14311:14322   */\n      gt\n        /* \"#utility.yul\":14308:14345   */\n      iszero\n      tag_313\n      jumpi\n        /* \"#utility.yul\":14325:14343   */\n      tag_314\n      tag_149\n      jump\t// in\n    tag_314:\n        /* \"#utility.yul\":14308:14345   */\n    tag_313:\n        /* \"#utility.yul\":14158:14352   */\n      swap3\n      swap2\n      pop\n      pop\n      jump\t// out\n        /* \"#utility.yul\":14358:14538   */\n    tag_150:\n        /* \"#utility.yul\":14406:14483   */\n      0x4e487b7100000000000000000000000000000000000000000000000000000000\n        /* \"#utility.yul\":14403:14404   */\n      0x00\n        /* \"#utility.yul\":14396:14484   */\n      mstore\n        /* \"#utility.yul\":14503:14507   */\n      0x22\n        /* \"#utility.yul\":14500:14501   */\n      0x04\n        /* \"#utility.yul\":14493:14508   */\n      mstore\n        /* \"#utility.yul\":14527:14531   */\n      0x24\n        /* \"#utility.yul\":14524:14525   */\n      0x00\n        /* \"#utility.yul\":14517:14532   */\n      revert\n        /* \"#utility.yul\":14544:14864   */\n    tag_80:\n        /* \"#utility.yul\":14588:14594   */\n      0x00\n        /* \"#utility.yul\":14625:14626   */\n      0x02\n        /* \"#utility.yul\":14619:14623   */\n      dup3\n        /* \"#utility.yul\":14615:14627   */\n      div\n        /* \"#utility.yul\":14605:14627   */\n      swap1\n      pop\n        /* \"#utility.yul\":14672:14673   */\n      0x01\n        /* \"#utility.yul\":14666:14670   */\n      dup3\n        /* \"#utility.yul\":14662:14674   */\n      and\n        /* \"#utility.yul\":14693:14711   */\n      dup1\n        /* \"#utility.yul\":14683:14764   */\n      tag_317\n      jumpi\n        /* \"#utility.yul\":14749:14753   */\n      0x7f\n        /* \"#utility.yul\":14741:14747   */\n      dup3\n        /* \"#utility.yul\":14737:14754   */\n      and\n        /* \"#utility.yul\":14727:14754   */\n      swap2\n      pop\n        /* \"#utility.yul\":14683:14764   */\n    tag_317:\n        /* \"#utility.yul\":14811:14813   */\n      0x20\n        /* \"#utility.yul\":14803:14809   */\n      dup3\n        /* \"#utility.yul\":14800:14814   */\n      lt\n        /* \"#utility.yul\":14780:14798   */\n      dup2\n        /* \"#utility.yul\":14777:14815   */\n      sub\n        /* \"#utility.yul\":14774:14858   */\n      tag_318\n      jumpi\n        /* \"#utility.yul\":14830:14848   */\n      tag_319\n      tag_150\n      jump\t// in\n    tag_319:\n        /* \"#utility.yul\":14774:14858   */\n    tag_318:\n        /* \"#utility.yul\":14595:14864   */\n      pop\n        /* \"#utility.yul\":14544:14864   */\n      swap2\n      swap1\n      pop\n      jump\t// out\n        /* \"#utility.yul\":14870:15032   */\n    tag_151:\n        /* \"#utility.yul\":15010:15024   */\n      0x55524c2072657175697265640000000000000000000000000000000000000000\n        /* \"#utility.yul\":15006:15007   */\n      0x00\n        /* \"#utility.yul\":14998:15004   */\n      dup3\n        /* \"#utility.yul\":14994:15008   */\n      add\n        /* \"#utility.yul\":14987:15025   */\n      mstore\n        /* \"#utility.yul\":14870:15032   */\n      pop\n      jump\t// out\n        /* \"#utility.yul\":15038:15404   */\n    tag_152:\n        /* \"#utility.yul\":15180:15183   */\n      0x00\n        /* \"#utility.yul\":15201:15268   */\n      tag_322\n        /* \"#utility.yul\":15265:15267   */\n      0x0c\n        /* \"#utility.yul\":15260:15263   */\n      dup4\n        /* \"#utility.yul\":15201:15268   */\n      tag_135\n      jump\t// in\n    tag_322:\n        /* \"#utility.yul\":15194:15268   */\n      swap2\n      pop\n        /* \"#utility.yul\":15277:15370   */\n      tag_323\n        /* \"#utility.yul\":15366:15369   */\n      dup3\n        /* \"#utility.yul\":15277:15370   */\n      tag_151\n      jump\t// in\n    tag_323:\n        /* \"#utility.yul\":15395:15397   */\n      0x20\n        /* \"#utility.yul\":15390:15393   */\n      dup3\n        /* \"#utility.yul\":15386:15398   */\n      add\n        /* \"#utility.yul\":15379:15398   */\n      swap1\n      pop\n        /* \"#utility.yul\":15038:15404   */\n      swap2\n      swap1\n      pop\n      jump\t// out\n        /* \"#utility.yul\":15410:15829   */\n    tag_89:\n        /* \"#utility.yul\":15576:15580   */\n      0x00\n        /* \"#utility.yul\":15614:15616   */\n      0x20\n        /* \"#utility.yul\":15603:15612   */\n      dup3\n        /* \"#utility.yul\":15599:15617   */\n      add\n        /* \"#utility.yul\":15591:15617   */\n      swap1\n      pop\n        /* \"#utility.yul\":15663:15672   */\n      dup2\n        /* \"#utility.yul\":15657:15661   */\n      dup2\n        /* \"#utility.yul\":15653:15673   */\n      sub\n        /* \"#utility.yul\":15649:15650   */\n      0x00\n        /* \"#utility.yul\":15638:15647   */\n      dup4\n        /* \"#utility.yul\":15634:15651   */\n      add\n        /* \"#utility.yul\":15627:15674   */\n      mstore\n        /* \"#utility.yul\":15691:15822   */\n      tag_325\n        /* \"#utility.yul\":15817:15821   */\n      dup2\n        /* \"#utility.yul\":15691:15822   */\n      tag_152\n      jump\t// in\n    tag_325:\n        /* \"#utility.yul\":15683:15822   */\n      swap1\n      pop\n        /* \"#utility.yul\":15410:15829   */\n      swap2\n      swap1\n      pop\n      jump\t// out\n        /* \"#utility.yul\":15835:16001   */\n    tag_153:\n        /* \"#utility.yul\":15975:15993   */\n      0x4c696e6b20494420726571756972656400000000000000000000000000000000\n        /* \"#utility.yul\":15971:15972   */\n      0x00\n        /* \"#utility.yul\":15963:15969   */\n      dup3\n        /* \"#utility.yul\":15959:15973   */\n      add\n        /* \"#utility.yul\":15952:15994   */\n      mstore\n        /* \"#utility.yul\":15835:16001   */\n      pop\n      jump\t// out\n        /* \"#utility.yul\":16007:16373   */\n    tag_154:\n        /* \"#utility.yul\":16149:16152   */\n      0x00\n        /* \"#utility.yul\":16170:16237   */\n      tag_328\n        /* \"#utility.yul\":16234:16236   */\n      0x10\n        /* \"#utility.yul\":16229:16232   */\n      dup4\n        /* \"#utility.yul\":16170:16237   */\n      tag_135\n      jump\t// in\n    tag_328:\n        /* \"#utility.yul\":16163:16237   */\n      swap2\n      pop\n        /* \"#utility.yul\":16246:16339   */\n      tag_329\n        /* \"#utility.yul\":16335:16338   */\n      dup3\n        /* \"#utility.yul\":16246:16339   */\n      tag_153\n      jump\t// in\n    tag_329:\n        /* \"#utility.yul\":16364:16366   */\n      0x20\n        /* \"#utility.yul\":16359:16362   */\n      dup3\n        /* \"#utility.yul\":16355:16367   */\n      add\n        /* \"#utility.yul\":16348:16367   */\n      swap1\n      pop\n        /* \"#utility.yul\":16007:16373   */\n      swap2\n      swap1\n      pop\n      jump\t// out\n        /* \"#utility.yul\":16379:16798   */\n    tag_92:\n        /* \"#utility.yul\":16545:16549   */\n      0x00\n        /* \"#utility.yul\":16583:16585   */\n      0x20\n        /* \"#utility.yul\":16572:16581   */\n      dup3\n        /* \"#utility.yul\":16568:16586   */\n      add\n        /* \"#utility.yul\":16560:16586   */\n      swap1\n      pop\n        /* \"#utility.yul\":16632:16641   */\n      dup2\n        /* \"#utility.yul\":16626:16630   */\n      dup2\n        /* \"#utility.yul\":16622:16642   */\n      sub\n        /* \"#utility.yul\":16618:16619   */\n      0x00\n        /* \"#utility.yul\":16607:16616   */\n      dup4\n        /* \"#utility.yul\":16603:16620   */\n      add\n        /* \"#utility.yul\":16596:16643   */\n      mstore\n        /* \"#utility.yul\":16660:16791   */\n      tag_331\n        /* \"#utility.yul\":16786:16790   */\n      dup2\n        /* \"#utility.yul\":16660:16791   */\n      tag_154\n      jump\t// in\n    tag_331:\n        /* \"#utility.yul\":16652:16791   */\n      swap1\n      pop\n        /* \"#utility.yul\":16379:16798   */\n      swap2\n      swap1\n      pop\n      jump\t// out\n        /* \"#utility.yul\":16804:16965   */\n    tag_155:\n        /* \"#utility.yul\":16944:16957   */\n      0x46656520746f6f206c6f77000000000000000000000000000000000000000000\n        /* \"#utility.yul\":16940:16941   */\n      0x00\n        /* \"#utility.yul\":16932:16938   */\n      dup3\n        /* \"#utility.yul\":16928:16942   */\n      add\n        /* \"#utility.yul\":16921:16958   */\n      mstore\n        /* \"#utility.yul\":16804:16965   */\n      pop\n      jump\t// out\n        /* \"#utility.yul\":16971:17337   */\n    tag_156:\n        /* \"#utility.yul\":17113:17116   */\n      0x00\n        /* \"#utility.yul\":17134:17201   */\n      tag_334\n        /* \"#utility.yul\":17198:17200   */\n      0x0b\n        /* \"#utility.yul\":17193:17196   */\n      dup4\n        /* \"#utility.yul\":17134:17201   */\n      tag_135\n      jump\t// in\n    tag_334:\n        /* \"#utility.yul\":17127:17201   */\n      swap2\n      pop\n        /* \"#utility.yul\":17210:17303   */\n      tag_335\n        /* \"#utility.yul\":17299:17302   */\n      dup3\n        /* \"#utility.yul\":17210:17303   */\n      tag_155\n      jump\t// in\n    tag_335:\n        /* \"#utility.yul\":17328:17330   */\n      0x20\n        /* \"#utility.yul\":17323:17326   */\n      dup3\n        /* \"#utility.yul\":17319:17331   */\n      add\n        /* \"#utility.yul\":17312:17331   */\n      swap1\n      pop\n        /* \"#utility.yul\":16971:17337   */\n      swap2\n      swap1\n      pop\n      jump\t// out\n        /* \"#utility.yul\":17343:17762   */\n    tag_96:\n        /* \"#utility.yul\":17509:17513   */\n      0x00\n        /* \"#utility.yul\":17547:17549   */\n      0x20\n        /* \"#utility.yul\":17536:17545   */\n      dup3\n        /* \"#utility.yul\":17532:17550   */\n      add\n        /* \"#utility.yul\":17524:17550   */\n      swap1\n      pop\n        /* \"#utility.yul\":17596:17605   */\n      dup2\n        /* \"#utility.yul\":17590:17594   */\n      dup2\n        /* \"#utility.yul\":17586:17606   */\n      sub\n        /* \"#utility.yul\":17582:17583   */\n      0x00\n        /* \"#utility.yul\":17571:17580   */\n      dup4\n        /* \"#utility.yul\":17567:17584   */\n      add\n        /* \"#utility.yul\":17560:17607   */\n      mstore\n        /* \"#utility.yul\":17624:17755   */\n      tag_337\n        /* \"#utility.yul\":17750:17754   */\n      dup2\n        /* \"#utility.yul\":17624:17755   */\n      tag_156\n      jump\t// in\n    tag_337:\n        /* \"#utility.yul\":17616:17755   */\n      swap1\n      pop\n        /* \"#utility.yul\":17343:17762   */\n      swap2\n      swap1\n      pop\n      jump\t// out\n        /* \"#utility.yul\":17768:17992   */\n    tag_157:\n        /* \"#utility.yul\":17908:17942   */\n      0x4c696e6b20494420616c7265616479206f776e656420627920616e6f74686572\n        /* \"#utility.yul\":17904:17905   */\n      0x00\n        /* \"#utility.yul\":17896:17902   */\n      dup3\n        /* \"#utility.yul\":17892:17906   */\n      add\n        /* \"#utility.yul\":17885:17943   */\n      mstore\n        /* \"#utility.yul\":17977:17984   */\n      0x2075736572000000000000000000000000000000000000000000000000000000\n        /* \"#utility.yul\":17972:17974   */\n      0x20\n        /* \"#utility.yul\":17964:17970   */\n      dup3\n        /* \"#utility.yul\":17960:17975   */\n      add\n        /* \"#utility.yul\":17953:17985   */\n      mstore\n        /* \"#utility.yul\":17768:17992   */\n      pop\n      jump\t// out\n        /* \"#utility.yul\":17998:18364   */\n    tag_158:\n        /* \"#utility.yul\":18140:18143   */\n      0x00\n        /* \"#utility.yul\":18161:18228   */\n      tag_340\n        /* \"#utility.yul\":18225:18227   */\n      0x25\n        /* \"#utility.yul\":18220:18223   */\n      dup4\n        /* \"#utility.yul\":18161:18228   */\n      tag_135\n      jump\t// in\n    tag_340:\n        /* \"#utility.yul\":18154:18228   */\n      swap2\n      pop\n        /* \"#utility.yul\":18237:18330   */\n      tag_341\n        /* \"#utility.yul\":18326:18329   */\n      dup3\n        /* \"#utility.yul\":18237:18330   */\n      tag_157\n      jump\t// in\n    tag_341:\n        /* \"#utility.yul\":18355:18357   */\n      0x40\n        /* \"#utility.yul\":18350:18353   */\n      dup3\n        /* \"#utility.yul\":18346:18358   */\n      add\n        /* \"#utility.yul\":18339:18358   */\n      swap1\n      pop\n        /* \"#utility.yul\":17998:18364   */\n      swap2\n      swap1\n      pop\n      jump\t// out\n        /* \"#utility.yul\":18370:18789   */\n    tag_101:\n        /* \"#utility.yul\":18536:18540   */\n      0x00\n        /* \"#utility.yul\":18574:18576   */\n      0x20\n        /* \"#utility.yul\":18563:18572   */\n      dup3\n        /* \"#utility.yul\":18559:18577   */\n      add\n        /* \"#utility.yul\":18551:18577   */\n      swap1\n      pop\n        /* \"#utility.yul\":18623:18632   */\n      dup2\n        /* \"#utility.yul\":18617:18621   */\n      dup2\n        /* \"#utility.yul\":18613:18633   */\n      sub\n        /* \"#utility.yul\":18609:18610   */\n      0x00\n        /* \"#utility.yul\":18598:18607   */\n      dup4\n        /* \"#utility.yul\":18594:18611   */\n      add\n        /* \"#utility.yul\":18587:18634   */\n      mstore\n        /* \"#utility.yul\":18651:18782   */\n      tag_343\n        /* \"#utility.yul\":18777:18781   */\n      dup2\n        /* \"#utility.yul\":18651:18782   */\n      tag_158\n      jump\t// in\n    tag_343:\n        /* \"#utility.yul\":18643:18782   */\n      swap1\n      pop\n        /* \"#utility.yul\":18370:18789   */\n      swap2\n      swap1\n      pop\n      jump\t// out\n        /* \"#utility.yul\":18795:18936   */\n    tag_159:\n        /* \"#utility.yul\":18844:18848   */\n      0x00\n        /* \"#utility.yul\":18867:18870   */\n      dup2\n        /* \"#utility.yul\":18859:18870   */\n      swap1\n      pop\n        /* \"#utility.yul\":18890:18893   */\n      dup2\n        /* \"#utility.yul\":18887:18888   */\n      0x00\n        /* \"#utility.yul\":18880:18894   */\n      mstore\n        /* \"#utility.yul\":18924:18928   */\n      0x20\n        /* \"#utility.yul\":18921:18922   */\n      0x00\n        /* \"#utility.yul\":18911:18929   */\n      keccak256\n        /* \"#utility.yul\":18903:18929   */\n      swap1\n      pop\n        /* \"#utility.yul\":18795:18936   */\n      swap2\n      swap1\n      pop\n      jump\t// out\n        /* \"#utility.yul\":18942:19035   */\n    tag_160:\n        /* \"#utility.yul\":18979:18985   */\n      0x00\n        /* \"#utility.yul\":19026:19028   */\n      0x20\n        /* \"#utility.yul\":19021:19023   */\n      0x1f\n        /* \"#utility.yul\":19014:19019   */\n      dup4\n        /* \"#utility.yul\":19010:19024   */\n      add\n        /* \"#utility.yul\":19006:19029   */\n      div\n        /* \"#utility.yul\":18996:19029   */\n      swap1\n      pop\n        /* \"#utility.yul\":18942:19035   */\n      swap2\n      swap1\n      pop\n      jump\t// out\n        /* \"#utility.yul\":19041:19148   */\n    tag_161:\n        /* \"#utility.yul\":19085:19093   */\n      0x00\n        /* \"#utility.yul\":19135:19140   */\n      dup3\n        /* \"#utility.yul\":19129:19133   */\n      dup3\n        /* \"#utility.yul\":19125:19141   */\n      shl\n        /* \"#utility.yul\":19104:19141   */\n      swap1\n      pop\n        /* \"#utility.yul\":19041:19148   */\n      swap3\n      swap2\n      pop\n      pop\n      jump\t// out\n        /* \"#utility.yul\":19154:19547   */\n    tag_162:\n        /* \"#utility.yul\":19223:19229   */\n      0x00\n        /* \"#utility.yul\":19273:19274   */\n      0x08\n        /* \"#utility.yul\":19261:19271   */\n      dup4\n        /* \"#utility.yul\":19257:19275   */\n      mul\n        /* \"#utility.yul\":19296:19393   */\n      tag_348\n        /* \"#utility.yul\":19326:19392   */\n      0xffffffffffffffffffffffffffffffffffffffffffffffffffffffffffffffff\n        /* \"#utility.yul\":19315:19324   */\n      dup3\n        /* \"#utility.yul\":19296:19393   */\n      tag_161\n      jump\t// in\n    tag_348:\n        /* \"#utility.yul\":19414:19453   */\n      tag_349\n        /* \"#utility.yul\":19444:19452   */\n      dup7\n        /* \"#utility.yul\":19433:19442   */\n      dup4\n        /* \"#utility.yul\":19414:19453   */\n      tag_161\n      jump\t// in\n    tag_349:\n        /* \"#utility.yul\":19402:19453   */\n      swap6\n      pop\n        /* \"#utility.yul\":19486:19490   */\n      dup1\n        /* \"#utility.yul\":19482:19491   */\n      not\n        /* \"#utility.yul\":19475:19480   */\n      dup5\n        /* \"#utility.yul\":19471:19492   */\n      and\n        /* \"#utility.yul\":19462:19492   */\n      swap4\n      pop\n        /* \"#utility.yul\":19535:19539   */\n      dup1\n        /* \"#utility.yul\":19525:19533   */\n      dup7\n        /* \"#utility.yul\":19521:19540   */\n      and\n        /* \"#utility.yul\":19514:19519   */\n      dup5\n        /* \"#utility.yul\":19511:19541   */\n      or\n        /* \"#utility.yul\":19501:19541   */\n      swap3\n      pop\n        /* \"#utility.yul\":19230:19547   */\n      pop\n      pop\n        /* \"#utility.yul\":19154:19547   */\n      swap4\n      swap3\n      pop\n      pop\n      pop\n      jump\t// out\n        /* \"#utility.yul\":19553:19613   */\n    tag_163:\n        /* \"#utility.yul\":19581:19584   */\n      0x00\n        /* \"#utility.yul\":19602:19607   */\n      dup2\n        /* \"#utility.yul\":19595:19607   */\n      swap1\n      pop\n        /* \"#utility.yul\":19553:19613   */\n      swap2\n      swap1\n      pop\n      jump\t// out\n        /* \"#utility.yul\":19619:19761   */\n    tag_164:\n        /* \"#utility.yul\":19669:19678   */\n      0x00\n        /* \"#utility.yul\":19702:19755   */\n      tag_352\n        /* \"#utility.yul\":19720:19754   */\n      tag_353\n        /* \"#utility.yul\":19729:19753   */\n      tag_354\n        /* \"#utility.yul\":19747:19752   */\n      dup5\n        /* \"#utility.yul\":19729:19753   */\n      tag_127\n      jump\t// in\n    tag_354:\n        /* \"#utility.yul\":19720:19754   */\n      tag_163\n      jump\t// in\n    tag_353:\n        /* \"#utility.yul\":19702:19755   */\n      tag_127\n      jump\t// in\n    tag_352:\n        /* \"#utility.yul\":19689:19755   */\n      swap1\n      pop\n        /* \"#utility.yul\":19619:19761   */\n      swap2\n      swap1\n      pop\n      jump\t// out\n        /* \"#utility.yul\":19767:19842   */\n    tag_165:\n        /* \"#utility.yul\":19810:19813   */\n      0x00\n        /* \"#utility.yul\":19831:19836   */\n      dup2\n        /* \"#utility.yul\":19824:19836   */\n      swap1\n      pop\n        /* \"#utility.yul\":19767:19842   */\n      swap2\n      swap1\n      pop\n      jump\t// out\n        /* \"#utility.yul\":19848:20117   */\n    tag_166:\n        /* \"#utility.yul\":19958:19997   */\n      tag_357\n        /* \"#utility.yul\":19989:19996   */\n      dup4\n        /* \"#utility.yul\":19958:19997   */\n      tag_164\n      jump\t// in\n    tag_357:\n        /* \"#utility.yul\":20019:20110   */\n      tag_358\n        /* \"#utility.yul\":20068:20109   */\n      tag_359\n        /* \"#utility.yul\":20092:20108   */\n      dup3\n        /* \"#utility.yul\":20068:20109   */\n      tag_165\n      jump\t// in\n    tag_359:\n        /* \"#utility.yul\":20060:20066   */\n      dup5\n        /* \"#utility.yul\":20053:20057   */\n      dup5\n        /* \"#utility.yul\":20047:20058   */\n      sload\n        /* \"#utility.yul\":20019:20110   */\n      tag_162\n      jump\t// in\n    tag_358:\n        /* \"#utility.yul\":20013:20017   */\n      dup3\n        /* \"#utility.yul\":20006:20111   */\n      sstore\n        /* \"#utility.yul\":19924:20117   */\n      pop\n        /* \"#utility.yul\":19848:20117   */\n      pop\n      pop\n      pop\n      jump\t// out\n        /* \"#utility.yul\":20123:20196   */\n    tag_167:\n        /* \"#utility.yul\":20168:20171   */\n      0x00\n        /* \"#utility.yul\":20189:20190   */\n      0x00\n        /* \"#utility.yul\":20182:20190   */\n      swap1\n      pop\n        /* \"#utility.yul\":20123:20196   */\n      swap1\n      jump\t// out\n        /* \"#utility.yul\":20202:20391   */\n    tag_168:\n        /* \"#utility.yul\":20279:20311   */\n      tag_362\n      tag_167\n      jump\t// in\n    tag_362:\n        /* \"#utility.yul\":20320:20385   */\n      tag_363\n        /* \"#utility.yul\":20378:20384   */\n      dup2\n        /* \"#utility.yul\":20370:20376   */\n      dup5\n        /* \"#utility.yul\":20364:20368   */\n      dup5\n        /* \"#utility.yul\":20320:20385   */\n      tag_166\n      jump\t// in\n    tag_363:\n        /* \"#utility.yul\":20255:20391   */\n      pop\n        /* \"#utility.yul\":20202:20391   */\n      pop\n      pop\n      jump\t// out\n        /* \"#utility.yul\":20397:20583   */\n    tag_169:\n        /* \"#utility.yul\":20457:20577   */\n    tag_365:\n        /* \"#utility.yul\":20474:20477   */\n      dup2\n        /* \"#utility.yul\":20467:20472   */\n      dup2\n        /* \"#utility.yul\":20464:20478   */\n      lt\n        /* \"#utility.yul\":20457:20577   */\n      iszero\n      tag_367\n      jumpi\n        /* \"#utility.yul\":20528:20567   */\n      tag_368\n        /* \"#utility.yul\":20565:20566   */\n      0x00\n        /* \"#utility.yul\":20558:20563   */\n      dup3\n        /* \"#utility.yul\":20528:20567   */\n      tag_168\n      jump\t// in\n    tag_368:\n        /* \"#utility.yul\":20501:20502   */\n      0x01\n        /* \"#utility.yul\":20494:20499   */\n      dup2\n        /* \"#utility.yul\":20490:20503   */\n      add\n        /* \"#utility.yul\":20481:20503   */\n      swap1\n      pop\n        /* \"#utility.yul\":20457:20577   */\n      jump(tag_365)\n    tag_367:\n        /* \"#utility.yul\":20397:20583   */\n      pop\n      pop\n      jump\t// out\n        /* \"#utility.yul\":20589:21132   */\n    tag_170:\n        /* \"#utility.yul\":20690:20692   */\n      0x1f\n        /* \"#utility.yul\":20685:20688   */\n      dup3\n        /* \"#utility.yul\":20682:20693   */\n      gt\n        /* \"#utility.yul\":20679:21125   */\n      iszero\n      tag_370\n      jumpi\n        /* \"#utility.yul\":20724:20762   */\n      tag_371\n        /* \"#utility.yul\":20756:20761   */\n      dup2\n        /* \"#utility.yul\":20724:20762   */\n      tag_159\n      jump\t// in\n    tag_371:\n        /* \"#utility.yul\":20808:20837   */\n      tag_372\n        /* \"#utility.yul\":20826:20836   */\n      dup5\n        /* \"#utility.yul\":20808:20837   */\n      tag_160\n      jump\t// in\n    tag_372:\n        /* \"#utility.yul\":20798:20806   */\n      dup2\n        /* \"#utility.yul\":20794:20838   */\n      add\n        /* \"#utility.yul\":20991:20993   */\n      0x20\n        /* \"#utility.yul\":20979:20989   */\n      dup6\n        /* \"#utility.yul\":20976:20994   */\n      lt\n        /* \"#utility.yul\":20973:21022   */\n      iszero\n      tag_373\n      jumpi\n        /* \"#utility.yul\":21012:21020   */\n      dup2\n        /* \"#utility.yul\":20997:21020   */\n      swap1\n      pop\n        /* \"#utility.yul\":20973:21022   */\n    tag_373:\n        /* \"#utility.yul\":21035:21115   */\n      tag_374\n        /* \"#utility.yul\":21091:21113   */\n      tag_375\n        /* \"#utility.yul\":21109:21112   */\n      dup6\n        /* \"#utility.yul\":21091:21113   */\n      tag_160\n      jump\t// in\n    tag_375:\n        /* \"#utility.yul\":21081:21089   */\n      dup4\n        /* \"#utility.yul\":21077:21114   */\n      add\n        /* \"#utility.yul\":21064:21075   */\n      dup3\n        /* \"#utility.yul\":21035:21115   */\n      tag_169\n      jump\t// in\n    tag_374:\n        /* \"#utility.yul\":20694:21125   */\n      pop\n      pop\n        /* \"#utility.yul\":20679:21125   */\n    tag_370:\n        /* \"#utility.yul\":20589:21132   */\n      pop\n      pop\n      pop\n      jump\t// out\n        /* \"#utility.yul\":21138:21255   */\n    tag_171:\n        /* \"#utility.yul\":21192:21200   */\n      0x00\n        /* \"#utility.yul\":21242:21247   */\n      dup3\n        /* \"#utility.yul\":21236:21240   */\n      dup3\n        /* \"#utility.yul\":21232:21248   */\n      shr\n        /* \"#utility.yul\":21211:21248   */\n      swap1\n      pop\n        /* \"#utility.yul\":21138:21255   */\n      swap3\n      swap2\n      pop\n      pop\n      jump\t// out\n        /* \"#utility.yul\":21261:21430   */\n    tag_172:\n        /* \"#utility.yul\":21305:21311   */\n      0x00\n        /* \"#utility.yul\":21338:21389   */\n      tag_378\n        /* \"#utility.yul\":21386:21387   */\n      0x00\n        /* \"#utility.yul\":21382:21388   */\n      not\n        /* \"#utility.yul\":21374:21379   */\n      dup5\n        /* \"#utility.yul\":21371:21372   */\n      0x08\n        /* \"#utility.yul\":21367:21380   */\n      mul\n        /* \"#utility.yul\":21338:21389   */\n      tag_171\n      jump\t// in\n    tag_378:\n        /* \"#utility.yul\":21334:21390   */\n      not\n        /* \"#utility.yul\":21419:21423   */\n      dup1\n        /* \"#utility.yul\":21413:21417   */\n      dup4\n        /* \"#utility.yul\":21409:21424   */\n      and\n        /* \"#utility.yul\":21399:21424   */\n      swap2\n      pop\n        /* \"#utility.yul\":21312:21430   */\n      pop\n        /* \"#utility.yul\":21261:21430   */\n      swap3\n      swap2\n      pop\n      pop\n      jump\t// out\n        /* \"#utility.yul\":21435:21730   */\n    tag_173:\n        /* \"#utility.yul\":21511:21515   */\n      0x00\n        /* \"#utility.yul\":21657:21686   */\n      tag_380\n        /* \"#utility.yul\":21682:21685   */\n      dup4\n        /* \"#utility.yul\":21676:21680   */\n      dup4\n        /* \"#utility.yul\":21657:21686   */\n      tag_172\n      jump\t// in\n    tag_380:\n        /* \"#utility.yul\":21649:21686   */\n      swap2\n      pop\n        /* \"#utility.yul\":21719:21722   */\n      dup3\n        /* \"#utility.yul\":21716:21717   */\n      0x02\n        /* \"#utility.yul\":21712:21723   */\n      mul\n        /* \"#utility.yul\":21706:21710   */\n      dup3\n        /* \"#utility.yul\":21703:21724   */\n      or\n        /* \"#utility.yul\":21695:21724   */\n      swap1\n      pop\n        /* \"#utility.yul\":21435:21730   */\n      swap3\n      swap2\n      pop\n      pop\n      jump\t// out\n        /* \"#utility.yul\":21735:23130   */\n    tag_104:\n        /* \"#utility.yul\":21852:21889   */\n      tag_382\n        /* \"#utility.yul\":21885:21888   */\n      dup3\n        /* \"#utility.yul\":21852:21889   */\n      tag_134\n      jump\t// in\n    tag_382:\n        /* \"#utility.yul\":21954:21972   */\n      0xffffffffffffffff\n        /* \"#utility.yul\":21946:21952   */\n      dup2\n        /* \"#utility.yul\":21943:21973   */\n      gt\n        /* \"#utility.yul\":21940:21996   */\n      iszero\n      tag_383\n      jumpi\n        /* \"#utility.yul\":21976:21994   */\n      tag_384\n      tag_114\n      jump\t// in\n    tag_384:\n        /* \"#utility.yul\":21940:21996   */\n    tag_383:\n        /* \"#utility.yul\":22020:22058   */\n      tag_385\n        /* \"#utility.yul\":22052:22056   */\n      dup3\n        /* \"#utility.yul\":22046:22057   */\n      sload\n        /* \"#utility.yul\":22020:22058   */\n      tag_80\n      jump\t// in\n    tag_385:\n        /* \"#utility.yul\":22105:22172   */\n      tag_386\n        /* \"#utility.yul\":22165:22171   */\n      dup3\n        /* \"#utility.yul\":22157:22163   */\n      dup3\n        /* \"#utility.yul\":22151:22155   */\n      dup6\n        /* \"#utility.yul\":22105:22172   */\n      tag_170\n      jump\t// in\n    tag_386:\n        /* \"#utility.yul\":22199:22200   */\n      0x00\n        /* \"#utility.yul\":22223:22227   */\n      0x20\n        /* \"#utility.yul\":22210:22227   */\n      swap1\n      pop\n        /* \"#utility.yul\":22255:22257   */\n      0x1f\n        /* \"#utility.yul\":22247:22253   */\n      dup4\n        /* \"#utility.yul\":22244:22258   */\n      gt\n        /* \"#utility.yul\":22272:22273   */\n      0x01\n        /* \"#utility.yul\":22267:22885   */\n      dup2\n      eq\n      tag_388\n      jumpi\n        /* \"#utility.yul\":22929:22930   */\n      0x00\n        /* \"#utility.yul\":22946:22952   */\n      dup5\n        /* \"#utility.yul\":22943:23020   */\n      iszero\n      tag_389\n      jumpi\n        /* \"#utility.yul\":22995:23004   */\n      dup3\n        /* \"#utility.yul\":22990:22993   */\n      dup8\n        /* \"#utility.yul\":22986:23005   */\n      add\n        /* \"#utility.yul\":22980:23006   */\n      mload\n        /* \"#utility.yul\":22971:23006   */\n      swap1\n      pop\n        /* \"#utility.yul\":22943:23020   */\n    tag_389:\n        /* \"#utility.yul\":23046:23113   */\n      tag_390\n        /* \"#utility.yul\":23106:23112   */\n      dup6\n        /* \"#utility.yul\":23099:23104   */\n      dup3\n        /* \"#utility.yul\":23046:23113   */\n      tag_173\n      jump\t// in\n    tag_390:\n        /* \"#utility.yul\":23040:23044   */\n      dup7\n        /* \"#utility.yul\":23033:23114   */\n      sstore\n        /* \"#utility.yul\":22902:23124   */\n      pop\n        /* \"#utility.yul\":22237:23124   */\n      jump(tag_387)\n        /* \"#utility.yul\":22267:22885   */\n    tag_388:\n        /* \"#utility.yul\":22319:22323   */\n      0x1f\n        /* \"#utility.yul\":22315:22324   */\n      not\n        /* \"#utility.yul\":22307:22313   */\n      dup5\n        /* \"#utility.yul\":22303:22325   */\n      and\n        /* \"#utility.yul\":22353:22390   */\n      tag_391\n        /* \"#utility.yul\":22385:22389   */\n      dup7\n        /* \"#utility.yul\":22353:22390   */\n      tag_159\n      jump\t// in\n    tag_391:\n        /* \"#utility.yul\":22412:22413   */\n      0x00\n        /* \"#utility.yul\":22426:22634   */\n    tag_392:\n        /* \"#utility.yul\":22440:22447   */\n      dup3\n        /* \"#utility.yul\":22437:22438   */\n      dup2\n        /* \"#utility.yul\":22434:22448   */\n      lt\n        /* \"#utility.yul\":22426:22634   */\n      iszero\n      tag_394\n      jumpi\n        /* \"#utility.yul\":22519:22528   */\n      dup5\n        /* \"#utility.yul\":22514:22517   */\n      dup10\n        /* \"#utility.yul\":22510:22529   */\n      add\n        /* \"#utility.yul\":22504:22530   */\n      mload\n        /* \"#utility.yul\":22496:22502   */\n      dup3\n        /* \"#utility.yul\":22489:22531   */\n      sstore\n        /* \"#utility.yul\":22570:22571   */\n      0x01\n        /* \"#utility.yul\":22562:22568   */\n      dup3\n        /* \"#utility.yul\":22558:22572   */\n      add\n        /* \"#utility.yul\":22548:22572   */\n      swap2\n      pop\n        /* \"#utility.yul\":22617:22619   */\n      0x20\n        /* \"#utility.yul\":22606:22615   */\n      dup6\n        /* \"#utility.yul\":22602:22620   */\n      add\n        /* \"#utility.yul\":22589:22620   */\n      swap5\n      pop\n        /* \"#utility.yul\":22463:22467   */\n      0x20\n        /* \"#utility.yul\":22460:22461   */\n      dup2\n        /* \"#utility.yul\":22456:22468   */\n      add\n        /* \"#utility.yul\":22451:22468   */\n      swap1\n      pop\n        /* \"#utility.yul\":22426:22634   */\n      jump(tag_392)\n    tag_394:\n        /* \"#utility.yul\":22662:22668   */\n      dup7\n        /* \"#utility.yul\":22653:22660   */\n      dup4\n        /* \"#utility.yul\":22650:22669   */\n      lt\n        /* \"#utility.yul\":22647:22826   */\n      iszero\n      tag_395\n      jumpi\n        /* \"#utility.yul\":22720:22729   */\n      dup5\n        /* \"#utility.yul\":22715:22718   */\n      dup10\n        /* \"#utility.yul\":22711:22730   */\n      add\n        /* \"#utility.yul\":22705:22731   */\n      mload\n        /* \"#utility.yul\":22763:22811   */\n      tag_396\n        /* \"#utility.yul\":22805:22809   */\n      0x1f\n        /* \"#utility.yul\":22797:22803   */\n      dup10\n        /* \"#utility.yul\":22793:22810   */\n      and\n        /* \"#utility.yul\":22782:22791   */\n      dup3\n        /* \"#utility.yul\":22763:22811   */\n      tag_172\n      jump\t// in\n    tag_396:\n        /* \"#utility.yul\":22755:22761   */\n      dup4\n        /* \"#utility.yul\":22748:22812   */\n      sstore\n        /* \"#utility.yul\":22670:22826   */\n      pop\n        /* \"#utility.yul\":22647:22826   */\n    tag_395:\n        /* \"#utility.yul\":22872:22873   */\n      0x01\n        /* \"#utility.yul\":22868:22869   */\n      0x02\n        /* \"#utility.yul\":22860:22866   */\n      dup9\n        /* \"#utility.yul\":22856:22870   */\n      mul\n        /* \"#utility.yul\":22852:22874   */\n      add\n        /* \"#utility.yul\":22846:22850   */\n      dup9\n        /* \"#utility.yul\":22839:22875   */\n      sstore\n        /* \"#utility.yul\":22274:22885   */\n      pop\n      pop\n      pop\n        /* \"#utility.yul\":22237:23124   */\n    tag_387:\n      pop\n        /* \"#utility.yul\":21827:23130   */\n      pop\n      pop\n      pop\n        /* \"#utility.yul\":21735:23130   */\n      pop\n      pop\n      jump\t// out\n\n    auxdata: 0xa264697066735822122035b9d65dba968783cdb89296f0d93855d707c51291f6546ec9276d4a6695f86764736f6c634300081e0033\n}\n",
				"bytecode": {
					"linkReferences": {},
					"object": "60a060405260015f553480156012575f5ffd5b503373ffffffffffffffffffffffffffffffffffffffff1660808173ffffffffffffffffffffffffffffffffffffffff16815250506080516117b261006d5f395f81816101f10152818161051501526105e601526117b25ff3fe60806040526004361061006f575f3560e01c80634df8ccb11161004d5780634df8ccb1146100f35780637476452a1461011d578063e14891911461015b578063fc5f2b78146101855761006f565b806313bd20e214610073578063355e6b43146100af578063429cad86146100d7575b5f5ffd5b34801561007e575f5ffd5b5061009960048036038101906100949190610d94565b6101ad565b6040516100a69190610e08565b60405180910390f35b3480156100ba575f5ffd5b506100d560048036038101906100d09190610e54565b6101ef565b005b6100f160048036038101906100ec9190610edc565b610286565b005b3480156100fe575f5ffd5b506101076105e4565b6040516101149190610f36565b60405180910390f35b348015610128575f5ffd5b50610143600480360381019061013e9190610edc565b610608565b60405161015293929190610fbe565b60405180910390f35b348015610166575f5ffd5b5061016f61082a565b60405161017c9190610ffa565b60405180910390f35b348015610190575f5ffd5b506101ab60048036038101906101a69190611013565b61082f565b005b600282805160208101820180518482526020830160208501208183528095505050505050602052805f5260405f205f915091509054906101000a900460ff1681565b7f000000000000000000000000000000000000000000000000000000000000000073ffffffffffffffffffffffffffffffffffffffff163373ffffffffffffffffffffffffffffffffffffffff161461027d576040517f08c379a0000000000000000000000000000000000000000000000000000000008152600401610274906110ee565b60405180910390fd5b805f8190555050565b5f6001838360405161029992919061113a565b908152602001604051809103902090505f73ffffffffffffffffffffffffffffffffffffffff16816001015f9054906101000a900473ffffffffffffffffffffffffffffffffffffffff1673ffffffffffffffffffffffffffffffffffffffff160361033a576040517f08c379a00000000000000000000000000000000000000000000000000000000081526004016103319061119c565b60405180910390fd5b6002838360405161034c92919061113a565b90815260200160405180910390205f3373ffffffffffffffffffffffffffffffffffffffff1673ffffffffffffffffffffffffffffffffffffffff1681526020019081526020015f205f9054906101000a900460ff16156103e2576040517f08c379a00000000000000000000000000000000000000000000000000000000081526004016103d990611204565b60405180910390fd5b8060020154341015610429576040517f08c379a00000000000000000000000000000000000000000000000000000000081526004016104209061126c565b60405180910390fd5b60016002848460405161043d92919061113a565b90815260200160405180910390205f3373ffffffffffffffffffffffffffffffffffffffff1673ffffffffffffffffffffffffffffffffffffffff1681526020019081526020015f205f6101000a81548160ff0219169083151502179055505f5f54346104aa91906112b7565b9050816001015f9054906101000a900473ffffffffffffffffffffffffffffffffffffffff1673ffffffffffffffffffffffffffffffffffffffff166108fc8290811502906040515f60405180830381858888f19350505050158015610512573d5f5f3e3d5ffd5b507f000000000000000000000000000000000000000000000000000000000000000073ffffffffffffffffffffffffffffffffffffffff166108fc5f5490811502906040515f60405180830381858888f19350505050158015610577573d5f5f3e3d5ffd5b503373ffffffffffffffffffffffffffffffffffffffff16848460405161059f92919061113a565b60405180910390207f82ec752277142007941587a00adda02c84e2a7e5b3ebaf3fe51fe33b8689268d346040516105d69190610ffa565b60405180910390a350505050565b7f000000000000000000000000000000000000000000000000000000000000000081565b60605f5f5f6001868660405161061f92919061113a565b908152602001604051809103902090505f73ffffffffffffffffffffffffffffffffffffffff16816001015f9054906101000a900473ffffffffffffffffffffffffffffffffffffffff1673ffffffffffffffffffffffffffffffffffffffff16036106a4575f5f60405180602001604052805f815250919093509350935050610823565b5f8160020154148061071a5750600286866040516106c392919061113a565b90815260200160405180910390205f3373ffffffffffffffffffffffffffffffffffffffff1673ffffffffffffffffffffffffffffffffffffffff1681526020019081526020015f205f9054906101000a900460ff165b156107e157805f01816001015f9054906101000a900473ffffffffffffffffffffffffffffffffffffffff16826002015482805461075790611317565b80601f016020809104026020016040519081016040528092919081815260200182805461078390611317565b80156107ce5780601f106107a5576101008083540402835291602001916107ce565b820191905f5260205f20905b8154815290600101906020018083116107b157829003601f168201915b5050505050925093509350935050610823565b806001015f9054906101000a900473ffffffffffffffffffffffffffffffffffffffff16816002015460405180602001604052805f8152509190935093509350505b9250925092565b5f5481565b5f8585905011610874576040517f08c379a000000000000000000000000000000000000000000000000000000000815260040161086b90611391565b60405180910390fd5b5f83839050116108b9576040517f08c379a00000000000000000000000000000000000000000000000000000000081526004016108b0906113f9565b60405180910390fd5b5f8114806108c757505f5481115b610906576040517f08c379a00000000000000000000000000000000000000000000000000000000081526004016108fd90611461565b60405180910390fd5b5f6001848460405161091992919061113a565b908152602001604051809103902090505f73ffffffffffffffffffffffffffffffffffffffff16816001015f9054906101000a900473ffffffffffffffffffffffffffffffffffffffff1673ffffffffffffffffffffffffffffffffffffffff1614610a11573373ffffffffffffffffffffffffffffffffffffffff16816001015f9054906101000a900473ffffffffffffffffffffffffffffffffffffffff1673ffffffffffffffffffffffffffffffffffffffff1614610a10576040517f08c379a0000000000000000000000000000000000000000000000000000000008152600401610a07906114ef565b60405180910390fd5b5b604051806060016040528087878080601f0160208091040260200160405190810160405280939291908181526020018383808284375f81840152601f19601f8201169050808301925050505050505081526020013373ffffffffffffffffffffffffffffffffffffffff1681526020018381525060018585604051610a9792919061113a565b90815260200160405180910390205f820151815f019081610ab891906116ad565b506020820151816001015f6101000a81548173ffffffffffffffffffffffffffffffffffffffff021916908373ffffffffffffffffffffffffffffffffffffffff16021790555060408201518160020155905050600160028585604051610b2092919061113a565b90815260200160405180910390205f3373ffffffffffffffffffffffffffffffffffffffff1673ffffffffffffffffffffffffffffffffffffffff1681526020019081526020015f205f6101000a81548160ff0219169083151502179055503373ffffffffffffffffffffffffffffffffffffffff168484604051610ba692919061113a565b60405180910390207f9f74df5eec72a4c2fb2f83db8974cfc70535caba06231e115ab92cf821ee4c1284604051610bdd9190610ffa565b60405180910390a3505050505050565b5f604051905090565b5f5ffd5b5f5ffd5b5f5ffd5b5f5ffd5b5f601f19601f8301169050919050565b7f4e487b71000000000000000000000000000000000000000000000000000000005f52604160045260245ffd5b610c4c82610c06565b810181811067ffffffffffffffff82111715610c6b57610c6a610c16565b5b80604052505050565b5f610c7d610bed565b9050610c898282610c43565b919050565b5f67ffffffffffffffff821115610ca857610ca7610c16565b5b610cb182610c06565b9050602081019050919050565b828183375f83830152505050565b5f610cde610cd984610c8e565b610c74565b905082815260208101848484011115610cfa57610cf9610c02565b5b610d05848285610cbe565b509392505050565b5f82601f830112610d2157610d20610bfe565b5b8135610d31848260208601610ccc565b91505092915050565b5f73ffffffffffffffffffffffffffffffffffffffff82169050919050565b5f610d6382610d3a565b9050919050565b610d7381610d59565b8114610d7d575f5ffd5b50565b5f81359050610d8e81610d6a565b92915050565b5f5f60408385031215610daa57610da9610bf6565b5b5f83013567ffffffffffffffff811115610dc757610dc6610bfa565b5b610dd385828601610d0d565b9250506020610de485828601610d80565b9150509250929050565b5f8115159050919050565b610e0281610dee565b82525050565b5f602082019050610e1b5f830184610df9565b92915050565b5f819050919050565b610e3381610e21565b8114610e3d575f5ffd5b50565b5f81359050610e4e81610e2a565b92915050565b5f60208284031215610e6957610e68610bf6565b5b5f610e7684828501610e40565b91505092915050565b5f5ffd5b5f5ffd5b5f5f83601f840112610e9c57610e9b610bfe565b5b8235905067ffffffffffffffff811115610eb957610eb8610e7f565b5b602083019150836001820283011115610ed557610ed4610e83565b5b9250929050565b5f5f60208385031215610ef257610ef1610bf6565b5b5f83013567ffffffffffffffff811115610f0f57610f0e610bfa565b5b610f1b85828601610e87565b92509250509250929050565b610f3081610d59565b82525050565b5f602082019050610f495f830184610f27565b92915050565b5f81519050919050565b5f82825260208201905092915050565b8281835e5f83830152505050565b5f610f8182610f4f565b610f8b8185610f59565b9350610f9b818560208601610f69565b610fa481610c06565b840191505092915050565b610fb881610e21565b82525050565b5f6060820190508181035f830152610fd68186610f77565b9050610fe56020830185610f27565b610ff26040830184610faf565b949350505050565b5f60208201905061100d5f830184610faf565b92915050565b5f5f5f5f5f6060868803121561102c5761102b610bf6565b5b5f86013567ffffffffffffffff81111561104957611048610bfa565b5b61105588828901610e87565b9550955050602086013567ffffffffffffffff81111561107857611077610bfa565b5b61108488828901610e87565b9350935050604061109788828901610e40565b9150509295509295909350565b7f4f6e6c7920706c6174666f726d206f776e6572000000000000000000000000005f82015250565b5f6110d8601383610f59565b91506110e3826110a4565b602082019050919050565b5f6020820190508181035f830152611105816110cc565b9050919050565b5f81905092915050565b5f611121838561110c565b935061112e838584610cbe565b82840190509392505050565b5f611146828486611116565b91508190509392505050565b7f4c696e6b206e6f7420666f756e640000000000000000000000000000000000005f82015250565b5f611186600e83610f59565b915061119182611152565b602082019050919050565b5f6020820190508181035f8301526111b38161117a565b9050919050565b7f41636365737320616c7265616479206772616e746564000000000000000000005f82015250565b5f6111ee601683610f59565b91506111f9826111ba565b602082019050919050565b5f6020820190508181035f83015261121b816111e2565b9050919050565b7f496e73756666696369656e74207061796d656e740000000000000000000000005f82015250565b5f611256601483610f59565b915061126182611222565b602082019050919050565b5f6020820190508181035f8301526112838161124a565b9050919050565b7f4e487b71000000000000000000000000000000000000000000000000000000005f52601160045260245ffd5b5f6112c182610e21565b91506112cc83610e21565b92508282039050818111156112e4576112e361128a565b5b92915050565b7f4e487b71000000000000000000000000000000000000000000000000000000005f52602260045260245ffd5b5f600282049050600182168061132e57607f821691505b602082108103611341576113406112ea565b5b50919050565b7f55524c20726571756972656400000000000000000000000000000000000000005f82015250565b5f61137b600c83610f59565b915061138682611347565b602082019050919050565b5f6020820190508181035f8301526113a88161136f565b9050919050565b7f4c696e6b204944207265717569726564000000000000000000000000000000005f82015250565b5f6113e3601083610f59565b91506113ee826113af565b602082019050919050565b5f6020820190508181035f830152611410816113d7565b9050919050565b7f46656520746f6f206c6f770000000000000000000000000000000000000000005f82015250565b5f61144b600b83610f59565b915061145682611417565b602082019050919050565b5f6020820190508181035f8301526114788161143f565b9050919050565b7f4c696e6b20494420616c7265616479206f776e656420627920616e6f746865725f8201527f2075736572000000000000000000000000000000000000000000000000000000602082015250565b5f6114d9602583610f59565b91506114e48261147f565b604082019050919050565b5f6020820190508181035f830152611506816114cd565b9050919050565b5f819050815f5260205f209050919050565b5f6020601f8301049050919050565b5f82821b905092915050565b5f600883026115697fffffffffffffffffffffffffffffffffffffffffffffffffffffffffffffffff8261152e565b611573868361152e565b95508019841693508086168417925050509392505050565b5f819050919050565b5f6115ae6115a96115a484610e21565b61158b565b610e21565b9050919050565b5f819050919050565b6115c783611594565b6115db6115d3826115b5565b84845461153a565b825550505050565b5f5f905090565b6115f26115e3565b6115fd8184846115be565b505050565b5b81811015611620576116155f826115ea565b600181019050611603565b5050565b601f821115611665576116368161150d565b61163f8461151f565b8101602085101561164e578190505b61166261165a8561151f565b830182611602565b50505b505050565b5f82821c905092915050565b5f6116855f198460080261166a565b1980831691505092915050565b5f61169d8383611676565b9150826002028217905092915050565b6116b682610f4f565b67ffffffffffffffff8111156116cf576116ce610c16565b5b6116d98254611317565b6116e4828285611624565b5f60209050601f831160018114611715575f8415611703578287015190505b61170d8582611692565b865550611774565b601f1984166117238661150d565b5f5b8281101561174a57848901518255600182019150602085019450602081019050611725565b868310156117675784890151611763601f891682611676565b8355505b6001600288020188555050505b50505050505056fea264697066735822122035b9d65dba968783cdb89296f0d93855d707c51291f6546ec9276d4a6695f86764736f6c634300081e0033",
					"opcodes": "PUSH1 0xA0 PUSH1 0x40 MSTORE PUSH1 0x1 PUSH0 SSTORE CALLVALUE DUP1 ISZERO PUSH1 0x12 JUMPI PUSH0 PUSH0 REVERT JUMPDEST POP CALLER PUSH20 0xFFFFFFFFFFFFFFFFFFFFFFFFFFFFFFFFFFFFFFFF AND PUSH1 0x80 DUP2 PUSH20 0xFFFFFFFFFFFFFFFFFFFFFFFFFFFFFFFFFFFFFFFF AND DUP2 MSTORE POP POP PUSH1 0x80 MLOAD PUSH2 0x17B2 PUSH2 0x6D PUSH0 CODECOPY PUSH0 DUP2 DUP2 PUSH2 0x1F1 ADD MSTORE DUP2 DUP2 PUSH2 0x515 ADD MSTORE PUSH2 0x5E6 ADD MSTORE PUSH2 0x17B2 PUSH0 RETURN INVALID PUSH1 0x80 PUSH1 0x40 MSTORE PUSH1 0x4 CALLDATASIZE LT PUSH2 0x6F JUMPI PUSH0 CALLDATALOAD PUSH1 0xE0 SHR DUP1 PUSH4 0x4DF8CCB1 GT PUSH2 0x4D JUMPI DUP1 PUSH4 0x4DF8CCB1 EQ PUSH2 0xF3 JUMPI DUP1 PUSH4 0x7476452A EQ PUSH2 0x11D JUMPI DUP1 PUSH4 0xE1489191 EQ PUSH2 0x15B JUMPI DUP1 PUSH4 0xFC5F2B78 EQ PUSH2 0x185 JUMPI PUSH2 0x6F JUMP JUMPDEST DUP1 PUSH4 0x13BD20E2 EQ PUSH2 0x73 JUMPI DUP1 PUSH4 0x355E6B43 EQ PUSH2 0xAF JUMPI DUP1 PUSH4 0x429CAD86 EQ PUSH2 0xD7 JUMPI JUMPDEST PUSH0 PUSH0 REVERT JUMPDEST CALLVALUE DUP1 ISZERO PUSH2 0x7E JUMPI PUSH0 PUSH0 REVERT JUMPDEST POP PUSH2 0x99 PUSH1 0x4 DUP1 CALLDATASIZE SUB DUP2 ADD SWAP1 PUSH2 0x94 SWAP2 SWAP1 PUSH2 0xD94 JUMP JUMPDEST PUSH2 0x1AD JUMP JUMPDEST PUSH1 0x40 MLOAD PUSH2 0xA6 SWAP2 SWAP1 PUSH2 0xE08 JUMP JUMPDEST PUSH1 0x40 MLOAD DUP1 SWAP2 SUB SWAP1 RETURN JUMPDEST CALLVALUE DUP1 ISZERO PUSH2 0xBA JUMPI PUSH0 PUSH0 REVERT JUMPDEST POP PUSH2 0xD5 PUSH1 0x4 DUP1 CALLDATASIZE SUB DUP2 ADD SWAP1 PUSH2 0xD0 SWAP2 SWAP1 PUSH2 0xE54 JUMP JUMPDEST PUSH2 0x1EF JUMP JUMPDEST STOP JUMPDEST PUSH2 0xF1 PUSH1 0x4 DUP1 CALLDATASIZE SUB DUP2 ADD SWAP1 PUSH2 0xEC SWAP2 SWAP1 PUSH2 0xEDC JUMP JUMPDEST PUSH2 0x286 JUMP JUMPDEST STOP JUMPDEST CALLVALUE DUP1 ISZERO PUSH2 0xFE JUMPI PUSH0 PUSH0 REVERT JUMPDEST POP PUSH2 0x107 PUSH2 0x5E4 JUMP JUMPDEST PUSH1 0x40 MLOAD PUSH2 0x114 SWAP2 SWAP1 PUSH2 0xF36 JUMP JUMPDEST PUSH1 0x40 MLOAD DUP1 SWAP2 SUB SWAP1 RETURN JUMPDEST CALLVALUE DUP1 ISZERO PUSH2 0x128 JUMPI PUSH0 PUSH0 REVERT JUMPDEST POP PUSH2 0x143 PUSH1 0x4 DUP1 CALLDATASIZE SUB DUP2 ADD SWAP1 PUSH2 0x13E SWAP2 SWAP1 PUSH2 0xEDC JUMP JUMPDEST PUSH2 0x608 JUMP JUMPDEST PUSH1 0x40 MLOAD PUSH2 0x152 SWAP4 SWAP3 SWAP2 SWAP1 PUSH2 0xFBE JUMP JUMPDEST PUSH1 0x40 MLOAD DUP1 SWAP2 SUB SWAP1 RETURN JUMPDEST CALLVALUE DUP1 ISZERO PUSH2 0x166 JUMPI PUSH0 PUSH0 REVERT JUMPDEST POP PUSH2 0x16F PUSH2 0x82A JUMP JUMPDEST PUSH1 0x40 MLOAD PUSH2 0x17C SWAP2 SWAP1 PUSH2 0xFFA JUMP JUMPDEST PUSH1 0x40 MLOAD DUP1 SWAP2 SUB SWAP1 RETURN JUMPDEST CALLVALUE DUP1 ISZERO PUSH2 0x190 JUMPI PUSH0 PUSH0 REVERT JUMPDEST POP PUSH2 0x1AB PUSH1 0x4 DUP1 CALLDATASIZE SUB DUP2 ADD SWAP1 PUSH2 0x1A6 SWAP2 SWAP1 PUSH2 0x1013 JUMP JUMPDEST PUSH2 0x82F JUMP JUMPDEST STOP JUMPDEST PUSH1 0x2 DUP3 DUP1 MLOAD PUSH1 0x20 DUP2 ADD DUP3 ADD DUP1 MLOAD DUP5 DUP3 MSTORE PUSH1 0x20 DUP4 ADD PUSH1 0x20 DUP6 ADD KECCAK256 DUP2 DUP4 MSTORE DUP1 SWAP6 POP POP POP POP POP POP PUSH1 0x20 MSTORE DUP1 PUSH0 MSTORE PUSH1 0x40 PUSH0 KECCAK256 PUSH0 SWAP2 POP SWAP2 POP SWAP1 SLOAD SWAP1 PUSH2 0x100 EXP SWAP1 DIV PUSH1 0xFF AND DUP2 JUMP JUMPDEST PUSH32 0x0 PUSH20 0xFFFFFFFFFFFFFFFFFFFFFFFFFFFFFFFFFFFFFFFF AND CALLER PUSH20 0xFFFFFFFFFFFFFFFFFFFFFFFFFFFFFFFFFFFFFFFF AND EQ PUSH2 0x27D JUMPI PUSH1 0x40 MLOAD PUSH32 0x8C379A000000000000000000000000000000000000000000000000000000000 DUP2 MSTORE PUSH1 0x4 ADD PUSH2 0x274 SWAP1 PUSH2 0x10EE JUMP JUMPDEST PUSH1 0x40 MLOAD DUP1 SWAP2 SUB SWAP1 REVERT JUMPDEST DUP1 PUSH0 DUP2 SWAP1 SSTORE POP POP JUMP JUMPDEST PUSH0 PUSH1 0x1 DUP4 DUP4 PUSH1 0x40 MLOAD PUSH2 0x299 SWAP3 SWAP2 SWAP1 PUSH2 0x113A JUMP JUMPDEST SWAP1 DUP2 MSTORE PUSH1 0x20 ADD PUSH1 0x40 MLOAD DUP1 SWAP2 SUB SWAP1 KECCAK256 SWAP1 POP PUSH0 PUSH20 0xFFFFFFFFFFFFFFFFFFFFFFFFFFFFFFFFFFFFFFFF AND DUP2 PUSH1 0x1 ADD PUSH0 SWAP1 SLOAD SWAP1 PUSH2 0x100 EXP SWAP1 DIV PUSH20 0xFFFFFFFFFFFFFFFFFFFFFFFFFFFFFFFFFFFFFFFF AND PUSH20 0xFFFFFFFFFFFFFFFFFFFFFFFFFFFFFFFFFFFFFFFF AND SUB PUSH2 0x33A JUMPI PUSH1 0x40 MLOAD PUSH32 0x8C379A000000000000000000000000000000000000000000000000000000000 DUP2 MSTORE PUSH1 0x4 ADD PUSH2 0x331 SWAP1 PUSH2 0x119C JUMP JUMPDEST PUSH1 0x40 MLOAD DUP1 SWAP2 SUB SWAP1 REVERT JUMPDEST PUSH1 0x2 DUP4 DUP4 PUSH1 0x40 MLOAD PUSH2 0x34C SWAP3 SWAP2 SWAP1 PUSH2 0x113A JUMP JUMPDEST SWAP1 DUP2 MSTORE PUSH1 0x20 ADD PUSH1 0x40 MLOAD DUP1 SWAP2 SUB SWAP1 KECCAK256 PUSH0 CALLER PUSH20 0xFFFFFFFFFFFFFFFFFFFFFFFFFFFFFFFFFFFFFFFF AND PUSH20 0xFFFFFFFFFFFFFFFFFFFFFFFFFFFFFFFFFFFFFFFF AND DUP2 MSTORE PUSH1 0x20 ADD SWAP1 DUP2 MSTORE PUSH1 0x20 ADD PUSH0 KECCAK256 PUSH0 SWAP1 SLOAD SWAP1 PUSH2 0x100 EXP SWAP1 DIV PUSH1 0xFF AND ISZERO PUSH2 0x3E2 JUMPI PUSH1 0x40 MLOAD PUSH32 0x8C379A000000000000000000000000000000000000000000000000000000000 DUP2 MSTORE PUSH1 0x4 ADD PUSH2 0x3D9 SWAP1 PUSH2 0x1204 JUMP JUMPDEST PUSH1 0x40 MLOAD DUP1 SWAP2 SUB SWAP1 REVERT JUMPDEST DUP1 PUSH1 0x2 ADD SLOAD CALLVALUE LT ISZERO PUSH2 0x429 JUMPI PUSH1 0x40 MLOAD PUSH32 0x8C379A000000000000000000000000000000000000000000000000000000000 DUP2 MSTORE PUSH1 0x4 ADD PUSH2 0x420 SWAP1 PUSH2 0x126C JUMP JUMPDEST PUSH1 0x40 MLOAD DUP1 SWAP2 SUB SWAP1 REVERT JUMPDEST PUSH1 0x1 PUSH1 0x2 DUP5 DUP5 PUSH1 0x40 MLOAD PUSH2 0x43D SWAP3 SWAP2 SWAP1 PUSH2 0x113A JUMP JUMPDEST SWAP1 DUP2 MSTORE PUSH1 0x20 ADD PUSH1 0x40 MLOAD DUP1 SWAP2 SUB SWAP1 KECCAK256 PUSH0 CALLER PUSH20 0xFFFFFFFFFFFFFFFFFFFFFFFFFFFFFFFFFFFFFFFF AND PUSH20 0xFFFFFFFFFFFFFFFFFFFFFFFFFFFFFFFFFFFFFFFF AND DUP2 MSTORE PUSH1 0x20 ADD SWAP1 DUP2 MSTORE PUSH1 0x20 ADD PUSH0 KECCAK256 PUSH0 PUSH2 0x100 EXP DUP2 SLOAD DUP2 PUSH1 0xFF MUL NOT AND SWAP1 DUP4 ISZERO ISZERO MUL OR SWAP1 SSTORE POP PUSH0 PUSH0 SLOAD CALLVALUE PUSH2 0x4AA SWAP2 SWAP1 PUSH2 0x12B7 JUMP JUMPDEST SWAP1 POP DUP2 PUSH1 0x1 ADD PUSH0 SWAP1 SLOAD SWAP1 PUSH2 0x100 EXP SWAP1 DIV PUSH20 0xFFFFFFFFFFFFFFFFFFFFFFFFFFFFFFFFFFFFFFFF AND PUSH20 0xFFFFFFFFFFFFFFFFFFFFFFFFFFFFFFFFFFFFFFFF AND PUSH2 0x8FC DUP3 SWAP1 DUP2 ISZERO MUL SWAP1 PUSH1 0x40 MLOAD PUSH0 PUSH1 0x40 MLOAD DUP1 DUP4 SUB DUP2 DUP6 DUP9 DUP9 CALL SWAP4 POP POP POP POP ISZERO DUP1 ISZERO PUSH2 0x512 JUMPI RETURNDATASIZE PUSH0 PUSH0 RETURNDATACOPY RETURNDATASIZE PUSH0 REVERT JUMPDEST POP PUSH32 0x0 PUSH20 0xFFFFFFFFFFFFFFFFFFFFFFFFFFFFFFFFFFFFFFFF AND PUSH2 0x8FC PUSH0 SLOAD SWAP1 DUP2 ISZERO MUL SWAP1 PUSH1 0x40 MLOAD PUSH0 PUSH1 0x40 MLOAD DUP1 DUP4 SUB DUP2 DUP6 DUP9 DUP9 CALL SWAP4 POP POP POP POP ISZERO DUP1 ISZERO PUSH2 0x577 JUMPI RETURNDATASIZE PUSH0 PUSH0 RETURNDATACOPY RETURNDATASIZE PUSH0 REVERT JUMPDEST POP CALLER PUSH20 0xFFFFFFFFFFFFFFFFFFFFFFFFFFFFFFFFFFFFFFFF AND DUP5 DUP5 PUSH1 0x40 MLOAD PUSH2 0x59F SWAP3 SWAP2 SWAP1 PUSH2 0x113A JUMP JUMPDEST PUSH1 0x40 MLOAD DUP1 SWAP2 SUB SWAP1 KECCAK256 PUSH32 0x82EC752277142007941587A00ADDA02C84E2A7E5B3EBAF3FE51FE33B8689268D CALLVALUE PUSH1 0x40 MLOAD PUSH2 0x5D6 SWAP2 SWAP1 PUSH2 0xFFA JUMP JUMPDEST PUSH1 0x40 MLOAD DUP1 SWAP2 SUB SWAP1 LOG3 POP POP POP POP JUMP JUMPDEST PUSH32 0x0 DUP2 JUMP JUMPDEST PUSH1 0x60 PUSH0 PUSH0 PUSH0 PUSH1 0x1 DUP7 DUP7 PUSH1 0x40 MLOAD PUSH2 0x61F SWAP3 SWAP2 SWAP1 PUSH2 0x113A JUMP JUMPDEST SWAP1 DUP2 MSTORE PUSH1 0x20 ADD PUSH1 0x40 MLOAD DUP1 SWAP2 SUB SWAP1 KECCAK256 SWAP1 POP PUSH0 PUSH20 0xFFFFFFFFFFFFFFFFFFFFFFFFFFFFFFFFFFFFFFFF AND DUP2 PUSH1 0x1 ADD PUSH0 SWAP1 SLOAD SWAP1 PUSH2 0x100 EXP SWAP1 DIV PUSH20 0xFFFFFFFFFFFFFFFFFFFFFFFFFFFFFFFFFFFFFFFF AND PUSH20 0xFFFFFFFFFFFFFFFFFFFFFFFFFFFFFFFFFFFFFFFF AND SUB PUSH2 0x6A4 JUMPI PUSH0 PUSH0 PUSH1 0x40 MLOAD DUP1 PUSH1 0x20 ADD PUSH1 0x40 MSTORE DUP1 PUSH0 DUP2 MSTORE POP SWAP2 SWAP1 SWAP4 POP SWAP4 POP SWAP4 POP POP PUSH2 0x823 JUMP JUMPDEST PUSH0 DUP2 PUSH1 0x2 ADD SLOAD EQ DUP1 PUSH2 0x71A JUMPI POP PUSH1 0x2 DUP7 DUP7 PUSH1 0x40 MLOAD PUSH2 0x6C3 SWAP3 SWAP2 SWAP1 PUSH2 0x113A JUMP JUMPDEST SWAP1 DUP2 MSTORE PUSH1 0x20 ADD PUSH1 0x40 MLOAD DUP1 SWAP2 SUB SWAP1 KECCAK256 PUSH0 CALLER PUSH20 0xFFFFFFFFFFFFFFFFFFFFFFFFFFFFFFFFFFFFFFFF AND PUSH20 0xFFFFFFFFFFFFFFFFFFFFFFFFFFFFFFFFFFFFFFFF AND DUP2 MSTORE PUSH1 0x20 ADD SWAP1 DUP2 MSTORE PUSH1 0x20 ADD PUSH0 KECCAK256 PUSH0 SWAP1 SLOAD SWAP1 PUSH2 0x100 EXP SWAP1 DIV PUSH1 0xFF AND JUMPDEST ISZERO PUSH2 0x7E1 JUMPI DUP1 PUSH0 ADD DUP2 PUSH1 0x1 ADD PUSH0 SWAP1 SLOAD SWAP1 PUSH2 0x100 EXP SWAP1 DIV PUSH20 0xFFFFFFFFFFFFFFFFFFFFFFFFFFFFFFFFFFFFFFFF AND DUP3 PUSH1 0x2 ADD SLOAD DUP3 DUP1 SLOAD PUSH2 0x757 SWAP1 PUSH2 0x1317 JUMP JUMPDEST DUP1 PUSH1 0x1F ADD PUSH1 0x20 DUP1 SWAP2 DIV MUL PUSH1 0x20 ADD PUSH1 0x40 MLOAD SWAP1 DUP2 ADD PUSH1 0x40 MSTORE DUP1 SWAP3 SWAP2 SWAP1 DUP2 DUP2 MSTORE PUSH1 0x20 ADD DUP3 DUP1 SLOAD PUSH2 0x783 SWAP1 PUSH2 0x1317 JUMP JUMPDEST DUP1 ISZERO PUSH2 0x7CE JUMPI DUP1 PUSH1 0x1F LT PUSH2 0x7A5 JUMPI PUSH2 0x100 DUP1 DUP4 SLOAD DIV MUL DUP4 MSTORE SWAP2 PUSH1 0x20 ADD SWAP2 PUSH2 0x7CE JUMP JUMPDEST DUP3 ADD SWAP2 SWAP1 PUSH0 MSTORE PUSH1 0x20 PUSH0 KECCAK256 SWAP1 JUMPDEST DUP2 SLOAD DUP2 MSTORE SWAP1 PUSH1 0x1 ADD SWAP1 PUSH1 0x20 ADD DUP1 DUP4 GT PUSH2 0x7B1 JUMPI DUP3 SWAP1 SUB PUSH1 0x1F AND DUP3 ADD SWAP2 JUMPDEST POP POP POP POP POP SWAP3 POP SWAP4 POP SWAP4 POP SWAP4 POP POP PUSH2 0x823 JUMP JUMPDEST DUP1 PUSH1 0x1 ADD PUSH0 SWAP1 SLOAD SWAP1 PUSH2 0x100 EXP SWAP1 DIV PUSH20 0xFFFFFFFFFFFFFFFFFFFFFFFFFFFFFFFFFFFFFFFF AND DUP2 PUSH1 0x2 ADD SLOAD PUSH1 0x40 MLOAD DUP1 PUSH1 0x20 ADD PUSH1 0x40 MSTORE DUP1 PUSH0 DUP2 MSTORE POP SWAP2 SWAP1 SWAP4 POP SWAP4 POP SWAP4 POP POP JUMPDEST SWAP3 POP SWAP3 POP SWAP3 JUMP JUMPDEST PUSH0 SLOAD DUP2 JUMP JUMPDEST PUSH0 DUP6 DUP6 SWAP1 POP GT PUSH2 0x874 JUMPI PUSH1 0x40 MLOAD PUSH32 0x8C379A000000000000000000000000000000000000000000000000000000000 DUP2 MSTORE PUSH1 0x4 ADD PUSH2 0x86B SWAP1 PUSH2 0x1391 JUMP JUMPDEST PUSH1 0x40 MLOAD DUP1 SWAP2 SUB SWAP1 REVERT JUMPDEST PUSH0 DUP4 DUP4 SWAP1 POP GT PUSH2 0x8B9 JUMPI PUSH1 0x40 MLOAD PUSH32 0x8C379A000000000000000000000000000000000000000000000000000000000 DUP2 MSTORE PUSH1 0x4 ADD PUSH2 0x8B0 SWAP1 PUSH2 0x13F9 JUMP JUMPDEST PUSH1 0x40 MLOAD DUP1 SWAP2 SUB SWAP1 REVERT JUMPDEST PUSH0 DUP2 EQ DUP1 PUSH2 0x8C7 JUMPI POP PUSH0 SLOAD DUP2 GT JUMPDEST PUSH2 0x906 JUMPI PUSH1 0x40 MLOAD PUSH32 0x8C379A000000000000000000000000000000000000000000000000000000000 DUP2 MSTORE PUSH1 0x4 ADD PUSH2 0x8FD SWAP1 PUSH2 0x1461 JUMP JUMPDEST PUSH1 0x40 MLOAD DUP1 SWAP2 SUB SWAP1 REVERT JUMPDEST PUSH0 PUSH1 0x1 DUP5 DUP5 PUSH1 0x40 MLOAD PUSH2 0x919 SWAP3 SWAP2 SWAP1 PUSH2 0x113A JUMP JUMPDEST SWAP1 DUP2 MSTORE PUSH1 0x20 ADD PUSH1 0x40 MLOAD DUP1 SWAP2 SUB SWAP1 KECCAK256 SWAP1 POP PUSH0 PUSH20 0xFFFFFFFFFFFFFFFFFFFFFFFFFFFFFFFFFFFFFFFF AND DUP2 PUSH1 0x1 ADD PUSH0 SWAP1 SLOAD SWAP1 PUSH2 0x100 EXP SWAP1 DIV PUSH20 0xFFFFFFFFFFFFFFFFFFFFFFFFFFFFFFFFFFFFFFFF AND PUSH20 0xFFFFFFFFFFFFFFFFFFFFFFFFFFFFFFFFFFFFFFFF AND EQ PUSH2 0xA11 JUMPI CALLER PUSH20 0xFFFFFFFFFFFFFFFFFFFFFFFFFFFFFFFFFFFFFFFF AND DUP2 PUSH1 0x1 ADD PUSH0 SWAP1 SLOAD SWAP1 PUSH2 0x100 EXP SWAP1 DIV PUSH20 0xFFFFFFFFFFFFFFFFFFFFFFFFFFFFFFFFFFFFFFFF AND PUSH20 0xFFFFFFFFFFFFFFFFFFFFFFFFFFFFFFFFFFFFFFFF AND EQ PUSH2 0xA10 JUMPI PUSH1 0x40 MLOAD PUSH32 0x8C379A000000000000000000000000000000000000000000000000000000000 DUP2 MSTORE PUSH1 0x4 ADD PUSH2 0xA07 SWAP1 PUSH2 0x14EF JUMP JUMPDEST PUSH1 0x40 MLOAD DUP1 SWAP2 SUB SWAP1 REVERT JUMPDEST JUMPDEST PUSH1 0x40 MLOAD DUP1 PUSH1 0x60 ADD PUSH1 0x40 MSTORE DUP1 DUP8 DUP8 DUP1 DUP1 PUSH1 0x1F ADD PUSH1 0x20 DUP1 SWAP2 DIV MUL PUSH1 0x20 ADD PUSH1 0x40 MLOAD SWAP1 DUP2 ADD PUSH1 0x40 MSTORE DUP1 SWAP4 SWAP3 SWAP2 SWAP1 DUP2 DUP2 MSTORE PUSH1 0x20 ADD DUP4 DUP4 DUP1 DUP3 DUP5 CALLDATACOPY PUSH0 DUP2 DUP5 ADD MSTORE PUSH1 0x1F NOT PUSH1 0x1F DUP3 ADD AND SWAP1 POP DUP1 DUP4 ADD SWAP3 POP POP POP POP POP POP POP DUP2 MSTORE PUSH1 0x20 ADD CALLER PUSH20 0xFFFFFFFFFFFFFFFFFFFFFFFFFFFFFFFFFFFFFFFF AND DUP2 MSTORE PUSH1 0x20 ADD DUP4 DUP2 MSTORE POP PUSH1 0x1 DUP6 DUP6 PUSH1 0x40 MLOAD PUSH2 0xA97 SWAP3 SWAP2 SWAP1 PUSH2 0x113A JUMP JUMPDEST SWAP1 DUP2 MSTORE PUSH1 0x20 ADD PUSH1 0x40 MLOAD DUP1 SWAP2 SUB SWAP1 KECCAK256 PUSH0 DUP3 ADD MLOAD DUP2 PUSH0 ADD SWAP1 DUP2 PUSH2 0xAB8 SWAP2 SWAP1 PUSH2 0x16AD JUMP JUMPDEST POP PUSH1 0x20 DUP3 ADD MLOAD DUP2 PUSH1 0x1 ADD PUSH0 PUSH2 0x100 EXP DUP2 SLOAD DUP2 PUSH20 0xFFFFFFFFFFFFFFFFFFFFFFFFFFFFFFFFFFFFFFFF MUL NOT AND SWAP1 DUP4 PUSH20 0xFFFFFFFFFFFFFFFFFFFFFFFFFFFFFFFFFFFFFFFF AND MUL OR SWAP1 SSTORE POP PUSH1 0x40 DUP3 ADD MLOAD DUP2 PUSH1 0x2 ADD SSTORE SWAP1 POP POP PUSH1 0x1 PUSH1 0x2 DUP6 DUP6 PUSH1 0x40 MLOAD PUSH2 0xB20 SWAP3 SWAP2 SWAP1 PUSH2 0x113A JUMP JUMPDEST SWAP1 DUP2 MSTORE PUSH1 0x20 ADD PUSH1 0x40 MLOAD DUP1 SWAP2 SUB SWAP1 KECCAK256 PUSH0 CALLER PUSH20 0xFFFFFFFFFFFFFFFFFFFFFFFFFFFFFFFFFFFFFFFF AND PUSH20 0xFFFFFFFFFFFFFFFFFFFFFFFFFFFFFFFFFFFFFFFF AND DUP2 MSTORE PUSH1 0x20 ADD SWAP1 DUP2 MSTORE PUSH1 0x20 ADD PUSH0 KECCAK256 PUSH0 PUSH2 0x100 EXP DUP2 SLOAD DUP2 PUSH1 0xFF MUL NOT AND SWAP1 DUP4 ISZERO ISZERO MUL OR SWAP1 SSTORE POP CALLER PUSH20 0xFFFFFFFFFFFFFFFFFFFFFFFFFFFFFFFFFFFFFFFF AND DUP5 DUP5 PUSH1 0x40 MLOAD PUSH2 0xBA6 SWAP3 SWAP2 SWAP1 PUSH2 0x113A JUMP JUMPDEST PUSH1 0x40 MLOAD DUP1 SWAP2 SUB SWAP1 KECCAK256 PUSH32 0x9F74DF5EEC72A4C2FB2F83DB8974CFC70535CABA06231E115AB92CF821EE4C12 DUP5 PUSH1 0x40 MLOAD PUSH2 0xBDD SWAP2 SWAP1 PUSH2 0xFFA JUMP JUMPDEST PUSH1 0x40 MLOAD DUP1 SWAP2 SUB SWAP1 LOG3 POP POP POP POP POP POP JUMP JUMPDEST PUSH0 PUSH1 0x40 MLOAD SWAP1 POP SWAP1 JUMP JUMPDEST PUSH0 PUSH0 REVERT JUMPDEST PUSH0 PUSH0 REVERT JUMPDEST PUSH0 PUSH0 REVERT JUMPDEST PUSH0 PUSH0 REVERT JUMPDEST PUSH0 PUSH1 0x1F NOT PUSH1 0x1F DUP4 ADD AND SWAP1 POP SWAP2 SWAP1 POP JUMP JUMPDEST PUSH32 0x4E487B7100000000000000000000000000000000000000000000000000000000 PUSH0 MSTORE PUSH1 0x41 PUSH1 0x4 MSTORE PUSH1 0x24 PUSH0 REVERT JUMPDEST PUSH2 0xC4C DUP3 PUSH2 0xC06 JUMP JUMPDEST DUP2 ADD DUP2 DUP2 LT PUSH8 0xFFFFFFFFFFFFFFFF DUP3 GT OR ISZERO PUSH2 0xC6B JUMPI PUSH2 0xC6A PUSH2 0xC16 JUMP JUMPDEST JUMPDEST DUP1 PUSH1 0x40 MSTORE POP POP POP JUMP JUMPDEST PUSH0 PUSH2 0xC7D PUSH2 0xBED JUMP JUMPDEST SWAP1 POP PUSH2 0xC89 DUP3 DUP3 PUSH2 0xC43 JUMP JUMPDEST SWAP2 SWAP1 POP JUMP JUMPDEST PUSH0 PUSH8 0xFFFFFFFFFFFFFFFF DUP3 GT ISZERO PUSH2 0xCA8 JUMPI PUSH2 0xCA7 PUSH2 0xC16 JUMP JUMPDEST JUMPDEST PUSH2 0xCB1 DUP3 PUSH2 0xC06 JUMP JUMPDEST SWAP1 POP PUSH1 0x20 DUP2 ADD SWAP1 POP SWAP2 SWAP1 POP JUMP JUMPDEST DUP3 DUP2 DUP4 CALLDATACOPY PUSH0 DUP4 DUP4 ADD MSTORE POP POP POP JUMP JUMPDEST PUSH0 PUSH2 0xCDE PUSH2 0xCD9 DUP5 PUSH2 0xC8E JUMP JUMPDEST PUSH2 0xC74 JUMP JUMPDEST SWAP1 POP DUP3 DUP2 MSTORE PUSH1 0x20 DUP2 ADD DUP5 DUP5 DUP5 ADD GT ISZERO PUSH2 0xCFA JUMPI PUSH2 0xCF9 PUSH2 0xC02 JUMP JUMPDEST JUMPDEST PUSH2 0xD05 DUP5 DUP3 DUP6 PUSH2 0xCBE JUMP JUMPDEST POP SWAP4 SWAP3 POP POP POP JUMP JUMPDEST PUSH0 DUP3 PUSH1 0x1F DUP4 ADD SLT PUSH2 0xD21 JUMPI PUSH2 0xD20 PUSH2 0xBFE JUMP JUMPDEST JUMPDEST DUP2 CALLDATALOAD PUSH2 0xD31 DUP5 DUP3 PUSH1 0x20 DUP7 ADD PUSH2 0xCCC JUMP JUMPDEST SWAP2 POP POP SWAP3 SWAP2 POP POP JUMP JUMPDEST PUSH0 PUSH20 0xFFFFFFFFFFFFFFFFFFFFFFFFFFFFFFFFFFFFFFFF DUP3 AND SWAP1 POP SWAP2 SWAP1 POP JUMP JUMPDEST PUSH0 PUSH2 0xD63 DUP3 PUSH2 0xD3A JUMP JUMPDEST SWAP1 POP SWAP2 SWAP1 POP JUMP JUMPDEST PUSH2 0xD73 DUP2 PUSH2 0xD59 JUMP JUMPDEST DUP2 EQ PUSH2 0xD7D JUMPI PUSH0 PUSH0 REVERT JUMPDEST POP JUMP JUMPDEST PUSH0 DUP2 CALLDATALOAD SWAP1 POP PUSH2 0xD8E DUP2 PUSH2 0xD6A JUMP JUMPDEST SWAP3 SWAP2 POP POP JUMP JUMPDEST PUSH0 PUSH0 PUSH1 0x40 DUP4 DUP6 SUB SLT ISZERO PUSH2 0xDAA JUMPI PUSH2 0xDA9 PUSH2 0xBF6 JUMP JUMPDEST JUMPDEST PUSH0 DUP4 ADD CALLDATALOAD PUSH8 0xFFFFFFFFFFFFFFFF DUP2 GT ISZERO PUSH2 0xDC7 JUMPI PUSH2 0xDC6 PUSH2 0xBFA JUMP JUMPDEST JUMPDEST PUSH2 0xDD3 DUP6 DUP3 DUP7 ADD PUSH2 0xD0D JUMP JUMPDEST SWAP3 POP POP PUSH1 0x20 PUSH2 0xDE4 DUP6 DUP3 DUP7 ADD PUSH2 0xD80 JUMP JUMPDEST SWAP2 POP POP SWAP3 POP SWAP3 SWAP1 POP JUMP JUMPDEST PUSH0 DUP2 ISZERO ISZERO SWAP1 POP SWAP2 SWAP1 POP JUMP JUMPDEST PUSH2 0xE02 DUP2 PUSH2 0xDEE JUMP JUMPDEST DUP3 MSTORE POP POP JUMP JUMPDEST PUSH0 PUSH1 0x20 DUP3 ADD SWAP1 POP PUSH2 0xE1B PUSH0 DUP4 ADD DUP5 PUSH2 0xDF9 JUMP JUMPDEST SWAP3 SWAP2 POP POP JUMP JUMPDEST PUSH0 DUP2 SWAP1 POP SWAP2 SWAP1 POP JUMP JUMPDEST PUSH2 0xE33 DUP2 PUSH2 0xE21 JUMP JUMPDEST DUP2 EQ PUSH2 0xE3D JUMPI PUSH0 PUSH0 REVERT JUMPDEST POP JUMP JUMPDEST PUSH0 DUP2 CALLDATALOAD SWAP1 POP PUSH2 0xE4E DUP2 PUSH2 0xE2A JUMP JUMPDEST SWAP3 SWAP2 POP POP JUMP JUMPDEST PUSH0 PUSH1 0x20 DUP3 DUP5 SUB SLT ISZERO PUSH2 0xE69 JUMPI PUSH2 0xE68 PUSH2 0xBF6 JUMP JUMPDEST JUMPDEST PUSH0 PUSH2 0xE76 DUP5 DUP3 DUP6 ADD PUSH2 0xE40 JUMP JUMPDEST SWAP2 POP POP SWAP3 SWAP2 POP POP JUMP JUMPDEST PUSH0 PUSH0 REVERT JUMPDEST PUSH0 PUSH0 REVERT JUMPDEST PUSH0 PUSH0 DUP4 PUSH1 0x1F DUP5 ADD SLT PUSH2 0xE9C JUMPI PUSH2 0xE9B PUSH2 0xBFE JUMP JUMPDEST JUMPDEST DUP3 CALLDATALOAD SWAP1 POP PUSH8 0xFFFFFFFFFFFFFFFF DUP2 GT ISZERO PUSH2 0xEB9 JUMPI PUSH2 0xEB8 PUSH2 0xE7F JUMP JUMPDEST JUMPDEST PUSH1 0x20 DUP4 ADD SWAP2 POP DUP4 PUSH1 0x1 DUP3 MUL DUP4 ADD GT ISZERO PUSH2 0xED5 JUMPI PUSH2 0xED4 PUSH2 0xE83 JUMP JUMPDEST JUMPDEST SWAP3 POP SWAP3 SWAP1 POP JUMP JUMPDEST PUSH0 PUSH0 PUSH1 0x20 DUP4 DUP6 SUB SLT ISZERO PUSH2 0xEF2 JUMPI PUSH2 0xEF1 PUSH2 0xBF6 JUMP JUMPDEST JUMPDEST PUSH0 DUP4 ADD CALLDATALOAD PUSH8 0xFFFFFFFFFFFFFFFF DUP2 GT ISZERO PUSH2 0xF0F JUMPI PUSH2 0xF0E PUSH2 0xBFA JUMP JUMPDEST JUMPDEST PUSH2 0xF1B DUP6 DUP3 DUP7 ADD PUSH2 0xE87 JUMP JUMPDEST SWAP3 POP SWAP3 POP POP SWAP3 POP SWAP3 SWAP1 POP JUMP JUMPDEST PUSH2 0xF30 DUP2 PUSH2 0xD59 JUMP JUMPDEST DUP3 MSTORE POP POP JUMP JUMPDEST PUSH0 PUSH1 0x20 DUP3 ADD SWAP1 POP PUSH2 0xF49 PUSH0 DUP4 ADD DUP5 PUSH2 0xF27 JUMP JUMPDEST SWAP3 SWAP2 POP POP JUMP JUMPDEST PUSH0 DUP2 MLOAD SWAP1 POP SWAP2 SWAP1 POP JUMP JUMPDEST PUSH0 DUP3 DUP3 MSTORE PUSH1 0x20 DUP3 ADD SWAP1 POP SWAP3 SWAP2 POP POP JUMP JUMPDEST DUP3 DUP2 DUP4 MCOPY PUSH0 DUP4 DUP4 ADD MSTORE POP POP POP JUMP JUMPDEST PUSH0 PUSH2 0xF81 DUP3 PUSH2 0xF4F JUMP JUMPDEST PUSH2 0xF8B DUP2 DUP6 PUSH2 0xF59 JUMP JUMPDEST SWAP4 POP PUSH2 0xF9B DUP2 DUP6 PUSH1 0x20 DUP7 ADD PUSH2 0xF69 JUMP JUMPDEST PUSH2 0xFA4 DUP2 PUSH2 0xC06 JUMP JUMPDEST DUP5 ADD SWAP2 POP POP SWAP3 SWAP2 POP POP JUMP JUMPDEST PUSH2 0xFB8 DUP2 PUSH2 0xE21 JUMP JUMPDEST DUP3 MSTORE POP POP JUMP JUMPDEST PUSH0 PUSH1 0x60 DUP3 ADD SWAP1 POP DUP2 DUP2 SUB PUSH0 DUP4 ADD MSTORE PUSH2 0xFD6 DUP2 DUP7 PUSH2 0xF77 JUMP JUMPDEST SWAP1 POP PUSH2 0xFE5 PUSH1 0x20 DUP4 ADD DUP6 PUSH2 0xF27 JUMP JUMPDEST PUSH2 0xFF2 PUSH1 0x40 DUP4 ADD DUP5 PUSH2 0xFAF JUMP JUMPDEST SWAP5 SWAP4 POP POP POP POP JUMP JUMPDEST PUSH0 PUSH1 0x20 DUP3 ADD SWAP1 POP PUSH2 0x100D PUSH0 DUP4 ADD DUP5 PUSH2 0xFAF JUMP JUMPDEST SWAP3 SWAP2 POP POP JUMP JUMPDEST PUSH0 PUSH0 PUSH0 PUSH0 PUSH0 PUSH1 0x60 DUP7 DUP9 SUB SLT ISZERO PUSH2 0x102C JUMPI PUSH2 0x102B PUSH2 0xBF6 JUMP JUMPDEST JUMPDEST PUSH0 DUP7 ADD CALLDATALOAD PUSH8 0xFFFFFFFFFFFFFFFF DUP2 GT ISZERO PUSH2 0x1049 JUMPI PUSH2 0x1048 PUSH2 0xBFA JUMP JUMPDEST JUMPDEST PUSH2 0x1055 DUP9 DUP3 DUP10 ADD PUSH2 0xE87 JUMP JUMPDEST SWAP6 POP SWAP6 POP POP PUSH1 0x20 DUP7 ADD CALLDATALOAD PUSH8 0xFFFFFFFFFFFFFFFF DUP2 GT ISZERO PUSH2 0x1078 JUMPI PUSH2 0x1077 PUSH2 0xBFA JUMP JUMPDEST JUMPDEST PUSH2 0x1084 DUP9 DUP3 DUP10 ADD PUSH2 0xE87 JUMP JUMPDEST SWAP4 POP SWAP4 POP POP PUSH1 0x40 PUSH2 0x1097 DUP9 DUP3 DUP10 ADD PUSH2 0xE40 JUMP JUMPDEST SWAP2 POP POP SWAP3 SWAP6 POP SWAP3 SWAP6 SWAP1 SWAP4 POP JUMP JUMPDEST PUSH32 0x4F6E6C7920706C6174666F726D206F776E657200000000000000000000000000 PUSH0 DUP3 ADD MSTORE POP JUMP JUMPDEST PUSH0 PUSH2 0x10D8 PUSH1 0x13 DUP4 PUSH2 0xF59 JUMP JUMPDEST SWAP2 POP PUSH2 0x10E3 DUP3 PUSH2 0x10A4 JUMP JUMPDEST PUSH1 0x20 DUP3 ADD SWAP1 POP SWAP2 SWAP1 POP JUMP JUMPDEST PUSH0 PUSH1 0x20 DUP3 ADD SWAP1 POP DUP2 DUP2 SUB PUSH0 DUP4 ADD MSTORE PUSH2 0x1105 DUP2 PUSH2 0x10CC JUMP JUMPDEST SWAP1 POP SWAP2 SWAP1 POP JUMP JUMPDEST PUSH0 DUP2 SWAP1 POP SWAP3 SWAP2 POP POP JUMP JUMPDEST PUSH0 PUSH2 0x1121 DUP4 DUP6 PUSH2 0x110C JUMP JUMPDEST SWAP4 POP PUSH2 0x112E DUP4 DUP6 DUP5 PUSH2 0xCBE JUMP JUMPDEST DUP3 DUP5 ADD SWAP1 POP SWAP4 SWAP3 POP POP POP JUMP JUMPDEST PUSH0 PUSH2 0x1146 DUP3 DUP5 DUP7 PUSH2 0x1116 JUMP JUMPDEST SWAP2 POP DUP2 SWAP1 POP SWAP4 SWAP3 POP POP POP JUMP JUMPDEST PUSH32 0x4C696E6B206E6F7420666F756E64000000000000000000000000000000000000 PUSH0 DUP3 ADD MSTORE POP JUMP JUMPDEST PUSH0 PUSH2 0x1186 PUSH1 0xE DUP4 PUSH2 0xF59 JUMP JUMPDEST SWAP2 POP PUSH2 0x1191 DUP3 PUSH2 0x1152 JUMP JUMPDEST PUSH1 0x20 DUP3 ADD SWAP1 POP SWAP2 SWAP1 POP JUMP JUMPDEST PUSH0 PUSH1 0x20 DUP3 ADD SWAP1 POP DUP2 DUP2 SUB PUSH0 DUP4 ADD MSTORE PUSH2 0x11B3 DUP2 PUSH2 0x117A JUMP JUMPDEST SWAP1 POP SWAP2 SWAP1 POP JUMP JUMPDEST PUSH32 0x41636365737320616C7265616479206772616E74656400000000000000000000 PUSH0 DUP3 ADD MSTORE POP JUMP JUMPDEST PUSH0 PUSH2 0x11EE PUSH1 0x16 DUP4 PUSH2 0xF59 JUMP JUMPDEST SWAP2 POP PUSH2 0x11F9 DUP3 PUSH2 0x11BA JUMP JUMPDEST PUSH1 0x20 DUP3 ADD SWAP1 POP SWAP2 SWAP1 POP JUMP JUMPDEST PUSH0 PUSH1 0x20 DUP3 ADD SWAP1 POP DUP2 DUP2 SUB PUSH0 DUP4 ADD MSTORE PUSH2 0x121B DUP2 PUSH2 0x11E2 JUMP JUMPDEST SWAP1 POP SWAP2 SWAP1 POP JUMP JUMPDEST PUSH32 0x496E73756666696369656E74207061796D656E74000000000000000000000000 PUSH0 DUP3 ADD MSTORE POP JUMP JUMPDEST PUSH0 PUSH2 0x1256 PUSH1 0x14 DUP4 PUSH2 0xF59 JUMP JUMPDEST SWAP2 POP PUSH2 0x1261 DUP3 PUSH2 0x1222 JUMP JUMPDEST PUSH1 0x20 DUP3 ADD SWAP1 POP SWAP2 SWAP1 POP JUMP JUMPDEST PUSH0 PUSH1 0x20 DUP3 ADD SWAP1 POP DUP2 DUP2 SUB PUSH0 DUP4 ADD MSTORE PUSH2 0x1283 DUP2 PUSH2 0x124A JUMP JUMPDEST SWAP1 POP SWAP2 SWAP1 POP JUMP JUMPDEST PUSH32 0x4E487B7100000000000000000000000000000000000000000000000000000000 PUSH0 MSTORE PUSH1 0x11 PUSH1 0x4 MSTORE PUSH1 0x24 PUSH0 REVERT JUMPDEST PUSH0 PUSH2 0x12C1 DUP3 PUSH2 0xE21 JUMP JUMPDEST SWAP2 POP PUSH2 0x12CC DUP4 PUSH2 0xE21 JUMP JUMPDEST SWAP3 POP DUP3 DUP3 SUB SWAP1 POP DUP2 DUP2 GT ISZERO PUSH2 0x12E4 JUMPI PUSH2 0x12E3 PUSH2 0x128A JUMP JUMPDEST JUMPDEST SWAP3 SWAP2 POP POP JUMP JUMPDEST PUSH32 0x4E487B7100000000000000000000000000000000000000000000000000000000 PUSH0 MSTORE PUSH1 0x22 PUSH1 0x4 MSTORE PUSH1 0x24 PUSH0 REVERT JUMPDEST PUSH0 PUSH1 0x2 DUP3 DIV SWAP1 POP PUSH1 0x1 DUP3 AND DUP1 PUSH2 0x132E JUMPI PUSH1 0x7F DUP3 AND SWAP2 POP JUMPDEST PUSH1 0x20 DUP3 LT DUP2 SUB PUSH2 0x1341 JUMPI PUSH2 0x1340 PUSH2 0x12EA JUMP JUMPDEST JUMPDEST POP SWAP2 SWAP1 POP JUMP JUMPDEST PUSH32 0x55524C2072657175697265640000000000000000000000000000000000000000 PUSH0 DUP3 ADD MSTORE POP JUMP JUMPDEST PUSH0 PUSH2 0x137B PUSH1 0xC DUP4 PUSH2 0xF59 JUMP JUMPDEST SWAP2 POP PUSH2 0x1386 DUP3 PUSH2 0x1347 JUMP JUMPDEST PUSH1 0x20 DUP3 ADD SWAP1 POP SWAP2 SWAP1 POP JUMP JUMPDEST PUSH0 PUSH1 0x20 DUP3 ADD SWAP1 POP DUP2 DUP2 SUB PUSH0 DUP4 ADD MSTORE PUSH2 0x13A8 DUP2 PUSH2 0x136F JUMP JUMPDEST SWAP1 POP SWAP2 SWAP1 POP JUMP JUMPDEST PUSH32 0x4C696E6B20494420726571756972656400000000000000000000000000000000 PUSH0 DUP3 ADD MSTORE POP JUMP JUMPDEST PUSH0 PUSH2 0x13E3 PUSH1 0x10 DUP4 PUSH2 0xF59 JUMP JUMPDEST SWAP2 POP PUSH2 0x13EE DUP3 PUSH2 0x13AF JUMP JUMPDEST PUSH1 0x20 DUP3 ADD SWAP1 POP SWAP2 SWAP1 POP JUMP JUMPDEST PUSH0 PUSH1 0x20 DUP3 ADD SWAP1 POP DUP2 DUP2 SUB PUSH0 DUP4 ADD MSTORE PUSH2 0x1410 DUP2 PUSH2 0x13D7 JUMP JUMPDEST SWAP1 POP SWAP2 SWAP1 POP JUMP JUMPDEST PUSH32 0x46656520746F6F206C6F77000000000000000000000000000000000000000000 PUSH0 DUP3 ADD MSTORE POP JUMP JUMPDEST PUSH0 PUSH2 0x144B PUSH1 0xB DUP4 PUSH2 0xF59 JUMP JUMPDEST SWAP2 POP PUSH2 0x1456 DUP3 PUSH2 0x1417 JUMP JUMPDEST PUSH1 0x20 DUP3 ADD SWAP1 POP SWAP2 SWAP1 POP JUMP JUMPDEST PUSH0 PUSH1 0x20 DUP3 ADD SWAP1 POP DUP2 DUP2 SUB PUSH0 DUP4 ADD MSTORE PUSH2 0x1478 DUP2 PUSH2 0x143F JUMP JUMPDEST SWAP1 POP SWAP2 SWAP1 POP JUMP JUMPDEST PUSH32 0x4C696E6B20494420616C7265616479206F776E656420627920616E6F74686572 PUSH0 DUP3 ADD MSTORE PUSH32 0x2075736572000000000000000000000000000000000000000000000000000000 PUSH1 0x20 DUP3 ADD MSTORE POP JUMP JUMPDEST PUSH0 PUSH2 0x14D9 PUSH1 0x25 DUP4 PUSH2 0xF59 JUMP JUMPDEST SWAP2 POP PUSH2 0x14E4 DUP3 PUSH2 0x147F JUMP JUMPDEST PUSH1 0x40 DUP3 ADD SWAP1 POP SWAP2 SWAP1 POP JUMP JUMPDEST PUSH0 PUSH1 0x20 DUP3 ADD SWAP1 POP DUP2 DUP2 SUB PUSH0 DUP4 ADD MSTORE PUSH2 0x1506 DUP2 PUSH2 0x14CD JUMP JUMPDEST SWAP1 POP SWAP2 SWAP1 POP JUMP JUMPDEST PUSH0 DUP2 SWAP1 POP DUP2 PUSH0 MSTORE PUSH1 0x20 PUSH0 KECCAK256 SWAP1 POP SWAP2 SWAP1 POP JUMP JUMPDEST PUSH0 PUSH1 0x20 PUSH1 0x1F DUP4 ADD DIV SWAP1 POP SWAP2 SWAP1 POP JUMP JUMPDEST PUSH0 DUP3 DUP3 SHL SWAP1 POP SWAP3 SWAP2 POP POP JUMP JUMPDEST PUSH0 PUSH1 0x8 DUP4 MUL PUSH2 0x1569 PUSH32 0xFFFFFFFFFFFFFFFFFFFFFFFFFFFFFFFFFFFFFFFFFFFFFFFFFFFFFFFFFFFFFFFF DUP3 PUSH2 0x152E JUMP JUMPDEST PUSH2 0x1573 DUP7 DUP4 PUSH2 0x152E JUMP JUMPDEST SWAP6 POP DUP1 NOT DUP5 AND SWAP4 POP DUP1 DUP7 AND DUP5 OR SWAP3 POP POP POP SWAP4 SWAP3 POP POP POP JUMP JUMPDEST PUSH0 DUP2 SWAP1 POP SWAP2 SWAP1 POP JUMP JUMPDEST PUSH0 PUSH2 0x15AE PUSH2 0x15A9 PUSH2 0x15A4 DUP5 PUSH2 0xE21 JUMP JUMPDEST PUSH2 0x158B JUMP JUMPDEST PUSH2 0xE21 JUMP JUMPDEST SWAP1 POP SWAP2 SWAP1 POP JUMP JUMPDEST PUSH0 DUP2 SWAP1 POP SWAP2 SWAP1 POP JUMP JUMPDEST PUSH2 0x15C7 DUP4 PUSH2 0x1594 JUMP JUMPDEST PUSH2 0x15DB PUSH2 0x15D3 DUP3 PUSH2 0x15B5 JUMP JUMPDEST DUP5 DUP5 SLOAD PUSH2 0x153A JUMP JUMPDEST DUP3 SSTORE POP POP POP POP JUMP JUMPDEST PUSH0 PUSH0 SWAP1 POP SWAP1 JUMP JUMPDEST PUSH2 0x15F2 PUSH2 0x15E3 JUMP JUMPDEST PUSH2 0x15FD DUP2 DUP5 DUP5 PUSH2 0x15BE JUMP JUMPDEST POP POP POP JUMP JUMPDEST JUMPDEST DUP2 DUP2 LT ISZERO PUSH2 0x1620 JUMPI PUSH2 0x1615 PUSH0 DUP3 PUSH2 0x15EA JUMP JUMPDEST PUSH1 0x1 DUP2 ADD SWAP1 POP PUSH2 0x1603 JUMP JUMPDEST POP POP JUMP JUMPDEST PUSH1 0x1F DUP3 GT ISZERO PUSH2 0x1665 JUMPI PUSH2 0x1636 DUP2 PUSH2 0x150D JUMP JUMPDEST PUSH2 0x163F DUP5 PUSH2 0x151F JUMP JUMPDEST DUP2 ADD PUSH1 0x20 DUP6 LT ISZERO PUSH2 0x164E JUMPI DUP2 SWAP1 POP JUMPDEST PUSH2 0x1662 PUSH2 0x165A DUP6 PUSH2 0x151F JUMP JUMPDEST DUP4 ADD DUP3 PUSH2 0x1602 JUMP JUMPDEST POP POP JUMPDEST POP POP POP JUMP JUMPDEST PUSH0 DUP3 DUP3 SHR SWAP1 POP SWAP3 SWAP2 POP POP JUMP JUMPDEST PUSH0 PUSH2 0x1685 PUSH0 NOT DUP5 PUSH1 0x8 MUL PUSH2 0x166A JUMP JUMPDEST NOT DUP1 DUP4 AND SWAP2 POP POP SWAP3 SWAP2 POP POP JUMP JUMPDEST PUSH0 PUSH2 0x169D DUP4 DUP4 PUSH2 0x1676 JUMP JUMPDEST SWAP2 POP DUP3 PUSH1 0x2 MUL DUP3 OR SWAP1 POP SWAP3 SWAP2 POP POP JUMP JUMPDEST PUSH2 0x16B6 DUP3 PUSH2 0xF4F JUMP JUMPDEST PUSH8 0xFFFFFFFFFFFFFFFF DUP2 GT ISZERO PUSH2 0x16CF JUMPI PUSH2 0x16CE PUSH2 0xC16 JUMP JUMPDEST JUMPDEST PUSH2 0x16D9 DUP3 SLOAD PUSH2 0x1317 JUMP JUMPDEST PUSH2 0x16E4 DUP3 DUP3 DUP6 PUSH2 0x1624 JUMP JUMPDEST PUSH0 PUSH1 0x20 SWAP1 POP PUSH1 0x1F DUP4 GT PUSH1 0x1 DUP2 EQ PUSH2 0x1715 JUMPI PUSH0 DUP5 ISZERO PUSH2 0x1703 JUMPI DUP3 DUP8 ADD MLOAD SWAP1 POP JUMPDEST PUSH2 0x170D DUP6 DUP3 PUSH2 0x1692 JUMP JUMPDEST DUP7 SSTORE POP PUSH2 0x1774 JUMP JUMPDEST PUSH1 0x1F NOT DUP5 AND PUSH2 0x1723 DUP7 PUSH2 0x150D JUMP JUMPDEST PUSH0 JUMPDEST DUP3 DUP2 LT ISZERO PUSH2 0x174A JUMPI DUP5 DUP10 ADD MLOAD DUP3 SSTORE PUSH1 0x1 DUP3 ADD SWAP2 POP PUSH1 0x20 DUP6 ADD SWAP5 POP PUSH1 0x20 DUP2 ADD SWAP1 POP PUSH2 0x1725 JUMP JUMPDEST DUP7 DUP4 LT ISZERO PUSH2 0x1767 JUMPI DUP5 DUP10 ADD MLOAD PUSH2 0x1763 PUSH1 0x1F DUP10 AND DUP3 PUSH2 0x1676 JUMP JUMPDEST DUP4 SSTORE POP JUMPDEST PUSH1 0x1 PUSH1 0x2 DUP9 MUL ADD DUP9 SSTORE POP POP POP JUMPDEST POP POP POP POP POP POP JUMP INVALID LOG2 PUSH5 0x6970667358 0x22 SLT KECCAK256 CALLDATALOAD 0xB9 0xD6 TSTORE 0xBA SWAP7 DUP8 DUP4 0xCD 0xB8 SWAP3 SWAP7 CREATE 0xD9 CODESIZE SSTORE 0xD7 SMOD 0xC5 SLT SWAP2 0xF6 SLOAD PUSH15 0xC9276D4A6695F86764736F6C634300 ADDMOD 0x1E STOP CALLER "
				},
				"gasEstimates": {
					"creation": {
						"codeDepositCost": "1213200",
						"executionCost": "infinite",
						"totalCost": "infinite"
					},
					"external": {
						"addLink(string,string,uint256)": "infinite",
						"commission()": "2468",
						"getLink(string)": "infinite",
						"hasAccess(string,address)": "infinite",
						"payLink(string)": "infinite",
						"platformOwner()": "infinite",
						"setCommission(uint256)": "infinite"
					}
				},
				"methodIdentifiers": {
					"addLink(string,string,uint256)": "fc5f2b78",
					"commission()": "e1489191",
					"getLink(string)": "7476452a",
					"hasAccess(string,address)": "13bd20e2",
					"payLink(string)": "429cad86",
					"platformOwner()": "4df8ccb1",
					"setCommission(uint256)": "355e6b43"
				}
			},
			"storageLayout": {
				"storage": [
					{
						"astId": 11,
						"contract": "smart-contract/LinkPay.sol:LinkPay",
						"label": "commission",
						"offset": 0,
						"slot": "0",
						"type": "t_uint256"
					},
					{
						"astId": 18,
						"contract": "smart-contract/LinkPay.sol:LinkPay",
						"label": "links",
						"offset": 0,
						"slot": "1",
						"type": "t_mapping(t_string_memory_ptr,t_struct(Link)8_storage)"
					},
					{
						"astId": 24,
						"contract": "smart-contract/LinkPay.sol:LinkPay",
						"label": "hasAccess",
						"offset": 0,
						"slot": "2",
						"type": "t_mapping(t_string_memory_ptr,t_mapping(t_address,t_bool))"
					}
				],
				"types": {
					"t_address": {
						"encoding": "inplace",
						"label": "address",
						"numberOfBytes": "20"
					},
					"t_bool": {
						"encoding": "inplace",
						"label": "bool",
						"numberOfBytes": "1"
					},
					"t_mapping(t_address,t_bool)": {
						"encoding": "mapping",
						"key": "t_address",
						"label": "mapping(address => bool)",
						"numberOfBytes": "32",
						"value": "t_bool"
					},
					"t_mapping(t_string_memory_ptr,t_mapping(t_address,t_bool))": {
						"encoding": "mapping",
						"key": "t_string_memory_ptr",
						"label": "mapping(string => mapping(address => bool))",
						"numberOfBytes": "32",
						"value": "t_mapping(t_address,t_bool)"
					},
					"t_mapping(t_string_memory_ptr,t_struct(Link)8_storage)": {
						"encoding": "mapping",
						"key": "t_string_memory_ptr",
						"label": "mapping(string => struct LinkPay.Link)",
						"numberOfBytes": "32",
						"value": "t_struct(Link)8_storage"
					},
					"t_string_memory_ptr": {
						"encoding": "bytes",
						"label": "string",
						"numberOfBytes": "32"
					},
					"t_string_storage": {
						"encoding": "bytes",
						"label": "string",
						"numberOfBytes": "32"
					},
					"t_struct(Link)8_storage": {
						"encoding": "inplace",
						"label": "struct LinkPay.Link",
						"members": [
							{
								"astId": 3,
								"contract": "smart-contract/LinkPay.sol:LinkPay",
								"label": "url",
								"offset": 0,
								"slot": "0",
								"type": "t_string_storage"
							},
							{
								"astId": 5,
								"contract": "smart-contract/LinkPay.sol:LinkPay",
								"label": "owner",
								"offset": 0,
								"slot": "1",
								"type": "t_address"
							},
							{
								"astId": 7,
								"contract": "smart-contract/LinkPay.sol:LinkPay",
								"label": "fee",
								"offset": 0,
								"slot": "2",
								"type": "t_uint256"
							}
						],
						"numberOfBytes": "96"
					},
					"t_uint256": {
						"encoding": "inplace",
						"label": "uint256",
						"numberOfBytes": "32"
					}
				}
			},
			"userdoc": {
				"kind": "user",
				"methods": {},
				"version": 1
			}
		}
	}
}