{
	"smart-contract/LinkPay.sol": {
		"LinkPay": {
			"abi": [
				{
					"inputs": [],
					"stateMutability": "nonpayable",
					"type": "constructor"
				},
				{
					"anonymous": false,
					"inputs": [
						{
							"indexed": true,
							"internalType": "string",
							"name": "linkId",
							"type": "string"
						},
						{
							"indexed": true,
							"internalType": "address",
							"name": "user",
							"type": "address"
						},
						{
							"indexed": false,
							"internalType": "uint256",
							"name": "amount",
							"type": "uint256"
						}
					],
					"name": "LinkAccessPaid",
					"type": "event"
				},
				{
					"anonymous": false,
					"inputs": [
						{
							"indexed": true,
							"internalType": "string",
							"name": "linkId",
							"type": "string"
						},
						{
							"indexed": true,
							"internalType": "address",
							"name": "owner",
							"type": "address"
						},
						{
							"indexed": false,
							"internalType": "uint256",
							"name": "fee",
							"type": "uint256"
						}
					],
					"name": "LinkAdded",
					"type": "event"
				},
				{
					"inputs": [
						{
							"internalType": "string",
							"name": "url",
							"type": "string"
						},
						{
							"internalType": "string",
							"name": "linkId",
							"type": "string"
						},
						{
							"internalType": "uint256",
							"name": "fee",
							"type": "uint256"
						}
					],
					"name": "addLink",
					"outputs": [],
					"stateMutability": "nonpayable",
					"type": "function"
				},
				{
					"inputs": [],
					"name": "admin",
					"outputs": [
						{
							"internalType": "address",
							"name": "",
							"type": "address"
						}
					],
					"stateMutability": "view",
					"type": "function"
				},
				{
					"inputs": [],
					"name": "commission",
					"outputs": [
						{
							"internalType": "uint256",
							"name": "",
							"type": "uint256"
						}
					],
					"stateMutability": "view",
					"type": "function"
				},
				{
					"inputs": [
						{
							"internalType": "string",
							"name": "linkId",
							"type": "string"
						}
					],
					"name": "getLink",
					"outputs": [
						{
							"internalType": "string",
							"name": "url",
							"type": "string"
						},
						{
							"internalType": "address",
							"name": "owner",
							"type": "address"
						},
						{
							"internalType": "uint256",
							"name": "fee",
							"type": "uint256"
						}
					],
					"stateMutability": "view",
					"type": "function"
				},
				{
					"inputs": [
						{
							"internalType": "string",
							"name": "",
							"type": "string"
						},
						{
							"internalType": "address",
							"name": "",
							"type": "address"
						}
					],
					"name": "hasAccess",
					"outputs": [
						{
							"internalType": "bool",
							"name": "",
							"type": "bool"
						}
					],
					"stateMutability": "view",
					"type": "function"
				},
				{
					"inputs": [
						{
							"internalType": "string",
							"name": "linkId",
							"type": "string"
						}
					],
					"name": "payLink",
					"outputs": [],
					"stateMutability": "payable",
					"type": "function"
				},
				{
					"inputs": [],
					"name": "platformOwner",
					"outputs": [
						{
							"internalType": "address",
							"name": "",
							"type": "address"
						}
					],
					"stateMutability": "view",
					"type": "function"
				},
				{
					"inputs": [
						{
							"internalType": "uint256",
							"name": "newCommission",
							"type": "uint256"
						}
					],
					"name": "setCommission",
					"outputs": [],
					"stateMutability": "nonpayable",
					"type": "function"
				},
				{
					"inputs": [],
					"name": "withdraw",
					"outputs": [],
					"stateMutability": "nonpayable",
					"type": "function"
				}
			],
			"devdoc": {
				"kind": "dev",
				"methods": {},
				"version": 1
			},
			"evm": {
				"assembly": "    /* \"smart-contract/LinkPay.sol\":58:2938  contract LinkPay {... */\n  mstore(0x40, 0xc0)\n    /* \"smart-contract/LinkPay.sol\":198:203  1 wei */\n  0x01\n    /* \"smart-contract/LinkPay.sol\":170:203  uint256 public commission = 1 wei */\n  0x00\n  sstore\n    /* \"smart-contract/LinkPay.sol\":710:795  constructor() {... */\n  callvalue\n  dup1\n  iszero\n  tag_1\n  jumpi\n  revert(0x00, 0x00)\ntag_1:\n  pop\n    /* \"smart-contract/LinkPay.sol\":750:760  msg.sender */\n  caller\n    /* \"smart-contract/LinkPay.sol\":734:760  platformOwner = msg.sender */\n  0xffffffffffffffffffffffffffffffffffffffff\n  and\n  0x80\n  dup2\n  0xffffffffffffffffffffffffffffffffffffffff\n  and\n  dup2\n  mstore\n  pop\n  pop\n    /* \"smart-contract/LinkPay.sol\":778:788  msg.sender */\n  caller\n    /* \"smart-contract/LinkPay.sol\":770:788  admin = msg.sender */\n  0xffffffffffffffffffffffffffffffffffffffff\n  and\n  0xa0\n  dup2\n  0xffffffffffffffffffffffffffffffffffffffff\n  and\n  dup2\n  mstore\n  pop\n  pop\n    /* \"smart-contract/LinkPay.sol\":58:2938  contract LinkPay {... */\n  mload(0x80)\n  mload(0xa0)\n  codecopy(0x00, dataOffset(sub_0), dataSize(sub_0))\n  0x00\n  assignImmutable(\"0x1d3be50b2bb17407dd170f1d5da128d1def30c6b1598d6a629e79b4775265526\")\n  0x00\n  assignImmutable(\"0x789bcdf275fa270780a52ae3b79bb1ce0fda7e0aaad87b57b74bb99ac290714a\")\n  return(0x00, dataSize(sub_0))\nstop\n\nsub_0: assembly {\n        /* \"smart-contract/LinkPay.sol\":58:2938  contract LinkPay {... */\n      mstore(0x40, 0x80)\n      jumpi(tag_1, lt(calldatasize, 0x04))\n      shr(0xe0, calldataload(0x00))\n      dup1\n      0x4df8ccb1\n      gt\n      tag_11\n      jumpi\n      dup1\n      0x4df8ccb1\n      eq\n      tag_6\n      jumpi\n      dup1\n      0x7476452a\n      eq\n      tag_7\n      jumpi\n      dup1\n      0xe1489191\n      eq\n      tag_8\n      jumpi\n      dup1\n      0xf851a440\n      eq\n      tag_9\n      jumpi\n      dup1\n      0xfc5f2b78\n      eq\n      tag_10\n      jumpi\n      jump(tag_1)\n    tag_11:\n      dup1\n      0x13bd20e2\n      eq\n      tag_2\n      jumpi\n      dup1\n      0x355e6b43\n      eq\n      tag_3\n      jumpi\n      dup1\n      0x3ccfd60b\n      eq\n      tag_4\n      jumpi\n      dup1\n      0x429cad86\n      eq\n      tag_5\n      jumpi\n    tag_1:\n      revert(0x00, 0x00)\n        /* \"smart-contract/LinkPay.sol\":334:394  mapping(string => mapping(address => bool)) public hasAccess */\n    tag_2:\n      callvalue\n      dup1\n      iszero\n      tag_12\n      jumpi\n      revert(0x00, 0x00)\n    tag_12:\n      pop\n      tag_13\n      0x04\n      dup1\n      calldatasize\n      sub\n      dup2\n      add\n      swap1\n      tag_14\n      swap2\n      swap1\n      tag_15\n      jump\t// in\n    tag_14:\n      tag_16\n      jump\t// in\n    tag_13:\n      mload(0x40)\n      tag_17\n      swap2\n      swap1\n      tag_18\n      jump\t// in\n    tag_17:\n      mload(0x40)\n      dup1\n      swap2\n      sub\n      swap1\n      return\n        /* \"smart-contract/LinkPay.sol\":2769:2936  function setCommission(uint256 newCommission) external {... */\n    tag_3:\n      callvalue\n      dup1\n      iszero\n      tag_19\n      jumpi\n      revert(0x00, 0x00)\n    tag_19:\n      pop\n      tag_20\n      0x04\n      dup1\n      calldatasize\n      sub\n      dup2\n      add\n      swap1\n      tag_21\n      swap2\n      swap1\n      tag_22\n      jump\t// in\n    tag_21:\n      tag_23\n      jump\t// in\n    tag_20:\n      stop\n        /* \"smart-contract/LinkPay.sol\":2514:2705  function withdraw() public {... */\n    tag_4:\n      callvalue\n      dup1\n      iszero\n      tag_24\n      jumpi\n      revert(0x00, 0x00)\n    tag_24:\n      pop\n      tag_25\n      tag_26\n      jump\t// in\n    tag_25:\n      stop\n        /* \"smart-contract/LinkPay.sol\":1501:2081  function payLink(string calldata linkId) external payable {... */\n    tag_5:\n      tag_27\n      0x04\n      dup1\n      calldatasize\n      sub\n      dup2\n      add\n      swap1\n      tag_28\n      swap2\n      swap1\n      tag_29\n      jump\t// in\n    tag_28:\n      tag_30\n      jump\t// in\n    tag_27:\n      stop\n        /* \"smart-contract/LinkPay.sol\":209:247  address public immutable platformOwner */\n    tag_6:\n      callvalue\n      dup1\n      iszero\n      tag_31\n      jumpi\n      revert(0x00, 0x00)\n    tag_31:\n      pop\n      tag_32\n      tag_33\n      jump\t// in\n    tag_32:\n      mload(0x40)\n      tag_34\n      swap2\n      swap1\n      tag_35\n      jump\t// in\n    tag_34:\n      mload(0x40)\n      dup1\n      swap2\n      sub\n      swap1\n      return\n        /* \"smart-contract/LinkPay.sol\":2087:2504  function getLink(string calldata linkId) external view returns (string memory url, address owner, uint256 fee) {... */\n    tag_7:\n      callvalue\n      dup1\n      iszero\n      tag_36\n      jumpi\n      revert(0x00, 0x00)\n    tag_36:\n      pop\n      tag_37\n      0x04\n      dup1\n      calldatasize\n      sub\n      dup2\n      add\n      swap1\n      tag_38\n      swap2\n      swap1\n      tag_29\n      jump\t// in\n    tag_38:\n      tag_39\n      jump\t// in\n    tag_37:\n      mload(0x40)\n      tag_40\n      swap4\n      swap3\n      swap2\n      swap1\n      tag_41\n      jump\t// in\n    tag_40:\n      mload(0x40)\n      dup1\n      swap2\n      sub\n      swap1\n      return\n        /* \"smart-contract/LinkPay.sol\":170:203  uint256 public commission = 1 wei */\n    tag_8:\n      callvalue\n      dup1\n      iszero\n      tag_42\n      jumpi\n      revert(0x00, 0x00)\n    tag_42:\n      pop\n      tag_43\n      tag_44\n      jump\t// in\n    tag_43:\n      mload(0x40)\n      tag_45\n      swap2\n      swap1\n      tag_46\n      jump\t// in\n    tag_45:\n      mload(0x40)\n      dup1\n      swap2\n      sub\n      swap1\n      return\n        /* \"smart-contract/LinkPay.sol\":253:283  address public immutable admin */\n    tag_9:\n      callvalue\n      dup1\n      iszero\n      tag_47\n      jumpi\n      revert(0x00, 0x00)\n    tag_47:\n      pop\n      tag_48\n      tag_49\n      jump\t// in\n    tag_48:\n      mload(0x40)\n      tag_50\n      swap2\n      swap1\n      tag_35\n      jump\t// in\n    tag_50:\n      mload(0x40)\n      dup1\n      swap2\n      sub\n      swap1\n      return\n        /* \"smart-contract/LinkPay.sol\":801:1495  function addLink(string calldata url, string calldata linkId, uint256 fee) external {... */\n    tag_10:\n      callvalue\n      dup1\n      iszero\n      tag_51\n      jumpi\n      revert(0x00, 0x00)\n    tag_51:\n      pop\n      tag_52\n      0x04\n      dup1\n      calldatasize\n      sub\n      dup2\n      add\n      swap1\n      tag_53\n      swap2\n      swap1\n      tag_54\n      jump\t// in\n    tag_53:\n      tag_55\n      jump\t// in\n    tag_52:\n      stop\n        /* \"smart-contract/LinkPay.sol\":334:394  mapping(string => mapping(address => bool)) public hasAccess */\n    tag_16:\n      0x02\n      dup3\n      dup1\n      mload\n      0x20\n      dup2\n      add\n      dup3\n      add\n      dup1\n      mload\n      dup5\n      dup3\n      mstore\n      0x20\n      dup4\n      add\n      0x20\n      dup6\n      add\n      keccak256\n      dup2\n      dup4\n      mstore\n      dup1\n      swap6\n      pop\n      pop\n      pop\n      pop\n      pop\n      pop\n      0x20\n      mstore\n      dup1\n      0x00\n      mstore\n      keccak256(0x00, 0x40)\n      0x00\n      swap2\n      pop\n      swap2\n      pop\n      swap1\n      sload\n      swap1\n      0x0100\n      exp\n      swap1\n      div\n      0xff\n      and\n      dup2\n      jump\t// out\n        /* \"smart-contract/LinkPay.sol\":2769:2936  function setCommission(uint256 newCommission) external {... */\n    tag_23:\n        /* \"smart-contract/LinkPay.sol\":2856:2869  platformOwner */\n      immutable(\"0x789bcdf275fa270780a52ae3b79bb1ce0fda7e0aaad87b57b74bb99ac290714a\")\n        /* \"smart-contract/LinkPay.sol\":2842:2869  msg.sender == platformOwner */\n      0xffffffffffffffffffffffffffffffffffffffff\n      and\n        /* \"smart-contract/LinkPay.sol\":2842:2852  msg.sender */\n      caller\n        /* \"smart-contract/LinkPay.sol\":2842:2869  msg.sender == platformOwner */\n      0xffffffffffffffffffffffffffffffffffffffff\n      and\n      eq\n        /* \"smart-contract/LinkPay.sol\":2834:2893  require(msg.sender == platformOwner, \"Only platform owner\") */\n      tag_57\n      jumpi\n      mload(0x40)\n      0x08c379a000000000000000000000000000000000000000000000000000000000\n      dup2\n      mstore\n      0x04\n      add\n      tag_58\n      swap1\n      tag_59\n      jump\t// in\n    tag_58:\n      mload(0x40)\n      dup1\n      swap2\n      sub\n      swap1\n      revert\n    tag_57:\n        /* \"smart-contract/LinkPay.sol\":2916:2929  newCommission */\n      dup1\n        /* \"smart-contract/LinkPay.sol\":2903:2913  commission */\n      0x00\n        /* \"smart-contract/LinkPay.sol\":2903:2929  commission = newCommission */\n      dup2\n      swap1\n      sstore\n      pop\n        /* \"smart-contract/LinkPay.sol\":2769:2936  function setCommission(uint256 newCommission) external {... */\n      pop\n      jump\t// out\n        /* \"smart-contract/LinkPay.sol\":2514:2705  function withdraw() public {... */\n    tag_26:\n        /* \"smart-contract/LinkPay.sol\":2573:2578  admin */\n      immutable(\"0x1d3be50b2bb17407dd170f1d5da128d1def30c6b1598d6a629e79b4775265526\")\n        /* \"smart-contract/LinkPay.sol\":2559:2578  msg.sender == admin */\n      0xffffffffffffffffffffffffffffffffffffffff\n      and\n        /* \"smart-contract/LinkPay.sol\":2559:2569  msg.sender */\n      caller\n        /* \"smart-contract/LinkPay.sol\":2559:2578  msg.sender == admin */\n      0xffffffffffffffffffffffffffffffffffffffff\n      and\n      eq\n        /* \"smart-contract/LinkPay.sol\":2551:2609  require(msg.sender == admin, \"You do not have permission\") */\n      tag_61\n      jumpi\n      mload(0x40)\n      0x08c379a000000000000000000000000000000000000000000000000000000000\n      dup2\n      mstore\n      0x04\n      add\n      tag_62\n      swap1\n      tag_63\n      jump\t// in\n    tag_62:\n      mload(0x40)\n      dup1\n      swap2\n      sub\n      swap1\n      revert\n    tag_61:\n        /* \"smart-contract/LinkPay.sol\":2619:2633  uint256 amount */\n      0x00\n        /* \"smart-contract/LinkPay.sol\":2636:2657  address(this).balance */\n      selfbalance\n        /* \"smart-contract/LinkPay.sol\":2619:2657  uint256 amount = address(this).balance */\n      swap1\n      pop\n        /* \"smart-contract/LinkPay.sol\":2675:2680  admin */\n      immutable(\"0x1d3be50b2bb17407dd170f1d5da128d1def30c6b1598d6a629e79b4775265526\")\n        /* \"smart-contract/LinkPay.sol\":2667:2690  payable(admin).transfer */\n      0xffffffffffffffffffffffffffffffffffffffff\n      and\n        /* \"smart-contract/LinkPay.sol\":2667:2698  payable(admin).transfer(amount) */\n      0x08fc\n        /* \"smart-contract/LinkPay.sol\":2691:2697  amount */\n      dup3\n        /* \"smart-contract/LinkPay.sol\":2667:2698  payable(admin).transfer(amount) */\n      swap1\n      dup2\n      iszero\n      mul\n      swap1\n      mload(0x40)\n      0x00\n      mload(0x40)\n      dup1\n      dup4\n      sub\n      dup2\n      dup6\n      dup9\n      dup9\n      call\n      swap4\n      pop\n      pop\n      pop\n      pop\n      iszero\n      dup1\n      iszero\n      tag_65\n      jumpi\n      returndatacopy(0x00, 0x00, returndatasize)\n      revert(0x00, returndatasize)\n    tag_65:\n      pop\n        /* \"smart-contract/LinkPay.sol\":2541:2705  {... */\n      pop\n        /* \"smart-contract/LinkPay.sol\":2514:2705  function withdraw() public {... */\n      jump\t// out\n        /* \"smart-contract/LinkPay.sol\":1501:2081  function payLink(string calldata linkId) external payable {... */\n    tag_30:\n        /* \"smart-contract/LinkPay.sol\":1569:1586  Link storage link */\n      0x00\n        /* \"smart-contract/LinkPay.sol\":1589:1594  links */\n      0x01\n        /* \"smart-contract/LinkPay.sol\":1595:1601  linkId */\n      dup4\n      dup4\n        /* \"smart-contract/LinkPay.sol\":1589:1602  links[linkId] */\n      mload(0x40)\n      tag_67\n      swap3\n      swap2\n      swap1\n      tag_68\n      jump\t// in\n    tag_67:\n      swap1\n      dup2\n      mstore\n      0x20\n      add\n      mload(0x40)\n      dup1\n      swap2\n      sub\n      swap1\n      keccak256\n        /* \"smart-contract/LinkPay.sol\":1569:1602  Link storage link = links[linkId] */\n      swap1\n      pop\n        /* \"smart-contract/LinkPay.sol\":1642:1643  0 */\n      0x00\n        /* \"smart-contract/LinkPay.sol\":1620:1644  link.owner != address(0) */\n      0xffffffffffffffffffffffffffffffffffffffff\n      and\n        /* \"smart-contract/LinkPay.sol\":1620:1624  link */\n      dup2\n        /* \"smart-contract/LinkPay.sol\":1620:1630  link.owner */\n      0x01\n      add\n      0x00\n      swap1\n      sload\n      swap1\n      0x0100\n      exp\n      swap1\n      div\n      0xffffffffffffffffffffffffffffffffffffffff\n      and\n        /* \"smart-contract/LinkPay.sol\":1620:1644  link.owner != address(0) */\n      0xffffffffffffffffffffffffffffffffffffffff\n      and\n      sub\n        /* \"smart-contract/LinkPay.sol\":1612:1663  require(link.owner != address(0), \"Link not found\") */\n      tag_69\n      jumpi\n      mload(0x40)\n      0x08c379a000000000000000000000000000000000000000000000000000000000\n      dup2\n      mstore\n      0x04\n      add\n      tag_70\n      swap1\n      tag_71\n      jump\t// in\n    tag_70:\n      mload(0x40)\n      dup1\n      swap2\n      sub\n      swap1\n      revert\n    tag_69:\n        /* \"smart-contract/LinkPay.sol\":1682:1691  hasAccess */\n      0x02\n        /* \"smart-contract/LinkPay.sol\":1692:1698  linkId */\n      dup4\n      dup4\n        /* \"smart-contract/LinkPay.sol\":1682:1699  hasAccess[linkId] */\n      mload(0x40)\n      tag_72\n      swap3\n      swap2\n      swap1\n      tag_68\n      jump\t// in\n    tag_72:\n      swap1\n      dup2\n      mstore\n      0x20\n      add\n      mload(0x40)\n      dup1\n      swap2\n      sub\n      swap1\n      keccak256\n        /* \"smart-contract/LinkPay.sol\":1682:1711  hasAccess[linkId][msg.sender] */\n      0x00\n        /* \"smart-contract/LinkPay.sol\":1700:1710  msg.sender */\n      caller\n        /* \"smart-contract/LinkPay.sol\":1682:1711  hasAccess[linkId][msg.sender] */\n      0xffffffffffffffffffffffffffffffffffffffff\n      and\n      0xffffffffffffffffffffffffffffffffffffffff\n      and\n      dup2\n      mstore\n      0x20\n      add\n      swap1\n      dup2\n      mstore\n      0x20\n      add\n      0x00\n      keccak256\n      0x00\n      swap1\n      sload\n      swap1\n      0x0100\n      exp\n      swap1\n      div\n      0xff\n      and\n        /* \"smart-contract/LinkPay.sol\":1681:1711  !hasAccess[linkId][msg.sender] */\n      iszero\n        /* \"smart-contract/LinkPay.sol\":1673:1738  require(!hasAccess[linkId][msg.sender], \"Access already granted\") */\n      tag_73\n      jumpi\n      mload(0x40)\n      0x08c379a000000000000000000000000000000000000000000000000000000000\n      dup2\n      mstore\n      0x04\n      add\n      tag_74\n      swap1\n      tag_75\n      jump\t// in\n    tag_74:\n      mload(0x40)\n      dup1\n      swap2\n      sub\n      swap1\n      revert\n    tag_73:\n        /* \"smart-contract/LinkPay.sol\":1769:1773  link */\n      dup1\n        /* \"smart-contract/LinkPay.sol\":1769:1777  link.fee */\n      0x02\n      add\n      sload\n        /* \"smart-contract/LinkPay.sol\":1756:1765  msg.value */\n      callvalue\n        /* \"smart-contract/LinkPay.sol\":1756:1777  msg.value >= link.fee */\n      lt\n      iszero\n        /* \"smart-contract/LinkPay.sol\":1748:1802  require(msg.value >= link.fee, \"Insufficient payment\") */\n      tag_76\n      jumpi\n      mload(0x40)\n      0x08c379a000000000000000000000000000000000000000000000000000000000\n      dup2\n      mstore\n      0x04\n      add\n      tag_77\n      swap1\n      tag_78\n      jump\t// in\n    tag_77:\n      mload(0x40)\n      dup1\n      swap2\n      sub\n      swap1\n      revert\n    tag_76:\n        /* \"smart-contract/LinkPay.sol\":1845:1849  true */\n      0x01\n        /* \"smart-contract/LinkPay.sol\":1813:1822  hasAccess */\n      0x02\n        /* \"smart-contract/LinkPay.sol\":1823:1829  linkId */\n      dup5\n      dup5\n        /* \"smart-contract/LinkPay.sol\":1813:1830  hasAccess[linkId] */\n      mload(0x40)\n      tag_79\n      swap3\n      swap2\n      swap1\n      tag_68\n      jump\t// in\n    tag_79:\n      swap1\n      dup2\n      mstore\n      0x20\n      add\n      mload(0x40)\n      dup1\n      swap2\n      sub\n      swap1\n      keccak256\n        /* \"smart-contract/LinkPay.sol\":1813:1842  hasAccess[linkId][msg.sender] */\n      0x00\n        /* \"smart-contract/LinkPay.sol\":1831:1841  msg.sender */\n      caller\n        /* \"smart-contract/LinkPay.sol\":1813:1842  hasAccess[linkId][msg.sender] */\n      0xffffffffffffffffffffffffffffffffffffffff\n      and\n      0xffffffffffffffffffffffffffffffffffffffff\n      and\n      dup2\n      mstore\n      0x20\n      add\n      swap1\n      dup2\n      mstore\n      0x20\n      add\n      0x00\n      keccak256\n      0x00\n        /* \"smart-contract/LinkPay.sol\":1813:1849  hasAccess[linkId][msg.sender] = true */\n      0x0100\n      exp\n      dup2\n      sload\n      dup2\n      0xff\n      mul\n      not\n      and\n      swap1\n      dup4\n      iszero\n      iszero\n      mul\n      or\n      swap1\n      sstore\n      pop\n        /* \"smart-contract/LinkPay.sol\":1860:1881  uint256 amountToOwner */\n      0x00\n        /* \"smart-contract/LinkPay.sol\":1896:1906  commission */\n      sload(0x00)\n        /* \"smart-contract/LinkPay.sol\":1884:1893  msg.value */\n      callvalue\n        /* \"smart-contract/LinkPay.sol\":1884:1906  msg.value - commission */\n      tag_80\n      swap2\n      swap1\n      tag_81\n      jump\t// in\n    tag_80:\n        /* \"smart-contract/LinkPay.sol\":1860:1906  uint256 amountToOwner = msg.value - commission */\n      swap1\n      pop\n        /* \"smart-contract/LinkPay.sol\":1924:1928  link */\n      dup2\n        /* \"smart-contract/LinkPay.sol\":1924:1934  link.owner */\n      0x01\n      add\n      0x00\n      swap1\n      sload\n      swap1\n      0x0100\n      exp\n      swap1\n      div\n      0xffffffffffffffffffffffffffffffffffffffff\n      and\n        /* \"smart-contract/LinkPay.sol\":1916:1944  payable(link.owner).transfer */\n      0xffffffffffffffffffffffffffffffffffffffff\n      and\n        /* \"smart-contract/LinkPay.sol\":1916:1959  payable(link.owner).transfer(amountToOwner) */\n      0x08fc\n        /* \"smart-contract/LinkPay.sol\":1945:1958  amountToOwner */\n      dup3\n        /* \"smart-contract/LinkPay.sol\":1916:1959  payable(link.owner).transfer(amountToOwner) */\n      swap1\n      dup2\n      iszero\n      mul\n      swap1\n      mload(0x40)\n      0x00\n      mload(0x40)\n      dup1\n      dup4\n      sub\n      dup2\n      dup6\n      dup9\n      dup9\n      call\n      swap4\n      pop\n      pop\n      pop\n      pop\n      iszero\n      dup1\n      iszero\n      tag_83\n      jumpi\n      returndatacopy(0x00, 0x00, returndatasize)\n      revert(0x00, returndatasize)\n    tag_83:\n      pop\n        /* \"smart-contract/LinkPay.sol\":1978:1991  platformOwner */\n      immutable(\"0x789bcdf275fa270780a52ae3b79bb1ce0fda7e0aaad87b57b74bb99ac290714a\")\n        /* \"smart-contract/LinkPay.sol\":1970:2001  payable(platformOwner).transfer */\n      0xffffffffffffffffffffffffffffffffffffffff\n      and\n        /* \"smart-contract/LinkPay.sol\":1970:2013  payable(platformOwner).transfer(commission) */\n      0x08fc\n        /* \"smart-contract/LinkPay.sol\":2002:2012  commission */\n      sload(0x00)\n        /* \"smart-contract/LinkPay.sol\":1970:2013  payable(platformOwner).transfer(commission) */\n      swap1\n      dup2\n      iszero\n      mul\n      swap1\n      mload(0x40)\n      0x00\n      mload(0x40)\n      dup1\n      dup4\n      sub\n      dup2\n      dup6\n      dup9\n      dup9\n      call\n      swap4\n      pop\n      pop\n      pop\n      pop\n      iszero\n      dup1\n      iszero\n      tag_85\n      jumpi\n      returndatacopy(0x00, 0x00, returndatasize)\n      revert(0x00, returndatasize)\n    tag_85:\n      pop\n        /* \"smart-contract/LinkPay.sol\":2052:2062  msg.sender */\n      caller\n        /* \"smart-contract/LinkPay.sol\":2029:2074  LinkAccessPaid(linkId, msg.sender, msg.value) */\n      0xffffffffffffffffffffffffffffffffffffffff\n      and\n        /* \"smart-contract/LinkPay.sol\":2044:2050  linkId */\n      dup5\n      dup5\n        /* \"smart-contract/LinkPay.sol\":2029:2074  LinkAccessPaid(linkId, msg.sender, msg.value) */\n      mload(0x40)\n      tag_86\n      swap3\n      swap2\n      swap1\n      tag_68\n      jump\t// in\n    tag_86:\n      mload(0x40)\n      dup1\n      swap2\n      sub\n      swap1\n      keccak256\n      0x82ec752277142007941587a00adda02c84e2a7e5b3ebaf3fe51fe33b8689268d\n        /* \"smart-contract/LinkPay.sol\":2064:2073  msg.value */\n      callvalue\n        /* \"smart-contract/LinkPay.sol\":2029:2074  LinkAccessPaid(linkId, msg.sender, msg.value) */\n      mload(0x40)\n      tag_87\n      swap2\n      swap1\n      tag_46\n      jump\t// in\n    tag_87:\n      mload(0x40)\n      dup1\n      swap2\n      sub\n      swap1\n      log3\n        /* \"smart-contract/LinkPay.sol\":1559:2081  {... */\n      pop\n      pop\n        /* \"smart-contract/LinkPay.sol\":1501:2081  function payLink(string calldata linkId) external payable {... */\n      pop\n      pop\n      jump\t// out\n        /* \"smart-contract/LinkPay.sol\":209:247  address public immutable platformOwner */\n    tag_33:\n      immutable(\"0x789bcdf275fa270780a52ae3b79bb1ce0fda7e0aaad87b57b74bb99ac290714a\")\n      dup2\n      jump\t// out\n        /* \"smart-contract/LinkPay.sol\":2087:2504  function getLink(string calldata linkId) external view returns (string memory url, address owner, uint256 fee) {... */\n    tag_39:\n        /* \"smart-contract/LinkPay.sol\":2151:2168  string memory url */\n      0x60\n        /* \"smart-contract/LinkPay.sol\":2170:2183  address owner */\n      0x00\n        /* \"smart-contract/LinkPay.sol\":2185:2196  uint256 fee */\n      0x00\n        /* \"smart-contract/LinkPay.sol\":2208:2225  Link storage link */\n      0x00\n        /* \"smart-contract/LinkPay.sol\":2228:2233  links */\n      0x01\n        /* \"smart-contract/LinkPay.sol\":2234:2240  linkId */\n      dup7\n      dup7\n        /* \"smart-contract/LinkPay.sol\":2228:2241  links[linkId] */\n      mload(0x40)\n      tag_89\n      swap3\n      swap2\n      swap1\n      tag_68\n      jump\t// in\n    tag_89:\n      swap1\n      dup2\n      mstore\n      0x20\n      add\n      mload(0x40)\n      dup1\n      swap2\n      sub\n      swap1\n      keccak256\n        /* \"smart-contract/LinkPay.sol\":2208:2241  Link storage link = links[linkId] */\n      swap1\n      pop\n        /* \"smart-contract/LinkPay.sol\":2277:2278  0 */\n      0x00\n        /* \"smart-contract/LinkPay.sol\":2255:2279  link.owner == address(0) */\n      0xffffffffffffffffffffffffffffffffffffffff\n      and\n        /* \"smart-contract/LinkPay.sol\":2255:2259  link */\n      dup2\n        /* \"smart-contract/LinkPay.sol\":2255:2265  link.owner */\n      0x01\n      add\n      0x00\n      swap1\n      sload\n      swap1\n      0x0100\n      exp\n      swap1\n      div\n      0xffffffffffffffffffffffffffffffffffffffff\n      and\n        /* \"smart-contract/LinkPay.sol\":2255:2279  link.owner == address(0) */\n      0xffffffffffffffffffffffffffffffffffffffff\n      and\n      sub\n        /* \"smart-contract/LinkPay.sol\":2251:2307  if (link.owner == address(0)) return (\"\", address(0), 0) */\n      tag_90\n      jumpi\n        /* \"smart-contract/LinkPay.sol\":2301:2302  0 */\n      0x00\n        /* \"smart-contract/LinkPay.sol\":2305:2306  0 */\n      0x00\n        /* \"smart-contract/LinkPay.sol\":2281:2307  return (\"\", address(0), 0) */\n      mload(0x40)\n      dup1\n      0x20\n      add\n      0x40\n      mstore\n      dup1\n      0x00\n      dup2\n      mstore\n      pop\n      swap2\n      swap1\n      swap4\n      pop\n      swap4\n      pop\n      swap4\n      pop\n      pop\n      jump(tag_88)\n        /* \"smart-contract/LinkPay.sol\":2251:2307  if (link.owner == address(0)) return (\"\", address(0), 0) */\n    tag_90:\n        /* \"smart-contract/LinkPay.sol\":2334:2335  0 */\n      0x00\n        /* \"smart-contract/LinkPay.sol\":2322:2326  link */\n      dup2\n        /* \"smart-contract/LinkPay.sol\":2322:2330  link.fee */\n      0x02\n      add\n      sload\n        /* \"smart-contract/LinkPay.sol\":2322:2335  link.fee == 0 */\n      eq\n        /* \"smart-contract/LinkPay.sol\":2322:2368  link.fee == 0 || hasAccess[linkId][msg.sender] */\n      dup1\n      tag_91\n      jumpi\n      pop\n        /* \"smart-contract/LinkPay.sol\":2339:2348  hasAccess */\n      0x02\n        /* \"smart-contract/LinkPay.sol\":2349:2355  linkId */\n      dup7\n      dup7\n        /* \"smart-contract/LinkPay.sol\":2339:2356  hasAccess[linkId] */\n      mload(0x40)\n      tag_92\n      swap3\n      swap2\n      swap1\n      tag_68\n      jump\t// in\n    tag_92:\n      swap1\n      dup2\n      mstore\n      0x20\n      add\n      mload(0x40)\n      dup1\n      swap2\n      sub\n      swap1\n      keccak256\n        /* \"smart-contract/LinkPay.sol\":2339:2368  hasAccess[linkId][msg.sender] */\n      0x00\n        /* \"smart-contract/LinkPay.sol\":2357:2367  msg.sender */\n      caller\n        /* \"smart-contract/LinkPay.sol\":2339:2368  hasAccess[linkId][msg.sender] */\n      0xffffffffffffffffffffffffffffffffffffffff\n      and\n      0xffffffffffffffffffffffffffffffffffffffff\n      and\n      dup2\n      mstore\n      0x20\n      add\n      swap1\n      dup2\n      mstore\n      0x20\n      add\n      0x00\n      keccak256\n      0x00\n      swap1\n      sload\n      swap1\n      0x0100\n      exp\n      swap1\n      div\n      0xff\n      and\n        /* \"smart-contract/LinkPay.sol\":2322:2368  link.fee == 0 || hasAccess[linkId][msg.sender] */\n    tag_91:\n        /* \"smart-contract/LinkPay.sol\":2318:2498  if (link.fee == 0 || hasAccess[linkId][msg.sender]) {... */\n      iszero\n      tag_93\n      jumpi\n        /* \"smart-contract/LinkPay.sol\":2392:2396  link */\n      dup1\n        /* \"smart-contract/LinkPay.sol\":2392:2400  link.url */\n      0x00\n      add\n        /* \"smart-contract/LinkPay.sol\":2402:2406  link */\n      dup2\n        /* \"smart-contract/LinkPay.sol\":2402:2412  link.owner */\n      0x01\n      add\n      0x00\n      swap1\n      sload\n      swap1\n      0x0100\n      exp\n      swap1\n      div\n      0xffffffffffffffffffffffffffffffffffffffff\n      and\n        /* \"smart-contract/LinkPay.sol\":2414:2418  link */\n      dup3\n        /* \"smart-contract/LinkPay.sol\":2414:2422  link.fee */\n      0x02\n      add\n      sload\n        /* \"smart-contract/LinkPay.sol\":2384:2423  return (link.url, link.owner, link.fee) */\n      dup3\n      dup1\n      sload\n      tag_94\n      swap1\n      tag_95\n      jump\t// in\n    tag_94:\n      dup1\n      0x1f\n      add\n      0x20\n      dup1\n      swap2\n      div\n      mul\n      0x20\n      add\n      mload(0x40)\n      swap1\n      dup2\n      add\n      0x40\n      mstore\n      dup1\n      swap3\n      swap2\n      swap1\n      dup2\n      dup2\n      mstore\n      0x20\n      add\n      dup3\n      dup1\n      sload\n      tag_96\n      swap1\n      tag_95\n      jump\t// in\n    tag_96:\n      dup1\n      iszero\n      tag_97\n      jumpi\n      dup1\n      0x1f\n      lt\n      tag_98\n      jumpi\n      0x0100\n      dup1\n      dup4\n      sload\n      div\n      mul\n      dup4\n      mstore\n      swap2\n      0x20\n      add\n      swap2\n      jump(tag_97)\n    tag_98:\n      dup3\n      add\n      swap2\n      swap1\n      0x00\n      mstore\n      keccak256(0x00, 0x20)\n      swap1\n    tag_99:\n      dup2\n      sload\n      dup2\n      mstore\n      swap1\n      0x01\n      add\n      swap1\n      0x20\n      add\n      dup1\n      dup4\n      gt\n      tag_99\n      jumpi\n      dup3\n      swap1\n      sub\n      0x1f\n      and\n      dup3\n      add\n      swap2\n    tag_97:\n      pop\n      pop\n      pop\n      pop\n      pop\n      swap3\n      pop\n      swap4\n      pop\n      swap4\n      pop\n      swap4\n      pop\n      pop\n      jump(tag_88)\n        /* \"smart-contract/LinkPay.sol\":2318:2498  if (link.fee == 0 || hasAccess[linkId][msg.sender]) {... */\n    tag_93:\n        /* \"smart-contract/LinkPay.sol\":2466:2470  link */\n      dup1\n        /* \"smart-contract/LinkPay.sol\":2466:2476  link.owner */\n      0x01\n      add\n      0x00\n      swap1\n      sload\n      swap1\n      0x0100\n      exp\n      swap1\n      div\n      0xffffffffffffffffffffffffffffffffffffffff\n      and\n        /* \"smart-contract/LinkPay.sol\":2478:2482  link */\n      dup2\n        /* \"smart-contract/LinkPay.sol\":2478:2486  link.fee */\n      0x02\n      add\n      sload\n        /* \"smart-contract/LinkPay.sol\":2454:2487  return (\"\", link.owner, link.fee) */\n      mload(0x40)\n      dup1\n      0x20\n      add\n      0x40\n      mstore\n      dup1\n      0x00\n      dup2\n      mstore\n      pop\n      swap2\n      swap1\n      swap4\n      pop\n      swap4\n      pop\n      swap4\n      pop\n      pop\n        /* \"smart-contract/LinkPay.sol\":2087:2504  function getLink(string calldata linkId) external view returns (string memory url, address owner, uint256 fee) {... */\n    tag_88:\n      swap3\n      pop\n      swap3\n      pop\n      swap3\n      jump\t// out\n        /* \"smart-contract/LinkPay.sol\":170:203  uint256 public commission = 1 wei */\n    tag_44:\n      sload(0x00)\n      dup2\n      jump\t// out\n        /* \"smart-contract/LinkPay.sol\":253:283  address public immutable admin */\n    tag_49:\n      immutable(\"0x1d3be50b2bb17407dd170f1d5da128d1def30c6b1598d6a629e79b4775265526\")\n      dup2\n      jump\t// out\n        /* \"smart-contract/LinkPay.sol\":801:1495  function addLink(string calldata url, string calldata linkId, uint256 fee) external {... */\n    tag_55:\n        /* \"smart-contract/LinkPay.sol\":923:924  0 */\n      0x00\n        /* \"smart-contract/LinkPay.sol\":909:912  url */\n      dup6\n      dup6\n        /* \"smart-contract/LinkPay.sol\":903:920  bytes(url).length */\n      swap1\n      pop\n        /* \"smart-contract/LinkPay.sol\":903:924  bytes(url).length > 0 */\n      gt\n        /* \"smart-contract/LinkPay.sol\":895:941  require(bytes(url).length > 0, \"URL required\") */\n      tag_102\n      jumpi\n      mload(0x40)\n      0x08c379a000000000000000000000000000000000000000000000000000000000\n      dup2\n      mstore\n      0x04\n      add\n      tag_103\n      swap1\n      tag_104\n      jump\t// in\n    tag_103:\n      mload(0x40)\n      dup1\n      swap2\n      sub\n      swap1\n      revert\n    tag_102:\n        /* \"smart-contract/LinkPay.sol\":982:983  0 */\n      0x00\n        /* \"smart-contract/LinkPay.sol\":965:971  linkId */\n      dup4\n      dup4\n        /* \"smart-contract/LinkPay.sol\":959:979  bytes(linkId).length */\n      swap1\n      pop\n        /* \"smart-contract/LinkPay.sol\":959:983  bytes(linkId).length > 0 */\n      gt\n        /* \"smart-contract/LinkPay.sol\":951:1004  require(bytes(linkId).length > 0, \"Link ID required\") */\n      tag_105\n      jumpi\n      mload(0x40)\n      0x08c379a000000000000000000000000000000000000000000000000000000000\n      dup2\n      mstore\n      0x04\n      add\n      tag_106\n      swap1\n      tag_107\n      jump\t// in\n    tag_106:\n      mload(0x40)\n      dup1\n      swap2\n      sub\n      swap1\n      revert\n    tag_105:\n        /* \"smart-contract/LinkPay.sol\":1029:1030  0 */\n      0x00\n        /* \"smart-contract/LinkPay.sol\":1022:1025  fee */\n      dup2\n        /* \"smart-contract/LinkPay.sol\":1022:1030  fee == 0 */\n      eq\n        /* \"smart-contract/LinkPay.sol\":1022:1050  fee == 0 || fee > commission */\n      dup1\n      tag_108\n      jumpi\n      pop\n        /* \"smart-contract/LinkPay.sol\":1040:1050  commission */\n      sload(0x00)\n        /* \"smart-contract/LinkPay.sol\":1034:1037  fee */\n      dup2\n        /* \"smart-contract/LinkPay.sol\":1034:1050  fee > commission */\n      gt\n        /* \"smart-contract/LinkPay.sol\":1022:1050  fee == 0 || fee > commission */\n    tag_108:\n        /* \"smart-contract/LinkPay.sol\":1014:1066  require(fee == 0 || fee > commission, \"Fee too low\") */\n      tag_109\n      jumpi\n      mload(0x40)\n      0x08c379a000000000000000000000000000000000000000000000000000000000\n      dup2\n      mstore\n      0x04\n      add\n      tag_110\n      swap1\n      tag_111\n      jump\t// in\n    tag_110:\n      mload(0x40)\n      dup1\n      swap2\n      sub\n      swap1\n      revert\n    tag_109:\n        /* \"smart-contract/LinkPay.sol\":1077:1102  Link storage existingLink */\n      0x00\n        /* \"smart-contract/LinkPay.sol\":1105:1110  links */\n      0x01\n        /* \"smart-contract/LinkPay.sol\":1111:1117  linkId */\n      dup5\n      dup5\n        /* \"smart-contract/LinkPay.sol\":1105:1118  links[linkId] */\n      mload(0x40)\n      tag_112\n      swap3\n      swap2\n      swap1\n      tag_68\n      jump\t// in\n    tag_112:\n      swap1\n      dup2\n      mstore\n      0x20\n      add\n      mload(0x40)\n      dup1\n      swap2\n      sub\n      swap1\n      keccak256\n        /* \"smart-contract/LinkPay.sol\":1077:1118  Link storage existingLink = links[linkId] */\n      swap1\n      pop\n        /* \"smart-contract/LinkPay.sol\":1163:1164  0 */\n      0x00\n        /* \"smart-contract/LinkPay.sol\":1133:1165  existingLink.owner != address(0) */\n      0xffffffffffffffffffffffffffffffffffffffff\n      and\n        /* \"smart-contract/LinkPay.sol\":1133:1145  existingLink */\n      dup2\n        /* \"smart-contract/LinkPay.sol\":1133:1151  existingLink.owner */\n      0x01\n      add\n      0x00\n      swap1\n      sload\n      swap1\n      0x0100\n      exp\n      swap1\n      div\n      0xffffffffffffffffffffffffffffffffffffffff\n      and\n        /* \"smart-contract/LinkPay.sol\":1133:1165  existingLink.owner != address(0) */\n      0xffffffffffffffffffffffffffffffffffffffff\n      and\n      eq\n        /* \"smart-contract/LinkPay.sol\":1129:1274  if (existingLink.owner != address(0)) {... */\n      tag_113\n      jumpi\n        /* \"smart-contract/LinkPay.sol\":1211:1221  msg.sender */\n      caller\n        /* \"smart-contract/LinkPay.sol\":1189:1221  existingLink.owner == msg.sender */\n      0xffffffffffffffffffffffffffffffffffffffff\n      and\n        /* \"smart-contract/LinkPay.sol\":1189:1201  existingLink */\n      dup2\n        /* \"smart-contract/LinkPay.sol\":1189:1207  existingLink.owner */\n      0x01\n      add\n      0x00\n      swap1\n      sload\n      swap1\n      0x0100\n      exp\n      swap1\n      div\n      0xffffffffffffffffffffffffffffffffffffffff\n      and\n        /* \"smart-contract/LinkPay.sol\":1189:1221  existingLink.owner == msg.sender */\n      0xffffffffffffffffffffffffffffffffffffffff\n      and\n      eq\n        /* \"smart-contract/LinkPay.sol\":1181:1263  require(existingLink.owner == msg.sender, \"Link ID already owned by another user\") */\n      tag_114\n      jumpi\n      mload(0x40)\n      0x08c379a000000000000000000000000000000000000000000000000000000000\n      dup2\n      mstore\n      0x04\n      add\n      tag_115\n      swap1\n      tag_116\n      jump\t// in\n    tag_115:\n      mload(0x40)\n      dup1\n      swap2\n      sub\n      swap1\n      revert\n    tag_114:\n        /* \"smart-contract/LinkPay.sol\":1129:1274  if (existingLink.owner != address(0)) {... */\n    tag_113:\n        /* \"smart-contract/LinkPay.sol\":1300:1391  Link({... */\n      mload(0x40)\n      dup1\n      0x60\n      add\n      0x40\n      mstore\n      dup1\n        /* \"smart-contract/LinkPay.sol\":1324:1327  url */\n      dup8\n      dup8\n        /* \"smart-contract/LinkPay.sol\":1300:1391  Link({... */\n      dup1\n      dup1\n      0x1f\n      add\n      0x20\n      dup1\n      swap2\n      div\n      mul\n      0x20\n      add\n      mload(0x40)\n      swap1\n      dup2\n      add\n      0x40\n      mstore\n      dup1\n      swap4\n      swap3\n      swap2\n      swap1\n      dup2\n      dup2\n      mstore\n      0x20\n      add\n      dup4\n      dup4\n      dup1\n      dup3\n      dup5\n      calldatacopy\n      0x00\n      dup2\n      dup5\n      add\n      mstore\n      not(0x1f)\n      0x1f\n      dup3\n      add\n      and\n      swap1\n      pop\n      dup1\n      dup4\n      add\n      swap3\n      pop\n      pop\n      pop\n      pop\n      pop\n      pop\n      pop\n      dup2\n      mstore\n      0x20\n      add\n        /* \"smart-contract/LinkPay.sol\":1348:1358  msg.sender */\n      caller\n        /* \"smart-contract/LinkPay.sol\":1300:1391  Link({... */\n      0xffffffffffffffffffffffffffffffffffffffff\n      and\n      dup2\n      mstore\n      0x20\n      add\n        /* \"smart-contract/LinkPay.sol\":1377:1380  fee */\n      dup4\n        /* \"smart-contract/LinkPay.sol\":1300:1391  Link({... */\n      dup2\n      mstore\n      pop\n        /* \"smart-contract/LinkPay.sol\":1284:1289  links */\n      0x01\n        /* \"smart-contract/LinkPay.sol\":1290:1296  linkId */\n      dup6\n      dup6\n        /* \"smart-contract/LinkPay.sol\":1284:1297  links[linkId] */\n      mload(0x40)\n      tag_117\n      swap3\n      swap2\n      swap1\n      tag_68\n      jump\t// in\n    tag_117:\n      swap1\n      dup2\n      mstore\n      0x20\n      add\n      mload(0x40)\n      dup1\n      swap2\n      sub\n      swap1\n      keccak256\n        /* \"smart-contract/LinkPay.sol\":1284:1391  links[linkId] = Link({... */\n      0x00\n      dup3\n      add\n      mload\n      dup2\n      0x00\n      add\n      swap1\n      dup2\n      tag_118\n      swap2\n      swap1\n      tag_119\n      jump\t// in\n    tag_118:\n      pop\n      0x20\n      dup3\n      add\n      mload\n      dup2\n      0x01\n      add\n      exp(0x0100, 0x00)\n      dup2\n      sload\n      dup2\n      0xffffffffffffffffffffffffffffffffffffffff\n      mul\n      not\n      and\n      swap1\n      dup4\n      0xffffffffffffffffffffffffffffffffffffffff\n      and\n      mul\n      or\n      swap1\n      sstore\n      pop\n      0x40\n      dup3\n      add\n      mload\n      dup2\n      0x02\n      add\n      sstore\n      swap1\n      pop\n      pop\n        /* \"smart-contract/LinkPay.sol\":1434:1438  true */\n      0x01\n        /* \"smart-contract/LinkPay.sol\":1402:1411  hasAccess */\n      0x02\n        /* \"smart-contract/LinkPay.sol\":1412:1418  linkId */\n      dup6\n      dup6\n        /* \"smart-contract/LinkPay.sol\":1402:1419  hasAccess[linkId] */\n      mload(0x40)\n      tag_120\n      swap3\n      swap2\n      swap1\n      tag_68\n      jump\t// in\n    tag_120:\n      swap1\n      dup2\n      mstore\n      0x20\n      add\n      mload(0x40)\n      dup1\n      swap2\n      sub\n      swap1\n      keccak256\n        /* \"smart-contract/LinkPay.sol\":1402:1431  hasAccess[linkId][msg.sender] */\n      0x00\n        /* \"smart-contract/LinkPay.sol\":1420:1430  msg.sender */\n      caller\n        /* \"smart-contract/LinkPay.sol\":1402:1431  hasAccess[linkId][msg.sender] */\n      0xffffffffffffffffffffffffffffffffffffffff\n      and\n      0xffffffffffffffffffffffffffffffffffffffff\n      and\n      dup2\n      mstore\n      0x20\n      add\n      swap1\n      dup2\n      mstore\n      0x20\n      add\n      0x00\n      keccak256\n      0x00\n        /* \"smart-contract/LinkPay.sol\":1402:1438  hasAccess[linkId][msg.sender] = true */\n      0x0100\n      exp\n      dup2\n      sload\n      dup2\n      0xff\n      mul\n      not\n      and\n      swap1\n      dup4\n      iszero\n      iszero\n      mul\n      or\n      swap1\n      sstore\n      pop\n        /* \"smart-contract/LinkPay.sol\":1472:1482  msg.sender */\n      caller\n        /* \"smart-contract/LinkPay.sol\":1454:1488  LinkAdded(linkId, msg.sender, fee) */\n      0xffffffffffffffffffffffffffffffffffffffff\n      and\n        /* \"smart-contract/LinkPay.sol\":1464:1470  linkId */\n      dup5\n      dup5\n        /* \"smart-contract/LinkPay.sol\":1454:1488  LinkAdded(linkId, msg.sender, fee) */\n      mload(0x40)\n      tag_121\n      swap3\n      swap2\n      swap1\n      tag_68\n      jump\t// in\n    tag_121:\n      mload(0x40)\n      dup1\n      swap2\n      sub\n      swap1\n      keccak256\n      0x9f74df5eec72a4c2fb2f83db8974cfc70535caba06231e115ab92cf821ee4c12\n        /* \"smart-contract/LinkPay.sol\":1484:1487  fee */\n      dup5\n        /* \"smart-contract/LinkPay.sol\":1454:1488  LinkAdded(linkId, msg.sender, fee) */\n      mload(0x40)\n      tag_122\n      swap2\n      swap1\n      tag_46\n      jump\t// in\n    tag_122:\n      mload(0x40)\n      dup1\n      swap2\n      sub\n      swap1\n      log3\n        /* \"smart-contract/LinkPay.sol\":885:1495  {... */\n      pop\n        /* \"smart-contract/LinkPay.sol\":801:1495  function addLink(string calldata url, string calldata linkId, uint256 fee) external {... */\n      pop\n      pop\n      pop\n      pop\n      pop\n      jump\t// out\n        /* \"#utility.yul\":7:82   */\n    tag_123:\n        /* \"#utility.yul\":40:46   */\n      0x00\n        /* \"#utility.yul\":73:75   */\n      0x40\n        /* \"#utility.yul\":67:76   */\n      mload\n        /* \"#utility.yul\":57:76   */\n      swap1\n      pop\n        /* \"#utility.yul\":7:82   */\n      swap1\n      jump\t// out\n        /* \"#utility.yul\":88:205   */\n    tag_124:\n        /* \"#utility.yul\":197:198   */\n      0x00\n        /* \"#utility.yul\":194:195   */\n      0x00\n        /* \"#utility.yul\":187:199   */\n      revert\n        /* \"#utility.yul\":211:328   */\n    tag_125:\n        /* \"#utility.yul\":320:321   */\n      0x00\n        /* \"#utility.yul\":317:318   */\n      0x00\n        /* \"#utility.yul\":310:322   */\n      revert\n        /* \"#utility.yul\":334:451   */\n    tag_126:\n        /* \"#utility.yul\":443:444   */\n      0x00\n        /* \"#utility.yul\":440:441   */\n      0x00\n        /* \"#utility.yul\":433:445   */\n      revert\n        /* \"#utility.yul\":457:574   */\n    tag_127:\n        /* \"#utility.yul\":566:567   */\n      0x00\n        /* \"#utility.yul\":563:564   */\n      0x00\n        /* \"#utility.yul\":556:568   */\n      revert\n        /* \"#utility.yul\":580:682   */\n    tag_128:\n        /* \"#utility.yul\":621:627   */\n      0x00\n        /* \"#utility.yul\":672:674   */\n      0x1f\n        /* \"#utility.yul\":668:675   */\n      not\n        /* \"#utility.yul\":663:665   */\n      0x1f\n        /* \"#utility.yul\":656:661   */\n      dup4\n        /* \"#utility.yul\":652:666   */\n      add\n        /* \"#utility.yul\":648:676   */\n      and\n        /* \"#utility.yul\":638:676   */\n      swap1\n      pop\n        /* \"#utility.yul\":580:682   */\n      swap2\n      swap1\n      pop\n      jump\t// out\n        /* \"#utility.yul\":688:868   */\n    tag_129:\n        /* \"#utility.yul\":736:813   */\n      0x4e487b7100000000000000000000000000000000000000000000000000000000\n        /* \"#utility.yul\":733:734   */\n      0x00\n        /* \"#utility.yul\":726:814   */\n      mstore\n        /* \"#utility.yul\":833:837   */\n      0x41\n        /* \"#utility.yul\":830:831   */\n      0x04\n        /* \"#utility.yul\":823:838   */\n      mstore\n        /* \"#utility.yul\":857:861   */\n      0x24\n        /* \"#utility.yul\":854:855   */\n      0x00\n        /* \"#utility.yul\":847:862   */\n      revert\n        /* \"#utility.yul\":874:1155   */\n    tag_130:\n        /* \"#utility.yul\":957:984   */\n      tag_200\n        /* \"#utility.yul\":979:983   */\n      dup3\n        /* \"#utility.yul\":957:984   */\n      tag_128\n      jump\t// in\n    tag_200:\n        /* \"#utility.yul\":949:955   */\n      dup2\n        /* \"#utility.yul\":945:985   */\n      add\n        /* \"#utility.yul\":1087:1093   */\n      dup2\n        /* \"#utility.yul\":1075:1085   */\n      dup2\n        /* \"#utility.yul\":1072:1094   */\n      lt\n        /* \"#utility.yul\":1051:1069   */\n      0xffffffffffffffff\n        /* \"#utility.yul\":1039:1049   */\n      dup3\n        /* \"#utility.yul\":1036:1070   */\n      gt\n        /* \"#utility.yul\":1033:1095   */\n      or\n        /* \"#utility.yul\":1030:1118   */\n      iszero\n      tag_201\n      jumpi\n        /* \"#utility.yul\":1098:1116   */\n      tag_202\n      tag_129\n      jump\t// in\n    tag_202:\n        /* \"#utility.yul\":1030:1118   */\n    tag_201:\n        /* \"#utility.yul\":1138:1148   */\n      dup1\n        /* \"#utility.yul\":1134:1136   */\n      0x40\n        /* \"#utility.yul\":1127:1149   */\n      mstore\n        /* \"#utility.yul\":917:1155   */\n      pop\n        /* \"#utility.yul\":874:1155   */\n      pop\n      pop\n      jump\t// out\n        /* \"#utility.yul\":1161:1290   */\n    tag_131:\n        /* \"#utility.yul\":1195:1201   */\n      0x00\n        /* \"#utility.yul\":1222:1242   */\n      tag_204\n      tag_123\n      jump\t// in\n    tag_204:\n        /* \"#utility.yul\":1212:1242   */\n      swap1\n      pop\n        /* \"#utility.yul\":1251:1284   */\n      tag_205\n        /* \"#utility.yul\":1279:1283   */\n      dup3\n        /* \"#utility.yul\":1271:1277   */\n      dup3\n        /* \"#utility.yul\":1251:1284   */\n      tag_130\n      jump\t// in\n    tag_205:\n        /* \"#utility.yul\":1161:1290   */\n      swap2\n      swap1\n      pop\n      jump\t// out\n        /* \"#utility.yul\":1296:1604   */\n    tag_132:\n        /* \"#utility.yul\":1358:1362   */\n      0x00\n        /* \"#utility.yul\":1448:1466   */\n      0xffffffffffffffff\n        /* \"#utility.yul\":1440:1446   */\n      dup3\n        /* \"#utility.yul\":1437:1467   */\n      gt\n        /* \"#utility.yul\":1434:1490   */\n      iszero\n      tag_207\n      jumpi\n        /* \"#utility.yul\":1470:1488   */\n      tag_208\n      tag_129\n      jump\t// in\n    tag_208:\n        /* \"#utility.yul\":1434:1490   */\n    tag_207:\n        /* \"#utility.yul\":1508:1537   */\n      tag_209\n        /* \"#utility.yul\":1530:1536   */\n      dup3\n        /* \"#utility.yul\":1508:1537   */\n      tag_128\n      jump\t// in\n    tag_209:\n        /* \"#utility.yul\":1500:1537   */\n      swap1\n      pop\n        /* \"#utility.yul\":1592:1596   */\n      0x20\n        /* \"#utility.yul\":1586:1590   */\n      dup2\n        /* \"#utility.yul\":1582:1597   */\n      add\n        /* \"#utility.yul\":1574:1597   */\n      swap1\n      pop\n        /* \"#utility.yul\":1296:1604   */\n      swap2\n      swap1\n      pop\n      jump\t// out\n        /* \"#utility.yul\":1610:1758   */\n    tag_133:\n        /* \"#utility.yul\":1708:1714   */\n      dup3\n        /* \"#utility.yul\":1703:1706   */\n      dup2\n        /* \"#utility.yul\":1698:1701   */\n      dup4\n        /* \"#utility.yul\":1685:1715   */\n      calldatacopy\n        /* \"#utility.yul\":1749:1750   */\n      0x00\n        /* \"#utility.yul\":1740:1746   */\n      dup4\n        /* \"#utility.yul\":1735:1738   */\n      dup4\n        /* \"#utility.yul\":1731:1747   */\n      add\n        /* \"#utility.yul\":1724:1751   */\n      mstore\n        /* \"#utility.yul\":1610:1758   */\n      pop\n      pop\n      pop\n      jump\t// out\n        /* \"#utility.yul\":1764:2189   */\n    tag_134:\n        /* \"#utility.yul\":1842:1847   */\n      0x00\n        /* \"#utility.yul\":1867:1933   */\n      tag_212\n        /* \"#utility.yul\":1883:1932   */\n      tag_213\n        /* \"#utility.yul\":1925:1931   */\n      dup5\n        /* \"#utility.yul\":1883:1932   */\n      tag_132\n      jump\t// in\n    tag_213:\n        /* \"#utility.yul\":1867:1933   */\n      tag_131\n      jump\t// in\n    tag_212:\n        /* \"#utility.yul\":1858:1933   */\n      swap1\n      pop\n        /* \"#utility.yul\":1956:1962   */\n      dup3\n        /* \"#utility.yul\":1949:1954   */\n      dup2\n        /* \"#utility.yul\":1942:1963   */\n      mstore\n        /* \"#utility.yul\":1994:1998   */\n      0x20\n        /* \"#utility.yul\":1987:1992   */\n      dup2\n        /* \"#utility.yul\":1983:1999   */\n      add\n        /* \"#utility.yul\":2032:2035   */\n      dup5\n        /* \"#utility.yul\":2023:2029   */\n      dup5\n        /* \"#utility.yul\":2018:2021   */\n      dup5\n        /* \"#utility.yul\":2014:2030   */\n      add\n        /* \"#utility.yul\":2011:2036   */\n      gt\n        /* \"#utility.yul\":2008:2120   */\n      iszero\n      tag_214\n      jumpi\n        /* \"#utility.yul\":2039:2118   */\n      tag_215\n      tag_127\n      jump\t// in\n    tag_215:\n        /* \"#utility.yul\":2008:2120   */\n    tag_214:\n        /* \"#utility.yul\":2129:2183   */\n      tag_216\n        /* \"#utility.yul\":2176:2182   */\n      dup5\n        /* \"#utility.yul\":2171:2174   */\n      dup3\n        /* \"#utility.yul\":2166:2169   */\n      dup6\n        /* \"#utility.yul\":2129:2183   */\n      tag_133\n      jump\t// in\n    tag_216:\n        /* \"#utility.yul\":1848:2189   */\n      pop\n        /* \"#utility.yul\":1764:2189   */\n      swap4\n      swap3\n      pop\n      pop\n      pop\n      jump\t// out\n        /* \"#utility.yul\":2209:2549   */\n    tag_135:\n        /* \"#utility.yul\":2265:2270   */\n      0x00\n        /* \"#utility.yul\":2314:2317   */\n      dup3\n        /* \"#utility.yul\":2307:2311   */\n      0x1f\n        /* \"#utility.yul\":2299:2305   */\n      dup4\n        /* \"#utility.yul\":2295:2312   */\n      add\n        /* \"#utility.yul\":2291:2318   */\n      slt\n        /* \"#utility.yul\":2281:2403   */\n      tag_218\n      jumpi\n        /* \"#utility.yul\":2322:2401   */\n      tag_219\n      tag_126\n      jump\t// in\n    tag_219:\n        /* \"#utility.yul\":2281:2403   */\n    tag_218:\n        /* \"#utility.yul\":2439:2445   */\n      dup2\n        /* \"#utility.yul\":2426:2446   */\n      calldataload\n        /* \"#utility.yul\":2464:2543   */\n      tag_220\n        /* \"#utility.yul\":2539:2542   */\n      dup5\n        /* \"#utility.yul\":2531:2537   */\n      dup3\n        /* \"#utility.yul\":2524:2528   */\n      0x20\n        /* \"#utility.yul\":2516:2522   */\n      dup7\n        /* \"#utility.yul\":2512:2529   */\n      add\n        /* \"#utility.yul\":2464:2543   */\n      tag_134\n      jump\t// in\n    tag_220:\n        /* \"#utility.yul\":2455:2543   */\n      swap2\n      pop\n        /* \"#utility.yul\":2271:2549   */\n      pop\n        /* \"#utility.yul\":2209:2549   */\n      swap3\n      swap2\n      pop\n      pop\n      jump\t// out\n        /* \"#utility.yul\":2555:2681   */\n    tag_136:\n        /* \"#utility.yul\":2592:2599   */\n      0x00\n        /* \"#utility.yul\":2632:2674   */\n      0xffffffffffffffffffffffffffffffffffffffff\n        /* \"#utility.yul\":2625:2630   */\n      dup3\n        /* \"#utility.yul\":2621:2675   */\n      and\n        /* \"#utility.yul\":2610:2675   */\n      swap1\n      pop\n        /* \"#utility.yul\":2555:2681   */\n      swap2\n      swap1\n      pop\n      jump\t// out\n        /* \"#utility.yul\":2687:2783   */\n    tag_137:\n        /* \"#utility.yul\":2724:2731   */\n      0x00\n        /* \"#utility.yul\":2753:2777   */\n      tag_223\n        /* \"#utility.yul\":2771:2776   */\n      dup3\n        /* \"#utility.yul\":2753:2777   */\n      tag_136\n      jump\t// in\n    tag_223:\n        /* \"#utility.yul\":2742:2777   */\n      swap1\n      pop\n        /* \"#utility.yul\":2687:2783   */\n      swap2\n      swap1\n      pop\n      jump\t// out\n        /* \"#utility.yul\":2789:2911   */\n    tag_138:\n        /* \"#utility.yul\":2862:2886   */\n      tag_225\n        /* \"#utility.yul\":2880:2885   */\n      dup2\n        /* \"#utility.yul\":2862:2886   */\n      tag_137\n      jump\t// in\n    tag_225:\n        /* \"#utility.yul\":2855:2860   */\n      dup2\n        /* \"#utility.yul\":2852:2887   */\n      eq\n        /* \"#utility.yul\":2842:2905   */\n      tag_226\n      jumpi\n        /* \"#utility.yul\":2901:2902   */\n      0x00\n        /* \"#utility.yul\":2898:2899   */\n      0x00\n        /* \"#utility.yul\":2891:2903   */\n      revert\n        /* \"#utility.yul\":2842:2905   */\n    tag_226:\n        /* \"#utility.yul\":2789:2911   */\n      pop\n      jump\t// out\n        /* \"#utility.yul\":2917:3056   */\n    tag_139:\n        /* \"#utility.yul\":2963:2968   */\n      0x00\n        /* \"#utility.yul\":3001:3007   */\n      dup2\n        /* \"#utility.yul\":2988:3008   */\n      calldataload\n        /* \"#utility.yul\":2979:3008   */\n      swap1\n      pop\n        /* \"#utility.yul\":3017:3050   */\n      tag_228\n        /* \"#utility.yul\":3044:3049   */\n      dup2\n        /* \"#utility.yul\":3017:3050   */\n      tag_138\n      jump\t// in\n    tag_228:\n        /* \"#utility.yul\":2917:3056   */\n      swap3\n      swap2\n      pop\n      pop\n      jump\t// out\n        /* \"#utility.yul\":3062:3716   */\n    tag_15:\n        /* \"#utility.yul\":3140:3146   */\n      0x00\n        /* \"#utility.yul\":3148:3154   */\n      0x00\n        /* \"#utility.yul\":3197:3199   */\n      0x40\n        /* \"#utility.yul\":3185:3194   */\n      dup4\n        /* \"#utility.yul\":3176:3183   */\n      dup6\n        /* \"#utility.yul\":3172:3195   */\n      sub\n        /* \"#utility.yul\":3168:3200   */\n      slt\n        /* \"#utility.yul\":3165:3284   */\n      iszero\n      tag_230\n      jumpi\n        /* \"#utility.yul\":3203:3282   */\n      tag_231\n      tag_124\n      jump\t// in\n    tag_231:\n        /* \"#utility.yul\":3165:3284   */\n    tag_230:\n        /* \"#utility.yul\":3351:3352   */\n      0x00\n        /* \"#utility.yul\":3340:3349   */\n      dup4\n        /* \"#utility.yul\":3336:3353   */\n      add\n        /* \"#utility.yul\":3323:3354   */\n      calldataload\n        /* \"#utility.yul\":3381:3399   */\n      0xffffffffffffffff\n        /* \"#utility.yul\":3373:3379   */\n      dup2\n        /* \"#utility.yul\":3370:3400   */\n      gt\n        /* \"#utility.yul\":3367:3484   */\n      iszero\n      tag_232\n      jumpi\n        /* \"#utility.yul\":3403:3482   */\n      tag_233\n      tag_125\n      jump\t// in\n    tag_233:\n        /* \"#utility.yul\":3367:3484   */\n    tag_232:\n        /* \"#utility.yul\":3508:3571   */\n      tag_234\n        /* \"#utility.yul\":3563:3570   */\n      dup6\n        /* \"#utility.yul\":3554:3560   */\n      dup3\n        /* \"#utility.yul\":3543:3552   */\n      dup7\n        /* \"#utility.yul\":3539:3561   */\n      add\n        /* \"#utility.yul\":3508:3571   */\n      tag_135\n      jump\t// in\n    tag_234:\n        /* \"#utility.yul\":3498:3571   */\n      swap3\n      pop\n        /* \"#utility.yul\":3294:3581   */\n      pop\n        /* \"#utility.yul\":3620:3622   */\n      0x20\n        /* \"#utility.yul\":3646:3699   */\n      tag_235\n        /* \"#utility.yul\":3691:3698   */\n      dup6\n        /* \"#utility.yul\":3682:3688   */\n      dup3\n        /* \"#utility.yul\":3671:3680   */\n      dup7\n        /* \"#utility.yul\":3667:3689   */\n      add\n        /* \"#utility.yul\":3646:3699   */\n      tag_139\n      jump\t// in\n    tag_235:\n        /* \"#utility.yul\":3636:3699   */\n      swap2\n      pop\n        /* \"#utility.yul\":3591:3709   */\n      pop\n        /* \"#utility.yul\":3062:3716   */\n      swap3\n      pop\n      swap3\n      swap1\n      pop\n      jump\t// out\n        /* \"#utility.yul\":3722:3812   */\n    tag_140:\n        /* \"#utility.yul\":3756:3763   */\n      0x00\n        /* \"#utility.yul\":3799:3804   */\n      dup2\n        /* \"#utility.yul\":3792:3805   */\n      iszero\n        /* \"#utility.yul\":3785:3806   */\n      iszero\n        /* \"#utility.yul\":3774:3806   */\n      swap1\n      pop\n        /* \"#utility.yul\":3722:3812   */\n      swap2\n      swap1\n      pop\n      jump\t// out\n        /* \"#utility.yul\":3818:3927   */\n    tag_141:\n        /* \"#utility.yul\":3899:3920   */\n      tag_238\n        /* \"#utility.yul\":3914:3919   */\n      dup2\n        /* \"#utility.yul\":3899:3920   */\n      tag_140\n      jump\t// in\n    tag_238:\n        /* \"#utility.yul\":3894:3897   */\n      dup3\n        /* \"#utility.yul\":3887:3921   */\n      mstore\n        /* \"#utility.yul\":3818:3927   */\n      pop\n      pop\n      jump\t// out\n        /* \"#utility.yul\":3933:4143   */\n    tag_18:\n        /* \"#utility.yul\":4020:4024   */\n      0x00\n        /* \"#utility.yul\":4058:4060   */\n      0x20\n        /* \"#utility.yul\":4047:4056   */\n      dup3\n        /* \"#utility.yul\":4043:4061   */\n      add\n        /* \"#utility.yul\":4035:4061   */\n      swap1\n      pop\n        /* \"#utility.yul\":4071:4136   */\n      tag_240\n        /* \"#utility.yul\":4133:4134   */\n      0x00\n        /* \"#utility.yul\":4122:4131   */\n      dup4\n        /* \"#utility.yul\":4118:4135   */\n      add\n        /* \"#utility.yul\":4109:4115   */\n      dup5\n        /* \"#utility.yul\":4071:4136   */\n      tag_141\n      jump\t// in\n    tag_240:\n        /* \"#utility.yul\":3933:4143   */\n      swap3\n      swap2\n      pop\n      pop\n      jump\t// out\n        /* \"#utility.yul\":4149:4226   */\n    tag_142:\n        /* \"#utility.yul\":4186:4193   */\n      0x00\n        /* \"#utility.yul\":4215:4220   */\n      dup2\n        /* \"#utility.yul\":4204:4220   */\n      swap1\n      pop\n        /* \"#utility.yul\":4149:4226   */\n      swap2\n      swap1\n      pop\n      jump\t// out\n        /* \"#utility.yul\":4232:4354   */\n    tag_143:\n        /* \"#utility.yul\":4305:4329   */\n      tag_243\n        /* \"#utility.yul\":4323:4328   */\n      dup2\n        /* \"#utility.yul\":4305:4329   */\n      tag_142\n      jump\t// in\n    tag_243:\n        /* \"#utility.yul\":4298:4303   */\n      dup2\n        /* \"#utility.yul\":4295:4330   */\n      eq\n        /* \"#utility.yul\":4285:4348   */\n      tag_244\n      jumpi\n        /* \"#utility.yul\":4344:4345   */\n      0x00\n        /* \"#utility.yul\":4341:4342   */\n      0x00\n        /* \"#utility.yul\":4334:4346   */\n      revert\n        /* \"#utility.yul\":4285:4348   */\n    tag_244:\n        /* \"#utility.yul\":4232:4354   */\n      pop\n      jump\t// out\n        /* \"#utility.yul\":4360:4499   */\n    tag_144:\n        /* \"#utility.yul\":4406:4411   */\n      0x00\n        /* \"#utility.yul\":4444:4450   */\n      dup2\n        /* \"#utility.yul\":4431:4451   */\n      calldataload\n        /* \"#utility.yul\":4422:4451   */\n      swap1\n      pop\n        /* \"#utility.yul\":4460:4493   */\n      tag_246\n        /* \"#utility.yul\":4487:4492   */\n      dup2\n        /* \"#utility.yul\":4460:4493   */\n      tag_143\n      jump\t// in\n    tag_246:\n        /* \"#utility.yul\":4360:4499   */\n      swap3\n      swap2\n      pop\n      pop\n      jump\t// out\n        /* \"#utility.yul\":4505:4834   */\n    tag_22:\n        /* \"#utility.yul\":4564:4570   */\n      0x00\n        /* \"#utility.yul\":4613:4615   */\n      0x20\n        /* \"#utility.yul\":4601:4610   */\n      dup3\n        /* \"#utility.yul\":4592:4599   */\n      dup5\n        /* \"#utility.yul\":4588:4611   */\n      sub\n        /* \"#utility.yul\":4584:4616   */\n      slt\n        /* \"#utility.yul\":4581:4700   */\n      iszero\n      tag_248\n      jumpi\n        /* \"#utility.yul\":4619:4698   */\n      tag_249\n      tag_124\n      jump\t// in\n    tag_249:\n        /* \"#utility.yul\":4581:4700   */\n    tag_248:\n        /* \"#utility.yul\":4739:4740   */\n      0x00\n        /* \"#utility.yul\":4764:4817   */\n      tag_250\n        /* \"#utility.yul\":4809:4816   */\n      dup5\n        /* \"#utility.yul\":4800:4806   */\n      dup3\n        /* \"#utility.yul\":4789:4798   */\n      dup6\n        /* \"#utility.yul\":4785:4807   */\n      add\n        /* \"#utility.yul\":4764:4817   */\n      tag_144\n      jump\t// in\n    tag_250:\n        /* \"#utility.yul\":4754:4817   */\n      swap2\n      pop\n        /* \"#utility.yul\":4710:4827   */\n      pop\n        /* \"#utility.yul\":4505:4834   */\n      swap3\n      swap2\n      pop\n      pop\n      jump\t// out\n        /* \"#utility.yul\":4840:4957   */\n    tag_145:\n        /* \"#utility.yul\":4949:4950   */\n      0x00\n        /* \"#utility.yul\":4946:4947   */\n      0x00\n        /* \"#utility.yul\":4939:4951   */\n      revert\n        /* \"#utility.yul\":4963:5080   */\n    tag_146:\n        /* \"#utility.yul\":5072:5073   */\n      0x00\n        /* \"#utility.yul\":5069:5070   */\n      0x00\n        /* \"#utility.yul\":5062:5074   */\n      revert\n        /* \"#utility.yul\":5100:5653   */\n    tag_147:\n        /* \"#utility.yul\":5158:5166   */\n      0x00\n        /* \"#utility.yul\":5168:5174   */\n      0x00\n        /* \"#utility.yul\":5218:5221   */\n      dup4\n        /* \"#utility.yul\":5211:5215   */\n      0x1f\n        /* \"#utility.yul\":5203:5209   */\n      dup5\n        /* \"#utility.yul\":5199:5216   */\n      add\n        /* \"#utility.yul\":5195:5222   */\n      slt\n        /* \"#utility.yul\":5185:5307   */\n      tag_254\n      jumpi\n        /* \"#utility.yul\":5226:5305   */\n      tag_255\n      tag_126\n      jump\t// in\n    tag_255:\n        /* \"#utility.yul\":5185:5307   */\n    tag_254:\n        /* \"#utility.yul\":5339:5345   */\n      dup3\n        /* \"#utility.yul\":5326:5346   */\n      calldataload\n        /* \"#utility.yul\":5316:5346   */\n      swap1\n      pop\n        /* \"#utility.yul\":5369:5387   */\n      0xffffffffffffffff\n        /* \"#utility.yul\":5361:5367   */\n      dup2\n        /* \"#utility.yul\":5358:5388   */\n      gt\n        /* \"#utility.yul\":5355:5472   */\n      iszero\n      tag_256\n      jumpi\n        /* \"#utility.yul\":5391:5470   */\n      tag_257\n      tag_145\n      jump\t// in\n    tag_257:\n        /* \"#utility.yul\":5355:5472   */\n    tag_256:\n        /* \"#utility.yul\":5505:5509   */\n      0x20\n        /* \"#utility.yul\":5497:5503   */\n      dup4\n        /* \"#utility.yul\":5493:5510   */\n      add\n        /* \"#utility.yul\":5481:5510   */\n      swap2\n      pop\n        /* \"#utility.yul\":5559:5562   */\n      dup4\n        /* \"#utility.yul\":5551:5555   */\n      0x01\n        /* \"#utility.yul\":5543:5549   */\n      dup3\n        /* \"#utility.yul\":5539:5556   */\n      mul\n        /* \"#utility.yul\":5529:5537   */\n      dup4\n        /* \"#utility.yul\":5525:5557   */\n      add\n        /* \"#utility.yul\":5522:5563   */\n      gt\n        /* \"#utility.yul\":5519:5647   */\n      iszero\n      tag_258\n      jumpi\n        /* \"#utility.yul\":5566:5645   */\n      tag_259\n      tag_146\n      jump\t// in\n    tag_259:\n        /* \"#utility.yul\":5519:5647   */\n    tag_258:\n        /* \"#utility.yul\":5100:5653   */\n      swap3\n      pop\n      swap3\n      swap1\n      pop\n      jump\t// out\n        /* \"#utility.yul\":5659:6188   */\n    tag_29:\n        /* \"#utility.yul\":5730:5736   */\n      0x00\n        /* \"#utility.yul\":5738:5744   */\n      0x00\n        /* \"#utility.yul\":5787:5789   */\n      0x20\n        /* \"#utility.yul\":5775:5784   */\n      dup4\n        /* \"#utility.yul\":5766:5773   */\n      dup6\n        /* \"#utility.yul\":5762:5785   */\n      sub\n        /* \"#utility.yul\":5758:5790   */\n      slt\n        /* \"#utility.yul\":5755:5874   */\n      iszero\n      tag_261\n      jumpi\n        /* \"#utility.yul\":5793:5872   */\n      tag_262\n      tag_124\n      jump\t// in\n    tag_262:\n        /* \"#utility.yul\":5755:5874   */\n    tag_261:\n        /* \"#utility.yul\":5941:5942   */\n      0x00\n        /* \"#utility.yul\":5930:5939   */\n      dup4\n        /* \"#utility.yul\":5926:5943   */\n      add\n        /* \"#utility.yul\":5913:5944   */\n      calldataload\n        /* \"#utility.yul\":5971:5989   */\n      0xffffffffffffffff\n        /* \"#utility.yul\":5963:5969   */\n      dup2\n        /* \"#utility.yul\":5960:5990   */\n      gt\n        /* \"#utility.yul\":5957:6074   */\n      iszero\n      tag_263\n      jumpi\n        /* \"#utility.yul\":5993:6072   */\n      tag_264\n      tag_125\n      jump\t// in\n    tag_264:\n        /* \"#utility.yul\":5957:6074   */\n    tag_263:\n        /* \"#utility.yul\":6106:6171   */\n      tag_265\n        /* \"#utility.yul\":6163:6170   */\n      dup6\n        /* \"#utility.yul\":6154:6160   */\n      dup3\n        /* \"#utility.yul\":6143:6152   */\n      dup7\n        /* \"#utility.yul\":6139:6161   */\n      add\n        /* \"#utility.yul\":6106:6171   */\n      tag_147\n      jump\t// in\n    tag_265:\n        /* \"#utility.yul\":6088:6171   */\n      swap3\n      pop\n      swap3\n      pop\n        /* \"#utility.yul\":5884:6181   */\n      pop\n        /* \"#utility.yul\":5659:6188   */\n      swap3\n      pop\n      swap3\n      swap1\n      pop\n      jump\t// out\n        /* \"#utility.yul\":6194:6312   */\n    tag_148:\n        /* \"#utility.yul\":6281:6305   */\n      tag_267\n        /* \"#utility.yul\":6299:6304   */\n      dup2\n        /* \"#utility.yul\":6281:6305   */\n      tag_137\n      jump\t// in\n    tag_267:\n        /* \"#utility.yul\":6276:6279   */\n      dup3\n        /* \"#utility.yul\":6269:6306   */\n      mstore\n        /* \"#utility.yul\":6194:6312   */\n      pop\n      pop\n      jump\t// out\n        /* \"#utility.yul\":6318:6540   */\n    tag_35:\n        /* \"#utility.yul\":6411:6415   */\n      0x00\n        /* \"#utility.yul\":6449:6451   */\n      0x20\n        /* \"#utility.yul\":6438:6447   */\n      dup3\n        /* \"#utility.yul\":6434:6452   */\n      add\n        /* \"#utility.yul\":6426:6452   */\n      swap1\n      pop\n        /* \"#utility.yul\":6462:6533   */\n      tag_269\n        /* \"#utility.yul\":6530:6531   */\n      0x00\n        /* \"#utility.yul\":6519:6528   */\n      dup4\n        /* \"#utility.yul\":6515:6532   */\n      add\n        /* \"#utility.yul\":6506:6512   */\n      dup5\n        /* \"#utility.yul\":6462:6533   */\n      tag_148\n      jump\t// in\n    tag_269:\n        /* \"#utility.yul\":6318:6540   */\n      swap3\n      swap2\n      pop\n      pop\n      jump\t// out\n        /* \"#utility.yul\":6546:6645   */\n    tag_149:\n        /* \"#utility.yul\":6598:6604   */\n      0x00\n        /* \"#utility.yul\":6632:6637   */\n      dup2\n        /* \"#utility.yul\":6626:6638   */\n      mload\n        /* \"#utility.yul\":6616:6638   */\n      swap1\n      pop\n        /* \"#utility.yul\":6546:6645   */\n      swap2\n      swap1\n      pop\n      jump\t// out\n        /* \"#utility.yul\":6651:6820   */\n    tag_150:\n        /* \"#utility.yul\":6735:6746   */\n      0x00\n        /* \"#utility.yul\":6769:6775   */\n      dup3\n        /* \"#utility.yul\":6764:6767   */\n      dup3\n        /* \"#utility.yul\":6757:6776   */\n      mstore\n        /* \"#utility.yul\":6809:6813   */\n      0x20\n        /* \"#utility.yul\":6804:6807   */\n      dup3\n        /* \"#utility.yul\":6800:6814   */\n      add\n        /* \"#utility.yul\":6785:6814   */\n      swap1\n      pop\n        /* \"#utility.yul\":6651:6820   */\n      swap3\n      swap2\n      pop\n      pop\n      jump\t// out\n        /* \"#utility.yul\":6826:6965   */\n    tag_151:\n        /* \"#utility.yul\":6915:6921   */\n      dup3\n        /* \"#utility.yul\":6910:6913   */\n      dup2\n        /* \"#utility.yul\":6905:6908   */\n      dup4\n        /* \"#utility.yul\":6899:6922   */\n      mcopy\n        /* \"#utility.yul\":6956:6957   */\n      0x00\n        /* \"#utility.yul\":6947:6953   */\n      dup4\n        /* \"#utility.yul\":6942:6945   */\n      dup4\n        /* \"#utility.yul\":6938:6954   */\n      add\n        /* \"#utility.yul\":6931:6958   */\n      mstore\n        /* \"#utility.yul\":6826:6965   */\n      pop\n      pop\n      pop\n      jump\t// out\n        /* \"#utility.yul\":6971:7348   */\n    tag_152:\n        /* \"#utility.yul\":7059:7062   */\n      0x00\n        /* \"#utility.yul\":7087:7126   */\n      tag_274\n        /* \"#utility.yul\":7120:7125   */\n      dup3\n        /* \"#utility.yul\":7087:7126   */\n      tag_149\n      jump\t// in\n    tag_274:\n        /* \"#utility.yul\":7142:7213   */\n      tag_275\n        /* \"#utility.yul\":7206:7212   */\n      dup2\n        /* \"#utility.yul\":7201:7204   */\n      dup6\n        /* \"#utility.yul\":7142:7213   */\n      tag_150\n      jump\t// in\n    tag_275:\n        /* \"#utility.yul\":7135:7213   */\n      swap4\n      pop\n        /* \"#utility.yul\":7222:7287   */\n      tag_276\n        /* \"#utility.yul\":7280:7286   */\n      dup2\n        /* \"#utility.yul\":7275:7278   */\n      dup6\n        /* \"#utility.yul\":7268:7272   */\n      0x20\n        /* \"#utility.yul\":7261:7266   */\n      dup7\n        /* \"#utility.yul\":7257:7273   */\n      add\n        /* \"#utility.yul\":7222:7287   */\n      tag_151\n      jump\t// in\n    tag_276:\n        /* \"#utility.yul\":7312:7341   */\n      tag_277\n        /* \"#utility.yul\":7334:7340   */\n      dup2\n        /* \"#utility.yul\":7312:7341   */\n      tag_128\n      jump\t// in\n    tag_277:\n        /* \"#utility.yul\":7307:7310   */\n      dup5\n        /* \"#utility.yul\":7303:7342   */\n      add\n        /* \"#utility.yul\":7296:7342   */\n      swap2\n      pop\n        /* \"#utility.yul\":7063:7348   */\n      pop\n        /* \"#utility.yul\":6971:7348   */\n      swap3\n      swap2\n      pop\n      pop\n      jump\t// out\n        /* \"#utility.yul\":7354:7472   */\n    tag_153:\n        /* \"#utility.yul\":7441:7465   */\n      tag_279\n        /* \"#utility.yul\":7459:7464   */\n      dup2\n        /* \"#utility.yul\":7441:7465   */\n      tag_142\n      jump\t// in\n    tag_279:\n        /* \"#utility.yul\":7436:7439   */\n      dup3\n        /* \"#utility.yul\":7429:7466   */\n      mstore\n        /* \"#utility.yul\":7354:7472   */\n      pop\n      pop\n      jump\t// out\n        /* \"#utility.yul\":7478:8011   */\n    tag_41:\n        /* \"#utility.yul\":7647:7651   */\n      0x00\n        /* \"#utility.yul\":7685:7687   */\n      0x60\n        /* \"#utility.yul\":7674:7683   */\n      dup3\n        /* \"#utility.yul\":7670:7688   */\n      add\n        /* \"#utility.yul\":7662:7688   */\n      swap1\n      pop\n        /* \"#utility.yul\":7734:7743   */\n      dup2\n        /* \"#utility.yul\":7728:7732   */\n      dup2\n        /* \"#utility.yul\":7724:7744   */\n      sub\n        /* \"#utility.yul\":7720:7721   */\n      0x00\n        /* \"#utility.yul\":7709:7718   */\n      dup4\n        /* \"#utility.yul\":7705:7722   */\n      add\n        /* \"#utility.yul\":7698:7745   */\n      mstore\n        /* \"#utility.yul\":7762:7840   */\n      tag_281\n        /* \"#utility.yul\":7835:7839   */\n      dup2\n        /* \"#utility.yul\":7826:7832   */\n      dup7\n        /* \"#utility.yul\":7762:7840   */\n      tag_152\n      jump\t// in\n    tag_281:\n        /* \"#utility.yul\":7754:7840   */\n      swap1\n      pop\n        /* \"#utility.yul\":7850:7922   */\n      tag_282\n        /* \"#utility.yul\":7918:7920   */\n      0x20\n        /* \"#utility.yul\":7907:7916   */\n      dup4\n        /* \"#utility.yul\":7903:7921   */\n      add\n        /* \"#utility.yul\":7894:7900   */\n      dup6\n        /* \"#utility.yul\":7850:7922   */\n      tag_148\n      jump\t// in\n    tag_282:\n        /* \"#utility.yul\":7932:8004   */\n      tag_283\n        /* \"#utility.yul\":8000:8002   */\n      0x40\n        /* \"#utility.yul\":7989:7998   */\n      dup4\n        /* \"#utility.yul\":7985:8003   */\n      add\n        /* \"#utility.yul\":7976:7982   */\n      dup5\n        /* \"#utility.yul\":7932:8004   */\n      tag_153\n      jump\t// in\n    tag_283:\n        /* \"#utility.yul\":7478:8011   */\n      swap5\n      swap4\n      pop\n      pop\n      pop\n      pop\n      jump\t// out\n        /* \"#utility.yul\":8017:8239   */\n    tag_46:\n        /* \"#utility.yul\":8110:8114   */\n      0x00\n        /* \"#utility.yul\":8148:8150   */\n      0x20\n        /* \"#utility.yul\":8137:8146   */\n      dup3\n        /* \"#utility.yul\":8133:8151   */\n      add\n        /* \"#utility.yul\":8125:8151   */\n      swap1\n      pop\n        /* \"#utility.yul\":8161:8232   */\n      tag_285\n        /* \"#utility.yul\":8229:8230   */\n      0x00\n        /* \"#utility.yul\":8218:8227   */\n      dup4\n        /* \"#utility.yul\":8214:8231   */\n      add\n        /* \"#utility.yul\":8205:8211   */\n      dup5\n        /* \"#utility.yul\":8161:8232   */\n      tag_153\n      jump\t// in\n    tag_285:\n        /* \"#utility.yul\":8017:8239   */\n      swap3\n      swap2\n      pop\n      pop\n      jump\t// out\n        /* \"#utility.yul\":8245:9264   */\n    tag_54:\n        /* \"#utility.yul\":8346:8352   */\n      0x00\n        /* \"#utility.yul\":8354:8360   */\n      0x00\n        /* \"#utility.yul\":8362:8368   */\n      0x00\n        /* \"#utility.yul\":8370:8376   */\n      0x00\n        /* \"#utility.yul\":8378:8384   */\n      0x00\n        /* \"#utility.yul\":8427:8429   */\n      0x60\n        /* \"#utility.yul\":8415:8424   */\n      dup7\n        /* \"#utility.yul\":8406:8413   */\n      dup9\n        /* \"#utility.yul\":8402:8425   */\n      sub\n        /* \"#utility.yul\":8398:8430   */\n      slt\n        /* \"#utility.yul\":8395:8514   */\n      iszero\n      tag_287\n      jumpi\n        /* \"#utility.yul\":8433:8512   */\n      tag_288\n      tag_124\n      jump\t// in\n    tag_288:\n        /* \"#utility.yul\":8395:8514   */\n    tag_287:\n        /* \"#utility.yul\":8581:8582   */\n      0x00\n        /* \"#utility.yul\":8570:8579   */\n      dup7\n        /* \"#utility.yul\":8566:8583   */\n      add\n        /* \"#utility.yul\":8553:8584   */\n      calldataload\n        /* \"#utility.yul\":8611:8629   */\n      0xffffffffffffffff\n        /* \"#utility.yul\":8603:8609   */\n      dup2\n        /* \"#utility.yul\":8600:8630   */\n      gt\n        /* \"#utility.yul\":8597:8714   */\n      iszero\n      tag_289\n      jumpi\n        /* \"#utility.yul\":8633:8712   */\n      tag_290\n      tag_125\n      jump\t// in\n    tag_290:\n        /* \"#utility.yul\":8597:8714   */\n    tag_289:\n        /* \"#utility.yul\":8746:8811   */\n      tag_291\n        /* \"#utility.yul\":8803:8810   */\n      dup9\n        /* \"#utility.yul\":8794:8800   */\n      dup3\n        /* \"#utility.yul\":8783:8792   */\n      dup10\n        /* \"#utility.yul\":8779:8801   */\n      add\n        /* \"#utility.yul\":8746:8811   */\n      tag_147\n      jump\t// in\n    tag_291:\n        /* \"#utility.yul\":8728:8811   */\n      swap6\n      pop\n      swap6\n      pop\n        /* \"#utility.yul\":8524:8821   */\n      pop\n        /* \"#utility.yul\":8888:8890   */\n      0x20\n        /* \"#utility.yul\":8877:8886   */\n      dup7\n        /* \"#utility.yul\":8873:8891   */\n      add\n        /* \"#utility.yul\":8860:8892   */\n      calldataload\n        /* \"#utility.yul\":8919:8937   */\n      0xffffffffffffffff\n        /* \"#utility.yul\":8911:8917   */\n      dup2\n        /* \"#utility.yul\":8908:8938   */\n      gt\n        /* \"#utility.yul\":8905:9022   */\n      iszero\n      tag_292\n      jumpi\n        /* \"#utility.yul\":8941:9020   */\n      tag_293\n      tag_125\n      jump\t// in\n    tag_293:\n        /* \"#utility.yul\":8905:9022   */\n    tag_292:\n        /* \"#utility.yul\":9054:9119   */\n      tag_294\n        /* \"#utility.yul\":9111:9118   */\n      dup9\n        /* \"#utility.yul\":9102:9108   */\n      dup3\n        /* \"#utility.yul\":9091:9100   */\n      dup10\n        /* \"#utility.yul\":9087:9109   */\n      add\n        /* \"#utility.yul\":9054:9119   */\n      tag_147\n      jump\t// in\n    tag_294:\n        /* \"#utility.yul\":9036:9119   */\n      swap4\n      pop\n      swap4\n      pop\n        /* \"#utility.yul\":8831:9129   */\n      pop\n        /* \"#utility.yul\":9168:9170   */\n      0x40\n        /* \"#utility.yul\":9194:9247   */\n      tag_295\n        /* \"#utility.yul\":9239:9246   */\n      dup9\n        /* \"#utility.yul\":9230:9236   */\n      dup3\n        /* \"#utility.yul\":9219:9228   */\n      dup10\n        /* \"#utility.yul\":9215:9237   */\n      add\n        /* \"#utility.yul\":9194:9247   */\n      tag_144\n      jump\t// in\n    tag_295:\n        /* \"#utility.yul\":9184:9247   */\n      swap2\n      pop\n        /* \"#utility.yul\":9139:9257   */\n      pop\n        /* \"#utility.yul\":8245:9264   */\n      swap3\n      swap6\n      pop\n      swap3\n      swap6\n      swap1\n      swap4\n      pop\n      jump\t// out\n        /* \"#utility.yul\":9270:9439   */\n    tag_154:\n        /* \"#utility.yul\":9410:9431   */\n      0x4f6e6c7920706c6174666f726d206f776e657200000000000000000000000000\n        /* \"#utility.yul\":9406:9407   */\n      0x00\n        /* \"#utility.yul\":9398:9404   */\n      dup3\n        /* \"#utility.yul\":9394:9408   */\n      add\n        /* \"#utility.yul\":9387:9432   */\n      mstore\n        /* \"#utility.yul\":9270:9439   */\n      pop\n      jump\t// out\n        /* \"#utility.yul\":9445:9811   */\n    tag_155:\n        /* \"#utility.yul\":9587:9590   */\n      0x00\n        /* \"#utility.yul\":9608:9675   */\n      tag_298\n        /* \"#utility.yul\":9672:9674   */\n      0x13\n        /* \"#utility.yul\":9667:9670   */\n      dup4\n        /* \"#utility.yul\":9608:9675   */\n      tag_150\n      jump\t// in\n    tag_298:\n        /* \"#utility.yul\":9601:9675   */\n      swap2\n      pop\n        /* \"#utility.yul\":9684:9777   */\n      tag_299\n        /* \"#utility.yul\":9773:9776   */\n      dup3\n        /* \"#utility.yul\":9684:9777   */\n      tag_154\n      jump\t// in\n    tag_299:\n        /* \"#utility.yul\":9802:9804   */\n      0x20\n        /* \"#utility.yul\":9797:9800   */\n      dup3\n        /* \"#utility.yul\":9793:9805   */\n      add\n        /* \"#utility.yul\":9786:9805   */\n      swap1\n      pop\n        /* \"#utility.yul\":9445:9811   */\n      swap2\n      swap1\n      pop\n      jump\t// out\n        /* \"#utility.yul\":9817:10236   */\n    tag_59:\n        /* \"#utility.yul\":9983:9987   */\n      0x00\n        /* \"#utility.yul\":10021:10023   */\n      0x20\n        /* \"#utility.yul\":10010:10019   */\n      dup3\n        /* \"#utility.yul\":10006:10024   */\n      add\n        /* \"#utility.yul\":9998:10024   */\n      swap1\n      pop\n        /* \"#utility.yul\":10070:10079   */\n      dup2\n        /* \"#utility.yul\":10064:10068   */\n      dup2\n        /* \"#utility.yul\":10060:10080   */\n      sub\n        /* \"#utility.yul\":10056:10057   */\n      0x00\n        /* \"#utility.yul\":10045:10054   */\n      dup4\n        /* \"#utility.yul\":10041:10058   */\n      add\n        /* \"#utility.yul\":10034:10081   */\n      mstore\n        /* \"#utility.yul\":10098:10229   */\n      tag_301\n        /* \"#utility.yul\":10224:10228   */\n      dup2\n        /* \"#utility.yul\":10098:10229   */\n      tag_155\n      jump\t// in\n    tag_301:\n        /* \"#utility.yul\":10090:10229   */\n      swap1\n      pop\n        /* \"#utility.yul\":9817:10236   */\n      swap2\n      swap1\n      pop\n      jump\t// out\n        /* \"#utility.yul\":10242:10418   */\n    tag_156:\n        /* \"#utility.yul\":10382:10410   */\n      0x596f7520646f206e6f742068617665207065726d697373696f6e000000000000\n        /* \"#utility.yul\":10378:10379   */\n      0x00\n        /* \"#utility.yul\":10370:10376   */\n      dup3\n        /* \"#utility.yul\":10366:10380   */\n      add\n        /* \"#utility.yul\":10359:10411   */\n      mstore\n        /* \"#utility.yul\":10242:10418   */\n      pop\n      jump\t// out\n        /* \"#utility.yul\":10424:10790   */\n    tag_157:\n        /* \"#utility.yul\":10566:10569   */\n      0x00\n        /* \"#utility.yul\":10587:10654   */\n      tag_304\n        /* \"#utility.yul\":10651:10653   */\n      0x1a\n        /* \"#utility.yul\":10646:10649   */\n      dup4\n        /* \"#utility.yul\":10587:10654   */\n      tag_150\n      jump\t// in\n    tag_304:\n        /* \"#utility.yul\":10580:10654   */\n      swap2\n      pop\n        /* \"#utility.yul\":10663:10756   */\n      tag_305\n        /* \"#utility.yul\":10752:10755   */\n      dup3\n        /* \"#utility.yul\":10663:10756   */\n      tag_156\n      jump\t// in\n    tag_305:\n        /* \"#utility.yul\":10781:10783   */\n      0x20\n        /* \"#utility.yul\":10776:10779   */\n      dup3\n        /* \"#utility.yul\":10772:10784   */\n      add\n        /* \"#utility.yul\":10765:10784   */\n      swap1\n      pop\n        /* \"#utility.yul\":10424:10790   */\n      swap2\n      swap1\n      pop\n      jump\t// out\n        /* \"#utility.yul\":10796:11215   */\n    tag_63:\n        /* \"#utility.yul\":10962:10966   */\n      0x00\n        /* \"#utility.yul\":11000:11002   */\n      0x20\n        /* \"#utility.yul\":10989:10998   */\n      dup3\n        /* \"#utility.yul\":10985:11003   */\n      add\n        /* \"#utility.yul\":10977:11003   */\n      swap1\n      pop\n        /* \"#utility.yul\":11049:11058   */\n      dup2\n        /* \"#utility.yul\":11043:11047   */\n      dup2\n        /* \"#utility.yul\":11039:11059   */\n      sub\n        /* \"#utility.yul\":11035:11036   */\n      0x00\n        /* \"#utility.yul\":11024:11033   */\n      dup4\n        /* \"#utility.yul\":11020:11037   */\n      add\n        /* \"#utility.yul\":11013:11060   */\n      mstore\n        /* \"#utility.yul\":11077:11208   */\n      tag_307\n        /* \"#utility.yul\":11203:11207   */\n      dup2\n        /* \"#utility.yul\":11077:11208   */\n      tag_157\n      jump\t// in\n    tag_307:\n        /* \"#utility.yul\":11069:11208   */\n      swap1\n      pop\n        /* \"#utility.yul\":10796:11215   */\n      swap2\n      swap1\n      pop\n      jump\t// out\n        /* \"#utility.yul\":11221:11369   */\n    tag_158:\n        /* \"#utility.yul\":11323:11334   */\n      0x00\n        /* \"#utility.yul\":11360:11363   */\n      dup2\n        /* \"#utility.yul\":11345:11363   */\n      swap1\n      pop\n        /* \"#utility.yul\":11221:11369   */\n      swap3\n      swap2\n      pop\n      pop\n      jump\t// out\n        /* \"#utility.yul\":11399:11729   */\n    tag_159:\n        /* \"#utility.yul\":11515:11518   */\n      0x00\n        /* \"#utility.yul\":11536:11625   */\n      tag_310\n        /* \"#utility.yul\":11618:11624   */\n      dup4\n        /* \"#utility.yul\":11613:11616   */\n      dup6\n        /* \"#utility.yul\":11536:11625   */\n      tag_158\n      jump\t// in\n    tag_310:\n        /* \"#utility.yul\":11529:11625   */\n      swap4\n      pop\n        /* \"#utility.yul\":11635:11691   */\n      tag_311\n        /* \"#utility.yul\":11684:11690   */\n      dup4\n        /* \"#utility.yul\":11679:11682   */\n      dup6\n        /* \"#utility.yul\":11672:11677   */\n      dup5\n        /* \"#utility.yul\":11635:11691   */\n      tag_133\n      jump\t// in\n    tag_311:\n        /* \"#utility.yul\":11716:11722   */\n      dup3\n        /* \"#utility.yul\":11711:11714   */\n      dup5\n        /* \"#utility.yul\":11707:11723   */\n      add\n        /* \"#utility.yul\":11700:11723   */\n      swap1\n      pop\n        /* \"#utility.yul\":11399:11729   */\n      swap4\n      swap3\n      pop\n      pop\n      pop\n      jump\t// out\n        /* \"#utility.yul\":11735:12030   */\n    tag_68:\n        /* \"#utility.yul\":11877:11880   */\n      0x00\n        /* \"#utility.yul\":11899:12004   */\n      tag_313\n        /* \"#utility.yul\":12000:12003   */\n      dup3\n        /* \"#utility.yul\":11991:11997   */\n      dup5\n        /* \"#utility.yul\":11983:11989   */\n      dup7\n        /* \"#utility.yul\":11899:12004   */\n      tag_159\n      jump\t// in\n    tag_313:\n        /* \"#utility.yul\":11892:12004   */\n      swap2\n      pop\n        /* \"#utility.yul\":12021:12024   */\n      dup2\n        /* \"#utility.yul\":12014:12024   */\n      swap1\n      pop\n        /* \"#utility.yul\":11735:12030   */\n      swap4\n      swap3\n      pop\n      pop\n      pop\n      jump\t// out\n        /* \"#utility.yul\":12036:12200   */\n    tag_160:\n        /* \"#utility.yul\":12176:12192   */\n      0x4c696e6b206e6f7420666f756e64000000000000000000000000000000000000\n        /* \"#utility.yul\":12172:12173   */\n      0x00\n        /* \"#utility.yul\":12164:12170   */\n      dup3\n        /* \"#utility.yul\":12160:12174   */\n      add\n        /* \"#utility.yul\":12153:12193   */\n      mstore\n        /* \"#utility.yul\":12036:12200   */\n      pop\n      jump\t// out\n        /* \"#utility.yul\":12206:12572   */\n    tag_161:\n        /* \"#utility.yul\":12348:12351   */\n      0x00\n        /* \"#utility.yul\":12369:12436   */\n      tag_316\n        /* \"#utility.yul\":12433:12435   */\n      0x0e\n        /* \"#utility.yul\":12428:12431   */\n      dup4\n        /* \"#utility.yul\":12369:12436   */\n      tag_150\n      jump\t// in\n    tag_316:\n        /* \"#utility.yul\":12362:12436   */\n      swap2\n      pop\n        /* \"#utility.yul\":12445:12538   */\n      tag_317\n        /* \"#utility.yul\":12534:12537   */\n      dup3\n        /* \"#utility.yul\":12445:12538   */\n      tag_160\n      jump\t// in\n    tag_317:\n        /* \"#utility.yul\":12563:12565   */\n      0x20\n        /* \"#utility.yul\":12558:12561   */\n      dup3\n        /* \"#utility.yul\":12554:12566   */\n      add\n        /* \"#utility.yul\":12547:12566   */\n      swap1\n      pop\n        /* \"#utility.yul\":12206:12572   */\n      swap2\n      swap1\n      pop\n      jump\t// out\n        /* \"#utility.yul\":12578:12997   */\n    tag_71:\n        /* \"#utility.yul\":12744:12748   */\n      0x00\n        /* \"#utility.yul\":12782:12784   */\n      0x20\n        /* \"#utility.yul\":12771:12780   */\n      dup3\n        /* \"#utility.yul\":12767:12785   */\n      add\n        /* \"#utility.yul\":12759:12785   */\n      swap1\n      pop\n        /* \"#utility.yul\":12831:12840   */\n      dup2\n        /* \"#utility.yul\":12825:12829   */\n      dup2\n        /* \"#utility.yul\":12821:12841   */\n      sub\n        /* \"#utility.yul\":12817:12818   */\n      0x00\n        /* \"#utility.yul\":12806:12815   */\n      dup4\n        /* \"#utility.yul\":12802:12819   */\n      add\n        /* \"#utility.yul\":12795:12842   */\n      mstore\n        /* \"#utility.yul\":12859:12990   */\n      tag_319\n        /* \"#utility.yul\":12985:12989   */\n      dup2\n        /* \"#utility.yul\":12859:12990   */\n      tag_161\n      jump\t// in\n    tag_319:\n        /* \"#utility.yul\":12851:12990   */\n      swap1\n      pop\n        /* \"#utility.yul\":12578:12997   */\n      swap2\n      swap1\n      pop\n      jump\t// out\n        /* \"#utility.yul\":13003:13175   */\n    tag_162:\n        /* \"#utility.yul\":13143:13167   */\n      0x41636365737320616c7265616479206772616e74656400000000000000000000\n        /* \"#utility.yul\":13139:13140   */\n      0x00\n        /* \"#utility.yul\":13131:13137   */\n      dup3\n        /* \"#utility.yul\":13127:13141   */\n      add\n        /* \"#utility.yul\":13120:13168   */\n      mstore\n        /* \"#utility.yul\":13003:13175   */\n      pop\n      jump\t// out\n        /* \"#utility.yul\":13181:13547   */\n    tag_163:\n        /* \"#utility.yul\":13323:13326   */\n      0x00\n        /* \"#utility.yul\":13344:13411   */\n      tag_322\n        /* \"#utility.yul\":13408:13410   */\n      0x16\n        /* \"#utility.yul\":13403:13406   */\n      dup4\n        /* \"#utility.yul\":13344:13411   */\n      tag_150\n      jump\t// in\n    tag_322:\n        /* \"#utility.yul\":13337:13411   */\n      swap2\n      pop\n        /* \"#utility.yul\":13420:13513   */\n      tag_323\n        /* \"#utility.yul\":13509:13512   */\n      dup3\n        /* \"#utility.yul\":13420:13513   */\n      tag_162\n      jump\t// in\n    tag_323:\n        /* \"#utility.yul\":13538:13540   */\n      0x20\n        /* \"#utility.yul\":13533:13536   */\n      dup3\n        /* \"#utility.yul\":13529:13541   */\n      add\n        /* \"#utility.yul\":13522:13541   */\n      swap1\n      pop\n        /* \"#utility.yul\":13181:13547   */\n      swap2\n      swap1\n      pop\n      jump\t// out\n        /* \"#utility.yul\":13553:13972   */\n    tag_75:\n        /* \"#utility.yul\":13719:13723   */\n      0x00\n        /* \"#utility.yul\":13757:13759   */\n      0x20\n        /* \"#utility.yul\":13746:13755   */\n      dup3\n        /* \"#utility.yul\":13742:13760   */\n      add\n        /* \"#utility.yul\":13734:13760   */\n      swap1\n      pop\n        /* \"#utility.yul\":13806:13815   */\n      dup2\n        /* \"#utility.yul\":13800:13804   */\n      dup2\n        /* \"#utility.yul\":13796:13816   */\n      sub\n        /* \"#utility.yul\":13792:13793   */\n      0x00\n        /* \"#utility.yul\":13781:13790   */\n      dup4\n        /* \"#utility.yul\":13777:13794   */\n      add\n        /* \"#utility.yul\":13770:13817   */\n      mstore\n        /* \"#utility.yul\":13834:13965   */\n      tag_325\n        /* \"#utility.yul\":13960:13964   */\n      dup2\n        /* \"#utility.yul\":13834:13965   */\n      tag_163\n      jump\t// in\n    tag_325:\n        /* \"#utility.yul\":13826:13965   */\n      swap1\n      pop\n        /* \"#utility.yul\":13553:13972   */\n      swap2\n      swap1\n      pop\n      jump\t// out\n        /* \"#utility.yul\":13978:14148   */\n    tag_164:\n        /* \"#utility.yul\":14118:14140   */\n      0x496e73756666696369656e74207061796d656e74000000000000000000000000\n        /* \"#utility.yul\":14114:14115   */\n      0x00\n        /* \"#utility.yul\":14106:14112   */\n      dup3\n        /* \"#utility.yul\":14102:14116   */\n      add\n        /* \"#utility.yul\":14095:14141   */\n      mstore\n        /* \"#utility.yul\":13978:14148   */\n      pop\n      jump\t// out\n        /* \"#utility.yul\":14154:14520   */\n    tag_165:\n        /* \"#utility.yul\":14296:14299   */\n      0x00\n        /* \"#utility.yul\":14317:14384   */\n      tag_328\n        /* \"#utility.yul\":14381:14383   */\n      0x14\n        /* \"#utility.yul\":14376:14379   */\n      dup4\n        /* \"#utility.yul\":14317:14384   */\n      tag_150\n      jump\t// in\n    tag_328:\n        /* \"#utility.yul\":14310:14384   */\n      swap2\n      pop\n        /* \"#utility.yul\":14393:14486   */\n      tag_329\n        /* \"#utility.yul\":14482:14485   */\n      dup3\n        /* \"#utility.yul\":14393:14486   */\n      tag_164\n      jump\t// in\n    tag_329:\n        /* \"#utility.yul\":14511:14513   */\n      0x20\n        /* \"#utility.yul\":14506:14509   */\n      dup3\n        /* \"#utility.yul\":14502:14514   */\n      add\n        /* \"#utility.yul\":14495:14514   */\n      swap1\n      pop\n        /* \"#utility.yul\":14154:14520   */\n      swap2\n      swap1\n      pop\n      jump\t// out\n        /* \"#utility.yul\":14526:14945   */\n    tag_78:\n        /* \"#utility.yul\":14692:14696   */\n      0x00\n        /* \"#utility.yul\":14730:14732   */\n      0x20\n        /* \"#utility.yul\":14719:14728   */\n      dup3\n        /* \"#utility.yul\":14715:14733   */\n      add\n        /* \"#utility.yul\":14707:14733   */\n      swap1\n      pop\n        /* \"#utility.yul\":14779:14788   */\n      dup2\n        /* \"#utility.yul\":14773:14777   */\n      dup2\n        /* \"#utility.yul\":14769:14789   */\n      sub\n        /* \"#utility.yul\":14765:14766   */\n      0x00\n        /* \"#utility.yul\":14754:14763   */\n      dup4\n        /* \"#utility.yul\":14750:14767   */\n      add\n        /* \"#utility.yul\":14743:14790   */\n      mstore\n        /* \"#utility.yul\":14807:14938   */\n      tag_331\n        /* \"#utility.yul\":14933:14937   */\n      dup2\n        /* \"#utility.yul\":14807:14938   */\n      tag_165\n      jump\t// in\n    tag_331:\n        /* \"#utility.yul\":14799:14938   */\n      swap1\n      pop\n        /* \"#utility.yul\":14526:14945   */\n      swap2\n      swap1\n      pop\n      jump\t// out\n        /* \"#utility.yul\":14951:15131   */\n    tag_166:\n        /* \"#utility.yul\":14999:15076   */\n      0x4e487b7100000000000000000000000000000000000000000000000000000000\n        /* \"#utility.yul\":14996:14997   */\n      0x00\n        /* \"#utility.yul\":14989:15077   */\n      mstore\n        /* \"#utility.yul\":15096:15100   */\n      0x11\n        /* \"#utility.yul\":15093:15094   */\n      0x04\n        /* \"#utility.yul\":15086:15101   */\n      mstore\n        /* \"#utility.yul\":15120:15124   */\n      0x24\n        /* \"#utility.yul\":15117:15118   */\n      0x00\n        /* \"#utility.yul\":15110:15125   */\n      revert\n        /* \"#utility.yul\":15137:15331   */\n    tag_81:\n        /* \"#utility.yul\":15177:15181   */\n      0x00\n        /* \"#utility.yul\":15197:15217   */\n      tag_334\n        /* \"#utility.yul\":15215:15216   */\n      dup3\n        /* \"#utility.yul\":15197:15217   */\n      tag_142\n      jump\t// in\n    tag_334:\n        /* \"#utility.yul\":15192:15217   */\n      swap2\n      pop\n        /* \"#utility.yul\":15231:15251   */\n      tag_335\n        /* \"#utility.yul\":15249:15250   */\n      dup4\n        /* \"#utility.yul\":15231:15251   */\n      tag_142\n      jump\t// in\n    tag_335:\n        /* \"#utility.yul\":15226:15251   */\n      swap3\n      pop\n        /* \"#utility.yul\":15275:15276   */\n      dup3\n        /* \"#utility.yul\":15272:15273   */\n      dup3\n        /* \"#utility.yul\":15268:15277   */\n      sub\n        /* \"#utility.yul\":15260:15277   */\n      swap1\n      pop\n        /* \"#utility.yul\":15299:15300   */\n      dup2\n        /* \"#utility.yul\":15293:15297   */\n      dup2\n        /* \"#utility.yul\":15290:15301   */\n      gt\n        /* \"#utility.yul\":15287:15324   */\n      iszero\n      tag_336\n      jumpi\n        /* \"#utility.yul\":15304:15322   */\n      tag_337\n      tag_166\n      jump\t// in\n    tag_337:\n        /* \"#utility.yul\":15287:15324   */\n    tag_336:\n        /* \"#utility.yul\":15137:15331   */\n      swap3\n      swap2\n      pop\n      pop\n      jump\t// out\n        /* \"#utility.yul\":15337:15517   */\n    tag_167:\n        /* \"#utility.yul\":15385:15462   */\n      0x4e487b7100000000000000000000000000000000000000000000000000000000\n        /* \"#utility.yul\":15382:15383   */\n      0x00\n        /* \"#utility.yul\":15375:15463   */\n      mstore\n        /* \"#utility.yul\":15482:15486   */\n      0x22\n        /* \"#utility.yul\":15479:15480   */\n      0x04\n        /* \"#utility.yul\":15472:15487   */\n      mstore\n        /* \"#utility.yul\":15506:15510   */\n      0x24\n        /* \"#utility.yul\":15503:15504   */\n      0x00\n        /* \"#utility.yul\":15496:15511   */\n      revert\n        /* \"#utility.yul\":15523:15843   */\n    tag_95:\n        /* \"#utility.yul\":15567:15573   */\n      0x00\n        /* \"#utility.yul\":15604:15605   */\n      0x02\n        /* \"#utility.yul\":15598:15602   */\n      dup3\n        /* \"#utility.yul\":15594:15606   */\n      div\n        /* \"#utility.yul\":15584:15606   */\n      swap1\n      pop\n        /* \"#utility.yul\":15651:15652   */\n      0x01\n        /* \"#utility.yul\":15645:15649   */\n      dup3\n        /* \"#utility.yul\":15641:15653   */\n      and\n        /* \"#utility.yul\":15672:15690   */\n      dup1\n        /* \"#utility.yul\":15662:15743   */\n      tag_340\n      jumpi\n        /* \"#utility.yul\":15728:15732   */\n      0x7f\n        /* \"#utility.yul\":15720:15726   */\n      dup3\n        /* \"#utility.yul\":15716:15733   */\n      and\n        /* \"#utility.yul\":15706:15733   */\n      swap2\n      pop\n        /* \"#utility.yul\":15662:15743   */\n    tag_340:\n        /* \"#utility.yul\":15790:15792   */\n      0x20\n        /* \"#utility.yul\":15782:15788   */\n      dup3\n        /* \"#utility.yul\":15779:15793   */\n      lt\n        /* \"#utility.yul\":15759:15777   */\n      dup2\n        /* \"#utility.yul\":15756:15794   */\n      sub\n        /* \"#utility.yul\":15753:15837   */\n      tag_341\n      jumpi\n        /* \"#utility.yul\":15809:15827   */\n      tag_342\n      tag_167\n      jump\t// in\n    tag_342:\n        /* \"#utility.yul\":15753:15837   */\n    tag_341:\n        /* \"#utility.yul\":15574:15843   */\n      pop\n        /* \"#utility.yul\":15523:15843   */\n      swap2\n      swap1\n      pop\n      jump\t// out\n        /* \"#utility.yul\":15849:16011   */\n    tag_168:\n        /* \"#utility.yul\":15989:16003   */\n      0x55524c2072657175697265640000000000000000000000000000000000000000\n        /* \"#utility.yul\":15985:15986   */\n      0x00\n        /* \"#utility.yul\":15977:15983   */\n      dup3\n        /* \"#utility.yul\":15973:15987   */\n      add\n        /* \"#utility.yul\":15966:16004   */\n      mstore\n        /* \"#utility.yul\":15849:16011   */\n      pop\n      jump\t// out\n        /* \"#utility.yul\":16017:16383   */\n    tag_169:\n        /* \"#utility.yul\":16159:16162   */\n      0x00\n        /* \"#utility.yul\":16180:16247   */\n      tag_345\n        /* \"#utility.yul\":16244:16246   */\n      0x0c\n        /* \"#utility.yul\":16239:16242   */\n      dup4\n        /* \"#utility.yul\":16180:16247   */\n      tag_150\n      jump\t// in\n    tag_345:\n        /* \"#utility.yul\":16173:16247   */\n      swap2\n      pop\n        /* \"#utility.yul\":16256:16349   */\n      tag_346\n        /* \"#utility.yul\":16345:16348   */\n      dup3\n        /* \"#utility.yul\":16256:16349   */\n      tag_168\n      jump\t// in\n    tag_346:\n        /* \"#utility.yul\":16374:16376   */\n      0x20\n        /* \"#utility.yul\":16369:16372   */\n      dup3\n        /* \"#utility.yul\":16365:16377   */\n      add\n        /* \"#utility.yul\":16358:16377   */\n      swap1\n      pop\n        /* \"#utility.yul\":16017:16383   */\n      swap2\n      swap1\n      pop\n      jump\t// out\n        /* \"#utility.yul\":16389:16808   */\n    tag_104:\n        /* \"#utility.yul\":16555:16559   */\n      0x00\n        /* \"#utility.yul\":16593:16595   */\n      0x20\n        /* \"#utility.yul\":16582:16591   */\n      dup3\n        /* \"#utility.yul\":16578:16596   */\n      add\n        /* \"#utility.yul\":16570:16596   */\n      swap1\n      pop\n        /* \"#utility.yul\":16642:16651   */\n      dup2\n        /* \"#utility.yul\":16636:16640   */\n      dup2\n        /* \"#utility.yul\":16632:16652   */\n      sub\n        /* \"#utility.yul\":16628:16629   */\n      0x00\n        /* \"#utility.yul\":16617:16626   */\n      dup4\n        /* \"#utility.yul\":16613:16630   */\n      add\n        /* \"#utility.yul\":16606:16653   */\n      mstore\n        /* \"#utility.yul\":16670:16801   */\n      tag_348\n        /* \"#utility.yul\":16796:16800   */\n      dup2\n        /* \"#utility.yul\":16670:16801   */\n      tag_169\n      jump\t// in\n    tag_348:\n        /* \"#utility.yul\":16662:16801   */\n      swap1\n      pop\n        /* \"#utility.yul\":16389:16808   */\n      swap2\n      swap1\n      pop\n      jump\t// out\n        /* \"#utility.yul\":16814:16980   */\n    tag_170:\n        /* \"#utility.yul\":16954:16972   */\n      0x4c696e6b20494420726571756972656400000000000000000000000000000000\n        /* \"#utility.yul\":16950:16951   */\n      0x00\n        /* \"#utility.yul\":16942:16948   */\n      dup3\n        /* \"#utility.yul\":16938:16952   */\n      add\n        /* \"#utility.yul\":16931:16973   */\n      mstore\n        /* \"#utility.yul\":16814:16980   */\n      pop\n      jump\t// out\n        /* \"#utility.yul\":16986:17352   */\n    tag_171:\n        /* \"#utility.yul\":17128:17131   */\n      0x00\n        /* \"#utility.yul\":17149:17216   */\n      tag_351\n        /* \"#utility.yul\":17213:17215   */\n      0x10\n        /* \"#utility.yul\":17208:17211   */\n      dup4\n        /* \"#utility.yul\":17149:17216   */\n      tag_150\n      jump\t// in\n    tag_351:\n        /* \"#utility.yul\":17142:17216   */\n      swap2\n      pop\n        /* \"#utility.yul\":17225:17318   */\n      tag_352\n        /* \"#utility.yul\":17314:17317   */\n      dup3\n        /* \"#utility.yul\":17225:17318   */\n      tag_170\n      jump\t// in\n    tag_352:\n        /* \"#utility.yul\":17343:17345   */\n      0x20\n        /* \"#utility.yul\":17338:17341   */\n      dup3\n        /* \"#utility.yul\":17334:17346   */\n      add\n        /* \"#utility.yul\":17327:17346   */\n      swap1\n      pop\n        /* \"#utility.yul\":16986:17352   */\n      swap2\n      swap1\n      pop\n      jump\t// out\n        /* \"#utility.yul\":17358:17777   */\n    tag_107:\n        /* \"#utility.yul\":17524:17528   */\n      0x00\n        /* \"#utility.yul\":17562:17564   */\n      0x20\n        /* \"#utility.yul\":17551:17560   */\n      dup3\n        /* \"#utility.yul\":17547:17565   */\n      add\n        /* \"#utility.yul\":17539:17565   */\n      swap1\n      pop\n        /* \"#utility.yul\":17611:17620   */\n      dup2\n        /* \"#utility.yul\":17605:17609   */\n      dup2\n        /* \"#utility.yul\":17601:17621   */\n      sub\n        /* \"#utility.yul\":17597:17598   */\n      0x00\n        /* \"#utility.yul\":17586:17595   */\n      dup4\n        /* \"#utility.yul\":17582:17599   */\n      add\n        /* \"#utility.yul\":17575:17622   */\n      mstore\n        /* \"#utility.yul\":17639:17770   */\n      tag_354\n        /* \"#utility.yul\":17765:17769   */\n      dup2\n        /* \"#utility.yul\":17639:17770   */\n      tag_171\n      jump\t// in\n    tag_354:\n        /* \"#utility.yul\":17631:17770   */\n      swap1\n      pop\n        /* \"#utility.yul\":17358:17777   */\n      swap2\n      swap1\n      pop\n      jump\t// out\n        /* \"#utility.yul\":17783:17944   */\n    tag_172:\n        /* \"#utility.yul\":17923:17936   */\n      0x46656520746f6f206c6f77000000000000000000000000000000000000000000\n        /* \"#utility.yul\":17919:17920   */\n      0x00\n        /* \"#utility.yul\":17911:17917   */\n      dup3\n        /* \"#utility.yul\":17907:17921   */\n      add\n        /* \"#utility.yul\":17900:17937   */\n      mstore\n        /* \"#utility.yul\":17783:17944   */\n      pop\n      jump\t// out\n        /* \"#utility.yul\":17950:18316   */\n    tag_173:\n        /* \"#utility.yul\":18092:18095   */\n      0x00\n        /* \"#utility.yul\":18113:18180   */\n      tag_357\n        /* \"#utility.yul\":18177:18179   */\n      0x0b\n        /* \"#utility.yul\":18172:18175   */\n      dup4\n        /* \"#utility.yul\":18113:18180   */\n      tag_150\n      jump\t// in\n    tag_357:\n        /* \"#utility.yul\":18106:18180   */\n      swap2\n      pop\n        /* \"#utility.yul\":18189:18282   */\n      tag_358\n        /* \"#utility.yul\":18278:18281   */\n      dup3\n        /* \"#utility.yul\":18189:18282   */\n      tag_172\n      jump\t// in\n    tag_358:\n        /* \"#utility.yul\":18307:18309   */\n      0x20\n        /* \"#utility.yul\":18302:18305   */\n      dup3\n        /* \"#utility.yul\":18298:18310   */\n      add\n        /* \"#utility.yul\":18291:18310   */\n      swap1\n      pop\n        /* \"#utility.yul\":17950:18316   */\n      swap2\n      swap1\n      pop\n      jump\t// out\n        /* \"#utility.yul\":18322:18741   */\n    tag_111:\n        /* \"#utility.yul\":18488:18492   */\n      0x00\n        /* \"#utility.yul\":18526:18528   */\n      0x20\n        /* \"#utility.yul\":18515:18524   */\n      dup3\n        /* \"#utility.yul\":18511:18529   */\n      add\n        /* \"#utility.yul\":18503:18529   */\n      swap1\n      pop\n        /* \"#utility.yul\":18575:18584   */\n      dup2\n        /* \"#utility.yul\":18569:18573   */\n      dup2\n        /* \"#utility.yul\":18565:18585   */\n      sub\n        /* \"#utility.yul\":18561:18562   */\n      0x00\n        /* \"#utility.yul\":18550:18559   */\n      dup4\n        /* \"#utility.yul\":18546:18563   */\n      add\n        /* \"#utility.yul\":18539:18586   */\n      mstore\n        /* \"#utility.yul\":18603:18734   */\n      tag_360\n        /* \"#utility.yul\":18729:18733   */\n      dup2\n        /* \"#utility.yul\":18603:18734   */\n      tag_173\n      jump\t// in\n    tag_360:\n        /* \"#utility.yul\":18595:18734   */\n      swap1\n      pop\n        /* \"#utility.yul\":18322:18741   */\n      swap2\n      swap1\n      pop\n      jump\t// out\n        /* \"#utility.yul\":18747:18971   */\n    tag_174:\n        /* \"#utility.yul\":18887:18921   */\n      0x4c696e6b20494420616c7265616479206f776e656420627920616e6f74686572\n        /* \"#utility.yul\":18883:18884   */\n      0x00\n        /* \"#utility.yul\":18875:18881   */\n      dup3\n        /* \"#utility.yul\":18871:18885   */\n      add\n        /* \"#utility.yul\":18864:18922   */\n      mstore\n        /* \"#utility.yul\":18956:18963   */\n      0x2075736572000000000000000000000000000000000000000000000000000000\n        /* \"#utility.yul\":18951:18953   */\n      0x20\n        /* \"#utility.yul\":18943:18949   */\n      dup3\n        /* \"#utility.yul\":18939:18954   */\n      add\n        /* \"#utility.yul\":18932:18964   */\n      mstore\n        /* \"#utility.yul\":18747:18971   */\n      pop\n      jump\t// out\n        /* \"#utility.yul\":18977:19343   */\n    tag_175:\n        /* \"#utility.yul\":19119:19122   */\n      0x00\n        /* \"#utility.yul\":19140:19207   */\n      tag_363\n        /* \"#utility.yul\":19204:19206   */\n      0x25\n        /* \"#utility.yul\":19199:19202   */\n      dup4\n        /* \"#utility.yul\":19140:19207   */\n      tag_150\n      jump\t// in\n    tag_363:\n        /* \"#utility.yul\":19133:19207   */\n      swap2\n      pop\n        /* \"#utility.yul\":19216:19309   */\n      tag_364\n        /* \"#utility.yul\":19305:19308   */\n      dup3\n        /* \"#utility.yul\":19216:19309   */\n      tag_174\n      jump\t// in\n    tag_364:\n        /* \"#utility.yul\":19334:19336   */\n      0x40\n        /* \"#utility.yul\":19329:19332   */\n      dup3\n        /* \"#utility.yul\":19325:19337   */\n      add\n        /* \"#utility.yul\":19318:19337   */\n      swap1\n      pop\n        /* \"#utility.yul\":18977:19343   */\n      swap2\n      swap1\n      pop\n      jump\t// out\n        /* \"#utility.yul\":19349:19768   */\n    tag_116:\n        /* \"#utility.yul\":19515:19519   */\n      0x00\n        /* \"#utility.yul\":19553:19555   */\n      0x20\n        /* \"#utility.yul\":19542:19551   */\n      dup3\n        /* \"#utility.yul\":19538:19556   */\n      add\n        /* \"#utility.yul\":19530:19556   */\n      swap1\n      pop\n        /* \"#utility.yul\":19602:19611   */\n      dup2\n        /* \"#utility.yul\":19596:19600   */\n      dup2\n        /* \"#utility.yul\":19592:19612   */\n      sub\n        /* \"#utility.yul\":19588:19589   */\n      0x00\n        /* \"#utility.yul\":19577:19586   */\n      dup4\n        /* \"#utility.yul\":19573:19590   */\n      add\n        /* \"#utility.yul\":19566:19613   */\n      mstore\n        /* \"#utility.yul\":19630:19761   */\n      tag_366\n        /* \"#utility.yul\":19756:19760   */\n      dup2\n        /* \"#utility.yul\":19630:19761   */\n      tag_175\n      jump\t// in\n    tag_366:\n        /* \"#utility.yul\":19622:19761   */\n      swap1\n      pop\n        /* \"#utility.yul\":19349:19768   */\n      swap2\n      swap1\n      pop\n      jump\t// out\n        /* \"#utility.yul\":19774:19915   */\n    tag_176:\n        /* \"#utility.yul\":19823:19827   */\n      0x00\n        /* \"#utility.yul\":19846:19849   */\n      dup2\n        /* \"#utility.yul\":19838:19849   */\n      swap1\n      pop\n        /* \"#utility.yul\":19869:19872   */\n      dup2\n        /* \"#utility.yul\":19866:19867   */\n      0x00\n        /* \"#utility.yul\":19859:19873   */\n      mstore\n        /* \"#utility.yul\":19903:19907   */\n      0x20\n        /* \"#utility.yul\":19900:19901   */\n      0x00\n        /* \"#utility.yul\":19890:19908   */\n      keccak256\n        /* \"#utility.yul\":19882:19908   */\n      swap1\n      pop\n        /* \"#utility.yul\":19774:19915   */\n      swap2\n      swap1\n      pop\n      jump\t// out\n        /* \"#utility.yul\":19921:20014   */\n    tag_177:\n        /* \"#utility.yul\":19958:19964   */\n      0x00\n        /* \"#utility.yul\":20005:20007   */\n      0x20\n        /* \"#utility.yul\":20000:20002   */\n      0x1f\n        /* \"#utility.yul\":19993:19998   */\n      dup4\n        /* \"#utility.yul\":19989:20003   */\n      add\n        /* \"#utility.yul\":19985:20008   */\n      div\n        /* \"#utility.yul\":19975:20008   */\n      swap1\n      pop\n        /* \"#utility.yul\":19921:20014   */\n      swap2\n      swap1\n      pop\n      jump\t// out\n        /* \"#utility.yul\":20020:20127   */\n    tag_178:\n        /* \"#utility.yul\":20064:20072   */\n      0x00\n        /* \"#utility.yul\":20114:20119   */\n      dup3\n        /* \"#utility.yul\":20108:20112   */\n      dup3\n        /* \"#utility.yul\":20104:20120   */\n      shl\n        /* \"#utility.yul\":20083:20120   */\n      swap1\n      pop\n        /* \"#utility.yul\":20020:20127   */\n      swap3\n      swap2\n      pop\n      pop\n      jump\t// out\n        /* \"#utility.yul\":20133:20526   */\n    tag_179:\n        /* \"#utility.yul\":20202:20208   */\n      0x00\n        /* \"#utility.yul\":20252:20253   */\n      0x08\n        /* \"#utility.yul\":20240:20250   */\n      dup4\n        /* \"#utility.yul\":20236:20254   */\n      mul\n        /* \"#utility.yul\":20275:20372   */\n      tag_371\n        /* \"#utility.yul\":20305:20371   */\n      0xffffffffffffffffffffffffffffffffffffffffffffffffffffffffffffffff\n        /* \"#utility.yul\":20294:20303   */\n      dup3\n        /* \"#utility.yul\":20275:20372   */\n      tag_178\n      jump\t// in\n    tag_371:\n        /* \"#utility.yul\":20393:20432   */\n      tag_372\n        /* \"#utility.yul\":20423:20431   */\n      dup7\n        /* \"#utility.yul\":20412:20421   */\n      dup4\n        /* \"#utility.yul\":20393:20432   */\n      tag_178\n      jump\t// in\n    tag_372:\n        /* \"#utility.yul\":20381:20432   */\n      swap6\n      pop\n        /* \"#utility.yul\":20465:20469   */\n      dup1\n        /* \"#utility.yul\":20461:20470   */\n      not\n        /* \"#utility.yul\":20454:20459   */\n      dup5\n        /* \"#utility.yul\":20450:20471   */\n      and\n        /* \"#utility.yul\":20441:20471   */\n      swap4\n      pop\n        /* \"#utility.yul\":20514:20518   */\n      dup1\n        /* \"#utility.yul\":20504:20512   */\n      dup7\n        /* \"#utility.yul\":20500:20519   */\n      and\n        /* \"#utility.yul\":20493:20498   */\n      dup5\n        /* \"#utility.yul\":20490:20520   */\n      or\n        /* \"#utility.yul\":20480:20520   */\n      swap3\n      pop\n        /* \"#utility.yul\":20209:20526   */\n      pop\n      pop\n        /* \"#utility.yul\":20133:20526   */\n      swap4\n      swap3\n      pop\n      pop\n      pop\n      jump\t// out\n        /* \"#utility.yul\":20532:20592   */\n    tag_180:\n        /* \"#utility.yul\":20560:20563   */\n      0x00\n        /* \"#utility.yul\":20581:20586   */\n      dup2\n        /* \"#utility.yul\":20574:20586   */\n      swap1\n      pop\n        /* \"#utility.yul\":20532:20592   */\n      swap2\n      swap1\n      pop\n      jump\t// out\n        /* \"#utility.yul\":20598:20740   */\n    tag_181:\n        /* \"#utility.yul\":20648:20657   */\n      0x00\n        /* \"#utility.yul\":20681:20734   */\n      tag_375\n        /* \"#utility.yul\":20699:20733   */\n      tag_376\n        /* \"#utility.yul\":20708:20732   */\n      tag_377\n        /* \"#utility.yul\":20726:20731   */\n      dup5\n        /* \"#utility.yul\":20708:20732   */\n      tag_142\n      jump\t// in\n    tag_377:\n        /* \"#utility.yul\":20699:20733   */\n      tag_180\n      jump\t// in\n    tag_376:\n        /* \"#utility.yul\":20681:20734   */\n      tag_142\n      jump\t// in\n    tag_375:\n        /* \"#utility.yul\":20668:20734   */\n      swap1\n      pop\n        /* \"#utility.yul\":20598:20740   */\n      swap2\n      swap1\n      pop\n      jump\t// out\n        /* \"#utility.yul\":20746:20821   */\n    tag_182:\n        /* \"#utility.yul\":20789:20792   */\n      0x00\n        /* \"#utility.yul\":20810:20815   */\n      dup2\n        /* \"#utility.yul\":20803:20815   */\n      swap1\n      pop\n        /* \"#utility.yul\":20746:20821   */\n      swap2\n      swap1\n      pop\n      jump\t// out\n        /* \"#utility.yul\":20827:21096   */\n    tag_183:\n        /* \"#utility.yul\":20937:20976   */\n      tag_380\n        /* \"#utility.yul\":20968:20975   */\n      dup4\n        /* \"#utility.yul\":20937:20976   */\n      tag_181\n      jump\t// in\n    tag_380:\n        /* \"#utility.yul\":20998:21089   */\n      tag_381\n        /* \"#utility.yul\":21047:21088   */\n      tag_382\n        /* \"#utility.yul\":21071:21087   */\n      dup3\n        /* \"#utility.yul\":21047:21088   */\n      tag_182\n      jump\t// in\n    tag_382:\n        /* \"#utility.yul\":21039:21045   */\n      dup5\n        /* \"#utility.yul\":21032:21036   */\n      dup5\n        /* \"#utility.yul\":21026:21037   */\n      sload\n        /* \"#utility.yul\":20998:21089   */\n      tag_179\n      jump\t// in\n    tag_381:\n        /* \"#utility.yul\":20992:20996   */\n      dup3\n        /* \"#utility.yul\":20985:21090   */\n      sstore\n        /* \"#utility.yul\":20903:21096   */\n      pop\n        /* \"#utility.yul\":20827:21096   */\n      pop\n      pop\n      pop\n      jump\t// out\n        /* \"#utility.yul\":21102:21175   */\n    tag_184:\n        /* \"#utility.yul\":21147:21150   */\n      0x00\n        /* \"#utility.yul\":21168:21169   */\n      0x00\n        /* \"#utility.yul\":21161:21169   */\n      swap1\n      pop\n        /* \"#utility.yul\":21102:21175   */\n      swap1\n      jump\t// out\n        /* \"#utility.yul\":21181:21370   */\n    tag_185:\n        /* \"#utility.yul\":21258:21290   */\n      tag_385\n      tag_184\n      jump\t// in\n    tag_385:\n        /* \"#utility.yul\":21299:21364   */\n      tag_386\n        /* \"#utility.yul\":21357:21363   */\n      dup2\n        /* \"#utility.yul\":21349:21355   */\n      dup5\n        /* \"#utility.yul\":21343:21347   */\n      dup5\n        /* \"#utility.yul\":21299:21364   */\n      tag_183\n      jump\t// in\n    tag_386:\n        /* \"#utility.yul\":21234:21370   */\n      pop\n        /* \"#utility.yul\":21181:21370   */\n      pop\n      pop\n      jump\t// out\n        /* \"#utility.yul\":21376:21562   */\n    tag_186:\n        /* \"#utility.yul\":21436:21556   */\n    tag_388:\n        /* \"#utility.yul\":21453:21456   */\n      dup2\n        /* \"#utility.yul\":21446:21451   */\n      dup2\n        /* \"#utility.yul\":21443:21457   */\n      lt\n        /* \"#utility.yul\":21436:21556   */\n      iszero\n      tag_390\n      jumpi\n        /* \"#utility.yul\":21507:21546   */\n      tag_391\n        /* \"#utility.yul\":21544:21545   */\n      0x00\n        /* \"#utility.yul\":21537:21542   */\n      dup3\n        /* \"#utility.yul\":21507:21546   */\n      tag_185\n      jump\t// in\n    tag_391:\n        /* \"#utility.yul\":21480:21481   */\n      0x01\n        /* \"#utility.yul\":21473:21478   */\n      dup2\n        /* \"#utility.yul\":21469:21482   */\n      add\n        /* \"#utility.yul\":21460:21482   */\n      swap1\n      pop\n        /* \"#utility.yul\":21436:21556   */\n      jump(tag_388)\n    tag_390:\n        /* \"#utility.yul\":21376:21562   */\n      pop\n      pop\n      jump\t// out\n        /* \"#utility.yul\":21568:22111   */\n    tag_187:\n        /* \"#utility.yul\":21669:21671   */\n      0x1f\n        /* \"#utility.yul\":21664:21667   */\n      dup3\n        /* \"#utility.yul\":21661:21672   */\n      gt\n        /* \"#utility.yul\":21658:22104   */\n      iszero\n      tag_393\n      jumpi\n        /* \"#utility.yul\":21703:21741   */\n      tag_394\n        /* \"#utility.yul\":21735:21740   */\n      dup2\n        /* \"#utility.yul\":21703:21741   */\n      tag_176\n      jump\t// in\n    tag_394:\n        /* \"#utility.yul\":21787:21816   */\n      tag_395\n        /* \"#utility.yul\":21805:21815   */\n      dup5\n        /* \"#utility.yul\":21787:21816   */\n      tag_177\n      jump\t// in\n    tag_395:\n        /* \"#utility.yul\":21777:21785   */\n      dup2\n        /* \"#utility.yul\":21773:21817   */\n      add\n        /* \"#utility.yul\":21970:21972   */\n      0x20\n        /* \"#utility.yul\":21958:21968   */\n      dup6\n        /* \"#utility.yul\":21955:21973   */\n      lt\n        /* \"#utility.yul\":21952:22001   */\n      iszero\n      tag_396\n      jumpi\n        /* \"#utility.yul\":21991:21999   */\n      dup2\n        /* \"#utility.yul\":21976:21999   */\n      swap1\n      pop\n        /* \"#utility.yul\":21952:22001   */\n    tag_396:\n        /* \"#utility.yul\":22014:22094   */\n      tag_397\n        /* \"#utility.yul\":22070:22092   */\n      tag_398\n        /* \"#utility.yul\":22088:22091   */\n      dup6\n        /* \"#utility.yul\":22070:22092   */\n      tag_177\n      jump\t// in\n    tag_398:\n        /* \"#utility.yul\":22060:22068   */\n      dup4\n        /* \"#utility.yul\":22056:22093   */\n      add\n        /* \"#utility.yul\":22043:22054   */\n      dup3\n        /* \"#utility.yul\":22014:22094   */\n      tag_186\n      jump\t// in\n    tag_397:\n        /* \"#utility.yul\":21673:22104   */\n      pop\n      pop\n        /* \"#utility.yul\":21658:22104   */\n    tag_393:\n        /* \"#utility.yul\":21568:22111   */\n      pop\n      pop\n      pop\n      jump\t// out\n        /* \"#utility.yul\":22117:22234   */\n    tag_188:\n        /* \"#utility.yul\":22171:22179   */\n      0x00\n        /* \"#utility.yul\":22221:22226   */\n      dup3\n        /* \"#utility.yul\":22215:22219   */\n      dup3\n        /* \"#utility.yul\":22211:22227   */\n      shr\n        /* \"#utility.yul\":22190:22227   */\n      swap1\n      pop\n        /* \"#utility.yul\":22117:22234   */\n      swap3\n      swap2\n      pop\n      pop\n      jump\t// out\n        /* \"#utility.yul\":22240:22409   */\n    tag_189:\n        /* \"#utility.yul\":22284:22290   */\n      0x00\n        /* \"#utility.yul\":22317:22368   */\n      tag_401\n        /* \"#utility.yul\":22365:22366   */\n      0x00\n        /* \"#utility.yul\":22361:22367   */\n      not\n        /* \"#utility.yul\":22353:22358   */\n      dup5\n        /* \"#utility.yul\":22350:22351   */\n      0x08\n        /* \"#utility.yul\":22346:22359   */\n      mul\n        /* \"#utility.yul\":22317:22368   */\n      tag_188\n      jump\t// in\n    tag_401:\n        /* \"#utility.yul\":22313:22369   */\n      not\n        /* \"#utility.yul\":22398:22402   */\n      dup1\n        /* \"#utility.yul\":22392:22396   */\n      dup4\n        /* \"#utility.yul\":22388:22403   */\n      and\n        /* \"#utility.yul\":22378:22403   */\n      swap2\n      pop\n        /* \"#utility.yul\":22291:22409   */\n      pop\n        /* \"#utility.yul\":22240:22409   */\n      swap3\n      swap2\n      pop\n      pop\n      jump\t// out\n        /* \"#utility.yul\":22414:22709   */\n    tag_190:\n        /* \"#utility.yul\":22490:22494   */\n      0x00\n        /* \"#utility.yul\":22636:22665   */\n      tag_403\n        /* \"#utility.yul\":22661:22664   */\n      dup4\n        /* \"#utility.yul\":22655:22659   */\n      dup4\n        /* \"#utility.yul\":22636:22665   */\n      tag_189\n      jump\t// in\n    tag_403:\n        /* \"#utility.yul\":22628:22665   */\n      swap2\n      pop\n        /* \"#utility.yul\":22698:22701   */\n      dup3\n        /* \"#utility.yul\":22695:22696   */\n      0x02\n        /* \"#utility.yul\":22691:22702   */\n      mul\n        /* \"#utility.yul\":22685:22689   */\n      dup3\n        /* \"#utility.yul\":22682:22703   */\n      or\n        /* \"#utility.yul\":22674:22703   */\n      swap1\n      pop\n        /* \"#utility.yul\":22414:22709   */\n      swap3\n      swap2\n      pop\n      pop\n      jump\t// out\n        /* \"#utility.yul\":22714:24109   */\n    tag_119:\n        /* \"#utility.yul\":22831:22868   */\n      tag_405\n        /* \"#utility.yul\":22864:22867   */\n      dup3\n        /* \"#utility.yul\":22831:22868   */\n      tag_149\n      jump\t// in\n    tag_405:\n        /* \"#utility.yul\":22933:22951   */\n      0xffffffffffffffff\n        /* \"#utility.yul\":22925:22931   */\n      dup2\n        /* \"#utility.yul\":22922:22952   */\n      gt\n        /* \"#utility.yul\":22919:22975   */\n      iszero\n      tag_406\n      jumpi\n        /* \"#utility.yul\":22955:22973   */\n      tag_407\n      tag_129\n      jump\t// in\n    tag_407:\n        /* \"#utility.yul\":22919:22975   */\n    tag_406:\n        /* \"#utility.yul\":22999:23037   */\n      tag_408\n        /* \"#utility.yul\":23031:23035   */\n      dup3\n        /* \"#utility.yul\":23025:23036   */\n      sload\n        /* \"#utility.yul\":22999:23037   */\n      tag_95\n      jump\t// in\n    tag_408:\n        /* \"#utility.yul\":23084:23151   */\n      tag_409\n        /* \"#utility.yul\":23144:23150   */\n      dup3\n        /* \"#utility.yul\":23136:23142   */\n      dup3\n        /* \"#utility.yul\":23130:23134   */\n      dup6\n        /* \"#utility.yul\":23084:23151   */\n      tag_187\n      jump\t// in\n    tag_409:\n        /* \"#utility.yul\":23178:23179   */\n      0x00\n        /* \"#utility.yul\":23202:23206   */\n      0x20\n        /* \"#utility.yul\":23189:23206   */\n      swap1\n      pop\n        /* \"#utility.yul\":23234:23236   */\n      0x1f\n        /* \"#utility.yul\":23226:23232   */\n      dup4\n        /* \"#utility.yul\":23223:23237   */\n      gt\n        /* \"#utility.yul\":23251:23252   */\n      0x01\n        /* \"#utility.yul\":23246:23864   */\n      dup2\n      eq\n      tag_411\n      jumpi\n        /* \"#utility.yul\":23908:23909   */\n      0x00\n        /* \"#utility.yul\":23925:23931   */\n      dup5\n        /* \"#utility.yul\":23922:23999   */\n      iszero\n      tag_412\n      jumpi\n        /* \"#utility.yul\":23974:23983   */\n      dup3\n        /* \"#utility.yul\":23969:23972   */\n      dup8\n        /* \"#utility.yul\":23965:23984   */\n      add\n        /* \"#utility.yul\":23959:23985   */\n      mload\n        /* \"#utility.yul\":23950:23985   */\n      swap1\n      pop\n        /* \"#utility.yul\":23922:23999   */\n    tag_412:\n        /* \"#utility.yul\":24025:24092   */\n      tag_413\n        /* \"#utility.yul\":24085:24091   */\n      dup6\n        /* \"#utility.yul\":24078:24083   */\n      dup3\n        /* \"#utility.yul\":24025:24092   */\n      tag_190\n      jump\t// in\n    tag_413:\n        /* \"#utility.yul\":24019:24023   */\n      dup7\n        /* \"#utility.yul\":24012:24093   */\n      sstore\n        /* \"#utility.yul\":23881:24103   */\n      pop\n        /* \"#utility.yul\":23216:24103   */\n      jump(tag_410)\n        /* \"#utility.yul\":23246:23864   */\n    tag_411:\n        /* \"#utility.yul\":23298:23302   */\n      0x1f\n        /* \"#utility.yul\":23294:23303   */\n      not\n        /* \"#utility.yul\":23286:23292   */\n      dup5\n        /* \"#utility.yul\":23282:23304   */\n      and\n        /* \"#utility.yul\":23332:23369   */\n      tag_414\n        /* \"#utility.yul\":23364:23368   */\n      dup7\n        /* \"#utility.yul\":23332:23369   */\n      tag_176\n      jump\t// in\n    tag_414:\n        /* \"#utility.yul\":23391:23392   */\n      0x00\n        /* \"#utility.yul\":23405:23613   */\n    tag_415:\n        /* \"#utility.yul\":23419:23426   */\n      dup3\n        /* \"#utility.yul\":23416:23417   */\n      dup2\n        /* \"#utility.yul\":23413:23427   */\n      lt\n        /* \"#utility.yul\":23405:23613   */\n      iszero\n      tag_417\n      jumpi\n        /* \"#utility.yul\":23498:23507   */\n      dup5\n        /* \"#utility.yul\":23493:23496   */\n      dup10\n        /* \"#utility.yul\":23489:23508   */\n      add\n        /* \"#utility.yul\":23483:23509   */\n      mload\n        /* \"#utility.yul\":23475:23481   */\n      dup3\n        /* \"#utility.yul\":23468:23510   */\n      sstore\n        /* \"#utility.yul\":23549:23550   */\n      0x01\n        /* \"#utility.yul\":23541:23547   */\n      dup3\n        /* \"#utility.yul\":23537:23551   */\n      add\n        /* \"#utility.yul\":23527:23551   */\n      swap2\n      pop\n        /* \"#utility.yul\":23596:23598   */\n      0x20\n        /* \"#utility.yul\":23585:23594   */\n      dup6\n        /* \"#utility.yul\":23581:23599   */\n      add\n        /* \"#utility.yul\":23568:23599   */\n      swap5\n      pop\n        /* \"#utility.yul\":23442:23446   */\n      0x20\n        /* \"#utility.yul\":23439:23440   */\n      dup2\n        /* \"#utility.yul\":23435:23447   */\n      add\n        /* \"#utility.yul\":23430:23447   */\n      swap1\n      pop\n        /* \"#utility.yul\":23405:23613   */\n      jump(tag_415)\n    tag_417:\n        /* \"#utility.yul\":23641:23647   */\n      dup7\n        /* \"#utility.yul\":23632:23639   */\n      dup4\n        /* \"#utility.yul\":23629:23648   */\n      lt\n        /* \"#utility.yul\":23626:23805   */\n      iszero\n      tag_418\n      jumpi\n        /* \"#utility.yul\":23699:23708   */\n      dup5\n        /* \"#utility.yul\":23694:23697   */\n      dup10\n        /* \"#utility.yul\":23690:23709   */\n      add\n        /* \"#utility.yul\":23684:23710   */\n      mload\n        /* \"#utility.yul\":23742:23790   */\n      tag_419\n        /* \"#utility.yul\":23784:23788   */\n      0x1f\n        /* \"#utility.yul\":23776:23782   */\n      dup10\n        /* \"#utility.yul\":23772:23789   */\n      and\n        /* \"#utility.yul\":23761:23770   */\n      dup3\n        /* \"#utility.yul\":23742:23790   */\n      tag_189\n      jump\t// in\n    tag_419:\n        /* \"#utility.yul\":23734:23740   */\n      dup4\n        /* \"#utility.yul\":23727:23791   */\n      sstore\n        /* \"#utility.yul\":23649:23805   */\n      pop\n        /* \"#utility.yul\":23626:23805   */\n    tag_418:\n        /* \"#utility.yul\":23851:23852   */\n      0x01\n        /* \"#utility.yul\":23847:23848   */\n      0x02\n        /* \"#utility.yul\":23839:23845   */\n      dup9\n        /* \"#utility.yul\":23835:23849   */\n      mul\n        /* \"#utility.yul\":23831:23853   */\n      add\n        /* \"#utility.yul\":23825:23829   */\n      dup9\n        /* \"#utility.yul\":23818:23854   */\n      sstore\n        /* \"#utility.yul\":23253:23864   */\n      pop\n      pop\n      pop\n        /* \"#utility.yul\":23216:24103   */\n    tag_410:\n      pop\n        /* \"#utility.yul\":22806:24109   */\n      pop\n      pop\n      pop\n        /* \"#utility.yul\":22714:24109   */\n      pop\n      pop\n      jump\t// out\n\n    auxdata: 0xa2646970667358221220d0ba390ecaeba93d55d3de52aa094d064219df08e0f298a3ce3f7e53efc66bf464736f6c634300081e0033\n}\n",
				"bytecode": {
					"linkReferences": {},
					"object": "60c060405260015f55348015610013575f5ffd5b503373ffffffffffffffffffffffffffffffffffffffff1660808173ffffffffffffffffffffffffffffffffffffffff16815250503373ffffffffffffffffffffffffffffffffffffffff1660a08173ffffffffffffffffffffffffffffffffffffffff168152505060805160a05161198d6100b95f395f81816102de01528181610370015261098001525f8181610247015281816106640152610735015261198d5ff3fe608060405260043610610085575f3560e01c80634df8ccb1116100585780634df8ccb11461011f5780637476452a14610149578063e148919114610187578063f851a440146101b1578063fc5f2b78146101db57610085565b806313bd20e214610089578063355e6b43146100c55780633ccfd60b146100ed578063429cad8614610103575b5f5ffd5b348015610094575f5ffd5b506100af60048036038101906100aa9190610f07565b610203565b6040516100bc9190610f7b565b60405180910390f35b3480156100d0575f5ffd5b506100eb60048036038101906100e69190610fc7565b610245565b005b3480156100f8575f5ffd5b506101016102dc565b005b61011d6004803603810190610118919061104f565b6103d5565b005b34801561012a575f5ffd5b50610133610733565b60405161014091906110a9565b60405180910390f35b348015610154575f5ffd5b5061016f600480360381019061016a919061104f565b610757565b60405161017e93929190611131565b60405180910390f35b348015610192575f5ffd5b5061019b610979565b6040516101a8919061116d565b60405180910390f35b3480156101bc575f5ffd5b506101c561097e565b6040516101d291906110a9565b60405180910390f35b3480156101e6575f5ffd5b5061020160048036038101906101fc9190611186565b6109a2565b005b600282805160208101820180518482526020830160208501208183528095505050505050602052805f5260405f205f915091509054906101000a900460ff1681565b7f000000000000000000000000000000000000000000000000000000000000000073ffffffffffffffffffffffffffffffffffffffff163373ffffffffffffffffffffffffffffffffffffffff16146102d3576040517f08c379a00000000000000000000000000000000000000000000000000000000081526004016102ca90611261565b60405180910390fd5b805f8190555050565b7f000000000000000000000000000000000000000000000000000000000000000073ffffffffffffffffffffffffffffffffffffffff163373ffffffffffffffffffffffffffffffffffffffff161461036a576040517f08c379a0000000000000000000000000000000000000000000000000000000008152600401610361906112c9565b60405180910390fd5b5f4790507f000000000000000000000000000000000000000000000000000000000000000073ffffffffffffffffffffffffffffffffffffffff166108fc8290811502906040515f60405180830381858888f193505050501580156103d1573d5f5f3e3d5ffd5b5050565b5f600183836040516103e8929190611315565b908152602001604051809103902090505f73ffffffffffffffffffffffffffffffffffffffff16816001015f9054906101000a900473ffffffffffffffffffffffffffffffffffffffff1673ffffffffffffffffffffffffffffffffffffffff1603610489576040517f08c379a000000000000000000000000000000000000000000000000000000000815260040161048090611377565b60405180910390fd5b6002838360405161049b929190611315565b90815260200160405180910390205f3373ffffffffffffffffffffffffffffffffffffffff1673ffffffffffffffffffffffffffffffffffffffff1681526020019081526020015f205f9054906101000a900460ff1615610531576040517f08c379a0000000000000000000000000000000000000000000000000000000008152600401610528906113df565b60405180910390fd5b8060020154341015610578576040517f08c379a000000000000000000000000000000000000000000000000000000000815260040161056f90611447565b60405180910390fd5b60016002848460405161058c929190611315565b90815260200160405180910390205f3373ffffffffffffffffffffffffffffffffffffffff1673ffffffffffffffffffffffffffffffffffffffff1681526020019081526020015f205f6101000a81548160ff0219169083151502179055505f5f54346105f99190611492565b9050816001015f9054906101000a900473ffffffffffffffffffffffffffffffffffffffff1673ffffffffffffffffffffffffffffffffffffffff166108fc8290811502906040515f60405180830381858888f19350505050158015610661573d5f5f3e3d5ffd5b507f000000000000000000000000000000000000000000000000000000000000000073ffffffffffffffffffffffffffffffffffffffff166108fc5f5490811502906040515f60405180830381858888f193505050501580156106c6573d5f5f3e3d5ffd5b503373ffffffffffffffffffffffffffffffffffffffff1684846040516106ee929190611315565b60405180910390207f82ec752277142007941587a00adda02c84e2a7e5b3ebaf3fe51fe33b8689268d34604051610725919061116d565b60405180910390a350505050565b7f000000000000000000000000000000000000000000000000000000000000000081565b60605f5f5f6001868660405161076e929190611315565b908152602001604051809103902090505f73ffffffffffffffffffffffffffffffffffffffff16816001015f9054906101000a900473ffffffffffffffffffffffffffffffffffffffff1673ffffffffffffffffffffffffffffffffffffffff16036107f3575f5f60405180602001604052805f815250919093509350935050610972565b5f81600201541480610869575060028686604051610812929190611315565b90815260200160405180910390205f3373ffffffffffffffffffffffffffffffffffffffff1673ffffffffffffffffffffffffffffffffffffffff1681526020019081526020015f205f9054906101000a900460ff165b1561093057805f01816001015f9054906101000a900473ffffffffffffffffffffffffffffffffffffffff1682600201548280546108a6906114f2565b80601f01602080910402602001604051908101604052809291908181526020018280546108d2906114f2565b801561091d5780601f106108f45761010080835404028352916020019161091d565b820191905f5260205f20905b81548152906001019060200180831161090057829003601f168201915b5050505050925093509350935050610972565b806001015f9054906101000a900473ffffffffffffffffffffffffffffffffffffffff16816002015460405180602001604052805f8152509190935093509350505b9250925092565b5f5481565b7f000000000000000000000000000000000000000000000000000000000000000081565b5f85859050116109e7576040517f08c379a00000000000000000000000000000000000000000000000000000000081526004016109de9061156c565b60405180910390fd5b5f8383905011610a2c576040517f08c379a0000000000000000000000000000000000000000000000000000000008152600401610a23906115d4565b60405180910390fd5b5f811480610a3a57505f5481115b610a79576040517f08c379a0000000000000000000000000000000000000000000000000000000008152600401610a709061163c565b60405180910390fd5b5f60018484604051610a8c929190611315565b908152602001604051809103902090505f73ffffffffffffffffffffffffffffffffffffffff16816001015f9054906101000a900473ffffffffffffffffffffffffffffffffffffffff1673ffffffffffffffffffffffffffffffffffffffff1614610b84573373ffffffffffffffffffffffffffffffffffffffff16816001015f9054906101000a900473ffffffffffffffffffffffffffffffffffffffff1673ffffffffffffffffffffffffffffffffffffffff1614610b83576040517f08c379a0000000000000000000000000000000000000000000000000000000008152600401610b7a906116ca565b60405180910390fd5b5b604051806060016040528087878080601f0160208091040260200160405190810160405280939291908181526020018383808284375f81840152601f19601f8201169050808301925050505050505081526020013373ffffffffffffffffffffffffffffffffffffffff1681526020018381525060018585604051610c0a929190611315565b90815260200160405180910390205f820151815f019081610c2b9190611888565b506020820151816001015f6101000a81548173ffffffffffffffffffffffffffffffffffffffff021916908373ffffffffffffffffffffffffffffffffffffffff16021790555060408201518160020155905050600160028585604051610c93929190611315565b90815260200160405180910390205f3373ffffffffffffffffffffffffffffffffffffffff1673ffffffffffffffffffffffffffffffffffffffff1681526020019081526020015f205f6101000a81548160ff0219169083151502179055503373ffffffffffffffffffffffffffffffffffffffff168484604051610d19929190611315565b60405180910390207f9f74df5eec72a4c2fb2f83db8974cfc70535caba06231e115ab92cf821ee4c1284604051610d50919061116d565b60405180910390a3505050505050565b5f604051905090565b5f5ffd5b5f5ffd5b5f5ffd5b5f5ffd5b5f601f19601f8301169050919050565b7f4e487b71000000000000000000000000000000000000000000000000000000005f52604160045260245ffd5b610dbf82610d79565b810181811067ffffffffffffffff82111715610dde57610ddd610d89565b5b80604052505050565b5f610df0610d60565b9050610dfc8282610db6565b919050565b5f67ffffffffffffffff821115610e1b57610e1a610d89565b5b610e2482610d79565b9050602081019050919050565b828183375f83830152505050565b5f610e51610e4c84610e01565b610de7565b905082815260208101848484011115610e6d57610e6c610d75565b5b610e78848285610e31565b509392505050565b5f82601f830112610e9457610e93610d71565b5b8135610ea4848260208601610e3f565b91505092915050565b5f73ffffffffffffffffffffffffffffffffffffffff82169050919050565b5f610ed682610ead565b9050919050565b610ee681610ecc565b8114610ef0575f5ffd5b50565b5f81359050610f0181610edd565b92915050565b5f5f60408385031215610f1d57610f1c610d69565b5b5f83013567ffffffffffffffff811115610f3a57610f39610d6d565b5b610f4685828601610e80565b9250506020610f5785828601610ef3565b9150509250929050565b5f8115159050919050565b610f7581610f61565b82525050565b5f602082019050610f8e5f830184610f6c565b92915050565b5f819050919050565b610fa681610f94565b8114610fb0575f5ffd5b50565b5f81359050610fc181610f9d565b92915050565b5f60208284031215610fdc57610fdb610d69565b5b5f610fe984828501610fb3565b91505092915050565b5f5ffd5b5f5ffd5b5f5f83601f84011261100f5761100e610d71565b5b8235905067ffffffffffffffff81111561102c5761102b610ff2565b5b60208301915083600182028301111561104857611047610ff6565b5b9250929050565b5f5f6020838503121561106557611064610d69565b5b5f83013567ffffffffffffffff81111561108257611081610d6d565b5b61108e85828601610ffa565b92509250509250929050565b6110a381610ecc565b82525050565b5f6020820190506110bc5f83018461109a565b92915050565b5f81519050919050565b5f82825260208201905092915050565b8281835e5f83830152505050565b5f6110f4826110c2565b6110fe81856110cc565b935061110e8185602086016110dc565b61111781610d79565b840191505092915050565b61112b81610f94565b82525050565b5f6060820190508181035f83015261114981866110ea565b9050611158602083018561109a565b6111656040830184611122565b949350505050565b5f6020820190506111805f830184611122565b92915050565b5f5f5f5f5f6060868803121561119f5761119e610d69565b5b5f86013567ffffffffffffffff8111156111bc576111bb610d6d565b5b6111c888828901610ffa565b9550955050602086013567ffffffffffffffff8111156111eb576111ea610d6d565b5b6111f788828901610ffa565b9350935050604061120a88828901610fb3565b9150509295509295909350565b7f4f6e6c7920706c6174666f726d206f776e6572000000000000000000000000005f82015250565b5f61124b6013836110cc565b915061125682611217565b602082019050919050565b5f6020820190508181035f8301526112788161123f565b9050919050565b7f596f7520646f206e6f742068617665207065726d697373696f6e0000000000005f82015250565b5f6112b3601a836110cc565b91506112be8261127f565b602082019050919050565b5f6020820190508181035f8301526112e0816112a7565b9050919050565b5f81905092915050565b5f6112fc83856112e7565b9350611309838584610e31565b82840190509392505050565b5f6113218284866112f1565b91508190509392505050565b7f4c696e6b206e6f7420666f756e640000000000000000000000000000000000005f82015250565b5f611361600e836110cc565b915061136c8261132d565b602082019050919050565b5f6020820190508181035f83015261138e81611355565b9050919050565b7f41636365737320616c7265616479206772616e746564000000000000000000005f82015250565b5f6113c96016836110cc565b91506113d482611395565b602082019050919050565b5f6020820190508181035f8301526113f6816113bd565b9050919050565b7f496e73756666696369656e74207061796d656e740000000000000000000000005f82015250565b5f6114316014836110cc565b915061143c826113fd565b602082019050919050565b5f6020820190508181035f83015261145e81611425565b9050919050565b7f4e487b71000000000000000000000000000000000000000000000000000000005f52601160045260245ffd5b5f61149c82610f94565b91506114a783610f94565b92508282039050818111156114bf576114be611465565b5b92915050565b7f4e487b71000000000000000000000000000000000000000000000000000000005f52602260045260245ffd5b5f600282049050600182168061150957607f821691505b60208210810361151c5761151b6114c5565b5b50919050565b7f55524c20726571756972656400000000000000000000000000000000000000005f82015250565b5f611556600c836110cc565b915061156182611522565b602082019050919050565b5f6020820190508181035f8301526115838161154a565b9050919050565b7f4c696e6b204944207265717569726564000000000000000000000000000000005f82015250565b5f6115be6010836110cc565b91506115c98261158a565b602082019050919050565b5f6020820190508181035f8301526115eb816115b2565b9050919050565b7f46656520746f6f206c6f770000000000000000000000000000000000000000005f82015250565b5f611626600b836110cc565b9150611631826115f2565b602082019050919050565b5f6020820190508181035f8301526116538161161a565b9050919050565b7f4c696e6b20494420616c7265616479206f776e656420627920616e6f746865725f8201527f2075736572000000000000000000000000000000000000000000000000000000602082015250565b5f6116b46025836110cc565b91506116bf8261165a565b604082019050919050565b5f6020820190508181035f8301526116e1816116a8565b9050919050565b5f819050815f5260205f209050919050565b5f6020601f8301049050919050565b5f82821b905092915050565b5f600883026117447fffffffffffffffffffffffffffffffffffffffffffffffffffffffffffffffff82611709565b61174e8683611709565b95508019841693508086168417925050509392505050565b5f819050919050565b5f61178961178461177f84610f94565b611766565b610f94565b9050919050565b5f819050919050565b6117a28361176f565b6117b66117ae82611790565b848454611715565b825550505050565b5f5f905090565b6117cd6117be565b6117d8818484611799565b505050565b5b818110156117fb576117f05f826117c5565b6001810190506117de565b5050565b601f82111561184057611811816116e8565b61181a846116fa565b81016020851015611829578190505b61183d611835856116fa565b8301826117dd565b50505b505050565b5f82821c905092915050565b5f6118605f1984600802611845565b1980831691505092915050565b5f6118788383611851565b9150826002028217905092915050565b611891826110c2565b67ffffffffffffffff8111156118aa576118a9610d89565b5b6118b482546114f2565b6118bf8282856117ff565b5f60209050601f8311600181146118f0575f84156118de578287015190505b6118e8858261186d565b86555061194f565b601f1984166118fe866116e8565b5f5b8281101561192557848901518255600182019150602085019450602081019050611900565b86831015611942578489015161193e601f891682611851565b8355505b6001600288020188555050505b50505050505056fea2646970667358221220d0ba390ecaeba93d55d3de52aa094d064219df08e0f298a3ce3f7e53efc66bf464736f6c634300081e0033",
					"opcodes": "PUSH1 0xC0 PUSH1 0x40 MSTORE PUSH1 0x1 PUSH0 SSTORE CALLVALUE DUP1 ISZERO PUSH2 0x13 JUMPI PUSH0 PUSH0 REVERT JUMPDEST POP CALLER PUSH20 0xFFFFFFFFFFFFFFFFFFFFFFFFFFFFFFFFFFFFFFFF AND PUSH1 0x80 DUP2 PUSH20 0xFFFFFFFFFFFFFFFFFFFFFFFFFFFFFFFFFFFFFFFF AND DUP2 MSTORE POP POP CALLER PUSH20 0xFFFFFFFFFFFFFFFFFFFFFFFFFFFFFFFFFFFFFFFF AND PUSH1 0xA0 DUP2 PUSH20 0xFFFFFFFFFFFFFFFFFFFFFFFFFFFFFFFFFFFFFFFF AND DUP2 MSTORE POP POP PUSH1 0x80 MLOAD PUSH1 0xA0 MLOAD PUSH2 0x198D PUSH2 0xB9 PUSH0 CODECOPY PUSH0 DUP2 DUP2 PUSH2 0x2DE ADD MSTORE DUP2 DUP2 PUSH2 0x370 ADD MSTORE PUSH2 0x980 ADD MSTORE PUSH0 DUP2 DUP2 PUSH2 0x247 ADD MSTORE DUP2 DUP2 PUSH2 0x664 ADD MSTORE PUSH2 0x735 ADD MSTORE PUSH2 0x198D PUSH0 RETURN INVALID PUSH1 0x80 PUSH1 0x40 MSTORE PUSH1 0x4 CALLDATASIZE LT PUSH2 0x85 JUMPI PUSH0 CALLDATALOAD PUSH1 0xE0 SHR DUP1 PUSH4 0x4DF8CCB1 GT PUSH2 0x58 JUMPI DUP1 PUSH4 0x4DF8CCB1 EQ PUSH2 0x11F JUMPI DUP1 PUSH4 0x7476452A EQ PUSH2 0x149 JUMPI DUP1 PUSH4 0xE1489191 EQ PUSH2 0x187 JUMPI DUP1 PUSH4 0xF851A440 EQ PUSH2 0x1B1 JUMPI DUP1 PUSH4 0xFC5F2B78 EQ PUSH2 0x1DB JUMPI PUSH2 0x85 JUMP JUMPDEST DUP1 PUSH4 0x13BD20E2 EQ PUSH2 0x89 JUMPI DUP1 PUSH4 0x355E6B43 EQ PUSH2 0xC5 JUMPI DUP1 PUSH4 0x3CCFD60B EQ PUSH2 0xED JUMPI DUP1 PUSH4 0x429CAD86 EQ PUSH2 0x103 JUMPI JUMPDEST PUSH0 PUSH0 REVERT JUMPDEST CALLVALUE DUP1 ISZERO PUSH2 0x94 JUMPI PUSH0 PUSH0 REVERT JUMPDEST POP PUSH2 0xAF PUSH1 0x4 DUP1 CALLDATASIZE SUB DUP2 ADD SWAP1 PUSH2 0xAA SWAP2 SWAP1 PUSH2 0xF07 JUMP JUMPDEST PUSH2 0x203 JUMP JUMPDEST PUSH1 0x40 MLOAD PUSH2 0xBC SWAP2 SWAP1 PUSH2 0xF7B JUMP JUMPDEST PUSH1 0x40 MLOAD DUP1 SWAP2 SUB SWAP1 RETURN JUMPDEST CALLVALUE DUP1 ISZERO PUSH2 0xD0 JUMPI PUSH0 PUSH0 REVERT JUMPDEST POP PUSH2 0xEB PUSH1 0x4 DUP1 CALLDATASIZE SUB DUP2 ADD SWAP1 PUSH2 0xE6 SWAP2 SWAP1 PUSH2 0xFC7 JUMP JUMPDEST PUSH2 0x245 JUMP JUMPDEST STOP JUMPDEST CALLVALUE DUP1 ISZERO PUSH2 0xF8 JUMPI PUSH0 PUSH0 REVERT JUMPDEST POP PUSH2 0x101 PUSH2 0x2DC JUMP JUMPDEST STOP JUMPDEST PUSH2 0x11D PUSH1 0x4 DUP1 CALLDATASIZE SUB DUP2 ADD SWAP1 PUSH2 0x118 SWAP2 SWAP1 PUSH2 0x104F JUMP JUMPDEST PUSH2 0x3D5 JUMP JUMPDEST STOP JUMPDEST CALLVALUE DUP1 ISZERO PUSH2 0x12A JUMPI PUSH0 PUSH0 REVERT JUMPDEST POP PUSH2 0x133 PUSH2 0x733 JUMP JUMPDEST PUSH1 0x40 MLOAD PUSH2 0x140 SWAP2 SWAP1 PUSH2 0x10A9 JUMP JUMPDEST PUSH1 0x40 MLOAD DUP1 SWAP2 SUB SWAP1 RETURN JUMPDEST CALLVALUE DUP1 ISZERO PUSH2 0x154 JUMPI PUSH0 PUSH0 REVERT JUMPDEST POP PUSH2 0x16F PUSH1 0x4 DUP1 CALLDATASIZE SUB DUP2 ADD SWAP1 PUSH2 0x16A SWAP2 SWAP1 PUSH2 0x104F JUMP JUMPDEST PUSH2 0x757 JUMP JUMPDEST PUSH1 0x40 MLOAD PUSH2 0x17E SWAP4 SWAP3 SWAP2 SWAP1 PUSH2 0x1131 JUMP JUMPDEST PUSH1 0x40 MLOAD DUP1 SWAP2 SUB SWAP1 RETURN JUMPDEST CALLVALUE DUP1 ISZERO PUSH2 0x192 JUMPI PUSH0 PUSH0 REVERT JUMPDEST POP PUSH2 0x19B PUSH2 0x979 JUMP JUMPDEST PUSH1 0x40 MLOAD PUSH2 0x1A8 SWAP2 SWAP1 PUSH2 0x116D JUMP JUMPDEST PUSH1 0x40 MLOAD DUP1 SWAP2 SUB SWAP1 RETURN JUMPDEST CALLVALUE DUP1 ISZERO PUSH2 0x1BC JUMPI PUSH0 PUSH0 REVERT JUMPDEST POP PUSH2 0x1C5 PUSH2 0x97E JUMP JUMPDEST PUSH1 0x40 MLOAD PUSH2 0x1D2 SWAP2 SWAP1 PUSH2 0x10A9 JUMP JUMPDEST PUSH1 0x40 MLOAD DUP1 SWAP2 SUB SWAP1 RETURN JUMPDEST CALLVALUE DUP1 ISZERO PUSH2 0x1E6 JUMPI PUSH0 PUSH0 REVERT JUMPDEST POP PUSH2 0x201 PUSH1 0x4 DUP1 CALLDATASIZE SUB DUP2 ADD SWAP1 PUSH2 0x1FC SWAP2 SWAP1 PUSH2 0x1186 JUMP JUMPDEST PUSH2 0x9A2 JUMP JUMPDEST STOP JUMPDEST PUSH1 0x2 DUP3 DUP1 MLOAD PUSH1 0x20 DUP2 ADD DUP3 ADD DUP1 MLOAD DUP5 DUP3 MSTORE PUSH1 0x20 DUP4 ADD PUSH1 0x20 DUP6 ADD KECCAK256 DUP2 DUP4 MSTORE DUP1 SWAP6 POP POP POP POP POP POP PUSH1 0x20 MSTORE DUP1 PUSH0 MSTORE PUSH1 0x40 PUSH0 KECCAK256 PUSH0 SWAP2 POP SWAP2 POP SWAP1 SLOAD SWAP1 PUSH2 0x100 EXP SWAP1 DIV PUSH1 0xFF AND DUP2 JUMP JUMPDEST PUSH32 0x0 PUSH20 0xFFFFFFFFFFFFFFFFFFFFFFFFFFFFFFFFFFFFFFFF AND CALLER PUSH20 0xFFFFFFFFFFFFFFFFFFFFFFFFFFFFFFFFFFFFFFFF AND EQ PUSH2 0x2D3 JUMPI PUSH1 0x40 MLOAD PUSH32 0x8C379A000000000000000000000000000000000000000000000000000000000 DUP2 MSTORE PUSH1 0x4 ADD PUSH2 0x2CA SWAP1 PUSH2 0x1261 JUMP JUMPDEST PUSH1 0x40 MLOAD DUP1 SWAP2 SUB SWAP1 REVERT JUMPDEST DUP1 PUSH0 DUP2 SWAP1 SSTORE POP POP JUMP JUMPDEST PUSH32 0x0 PUSH20 0xFFFFFFFFFFFFFFFFFFFFFFFFFFFFFFFFFFFFFFFF AND CALLER PUSH20 0xFFFFFFFFFFFFFFFFFFFFFFFFFFFFFFFFFFFFFFFF AND EQ PUSH2 0x36A JUMPI PUSH1 0x40 MLOAD PUSH32 0x8C379A000000000000000000000000000000000000000000000000000000000 DUP2 MSTORE PUSH1 0x4 ADD PUSH2 0x361 SWAP1 PUSH2 0x12C9 JUMP JUMPDEST PUSH1 0x40 MLOAD DUP1 SWAP2 SUB SWAP1 REVERT JUMPDEST PUSH0 SELFBALANCE SWAP1 POP PUSH32 0x0 PUSH20 0xFFFFFFFFFFFFFFFFFFFFFFFFFFFFFFFFFFFFFFFF AND PUSH2 0x8FC DUP3 SWAP1 DUP2 ISZERO MUL SWAP1 PUSH1 0x40 MLOAD PUSH0 PUSH1 0x40 MLOAD DUP1 DUP4 SUB DUP2 DUP6 DUP9 DUP9 CALL SWAP4 POP POP POP POP ISZERO DUP1 ISZERO PUSH2 0x3D1 JUMPI RETURNDATASIZE PUSH0 PUSH0 RETURNDATACOPY RETURNDATASIZE PUSH0 REVERT JUMPDEST POP POP JUMP JUMPDEST PUSH0 PUSH1 0x1 DUP4 DUP4 PUSH1 0x40 MLOAD PUSH2 0x3E8 SWAP3 SWAP2 SWAP1 PUSH2 0x1315 JUMP JUMPDEST SWAP1 DUP2 MSTORE PUSH1 0x20 ADD PUSH1 0x40 MLOAD DUP1 SWAP2 SUB SWAP1 KECCAK256 SWAP1 POP PUSH0 PUSH20 0xFFFFFFFFFFFFFFFFFFFFFFFFFFFFFFFFFFFFFFFF AND DUP2 PUSH1 0x1 ADD PUSH0 SWAP1 SLOAD SWAP1 PUSH2 0x100 EXP SWAP1 DIV PUSH20 0xFFFFFFFFFFFFFFFFFFFFFFFFFFFFFFFFFFFFFFFF AND PUSH20 0xFFFFFFFFFFFFFFFFFFFFFFFFFFFFFFFFFFFFFFFF AND SUB PUSH2 0x489 JUMPI PUSH1 0x40 MLOAD PUSH32 0x8C379A000000000000000000000000000000000000000000000000000000000 DUP2 MSTORE PUSH1 0x4 ADD PUSH2 0x480 SWAP1 PUSH2 0x1377 JUMP JUMPDEST PUSH1 0x40 MLOAD DUP1 SWAP2 SUB SWAP1 REVERT JUMPDEST PUSH1 0x2 DUP4 DUP4 PUSH1 0x40 MLOAD PUSH2 0x49B SWAP3 SWAP2 SWAP1 PUSH2 0x1315 JUMP JUMPDEST SWAP1 DUP2 MSTORE PUSH1 0x20 ADD PUSH1 0x40 MLOAD DUP1 SWAP2 SUB SWAP1 KECCAK256 PUSH0 CALLER PUSH20 0xFFFFFFFFFFFFFFFFFFFFFFFFFFFFFFFFFFFFFFFF AND PUSH20 0xFFFFFFFFFFFFFFFFFFFFFFFFFFFFFFFFFFFFFFFF AND DUP2 MSTORE PUSH1 0x20 ADD SWAP1 DUP2 MSTORE PUSH1 0x20 ADD PUSH0 KECCAK256 PUSH0 SWAP1 SLOAD SWAP1 PUSH2 0x100 EXP SWAP1 DIV PUSH1 0xFF AND ISZERO PUSH2 0x531 JUMPI PUSH1 0x40 MLOAD PUSH32 0x8C379A000000000000000000000000000000000000000000000000000000000 DUP2 MSTORE PUSH1 0x4 ADD PUSH2 0x528 SWAP1 PUSH2 0x13DF JUMP JUMPDEST PUSH1 0x40 MLOAD DUP1 SWAP2 SUB SWAP1 REVERT JUMPDEST DUP1 PUSH1 0x2 ADD SLOAD CALLVALUE LT ISZERO PUSH2 0x578 JUMPI PUSH1 0x40 MLOAD PUSH32 0x8C379A000000000000000000000000000000000000000000000000000000000 DUP2 MSTORE PUSH1 0x4 ADD PUSH2 0x56F SWAP1 PUSH2 0x1447 JUMP JUMPDEST PUSH1 0x40 MLOAD DUP1 SWAP2 SUB SWAP1 REVERT JUMPDEST PUSH1 0x1 PUSH1 0x2 DUP5 DUP5 PUSH1 0x40 MLOAD PUSH2 0x58C SWAP3 SWAP2 SWAP1 PUSH2 0x1315 JUMP JUMPDEST SWAP1 DUP2 MSTORE PUSH1 0x20 ADD PUSH1 0x40 MLOAD DUP1 SWAP2 SUB SWAP1 KECCAK256 PUSH0 CALLER PUSH20 0xFFFFFFFFFFFFFFFFFFFFFFFFFFFFFFFFFFFFFFFF AND PUSH20 0xFFFFFFFFFFFFFFFFFFFFFFFFFFFFFFFFFFFFFFFF AND DUP2 MSTORE PUSH1 0x20 ADD SWAP1 DUP2 MSTORE PUSH1 0x20 ADD PUSH0 KECCAK256 PUSH0 PUSH2 0x100 EXP DUP2 SLOAD DUP2 PUSH1 0xFF MUL NOT AND SWAP1 DUP4 ISZERO ISZERO MUL OR SWAP1 SSTORE POP PUSH0 PUSH0 SLOAD CALLVALUE PUSH2 0x5F9 SWAP2 SWAP1 PUSH2 0x1492 JUMP JUMPDEST SWAP1 POP DUP2 PUSH1 0x1 ADD PUSH0 SWAP1 SLOAD SWAP1 PUSH2 0x100 EXP SWAP1 DIV PUSH20 0xFFFFFFFFFFFFFFFFFFFFFFFFFFFFFFFFFFFFFFFF AND PUSH20 0xFFFFFFFFFFFFFFFFFFFFFFFFFFFFFFFFFFFFFFFF AND PUSH2 0x8FC DUP3 SWAP1 DUP2 ISZERO MUL SWAP1 PUSH1 0x40 MLOAD PUSH0 PUSH1 0x40 MLOAD DUP1 DUP4 SUB DUP2 DUP6 DUP9 DUP9 CALL SWAP4 POP POP POP POP ISZERO DUP1 ISZERO PUSH2 0x661 JUMPI RETURNDATASIZE PUSH0 PUSH0 RETURNDATACOPY RETURNDATASIZE PUSH0 REVERT JUMPDEST POP PUSH32 0x0 PUSH20 0xFFFFFFFFFFFFFFFFFFFFFFFFFFFFFFFFFFFFFFFF AND PUSH2 0x8FC PUSH0 SLOAD SWAP1 DUP2 ISZERO MUL SWAP1 PUSH1 0x40 MLOAD PUSH0 PUSH1 0x40 MLOAD DUP1 DUP4 SUB DUP2 DUP6 DUP9 DUP9 CALL SWAP4 POP POP POP POP ISZERO DUP1 ISZERO PUSH2 0x6C6 JUMPI RETURNDATASIZE PUSH0 PUSH0 RETURNDATACOPY RETURNDATASIZE PUSH0 REVERT JUMPDEST POP CALLER PUSH20 0xFFFFFFFFFFFFFFFFFFFFFFFFFFFFFFFFFFFFFFFF AND DUP5 DUP5 PUSH1 0x40 MLOAD PUSH2 0x6EE SWAP3 SWAP2 SWAP1 PUSH2 0x1315 JUMP JUMPDEST PUSH1 0x40 MLOAD DUP1 SWAP2 SUB SWAP1 KECCAK256 PUSH32 0x82EC752277142007941587A00ADDA02C84E2A7E5B3EBAF3FE51FE33B8689268D CALLVALUE PUSH1 0x40 MLOAD PUSH2 0x725 SWAP2 SWAP1 PUSH2 0x116D JUMP JUMPDEST PUSH1 0x40 MLOAD DUP1 SWAP2 SUB SWAP1 LOG3 POP POP POP POP JUMP JUMPDEST PUSH32 0x0 DUP2 JUMP JUMPDEST PUSH1 0x60 PUSH0 PUSH0 PUSH0 PUSH1 0x1 DUP7 DUP7 PUSH1 0x40 MLOAD PUSH2 0x76E SWAP3 SWAP2 SWAP1 PUSH2 0x1315 JUMP JUMPDEST SWAP1 DUP2 MSTORE PUSH1 0x20 ADD PUSH1 0x40 MLOAD DUP1 SWAP2 SUB SWAP1 KECCAK256 SWAP1 POP PUSH0 PUSH20 0xFFFFFFFFFFFFFFFFFFFFFFFFFFFFFFFFFFFFFFFF AND DUP2 PUSH1 0x1 ADD PUSH0 SWAP1 SLOAD SWAP1 PUSH2 0x100 EXP SWAP1 DIV PUSH20 0xFFFFFFFFFFFFFFFFFFFFFFFFFFFFFFFFFFFFFFFF AND PUSH20 0xFFFFFFFFFFFFFFFFFFFFFFFFFFFFFFFFFFFFFFFF AND SUB PUSH2 0x7F3 JUMPI PUSH0 PUSH0 PUSH1 0x40 MLOAD DUP1 PUSH1 0x20 ADD PUSH1 0x40 MSTORE DUP1 PUSH0 DUP2 MSTORE POP SWAP2 SWAP1 SWAP4 POP SWAP4 POP SWAP4 POP POP PUSH2 0x972 JUMP JUMPDEST PUSH0 DUP2 PUSH1 0x2 ADD SLOAD EQ DUP1 PUSH2 0x869 JUMPI POP PUSH1 0x2 DUP7 DUP7 PUSH1 0x40 MLOAD PUSH2 0x812 SWAP3 SWAP2 SWAP1 PUSH2 0x1315 JUMP JUMPDEST SWAP1 DUP2 MSTORE PUSH1 0x20 ADD PUSH1 0x40 MLOAD DUP1 SWAP2 SUB SWAP1 KECCAK256 PUSH0 CALLER PUSH20 0xFFFFFFFFFFFFFFFFFFFFFFFFFFFFFFFFFFFFFFFF AND PUSH20 0xFFFFFFFFFFFFFFFFFFFFFFFFFFFFFFFFFFFFFFFF AND DUP2 MSTORE PUSH1 0x20 ADD SWAP1 DUP2 MSTORE PUSH1 0x20 ADD PUSH0 KECCAK256 PUSH0 SWAP1 SLOAD SWAP1 PUSH2 0x100 EXP SWAP1 DIV PUSH1 0xFF AND JUMPDEST ISZERO PUSH2 0x930 JUMPI DUP1 PUSH0 ADD DUP2 PUSH1 0x1 ADD PUSH0 SWAP1 SLOAD SWAP1 PUSH2 0x100 EXP SWAP1 DIV PUSH20 0xFFFFFFFFFFFFFFFFFFFFFFFFFFFFFFFFFFFFFFFF AND DUP3 PUSH1 0x2 ADD SLOAD DUP3 DUP1 SLOAD PUSH2 0x8A6 SWAP1 PUSH2 0x14F2 JUMP JUMPDEST DUP1 PUSH1 0x1F ADD PUSH1 0x20 DUP1 SWAP2 DIV MUL PUSH1 0x20 ADD PUSH1 0x40 MLOAD SWAP1 DUP2 ADD PUSH1 0x40 MSTORE DUP1 SWAP3 SWAP2 SWAP1 DUP2 DUP2 MSTORE PUSH1 0x20 ADD DUP3 DUP1 SLOAD PUSH2 0x8D2 SWAP1 PUSH2 0x14F2 JUMP JUMPDEST DUP1 ISZERO PUSH2 0x91D JUMPI DUP1 PUSH1 0x1F LT PUSH2 0x8F4 JUMPI PUSH2 0x100 DUP1 DUP4 SLOAD DIV MUL DUP4 MSTORE SWAP2 PUSH1 0x20 ADD SWAP2 PUSH2 0x91D JUMP JUMPDEST DUP3 ADD SWAP2 SWAP1 PUSH0 MSTORE PUSH1 0x20 PUSH0 KECCAK256 SWAP1 JUMPDEST DUP2 SLOAD DUP2 MSTORE SWAP1 PUSH1 0x1 ADD SWAP1 PUSH1 0x20 ADD DUP1 DUP4 GT PUSH2 0x900 JUMPI DUP3 SWAP1 SUB PUSH1 0x1F AND DUP3 ADD SWAP2 JUMPDEST POP POP POP POP POP SWAP3 POP SWAP4 POP SWAP4 POP SWAP4 POP POP PUSH2 0x972 JUMP JUMPDEST DUP1 PUSH1 0x1 ADD PUSH0 SWAP1 SLOAD SWAP1 PUSH2 0x100 EXP SWAP1 DIV PUSH20 0xFFFFFFFFFFFFFFFFFFFFFFFFFFFFFFFFFFFFFFFF AND DUP2 PUSH1 0x2 ADD SLOAD PUSH1 0x40 MLOAD DUP1 PUSH1 0x20 ADD PUSH1 0x40 MSTORE DUP1 PUSH0 DUP2 MSTORE POP SWAP2 SWAP1 SWAP4 POP SWAP4 POP SWAP4 POP POP JUMPDEST SWAP3 POP SWAP3 POP SWAP3 JUMP JUMPDEST PUSH0 SLOAD DUP2 JUMP JUMPDEST PUSH32 0x0 DUP2 JUMP JUMPDEST PUSH0 DUP6 DUP6 SWAP1 POP GT PUSH2 0x9E7 JUMPI PUSH1 0x40 MLOAD PUSH32 0x8C379A000000000000000000000000000000000000000000000000000000000 DUP2 MSTORE PUSH1 0x4 ADD PUSH2 0x9DE SWAP1 PUSH2 0x156C JUMP JUMPDEST PUSH1 0x40 MLOAD DUP1 SWAP2 SUB SWAP1 REVERT JUMPDEST PUSH0 DUP4 DUP4 SWAP1 POP GT PUSH2 0xA2C JUMPI PUSH1 0x40 MLOAD PUSH32 0x8C379A000000000000000000000000000000000000000000000000000000000 DUP2 MSTORE PUSH1 0x4 ADD PUSH2 0xA23 SWAP1 PUSH2 0x15D4 JUMP JUMPDEST PUSH1 0x40 MLOAD DUP1 SWAP2 SUB SWAP1 REVERT JUMPDEST PUSH0 DUP2 EQ DUP1 PUSH2 0xA3A JUMPI POP PUSH0 SLOAD DUP2 GT JUMPDEST PUSH2 0xA79 JUMPI PUSH1 0x40 MLOAD PUSH32 0x8C379A000000000000000000000000000000000000000000000000000000000 DUP2 MSTORE PUSH1 0x4 ADD PUSH2 0xA70 SWAP1 PUSH2 0x163C JUMP JUMPDEST PUSH1 0x40 MLOAD DUP1 SWAP2 SUB SWAP1 REVERT JUMPDEST PUSH0 PUSH1 0x1 DUP5 DUP5 PUSH1 0x40 MLOAD PUSH2 0xA8C SWAP3 SWAP2 SWAP1 PUSH2 0x1315 JUMP JUMPDEST SWAP1 DUP2 MSTORE PUSH1 0x20 ADD PUSH1 0x40 MLOAD DUP1 SWAP2 SUB SWAP1 KECCAK256 SWAP1 POP PUSH0 PUSH20 0xFFFFFFFFFFFFFFFFFFFFFFFFFFFFFFFFFFFFFFFF AND DUP2 PUSH1 0x1 ADD PUSH0 SWAP1 SLOAD SWAP1 PUSH2 0x100 EXP SWAP1 DIV PUSH20 0xFFFFFFFFFFFFFFFFFFFFFFFFFFFFFFFFFFFFFFFF AND PUSH20 0xFFFFFFFFFFFFFFFFFFFFFFFFFFFFFFFFFFFFFFFF AND EQ PUSH2 0xB84 JUMPI CALLER PUSH20 0xFFFFFFFFFFFFFFFFFFFFFFFFFFFFFFFFFFFFFFFF AND DUP2 PUSH1 0x1 ADD PUSH0 SWAP1 SLOAD SWAP1 PUSH2 0x100 EXP SWAP1 DIV PUSH20 0xFFFFFFFFFFFFFFFFFFFFFFFFFFFFFFFFFFFFFFFF AND PUSH20 0xFFFFFFFFFFFFFFFFFFFFFFFFFFFFFFFFFFFFFFFF AND EQ PUSH2 0xB83 JUMPI PUSH1 0x40 MLOAD PUSH32 0x8C379A000000000000000000000000000000000000000000000000000000000 DUP2 MSTORE PUSH1 0x4 ADD PUSH2 0xB7A SWAP1 PUSH2 0x16CA JUMP JUMPDEST PUSH1 0x40 MLOAD DUP1 SWAP2 SUB SWAP1 REVERT JUMPDEST JUMPDEST PUSH1 0x40 MLOAD DUP1 PUSH1 0x60 ADD PUSH1 0x40 MSTORE DUP1 DUP8 DUP8 DUP1 DUP1 PUSH1 0x1F ADD PUSH1 0x20 DUP1 SWAP2 DIV MUL PUSH1 0x20 ADD PUSH1 0x40 MLOAD SWAP1 DUP2 ADD PUSH1 0x40 MSTORE DUP1 SWAP4 SWAP3 SWAP2 SWAP1 DUP2 DUP2 MSTORE PUSH1 0x20 ADD DUP4 DUP4 DUP1 DUP3 DUP5 CALLDATACOPY PUSH0 DUP2 DUP5 ADD MSTORE PUSH1 0x1F NOT PUSH1 0x1F DUP3 ADD AND SWAP1 POP DUP1 DUP4 ADD SWAP3 POP POP POP POP POP POP POP DUP2 MSTORE PUSH1 0x20 ADD CALLER PUSH20 0xFFFFFFFFFFFFFFFFFFFFFFFFFFFFFFFFFFFFFFFF AND DUP2 MSTORE PUSH1 0x20 ADD DUP4 DUP2 MSTORE POP PUSH1 0x1 DUP6 DUP6 PUSH1 0x40 MLOAD PUSH2 0xC0A SWAP3 SWAP2 SWAP1 PUSH2 0x1315 JUMP JUMPDEST SWAP1 DUP2 MSTORE PUSH1 0x20 ADD PUSH1 0x40 MLOAD DUP1 SWAP2 SUB SWAP1 KECCAK256 PUSH0 DUP3 ADD MLOAD DUP2 PUSH0 ADD SWAP1 DUP2 PUSH2 0xC2B SWAP2 SWAP1 PUSH2 0x1888 JUMP JUMPDEST POP PUSH1 0x20 DUP3 ADD MLOAD DUP2 PUSH1 0x1 ADD PUSH0 PUSH2 0x100 EXP DUP2 SLOAD DUP2 PUSH20 0xFFFFFFFFFFFFFFFFFFFFFFFFFFFFFFFFFFFFFFFF MUL NOT AND SWAP1 DUP4 PUSH20 0xFFFFFFFFFFFFFFFFFFFFFFFFFFFFFFFFFFFFFFFF AND MUL OR SWAP1 SSTORE POP PUSH1 0x40 DUP3 ADD MLOAD DUP2 PUSH1 0x2 ADD SSTORE SWAP1 POP POP PUSH1 0x1 PUSH1 0x2 DUP6 DUP6 PUSH1 0x40 MLOAD PUSH2 0xC93 SWAP3 SWAP2 SWAP1 PUSH2 0x1315 JUMP JUMPDEST SWAP1 DUP2 MSTORE PUSH1 0x20 ADD PUSH1 0x40 MLOAD DUP1 SWAP2 SUB SWAP1 KECCAK256 PUSH0 CALLER PUSH20 0xFFFFFFFFFFFFFFFFFFFFFFFFFFFFFFFFFFFFFFFF AND PUSH20 0xFFFFFFFFFFFFFFFFFFFFFFFFFFFFFFFFFFFFFFFF AND DUP2 MSTORE PUSH1 0x20 ADD SWAP1 DUP2 MSTORE PUSH1 0x20 ADD PUSH0 KECCAK256 PUSH0 PUSH2 0x100 EXP DUP2 SLOAD DUP2 PUSH1 0xFF MUL NOT AND SWAP1 DUP4 ISZERO ISZERO MUL OR SWAP1 SSTORE POP CALLER PUSH20 0xFFFFFFFFFFFFFFFFFFFFFFFFFFFFFFFFFFFFFFFF AND DUP5 DUP5 PUSH1 0x40 MLOAD PUSH2 0xD19 SWAP3 SWAP2 SWAP1 PUSH2 0x1315 JUMP JUMPDEST PUSH1 0x40 MLOAD DUP1 SWAP2 SUB SWAP1 KECCAK256 PUSH32 0x9F74DF5EEC72A4C2FB2F83DB8974CFC70535CABA06231E115AB92CF821EE4C12 DUP5 PUSH1 0x40 MLOAD PUSH2 0xD50 SWAP2 SWAP1 PUSH2 0x116D JUMP JUMPDEST PUSH1 0x40 MLOAD DUP1 SWAP2 SUB SWAP1 LOG3 POP POP POP POP POP POP JUMP JUMPDEST PUSH0 PUSH1 0x40 MLOAD SWAP1 POP SWAP1 JUMP JUMPDEST PUSH0 PUSH0 REVERT JUMPDEST PUSH0 PUSH0 REVERT JUMPDEST PUSH0 PUSH0 REVERT JUMPDEST PUSH0 PUSH0 REVERT JUMPDEST PUSH0 PUSH1 0x1F NOT PUSH1 0x1F DUP4 ADD AND SWAP1 POP SWAP2 SWAP1 POP JUMP JUMPDEST PUSH32 0x4E487B7100000000000000000000000000000000000000000000000000000000 PUSH0 MSTORE PUSH1 0x41 PUSH1 0x4 MSTORE PUSH1 0x24 PUSH0 REVERT JUMPDEST PUSH2 0xDBF DUP3 PUSH2 0xD79 JUMP JUMPDEST DUP2 ADD DUP2 DUP2 LT PUSH8 0xFFFFFFFFFFFFFFFF DUP3 GT OR ISZERO PUSH2 0xDDE JUMPI PUSH2 0xDDD PUSH2 0xD89 JUMP JUMPDEST JUMPDEST DUP1 PUSH1 0x40 MSTORE POP POP POP JUMP JUMPDEST PUSH0 PUSH2 0xDF0 PUSH2 0xD60 JUMP JUMPDEST SWAP1 POP PUSH2 0xDFC DUP3 DUP3 PUSH2 0xDB6 JUMP JUMPDEST SWAP2 SWAP1 POP JUMP JUMPDEST PUSH0 PUSH8 0xFFFFFFFFFFFFFFFF DUP3 GT ISZERO PUSH2 0xE1B JUMPI PUSH2 0xE1A PUSH2 0xD89 JUMP JUMPDEST JUMPDEST PUSH2 0xE24 DUP3 PUSH2 0xD79 JUMP JUMPDEST SWAP1 POP PUSH1 0x20 DUP2 ADD SWAP1 POP SWAP2 SWAP1 POP JUMP JUMPDEST DUP3 DUP2 DUP4 CALLDATACOPY PUSH0 DUP4 DUP4 ADD MSTORE POP POP POP JUMP JUMPDEST PUSH0 PUSH2 0xE51 PUSH2 0xE4C DUP5 PUSH2 0xE01 JUMP JUMPDEST PUSH2 0xDE7 JUMP JUMPDEST SWAP1 POP DUP3 DUP2 MSTORE PUSH1 0x20 DUP2 ADD DUP5 DUP5 DUP5 ADD GT ISZERO PUSH2 0xE6D JUMPI PUSH2 0xE6C PUSH2 0xD75 JUMP JUMPDEST JUMPDEST PUSH2 0xE78 DUP5 DUP3 DUP6 PUSH2 0xE31 JUMP JUMPDEST POP SWAP4 SWAP3 POP POP POP JUMP JUMPDEST PUSH0 DUP3 PUSH1 0x1F DUP4 ADD SLT PUSH2 0xE94 JUMPI PUSH2 0xE93 PUSH2 0xD71 JUMP JUMPDEST JUMPDEST DUP2 CALLDATALOAD PUSH2 0xEA4 DUP5 DUP3 PUSH1 0x20 DUP7 ADD PUSH2 0xE3F JUMP JUMPDEST SWAP2 POP POP SWAP3 SWAP2 POP POP JUMP JUMPDEST PUSH0 PUSH20 0xFFFFFFFFFFFFFFFFFFFFFFFFFFFFFFFFFFFFFFFF DUP3 AND SWAP1 POP SWAP2 SWAP1 POP JUMP JUMPDEST PUSH0 PUSH2 0xED6 DUP3 PUSH2 0xEAD JUMP JUMPDEST SWAP1 POP SWAP2 SWAP1 POP JUMP JUMPDEST PUSH2 0xEE6 DUP2 PUSH2 0xECC JUMP JUMPDEST DUP2 EQ PUSH2 0xEF0 JUMPI PUSH0 PUSH0 REVERT JUMPDEST POP JUMP JUMPDEST PUSH0 DUP2 CALLDATALOAD SWAP1 POP PUSH2 0xF01 DUP2 PUSH2 0xEDD JUMP JUMPDEST SWAP3 SWAP2 POP POP JUMP JUMPDEST PUSH0 PUSH0 PUSH1 0x40 DUP4 DUP6 SUB SLT ISZERO PUSH2 0xF1D JUMPI PUSH2 0xF1C PUSH2 0xD69 JUMP JUMPDEST JUMPDEST PUSH0 DUP4 ADD CALLDATALOAD PUSH8 0xFFFFFFFFFFFFFFFF DUP2 GT ISZERO PUSH2 0xF3A JUMPI PUSH2 0xF39 PUSH2 0xD6D JUMP JUMPDEST JUMPDEST PUSH2 0xF46 DUP6 DUP3 DUP7 ADD PUSH2 0xE80 JUMP JUMPDEST SWAP3 POP POP PUSH1 0x20 PUSH2 0xF57 DUP6 DUP3 DUP7 ADD PUSH2 0xEF3 JUMP JUMPDEST SWAP2 POP POP SWAP3 POP SWAP3 SWAP1 POP JUMP JUMPDEST PUSH0 DUP2 ISZERO ISZERO SWAP1 POP SWAP2 SWAP1 POP JUMP JUMPDEST PUSH2 0xF75 DUP2 PUSH2 0xF61 JUMP JUMPDEST DUP3 MSTORE POP POP JUMP JUMPDEST PUSH0 PUSH1 0x20 DUP3 ADD SWAP1 POP PUSH2 0xF8E PUSH0 DUP4 ADD DUP5 PUSH2 0xF6C JUMP JUMPDEST SWAP3 SWAP2 POP POP JUMP JUMPDEST PUSH0 DUP2 SWAP1 POP SWAP2 SWAP1 POP JUMP JUMPDEST PUSH2 0xFA6 DUP2 PUSH2 0xF94 JUMP JUMPDEST DUP2 EQ PUSH2 0xFB0 JUMPI PUSH0 PUSH0 REVERT JUMPDEST POP JUMP JUMPDEST PUSH0 DUP2 CALLDATALOAD SWAP1 POP PUSH2 0xFC1 DUP2 PUSH2 0xF9D JUMP JUMPDEST SWAP3 SWAP2 POP POP JUMP JUMPDEST PUSH0 PUSH1 0x20 DUP3 DUP5 SUB SLT ISZERO PUSH2 0xFDC JUMPI PUSH2 0xFDB PUSH2 0xD69 JUMP JUMPDEST JUMPDEST PUSH0 PUSH2 0xFE9 DUP5 DUP3 DUP6 ADD PUSH2 0xFB3 JUMP JUMPDEST SWAP2 POP POP SWAP3 SWAP2 POP POP JUMP JUMPDEST PUSH0 PUSH0 REVERT JUMPDEST PUSH0 PUSH0 REVERT JUMPDEST PUSH0 PUSH0 DUP4 PUSH1 0x1F DUP5 ADD SLT PUSH2 0x100F JUMPI PUSH2 0x100E PUSH2 0xD71 JUMP JUMPDEST JUMPDEST DUP3 CALLDATALOAD SWAP1 POP PUSH8 0xFFFFFFFFFFFFFFFF DUP2 GT ISZERO PUSH2 0x102C JUMPI PUSH2 0x102B PUSH2 0xFF2 JUMP JUMPDEST JUMPDEST PUSH1 0x20 DUP4 ADD SWAP2 POP DUP4 PUSH1 0x1 DUP3 MUL DUP4 ADD GT ISZERO PUSH2 0x1048 JUMPI PUSH2 0x1047 PUSH2 0xFF6 JUMP JUMPDEST JUMPDEST SWAP3 POP SWAP3 SWAP1 POP JUMP JUMPDEST PUSH0 PUSH0 PUSH1 0x20 DUP4 DUP6 SUB SLT ISZERO PUSH2 0x1065 JUMPI PUSH2 0x1064 PUSH2 0xD69 JUMP JUMPDEST JUMPDEST PUSH0 DUP4 ADD CALLDATALOAD PUSH8 0xFFFFFFFFFFFFFFFF DUP2 GT ISZERO PUSH2 0x1082 JUMPI PUSH2 0x1081 PUSH2 0xD6D JUMP JUMPDEST JUMPDEST PUSH2 0x108E DUP6 DUP3 DUP7 ADD PUSH2 0xFFA JUMP JUMPDEST SWAP3 POP SWAP3 POP POP SWAP3 POP SWAP3 SWAP1 POP JUMP JUMPDEST PUSH2 0x10A3 DUP2 PUSH2 0xECC JUMP JUMPDEST DUP3 MSTORE POP POP JUMP JUMPDEST PUSH0 PUSH1 0x20 DUP3 ADD SWAP1 POP PUSH2 0x10BC PUSH0 DUP4 ADD DUP5 PUSH2 0x109A JUMP JUMPDEST SWAP3 SWAP2 POP POP JUMP JUMPDEST PUSH0 DUP2 MLOAD SWAP1 POP SWAP2 SWAP1 POP JUMP JUMPDEST PUSH0 DUP3 DUP3 MSTORE PUSH1 0x20 DUP3 ADD SWAP1 POP SWAP3 SWAP2 POP POP JUMP JUMPDEST DUP3 DUP2 DUP4 MCOPY PUSH0 DUP4 DUP4 ADD MSTORE POP POP POP JUMP JUMPDEST PUSH0 PUSH2 0x10F4 DUP3 PUSH2 0x10C2 JUMP JUMPDEST PUSH2 0x10FE DUP2 DUP6 PUSH2 0x10CC JUMP JUMPDEST SWAP4 POP PUSH2 0x110E DUP2 DUP6 PUSH1 0x20 DUP7 ADD PUSH2 0x10DC JUMP JUMPDEST PUSH2 0x1117 DUP2 PUSH2 0xD79 JUMP JUMPDEST DUP5 ADD SWAP2 POP POP SWAP3 SWAP2 POP POP JUMP JUMPDEST PUSH2 0x112B DUP2 PUSH2 0xF94 JUMP JUMPDEST DUP3 MSTORE POP POP JUMP JUMPDEST PUSH0 PUSH1 0x60 DUP3 ADD SWAP1 POP DUP2 DUP2 SUB PUSH0 DUP4 ADD MSTORE PUSH2 0x1149 DUP2 DUP7 PUSH2 0x10EA JUMP JUMPDEST SWAP1 POP PUSH2 0x1158 PUSH1 0x20 DUP4 ADD DUP6 PUSH2 0x109A JUMP JUMPDEST PUSH2 0x1165 PUSH1 0x40 DUP4 ADD DUP5 PUSH2 0x1122 JUMP JUMPDEST SWAP5 SWAP4 POP POP POP POP JUMP JUMPDEST PUSH0 PUSH1 0x20 DUP3 ADD SWAP1 POP PUSH2 0x1180 PUSH0 DUP4 ADD DUP5 PUSH2 0x1122 JUMP JUMPDEST SWAP3 SWAP2 POP POP JUMP JUMPDEST PUSH0 PUSH0 PUSH0 PUSH0 PUSH0 PUSH1 0x60 DUP7 DUP9 SUB SLT ISZERO PUSH2 0x119F JUMPI PUSH2 0x119E PUSH2 0xD69 JUMP JUMPDEST JUMPDEST PUSH0 DUP7 ADD CALLDATALOAD PUSH8 0xFFFFFFFFFFFFFFFF DUP2 GT ISZERO PUSH2 0x11BC JUMPI PUSH2 0x11BB PUSH2 0xD6D JUMP JUMPDEST JUMPDEST PUSH2 0x11C8 DUP9 DUP3 DUP10 ADD PUSH2 0xFFA JUMP JUMPDEST SWAP6 POP SWAP6 POP POP PUSH1 0x20 DUP7 ADD CALLDATALOAD PUSH8 0xFFFFFFFFFFFFFFFF DUP2 GT ISZERO PUSH2 0x11EB JUMPI PUSH2 0x11EA PUSH2 0xD6D JUMP JUMPDEST JUMPDEST PUSH2 0x11F7 DUP9 DUP3 DUP10 ADD PUSH2 0xFFA JUMP JUMPDEST SWAP4 POP SWAP4 POP POP PUSH1 0x40 PUSH2 0x120A DUP9 DUP3 DUP10 ADD PUSH2 0xFB3 JUMP JUMPDEST SWAP2 POP POP SWAP3 SWAP6 POP SWAP3 SWAP6 SWAP1 SWAP4 POP JUMP JUMPDEST PUSH32 0x4F6E6C7920706C6174666F726D206F776E657200000000000000000000000000 PUSH0 DUP3 ADD MSTORE POP JUMP JUMPDEST PUSH0 PUSH2 0x124B PUSH1 0x13 DUP4 PUSH2 0x10CC JUMP JUMPDEST SWAP2 POP PUSH2 0x1256 DUP3 PUSH2 0x1217 JUMP JUMPDEST PUSH1 0x20 DUP3 ADD SWAP1 POP SWAP2 SWAP1 POP JUMP JUMPDEST PUSH0 PUSH1 0x20 DUP3 ADD SWAP1 POP DUP2 DUP2 SUB PUSH0 DUP4 ADD MSTORE PUSH2 0x1278 DUP2 PUSH2 0x123F JUMP JUMPDEST SWAP1 POP SWAP2 SWAP1 POP JUMP JUMPDEST PUSH32 0x596F7520646F206E6F742068617665207065726D697373696F6E000000000000 PUSH0 DUP3 ADD MSTORE POP JUMP JUMPDEST PUSH0 PUSH2 0x12B3 PUSH1 0x1A DUP4 PUSH2 0x10CC JUMP JUMPDEST SWAP2 POP PUSH2 0x12BE DUP3 PUSH2 0x127F JUMP JUMPDEST PUSH1 0x20 DUP3 ADD SWAP1 POP SWAP2 SWAP1 POP JUMP JUMPDEST PUSH0 PUSH1 0x20 DUP3 ADD SWAP1 POP DUP2 DUP2 SUB PUSH0 DUP4 ADD MSTORE PUSH2 0x12E0 DUP2 PUSH2 0x12A7 JUMP JUMPDEST SWAP1 POP SWAP2 SWAP1 POP JUMP JUMPDEST PUSH0 DUP2 SWAP1 POP SWAP3 SWAP2 POP POP JUMP JUMPDEST PUSH0 PUSH2 0x12FC DUP4 DUP6 PUSH2 0x12E7 JUMP JUMPDEST SWAP4 POP PUSH2 0x1309 DUP4 DUP6 DUP5 PUSH2 0xE31 JUMP JUMPDEST DUP3 DUP5 ADD SWAP1 POP SWAP4 SWAP3 POP POP POP JUMP JUMPDEST PUSH0 PUSH2 0x1321 DUP3 DUP5 DUP7 PUSH2 0x12F1 JUMP JUMPDEST SWAP2 POP DUP2 SWAP1 POP SWAP4 SWAP3 POP POP POP JUMP JUMPDEST PUSH32 0x4C696E6B206E6F7420666F756E64000000000000000000000000000000000000 PUSH0 DUP3 ADD MSTORE POP JUMP JUMPDEST PUSH0 PUSH2 0x1361 PUSH1 0xE DUP4 PUSH2 0x10CC JUMP JUMPDEST SWAP2 POP PUSH2 0x136C DUP3 PUSH2 0x132D JUMP JUMPDEST PUSH1 0x20 DUP3 ADD SWAP1 POP SWAP2 SWAP1 POP JUMP JUMPDEST PUSH0 PUSH1 0x20 DUP3 ADD SWAP1 POP DUP2 DUP2 SUB PUSH0 DUP4 ADD MSTORE PUSH2 0x138E DUP2 PUSH2 0x1355 JUMP JUMPDEST SWAP1 POP SWAP2 SWAP1 POP JUMP JUMPDEST PUSH32 0x41636365737320616C7265616479206772616E74656400000000000000000000 PUSH0 DUP3 ADD MSTORE POP JUMP JUMPDEST PUSH0 PUSH2 0x13C9 PUSH1 0x16 DUP4 PUSH2 0x10CC JUMP JUMPDEST SWAP2 POP PUSH2 0x13D4 DUP3 PUSH2 0x1395 JUMP JUMPDEST PUSH1 0x20 DUP3 ADD SWAP1 POP SWAP2 SWAP1 POP JUMP JUMPDEST PUSH0 PUSH1 0x20 DUP3 ADD SWAP1 POP DUP2 DUP2 SUB PUSH0 DUP4 ADD MSTORE PUSH2 0x13F6 DUP2 PUSH2 0x13BD JUMP JUMPDEST SWAP1 POP SWAP2 SWAP1 POP JUMP JUMPDEST PUSH32 0x496E73756666696369656E74207061796D656E74000000000000000000000000 PUSH0 DUP3 ADD MSTORE POP JUMP JUMPDEST PUSH0 PUSH2 0x1431 PUSH1 0x14 DUP4 PUSH2 0x10CC JUMP JUMPDEST SWAP2 POP PUSH2 0x143C DUP3 PUSH2 0x13FD JUMP JUMPDEST PUSH1 0x20 DUP3 ADD SWAP1 POP SWAP2 SWAP1 POP JUMP JUMPDEST PUSH0 PUSH1 0x20 DUP3 ADD SWAP1 POP DUP2 DUP2 SUB PUSH0 DUP4 ADD MSTORE PUSH2 0x145E DUP2 PUSH2 0x1425 JUMP JUMPDEST SWAP1 POP SWAP2 SWAP1 POP JUMP JUMPDEST PUSH32 0x4E487B7100000000000000000000000000000000000000000000000000000000 PUSH0 MSTORE PUSH1 0x11 PUSH1 0x4 MSTORE PUSH1 0x24 PUSH0 REVERT JUMPDEST PUSH0 PUSH2 0x149C DUP3 PUSH2 0xF94 JUMP JUMPDEST SWAP2 POP PUSH2 0x14A7 DUP4 PUSH2 0xF94 JUMP JUMPDEST SWAP3 POP DUP3 DUP3 SUB SWAP1 POP DUP2 DUP2 GT ISZERO PUSH2 0x14BF JUMPI PUSH2 0x14BE PUSH2 0x1465 JUMP JUMPDEST JUMPDEST SWAP3 SWAP2 POP POP JUMP JUMPDEST PUSH32 0x4E487B7100000000000000000000000000000000000000000000000000000000 PUSH0 MSTORE PUSH1 0x22 PUSH1 0x4 MSTORE PUSH1 0x24 PUSH0 REVERT JUMPDEST PUSH0 PUSH1 0x2 DUP3 DIV SWAP1 POP PUSH1 0x1 DUP3 AND DUP1 PUSH2 0x1509 JUMPI PUSH1 0x7F DUP3 AND SWAP2 POP JUMPDEST PUSH1 0x20 DUP3 LT DUP2 SUB PUSH2 0x151C JUMPI PUSH2 0x151B PUSH2 0x14C5 JUMP JUMPDEST JUMPDEST POP SWAP2 SWAP1 POP JUMP JUMPDEST PUSH32 0x55524C2072657175697265640000000000000000000000000000000000000000 PUSH0 DUP3 ADD MSTORE POP JUMP JUMPDEST PUSH0 PUSH2 0x1556 PUSH1 0xC DUP4 PUSH2 0x10CC JUMP JUMPDEST SWAP2 POP PUSH2 0x1561 DUP3 PUSH2 0x1522 JUMP JUMPDEST PUSH1 0x20 DUP3 ADD SWAP1 POP SWAP2 SWAP1 POP JUMP JUMPDEST PUSH0 PUSH1 0x20 DUP3 ADD SWAP1 POP DUP2 DUP2 SUB PUSH0 DUP4 ADD MSTORE PUSH2 0x1583 DUP2 PUSH2 0x154A JUMP JUMPDEST SWAP1 POP SWAP2 SWAP1 POP JUMP JUMPDEST PUSH32 0x4C696E6B20494420726571756972656400000000000000000000000000000000 PUSH0 DUP3 ADD MSTORE POP JUMP JUMPDEST PUSH0 PUSH2 0x15BE PUSH1 0x10 DUP4 PUSH2 0x10CC JUMP JUMPDEST SWAP2 POP PUSH2 0x15C9 DUP3 PUSH2 0x158A JUMP JUMPDEST PUSH1 0x20 DUP3 ADD SWAP1 POP SWAP2 SWAP1 POP JUMP JUMPDEST PUSH0 PUSH1 0x20 DUP3 ADD SWAP1 POP DUP2 DUP2 SUB PUSH0 DUP4 ADD MSTORE PUSH2 0x15EB DUP2 PUSH2 0x15B2 JUMP JUMPDEST SWAP1 POP SWAP2 SWAP1 POP JUMP JUMPDEST PUSH32 0x46656520746F6F206C6F77000000000000000000000000000000000000000000 PUSH0 DUP3 ADD MSTORE POP JUMP JUMPDEST PUSH0 PUSH2 0x1626 PUSH1 0xB DUP4 PUSH2 0x10CC JUMP JUMPDEST SWAP2 POP PUSH2 0x1631 DUP3 PUSH2 0x15F2 JUMP JUMPDEST PUSH1 0x20 DUP3 ADD SWAP1 POP SWAP2 SWAP1 POP JUMP JUMPDEST PUSH0 PUSH1 0x20 DUP3 ADD SWAP1 POP DUP2 DUP2 SUB PUSH0 DUP4 ADD MSTORE PUSH2 0x1653 DUP2 PUSH2 0x161A JUMP JUMPDEST SWAP1 POP SWAP2 SWAP1 POP JUMP JUMPDEST PUSH32 0x4C696E6B20494420616C7265616479206F776E656420627920616E6F74686572 PUSH0 DUP3 ADD MSTORE PUSH32 0x2075736572000000000000000000000000000000000000000000000000000000 PUSH1 0x20 DUP3 ADD MSTORE POP JUMP JUMPDEST PUSH0 PUSH2 0x16B4 PUSH1 0x25 DUP4 PUSH2 0x10CC JUMP JUMPDEST SWAP2 POP PUSH2 0x16BF DUP3 PUSH2 0x165A JUMP JUMPDEST PUSH1 0x40 DUP3 ADD SWAP1 POP SWAP2 SWAP1 POP JUMP JUMPDEST PUSH0 PUSH1 0x20 DUP3 ADD SWAP1 POP DUP2 DUP2 SUB PUSH0 DUP4 ADD MSTORE PUSH2 0x16E1 DUP2 PUSH2 0x16A8 JUMP JUMPDEST SWAP1 POP SWAP2 SWAP1 POP JUMP JUMPDEST PUSH0 DUP2 SWAP1 POP DUP2 PUSH0 MSTORE PUSH1 0x20 PUSH0 KECCAK256 SWAP1 POP SWAP2 SWAP1 POP JUMP JUMPDEST PUSH0 PUSH1 0x20 PUSH1 0x1F DUP4 ADD DIV SWAP1 POP SWAP2 SWAP1 POP JUMP JUMPDEST PUSH0 DUP3 DUP3 SHL SWAP1 POP SWAP3 SWAP2 POP POP JUMP JUMPDEST PUSH0 PUSH1 0x8 DUP4 MUL PUSH2 0x1744 PUSH32 0xFFFFFFFFFFFFFFFFFFFFFFFFFFFFFFFFFFFFFFFFFFFFFFFFFFFFFFFFFFFFFFFF DUP3 PUSH2 0x1709 JUMP JUMPDEST PUSH2 0x174E DUP7 DUP4 PUSH2 0x1709 JUMP JUMPDEST SWAP6 POP DUP1 NOT DUP5 AND SWAP4 POP DUP1 DUP7 AND DUP5 OR SWAP3 POP POP POP SWAP4 SWAP3 POP POP POP JUMP JUMPDEST PUSH0 DUP2 SWAP1 POP SWAP2 SWAP1 POP JUMP JUMPDEST PUSH0 PUSH2 0x1789 PUSH2 0x1784 PUSH2 0x177F DUP5 PUSH2 0xF94 JUMP JUMPDEST PUSH2 0x1766 JUMP JUMPDEST PUSH2 0xF94 JUMP JUMPDEST SWAP1 POP SWAP2 SWAP1 POP JUMP JUMPDEST PUSH0 DUP2 SWAP1 POP SWAP2 SWAP1 POP JUMP JUMPDEST PUSH2 0x17A2 DUP4 PUSH2 0x176F JUMP JUMPDEST PUSH2 0x17B6 PUSH2 0x17AE DUP3 PUSH2 0x1790 JUMP JUMPDEST DUP5 DUP5 SLOAD PUSH2 0x1715 JUMP JUMPDEST DUP3 SSTORE POP POP POP POP JUMP JUMPDEST PUSH0 PUSH0 SWAP1 POP SWAP1 JUMP JUMPDEST PUSH2 0x17CD PUSH2 0x17BE JUMP JUMPDEST PUSH2 0x17D8 DUP2 DUP5 DUP5 PUSH2 0x1799 JUMP JUMPDEST POP POP POP JUMP JUMPDEST JUMPDEST DUP2 DUP2 LT ISZERO PUSH2 0x17FB JUMPI PUSH2 0x17F0 PUSH0 DUP3 PUSH2 0x17C5 JUMP JUMPDEST PUSH1 0x1 DUP2 ADD SWAP1 POP PUSH2 0x17DE JUMP JUMPDEST POP POP JUMP JUMPDEST PUSH1 0x1F DUP3 GT ISZERO PUSH2 0x1840 JUMPI PUSH2 0x1811 DUP2 PUSH2 0x16E8 JUMP JUMPDEST PUSH2 0x181A DUP5 PUSH2 0x16FA JUMP JUMPDEST DUP2 ADD PUSH1 0x20 DUP6 LT ISZERO PUSH2 0x1829 JUMPI DUP2 SWAP1 POP JUMPDEST PUSH2 0x183D PUSH2 0x1835 DUP6 PUSH2 0x16FA JUMP JUMPDEST DUP4 ADD DUP3 PUSH2 0x17DD JUMP JUMPDEST POP POP JUMPDEST POP POP POP JUMP JUMPDEST PUSH0 DUP3 DUP3 SHR SWAP1 POP SWAP3 SWAP2 POP POP JUMP JUMPDEST PUSH0 PUSH2 0x1860 PUSH0 NOT DUP5 PUSH1 0x8 MUL PUSH2 0x1845 JUMP JUMPDEST NOT DUP1 DUP4 AND SWAP2 POP POP SWAP3 SWAP2 POP POP JUMP JUMPDEST PUSH0 PUSH2 0x1878 DUP4 DUP4 PUSH2 0x1851 JUMP JUMPDEST SWAP2 POP DUP3 PUSH1 0x2 MUL DUP3 OR SWAP1 POP SWAP3 SWAP2 POP POP JUMP JUMPDEST PUSH2 0x1891 DUP3 PUSH2 0x10C2 JUMP JUMPDEST PUSH8 0xFFFFFFFFFFFFFFFF DUP2 GT ISZERO PUSH2 0x18AA JUMPI PUSH2 0x18A9 PUSH2 0xD89 JUMP JUMPDEST JUMPDEST PUSH2 0x18B4 DUP3 SLOAD PUSH2 0x14F2 JUMP JUMPDEST PUSH2 0x18BF DUP3 DUP3 DUP6 PUSH2 0x17FF JUMP JUMPDEST PUSH0 PUSH1 0x20 SWAP1 POP PUSH1 0x1F DUP4 GT PUSH1 0x1 DUP2 EQ PUSH2 0x18F0 JUMPI PUSH0 DUP5 ISZERO PUSH2 0x18DE JUMPI DUP3 DUP8 ADD MLOAD SWAP1 POP JUMPDEST PUSH2 0x18E8 DUP6 DUP3 PUSH2 0x186D JUMP JUMPDEST DUP7 SSTORE POP PUSH2 0x194F JUMP JUMPDEST PUSH1 0x1F NOT DUP5 AND PUSH2 0x18FE DUP7 PUSH2 0x16E8 JUMP JUMPDEST PUSH0 JUMPDEST DUP3 DUP2 LT ISZERO PUSH2 0x1925 JUMPI DUP5 DUP10 ADD MLOAD DUP3 SSTORE PUSH1 0x1 DUP3 ADD SWAP2 POP PUSH1 0x20 DUP6 ADD SWAP5 POP PUSH1 0x20 DUP2 ADD SWAP1 POP PUSH2 0x1900 JUMP JUMPDEST DUP7 DUP4 LT ISZERO PUSH2 0x1942 JUMPI DUP5 DUP10 ADD MLOAD PUSH2 0x193E PUSH1 0x1F DUP10 AND DUP3 PUSH2 0x1851 JUMP JUMPDEST DUP4 SSTORE POP JUMPDEST PUSH1 0x1 PUSH1 0x2 DUP9 MUL ADD DUP9 SSTORE POP POP POP JUMPDEST POP POP POP POP POP POP JUMP INVALID LOG2 PUSH5 0x6970667358 0x22 SLT KECCAK256 0xD0 0xBA CODECOPY 0xE 0xCA 0xEB 0xA9 RETURNDATASIZE SSTORE 0xD3 0xDE MSTORE 0xAA MULMOD 0x4D MOD TIMESTAMP NOT 0xDF ADDMOD RJUMP 0xF298 LOG3 0xCE EXTCODEHASH PUSH31 0x53EFC66BF464736F6C634300081E0033000000000000000000000000000000 "
				},
				"gasEstimates": {
					"creation": {
						"codeDepositCost": "1308200",
						"executionCost": "infinite",
						"totalCost": "infinite"
					},
					"external": {
						"addLink(string,string,uint256)": "infinite",
						"admin()": "infinite",
						"commission()": "2468",
						"getLink(string)": "infinite",
						"hasAccess(string,address)": "infinite",
						"payLink(string)": "infinite",
						"platformOwner()": "infinite",
						"setCommission(uint256)": "infinite",
						"withdraw()": "infinite"
					}
				},
				"methodIdentifiers": {
					"addLink(string,string,uint256)": "fc5f2b78",
					"admin()": "f851a440",
					"commission()": "e1489191",
					"getLink(string)": "7476452a",
					"hasAccess(string,address)": "13bd20e2",
					"payLink(string)": "429cad86",
					"platformOwner()": "4df8ccb1",
					"setCommission(uint256)": "355e6b43",
					"withdraw()": "3ccfd60b"
				}
			},
			"storageLayout": {
				"storage": [
					{
						"astId": 11,
						"contract": "smart-contract/LinkPay.sol:LinkPay",
						"label": "commission",
						"offset": 0,
						"slot": "0",
						"type": "t_uint256"
					},
					{
						"astId": 20,
						"contract": "smart-contract/LinkPay.sol:LinkPay",
						"label": "links",
						"offset": 0,
						"slot": "1",
						"type": "t_mapping(t_string_memory_ptr,t_struct(Link)8_storage)"
					},
					{
						"astId": 26,
						"contract": "smart-contract/LinkPay.sol:LinkPay",
						"label": "hasAccess",
						"offset": 0,
						"slot": "2",
						"type": "t_mapping(t_string_memory_ptr,t_mapping(t_address,t_bool))"
					}
				],
				"types": {
					"t_address": {
						"encoding": "inplace",
						"label": "address",
						"numberOfBytes": "20"
					},
					"t_bool": {
						"encoding": "inplace",
						"label": "bool",
						"numberOfBytes": "1"
					},
					"t_mapping(t_address,t_bool)": {
						"encoding": "mapping",
						"key": "t_address",
						"label": "mapping(address => bool)",
						"numberOfBytes": "32",
						"value": "t_bool"
					},
					"t_mapping(t_string_memory_ptr,t_mapping(t_address,t_bool))": {
						"encoding": "mapping",
						"key": "t_string_memory_ptr",
						"label": "mapping(string => mapping(address => bool))",
						"numberOfBytes": "32",
						"value": "t_mapping(t_address,t_bool)"
					},
					"t_mapping(t_string_memory_ptr,t_struct(Link)8_storage)": {
						"encoding": "mapping",
						"key": "t_string_memory_ptr",
						"label": "mapping(string => struct LinkPay.Link)",
						"numberOfBytes": "32",
						"value": "t_struct(Link)8_storage"
					},
					"t_string_memory_ptr": {
						"encoding": "bytes",
						"label": "string",
						"numberOfBytes": "32"
					},
					"t_string_storage": {
						"encoding": "bytes",
						"label": "string",
						"numberOfBytes": "32"
					},
					"t_struct(Link)8_storage": {
						"encoding": "inplace",
						"label": "struct LinkPay.Link",
						"members": [
							{
								"astId": 3,
								"contract": "smart-contract/LinkPay.sol:LinkPay",
								"label": "url",
								"offset": 0,
								"slot": "0",
								"type": "t_string_storage"
							},
							{
								"astId": 5,
								"contract": "smart-contract/LinkPay.sol:LinkPay",
								"label": "owner",
								"offset": 0,
								"slot": "1",
								"type": "t_address"
							},
							{
								"astId": 7,
								"contract": "smart-contract/LinkPay.sol:LinkPay",
								"label": "fee",
								"offset": 0,
								"slot": "2",
								"type": "t_uint256"
							}
						],
						"numberOfBytes": "96"
					},
					"t_uint256": {
						"encoding": "inplace",
						"label": "uint256",
						"numberOfBytes": "32"
					}
				}
			},
			"userdoc": {
				"kind": "user",
				"methods": {},
				"version": 1
			}
		}
	}
}